:100000000C942B080C94C7510C94F4510C9421526D
:100010000C9453080C9453080C9453080C945308F4
:100020000C94010D0C9453080C9453080C94530831
:100030000C9453080C9453080C9453080C945308D4
:100040000C9453080C9453080C944E520C9453087F
:100050000C940D560C9485560C9453080C9453082C
:100060000C9453080C9453080C941E6F0C94530872
:100070000C9441560C94C0560C9453084E54502086
:1000800053796E63696E672E2E2E005D0D0A002C6B
:10009000002C00222C002C22002C002C005B002EB7
:1000A00074787400302E2054657374202831206DCC
:1000B000696E29002E20002000486F6C64204233B6
:1000C00020746F20737461727400436C69636B20D9
:1000D000423320746F206C6973740052756E206116
:1000E0002050726F6772616D3A00286C73776329D4
:1000F0000028656970290020286F73697029003A0B
:1001000000286777697029002020007273007264EC
:1001100000776C00666C000022726573756C742247
:100120003A24447D0022726573756C74223A24442B
:100130007D00244600222446223A24447D007D008E
:100140002C2273746174696F6E73223A7B002C22C7
:10015000737461747573223A7B002C226F7074691A
:100160006F6E73223A7B002C2270726F6772616D22
:1001700073223A7B002273657474696E6773223A46
:100180007B00646179005D002453002C005B0074E7
:1001900079706500656E64007374617274006869DB
:1001A0007374007400656E00736964005D2C226EC8
:1001B00073746174696F6E73223A24447D002C005D
:1001C00024440022736E223A5B00637077006E70E5
:1001D000770077746F007474740069666B657900DA
:1001E00077746B6579006C6F6300777370006A7366
:1001F0007000726500726400656E00726274007255
:10020000736E003C736372697074207372633D2275
:1002100024452F686F6D652E6A73223E3C2F7363F1
:10022000726970743E0A3C2F626F64793E0A3C2FFB
:1002300068746D6C3E00766172207665723D244470
:100240002C697061733D24443B3C2F736372697069
:10025000743E0A003C21444F435459504520687471
:100260006D6C3E0A3C68746D6C3E0A3C6865616466
:100270003E0A24463C2F686561643E0A3C626F6416
:10028000793E0A3C7363726970743E007D002C22D3
:1002900077746F223A7B24537D005D002C005B2431
:1002A000442C244C2C244C5D00305D2C2270732295
:1002B0003A5B0024442C00227362697473223A5B17
:1002C0000022666C637274223A244C2C22666C778E
:1002D0007274223A24442C002264657674223A24F3
:1002E0004C2C226E627264223A24442C22656E22C7
:1002F0003A24442C227264223A24442C227273221F
:100300003A24442C2272647374223A244C2C226CBA
:100310006F63223A222445222C2277746B6579225E
:100320003A222445222C2273756E72697365223A33
:1003300024442C2273756E736574223A24442C2253
:10034000656970223A244C2C226C7763223A244C43
:100350002C226C737763223A244C2C226C72756EBB
:10036000223A5B24442C24442C24442C244C5D2C21
:10037000003C666F726D206E616D653D6F66206139
:100380006374696F6E3D6375206D6574686F643D5D
:100390006765743E3C7461626C652063656C6C7368
:1003A000706163696E673D223132223E3C74723E59
:1003B0003C74643E3C623E4A61766153637269708C
:1003C000743C2F623E3A3C2F74643E3C74643E3C65
:1003D000696E70757420747970653D7465787420E9
:1003E00073697A653D3430206D61786C656E677431
:1003F000683D34302076616C75653D2224452220AD
:100400006E616D653D6A73703E3C2F74643E3C2F97
:1004100074723E3C74723E3C74643E446566617521
:100420006C743A3C2F74643E3C74643E24533C2FFD
:1004300074643E3C2F74723E3C74723E3C74643E65
:100440003C623E576561746865723C2F623E3A3C7F
:100450002F74643E3C74643E3C696E707574207405
:100460007970653D746578742073697A653D3430C0
:10047000206D61786C656E6774683D3430207661FC
:100480006C75653D22244522206E616D653D777354
:10049000703E3C2F74643E3C2F74723E3C74723E3E
:1004A0003C74643E44656661756C743A3C2F7464B8
:1004B0003E3C74643E24533C2F74643E3C2F747263
:1004C0003E3C74723E3C74643E3C623E50617373C9
:1004D000776F72643C2F623E3A3C2F74643E3C74EA
:1004E000643E3C696E70757420747970653D70610E
:1004F0007373776F72642073697A653D3332206E4F
:10050000616D653D70773E203C696E707574207436
:100510007970653D7375626D69743E3C2F74643EFD
:100520003C2F74723E3C2F7461626C653E3C2F66BA
:100530006F726D3E3C736372697074207372633DB9
:1005400068747470733A2F2F75692E6F70656E73AF
:100550007072696E6B6C65722E636F6D2F6A732F8C
:100560006861736865722E6A733E3C2F73637269AB
:1005700070743E005D7D00225D00225D2C002453DE
:1005800000244C5D2C2200244C2C0024445D2C5B68
:100590000024442C005B24442C24442C24442C5B55
:1005A00000226E70726F6773223A24442C226E62AE
:1005B0006F61726473223A24442C226D6E70223A69
:1005C00024442C226D6E7374223A24442C22706EC3
:1005D00073697A65223A24442C227064223A5B00C3
:1005E0002C2264657870223A24442C226D65787040
:1005F000223A24442C22687774223A24447D002C29
:1006000000222453223A2444006E616D6500706913
:1006100064007069640070696400757774007069C3
:100620006400736400737400736964007D002224A5
:1006300044223A7B227374223A24442C227364228B
:100640003A222453227D002C005D2C226D61786CAF
:10065000656E223A24447D002C002224532200227D
:10066000736E616D6573223A5B0073746E5F7370B5
:10067000650073746E5F7365710073746E5F646997
:1006800073006D61736F70320069676E6F72655FC2
:100690007261696E006D61736F70005D2C002C00DB
:1006A000244400222446223A5B007077007B002419
:1006B000462446244624460D0A0024462446244661
:1006C00024460D0A0063766A636470637063726D1A
:1006D0007075706A70636F6A6F73706A73636D634D
:1006E000736A6E6A656A6C646C737563756A6100BF
:1006F00050726F6772616D20003C73637269707431
:100700003E77696E646F772E6C6F636174696F6E8C
:100710003D222F223B3C2F7363726970743E0A00A6
:100720003C6D657461206E616D653D22766965770B
:10073000706F72742220636F6E74656E743D2277E1
:10074000696474683D6465766963652D776964746E
:10075000682C696E697469616C2D7363616C653DA9
:10076000312E302C6D696E696D756D2D7363616C02
:10077000653D312E302C757365722D7363616C612C
:10078000626C653D6E6F223E0D0A00436F6E7465AC
:100790006E742D547970653A206170706C69636174
:1007A00074696F6E2F6A736F6E0D0A436F6E6E659C
:1007B0006374696F6E3A20636C6F73650D0A004154
:1007C00063636573732D436F6E74726F6C2D416C30
:1007D0006C6F772D4F726967696E3A202A0D0A0097
:1007E000436F6E74656E742D547970653A2074652C
:1007F00078742F68746D6C0D0A0043616368652D11
:10080000436F6E74726F6C3A206D61782D6167650D
:100810003D302C206E6F2D63616368652C206E6FF8
:100820002D73746F72652C206D7573742D726576DF
:10083000616C69646174650D0A00485454502F312D
:100840002E3120323030204F4B0D0A00504F535480
:10085000202446245320485454502F312E300D0A62
:10086000486F73743A2024460D0A2446245341638A
:10087000636570743A202A2F2A0D0A436F6E7465DF
:100880006E742D4C656E6774683A2024440D0A43DB
:100890006F6E74656E742D547970653A2061707056
:1008A0006C69636174696F6E2F6A736F6E0D0A0DE8
:1008B0000A2453000047455420244624532048541A
:1008C00054502F312E300D0A486F73743A2024464D
:1008D0000D0A24460D0A0D0A004163636570743ADF
:1008E00020746578742F68746D6C00E30004FA005E
:1008F00001000000014500008200004000200001CE
:10090000080006040001726400747A007363616C6D
:1009100065006569700073756E7365740073756E3C
:1009200072697365002F77656174686572002A00CB
:1009300024442E70793F6C6F633D2445266B6579A6
:100940003D2445266677763D24442677746F3D2402
:100950005300207365630025004E6F0059657300D6
:100960002E002B003030003A002D002B00002020FC
:100970002020002D44697361626C6564212D003A6A
:100980000045004D433A0020284D414329002D00E9
:100990002E002D0020002020003A0020002041439E
:1009A00000204C4100204443004857207600204F4F
:1009B00070656E537072696E6B6C657200486F6C17
:1009C0006420423320746F20736176650042312FBA
:1009D00042323A2B2F2D2C2042333A2D3E003D3D02
:1009E000536574204F7074696F6E733D3D00506C99
:1009F0006561736520576169742E2E2E00526573F0
:100A0000657474696E672E2E2E002F636D002A00A8
:100A10003F70773D2445267369643D244426656E06
:100A20003D244426743D244400436F6E6E65637418
:100A3000696E672E2E2E004D6F6E0054756500573F
:100A40006564005468750046726900536174005310
:100A5000756E00004669726D776172652076657209
:100A600073696F6E54696D65207A6F6E65202847D3
:100A70004D54293A456E61626C65204E5450207386
:100A8000796E633F456E61626C6520444843503F18
:100A9000202020205374617469632E6970313A20DC
:100AA000202020205374617469632E6970323A20CB
:100AB000202020205374617469632E6970333A20BA
:100AC000202020205374617469632E6970343A20A9
:100AD00020202020476174657761792E6970313A52
:100AE00020202020476174657761792E6970323A41
:100AF00020202020476174657761792E6970333A30
:100B000020202020476174657761792E6970343A1E
:100B1000202020204854545020506F72743A2020D6
:100B2000202020202D2D2D2D2D2D2D2D2D2D2D2D29
:100B30002D2D2D2D48617264776172652076657266
:100B400073696F6E23206F66206578702E20626F48
:100B50006172643A2D2D2D2D2D2D2D2D2D2D2D2D08
:100B60002D2D2D2D53746E2E2064656C61792028F7
:100B7000736563294D6173746572203120284D615E
:100B80007331293A4D61733120206F6E2061646AA0
:100B90007573743A4D617331206F66662061646AC3
:100BA0007573743A53656E736F7220747970653A19
:100BB000202020204E6F726D616C6C79206F706503
:100BC0006E3F20205761746572696E67206C657690
:100BD000656C3A2044657669636520656E61626C78
:100BE00065643F2049676E6F72652070617373772B
:100BF0006F72643F4465766963652049443A2020FA
:100C0000202020204C434420636F6E747261737403
:100C10003A2020204C4344206272696768746E65F4
:100C200073733A204C43442064696D6D696E673A72
:100C300020202020444320626F6F73742074696DFC
:100C4000653A20205765617468657220616C676F32
:100C50002E3A20204E5450207365727665722E69AC
:100C600070313A204E5450207365727665722E6949
:100C700070323A204E5450207365727665722E6938
:100C800070333A204E5450207365727665722E6927
:100C900070343A20456E61626C65206C6F676769DD
:100CA0006E673F204D6173746572203220284D615C
:100CB0007332293A4D61733220206F6E2061646A6D
:100CC0007573743A4D617332206F66662061646A91
:100CD0007573743A4669726D77617265206D696EDD
:100CE0006F723A2050756C736520726174653A209A
:100CF000202020202D2D2D2D2D2D2D2D2D2D2D2D58
:100D00002D2D2D2D41732072656D6F7465206578D2
:100D1000742E3F20444E53207365727665722E699F
:100D200070313A20444E53207365727665722E6995
:100D300070323A20444E53207365727665722E6984
:100D400070333A20444E53207365727665722E6973
:100D500070343A205370656369616C205265667225
:100D60006573683F494654545420456E61626C6512
:100D70003A20466163746F72792072657365743FBF
:100D8000202000006C0101FFFFFFFFFFFFFFFFFFBE
:100D9000FF000501FF30FFFFFF01FA0101FFFFFF28
:100DA000FFFAFFFFFFFFFF0130FFFF00FFFF01FF22
:100DB000FFFFFF01FF016677760000747A000000F4
:100DC0006E747000006468637000697031000069BF
:100DD000703200006970330000697034000067777A
:100DE000310000677732000067773300006777349F
:100DF000000068703000006870310000687776008D
:100E000000657874000073657100007364740000FD
:100E10006D617300006D746F6E006D746F660075A8
:100E20007273000072736F0000776C0000006465DD
:100E30006E000069706173006465766964636F6E4B
:100E400000006C6974000064696D000062737400D6
:100E50000075777400006E747031006E747032002B
:100E60006E747033006E747034006C670000006D37
:100E7000617332006D746F6E326D746F66326677B7
:100E80006D0000667072300066707231007265002D
:100E90000000646E733100646E733200646E7333ED
:100EA00000646E733400736172000069666500004F
:100EB00072657365740069666B65792E7478740069
:100EC00073746E732E6461740077746F7074732E14
:100ED00074787400000000010200000000000000AF
:100EE00004030706000000000000000000000000EE
:100EF00000000000010204081020408001020408E4
:100F00001020408001020408102040808040201002
:100F100008040201020202020202020204040404A2
:100F20000404040403030303030303030101010195
:100F3000010101010000200023002600290000001B
:100F40002200250028002B0000002100240027009B
:100F50002A0000407A10F35A00A0724E18090010BF
:100F6000A5D4E80000E87648170000E40B5402001E
:100F700000CA9A3B000000E1F50500008096980049
:100F8000000040420F000000A08601000000102772
:100F900000000000E8030000000064000000000002
:100FA0000A00000000000100000000002C76D88834
:100FB000DC674F0823DFC1DFAE59E1B1B796E5E347
:100FC000E453C63AE651997696E8E6C28426EB8960
:100FD0008C9B62ED407C6FFCEFBC9C9F40F2BAA5FD
:100FE0006FA5F490055A2AF75C936B6CF9676DC195
:100FF0001BFCE0E40D47FEF520E6B500D0ED902E99
:101000000300943577050080841E080000204E0AF6
:10101000000000C80C333333330F986E1283114134
:10102000EF8D2114893BE65516CFFEE6DB18D184FF
:101030004B381BF77C1D901DA4BBE4242032847226
:101040005E228100C9F124ECA1E53D273D14421A3E
:10105000454FFB56B65811241FBECFEFD0E1DEBF7F
:10106000CDBF12E0A0E0B1E0E4EAFBEE02C00590E3
:101070000D92AE36B107D9F72EE0AEE6B2E001C070
:101080001D92AB32B207E1F710E1C6E5D0E104C032
:101090002297FE010E94A375CC34D107C9F70E94A4
:1010A0006E550C94B1700C9400006F927F928F92E9
:1010B000AF92CF92EF920F93CF93DF93CDB7DEB77E
:1010C0003C01FC01458326830783E086C186A28616
:1010D00083868C8584878D8585878E8586878F8599
:1010E000878787E69DE00E942658F301148261E01D
:1010F00085810E94D753F30186818F3F19F061E00B
:101100000E94D75361E0F30187810E94D75388E0A2
:10111000F301808BDF91CF910F91EF90CF90AF9043
:101120008F907F906F900895CF93DF93EC0160E0F4
:101130008F810E94105481E090E00E94ED5261E0A6
:101140008F810E94105481E090E00E94ED5260E097
:101150008F810E94105484E690E0DF91CF910C942F
:10116000ED52CF92DF92EF92FF920F931F93CF93A6
:10117000DF938C01FC018481811127C0C0E0D0E0A5
:10118000C62ED12C7801EC0EFD1E61E0F7018085A2
:101190000E94D753B6010C2E02C0759567950A942C
:1011A000E2F76170F70180850E9410542196C430E7
:1011B000D10541F7C801DF91CF911F910F91FF90A9
:1011C000EF90DF90CF900C949408DF91CF911F9116
:1011D0000F91FF90EF90DF90CF9008951F93CF93E2
:1011E000DF93EC01162F8C8181111BC0642F8D8140
:1011F0000E9410548E818F3F19F060E00E941054BD
:10120000612F70E084E0759567958A95E1F7CE01CE
:101210000E94B108612FCE01DF91CF911F910C94F4
:10122000B108DF91CF911F91089540E00C94EE0832
:1012300061E00E94150980ED97E00C94ED52CF9388
:10124000DF93CDB7DEB728970FB6F894DEBF0FBE99
:10125000CDBF28E0E1E8F1E0DE01119601900D92AA
:101260002A95E1F7FC012481211105C02489421748
:1012700010F04FEF420FFE013196E40FF11DE40F25
:10128000F11D2081260F2068622F28960FB6F89452
:10129000DEBF0FBECDBFDF91CF910C941509FC01CD
:1012A0006189262F2460218B6C600C941509FC0148
:1012B00061896E7F618B68600C941509CF92DF9213
:1012C000EF92FF920F931F93CF93DF9300D0CDB790
:1012D000DEB78C01677088E0689FB00111246064FC
:1012E000C80149835A830E9415094981C42E5A8135
:1012F000D52EE12CF12CD6016D916D01D801ED9127
:10130000FC910190F081E02DC8010995BFEFEB1A27
:10131000FB0AE8E0EE16F10471F70F900F90DF91F1
:10132000CF911F910F91FF90EF90DF90CF90089594
:1013300041E00E94EE0881E090E00895CF93DF93B2
:10134000EC018C81811163C088898860888B82E080
:101350008C8B1D8A80E593EC0E94ED5260E08D81BC
:101360000E94105460E08F810E9410548E818F3F44
:1013700019F060E00E941054688964FD1DC063E0AC
:10138000CE010E94B10884E991E10E94ED5263E030
:10139000CE010E94B10884E991E10E94ED5263E020
:1013A000CE010E94B10886E990E00E94ED5262E011
:1013B000CE010E94B10816C06062CE010E941509DC
:1013C00084E991E10E94ED5268896062CE010E9439
:1013D000150986E990E00E94ED5268896062CE01AD
:1013E0000E94150968896062CE010E94150984E097
:1013F000898BCE010E944F09CE010E94180982E01C
:101400008A8B66E0CE01DF91CF910C941509DF91B4
:10141000CF91089581E090916E02911101C080E01A
:101420000895CF92DF92EF92FF920F931F93CF9385
:10143000DF93CFE6D2E073E7E72E72E0F72E00E00D
:1014400010E040E020916E0230E0021713076CF5C7
:101450005A819B8120913C0530E0C92ED12C2C155E
:101460003D05E1F480913D05851318C0F701208109
:101470002223A1F020913F0530E02850310940910E
:101480003E0550E0542F4427240F351FE881F98191
:1014900042E455E062E375E0099541E00F5F1F4FBC
:1014A0002596F5E0EF0EF11CCDCF842FDF91CF9183
:1014B0001F910F91FF90EF90DF90CF900895EF92E2
:1014C000FF920F931F93CF93DF93D82FF92EE62E21
:1014D0000E9498528B010E947B3AC82F81110DC047
:1014E0000E94C53A0E94ED360E949852601B710B13
:1014F0006033754780F3C0E0EDC00E9498528B01C5
:101500000E94E635882361F00E94C53A0E94ED36BC
:101510000E949852601B710B6033754788F3EBCFC4
:101520001092C80B1092C90B1092CA0B1092CB0BE1
:10153000809197028F5F809397029091CC0B9111CD
:101540000BC048E058E0BA014093CC0B5093CD0B50
:101550006093CE0B7093CF0B90E045E350E06CECC2
:101560007BE0906E0E947B358CE0E2E4F5E0DF01E9
:101570001D928A95E9F7AEE4B5E06D2F7F2D362FE9
:101580003D1BFB01EE2011F0208101C024916F5F13
:101590007F4F2E3251F0222341F0862F8D1BAD015B
:1015A000480F511DFA012083EACFCD0101963C93EB
:1015B000DC01A30FB11D222319F0D62FF72EDDCFAA
:1015C0001C9211961C92119721E012962C9312975F
:1015D00013961C92139714962C93149788E195E018
:1015E000A81BA552A09342058091970280934305C2
:1015F00020934405209347058A2F90E00E94C83528
:101600000E9498528B018091C80B811163C00E9487
:101610009852601B710B6033754708F06CCF0E94C5
:10162000C53A7C01009779F30E94ED36892B59F772
:1016300046E4E416F10438F380913B05853319F74D
:1016400080913C05803EF9F680913D05909197028E
:101650008913D9CF909143059813D5CF8091450533
:101660008F7009F048CFE0914205F0E0EE5BFA4F51
:10167000C701885E9A4F2081207C19F0DF01129605
:101680000BC03196DF01E817F90730F4FD01319600
:101690002C912111F7CFDF019D01225F3F4F82176F
:1016A000930708F4B0CF11962C9111971996EC91ED
:1016B0001997213051F4E43041F4BD01665F7F4F4A
:1016C00088EC9BE00E94E33D9ECFF0E03A96EA0F63
:1016D000FB1FD1CF8C2FDF91CF911F910F91FF90E6
:1016E000EF900895DC011696ED91FC9117979F01FC
:1016F0002F5F3F4F17963C932E931697608381E0A0
:1017000090E0089504960C942164895B9D4F0C949D
:101710007D5A895B9D4F0C94545B0F931F93895B9B
:101720009D4F0E94E65A1F910F9108950F931F93AA
:10173000895B9D4F0E941E5C1F910F910895CF936E
:10174000DF931F92CDB7DEB7698341E050E0BE0161
:101750006F5F7F4F04960E9421640F90DF91CF91BD
:101760000895DF92EF92FF920F931F93CF93DF9331
:10177000CDB7DEB7A0970FB6F894DEBF0FBECDBFD2
:101780007C01FB01D42E19821A8280818701095DB8
:101790001D4F8F32C1F48181811115C0C8010E9493
:1017A0002762B701C8010E94005D882359F1DD203E
:1017B00041F0F8018081807729F11093BC0D0093EE
:1017C000BB0D81E020C021E0AF01B801CE01019640
:1017D0000E9430628823B9F09981907799F090E265
:1017E000FE013196D80101900D929A95E1F7DD2026
:1017F00051F0F8019081907731F01093BC0D009377
:10180000BB0D01C080E0A0960FB6F894DEBF0FBEFE
:10181000CDBFDF91CF911F910F91FF90EF90DF909F
:101820000895CF92DF92EF92FF920F931F938091D2
:101830006001823009F09FC00E9498520091970B7E
:101840001091980B2091990B30919A0B6B017C01B0
:10185000C01AD10AE20AF30A970186010233110580
:101860002105310508F487C00091A9021091AA0250
:101870002091AB023091AC020F5F1F4F2F4F3F4FB3
:101880000093A9021093AA022093AB023093AC02FA
:101890006093970B7093980B8093990B90939A0B8E
:1018A0000091B9021091BA022091BB023091BC02A2
:1018B000012B022B032B81F41092B1021092B20281
:1018C0001092B3021092B4026093B9027093BA02FC
:1018D0008093BB029093BC020091B9021091BA02AE
:1018E0002091BB023091BC026B017C01C01AD10A6D
:1018F000E20AF30A40E9C4164FE5D40641E0E406E3
:10190000F10448F41092B1021092B2021092B302A4
:101910001092B40215C00091B1021091B202209150
:10192000B3023091B402013011052105310541F4B3
:101930006093BD027093BE028093BF029093C00279
:101940006093B5027093B6028093B7029093B80289
:101950008091B1029091B202A091B302B091B40211
:101960000196A11DB11D8093B1029093B202A09384
:10197000B302B093B4021F910F91FF90EF90DF90EC
:10198000CF90089584B7877F84BF0E94684A0E94E1
:10199000DE4D0E94CD2F6CE370E080E090E00E946D
:1019A00016438FE79BE10E9400430E946A430E9416
:1019B000BE478091600088618093600081E28093DF
:1019C0006000809160008064809360000E94984F66
:1019D0009091B50B882321F09F719093B50B05C0B2
:1019E000892F8F7180628093B50B8091B50B8D7FAD
:1019F00081608093B50B0E9430468FE08093920BFC
:101A000008951F920F920FB60F9211242F933F93B8
:101A10004F935F936F937F938F939F93AF93BF93F6
:101A2000EF93FF938091A4028F5F8093A402809133
:101A3000A402803128F0E091A502F091A602099558
:101A4000FF91EF91BF91AF919F918F917F916F9196
:101A50005F914F913F912F910F900FBE0F901F906C
:101A600018950F931F938091B50B8295869587707B
:101A700009F04CC080917601811148C00E946A43F0
:101A800000918A0B10918B0B20918C0B30918D0B58
:101A90000115110521053105B9F00F551E4A2E4FCC
:101AA0003F4F061717072807390770F410928A0B63
:101AB00010928B0B10928C0B10928D0B8091B40BAB
:101AC00080648093B40B22C000918E0B10918F0B19
:101AD0002091900B3091910B0115110521053105D5
:101AE00049F00F5E114F2F4F3F4F0617170728077A
:101AF000390760F460938E0B70938F0B8093900B7B
:101B00009093910B1F910F910C943C3D1F910F915D
:101B100008952F923F924F925F926F927F928F9291
:101B20009F92AF92BF92CF92DF92EF92FF920F936C
:101B30001F93CF93DF9300D000D0CDB7DEB72B013A
:101B40003C014B015C012FEF821A920AA20AB20AF1
:101B500080915C010E94602FAC018091D00890912F
:101B6000D108A091D208B091D308481659066A0648
:101B70007B0650F46A01EE24D7FCE094FE2CC80EDC
:101B8000D91EEA1EFB1E02C0750164011091760188
:101B90003CE0232E39E0332E662757FD6095762FE3
:101BA00080918C0A28E0829FC0011124845F964FA7
:101BB0002816390608F06FC0F10180819181A28159
:101BC000B381892B8A2B8B2B09F056C08481958198
:101BD000892B09F451C00681802F90E023E0959570
:101BE00087952A95E1F78654984F49835A836B83EA
:101BF0007C830E947E4490E0077002C09595879593
:101C00000A95E2F749815A816B817C8180FF38C057
:101C1000111136C0F101C082D182E282F382C40E7A
:101C2000D51EE61EF71E84819581C80ED91EE11CC3
:101C3000F11C8091B40B83FD1FC088608093B40BAE
:101C4000809160018230C1F48091A9029091AA0232
:101C5000A091AB02B091AC0280939F0B9093A00B2C
:101C6000A093A10BB093A20B4092A30B5092A40B94
:101C70006092A50B7092A60BF8E02F0E311C90CF4E
:101C8000F10180829182A282B382FFEF8F1A9F0AB4
:101C9000AF0ABF0ACECF0F900F900F900F90DF9139
:101CA000CF911F910F91FF90EF90DF90CF90BF9059
:101CB000AF909F908F907F906F905F904F903F90EC
:101CC0002F9008950E94C8460E9430460C946E2FB3
:101CD00080918C0A28E0829FC0011124845F964F76
:101CE000ECE0F9E0E817F90720F415821482389641
:101CF000F9CF08957F928F929F92AF92BF92CF9229
:101D0000DF92EF92FF920F931F93CF93DF93CDB7A4
:101D1000DEB7CF57D1090FB6F894DEBF0FBECDBFE7
:101D2000A82E862E0E94620E8FEF8A0D8E3F28F419
:101D3000BE016F5F7F4F0E94DB2FB12C912CEEEF25
:101D40007E2EF4E6CF2ED12CE12CF12C8091AD0B20
:101D5000B81608F096C00B2D10E0C801019620912E
:101D6000B60B30E02817390709F489C02091B70B6A
:101D700030E02817390709F482C08FEFA81691F0D8
:101D8000AA20A9F0F801EE0FFF1F81E090E08C0F70
:101D90009D1FE80FF91F838594850E94262F9B01C4
:101DA000AC0109C022E030E040E050E004C02CE388
:101DB00030E040E050E0882049F0A0916201B0E0BE
:101DC0000E94BD75A70196010E946075211531051D
:101DD0004105510509F453C0C80163E09695879504
:101DE0006A95E1F78C54984FED962FAFED97EE96EC
:101DF0003FAFEE97EF964FAFEF97C158DF4F588345
:101E0000CF57D0400E947E4490E06B2D677002C097
:101E1000959587956A95E2F7ED962FADED97EE963D
:101E20003FADEE97EF964FADEF97C158DF4F58811A
:101E3000CF57D04080FD23C0ED962FAFED97EE96A3
:101E40003FAFEE97EF964FAFEF97C158DF4F5883F4
:101E5000CF57D0400E94812FFC01ED962FADED971A
:101E6000EE963FADEE97009751F0108211821282EC
:101E7000138235832483B682778299249394B39412
:101E800065CF992021F00E946A430E94890DC158B4
:101E9000DF4F0FB6F894DEBF0FBECDBFDF91CF91FD
:101EA0001F910F91FF90EF90DF90CF90BF90AF9078
:101EB0009F908F907F9008950F931F93CF93DF9300
:101EC000CDB7DEB7CB57D1090FB6F894DEBF0FBE42
:101ED000CDBF8091920B811104C00E94154A1092CF
:101EE000A80282E00E94BB49182F86FF14C18FE030
:101EF0008093920B81E00E94154A8091A802833062
:101F000018F4813028F0C3C0833009F4B4C003C191
:101F1000012F0F70023009F448C0043009F487C063
:101F2000013009F0F8C017FF20C08DE10E9446542F
:101F3000892B29F460E08FEF0E947A0EECC08EE1CD
:101F40000E944654892B71F460E084ED9BE00E946E
:101F5000004841E060E082EF9AE00E941F0981E0C2
:101F600091E01EC00E94680ED6C060E080EE9BE04B
:101F70000E94004841E060E082EF9AE00E941F0961
:101F80008FEF90E00E94694760917E0170917F0120
:101F90004AE050E082EF9AE00E94685587EF90E0B7
:101FA0000E9469470093A802B6C017FF37C08FE1AF
:101FB0000E944654892B71F461E080EC9BE00E9402
:101FC000004841E060E082EF9AE00E941F0981EF43
:101FD00090E01BC08DE10E944654892BE1F482EF12
:101FE0009AE00E94180960918A0B70918B0B809186
:101FF0008C0B90918D0B0E94BE4741E060E082EF18
:102000009AE00E941F098AEE90E00E94694781E0F1
:102010008093A80280C00E9485437DC082EF9AE031
:102020000E94180984EE9BE00E943B48BBCF17FF3B
:102030000CC060E08BED90E00E947A4761E08AEC92
:1020400090E00E947A4783E0E3CF2091B50B822F86
:1020500086958695877090E001966091AE0B70E052
:102060000E944C758770880F880F922F937E982B53
:102070009093B50B50C0812F8F70843009F04BC006
:1020800017FF08C060E08091A7020E947A0E1092AC
:10209000A80241C08091A70290E0019660918D0A4C
:1020A00070E06F5F7F4F0E944C758093A70260E0E5
:1020B00089EB90E00E947A478091A702882331F152
:1020C000BE016F5F7F4F81500E94DB2F61E087EB85
:1020D00090E00E947A4741E060E082EF9AE00E943F
:1020E0001F096091A70270E04AE050E082EF9AE099
:1020F0000E94535584EB90E00E946947BE016459E9
:102100007F4F82EF9AE00E94A75405C061E084EA05
:1021100090E00E947A47C558DF4F0FB6F894DEBFB3
:102120000FBECDBFDF91CF911F910F910895CF9337
:10213000DF93EC0140E069E971E089EC92E00E94F4
:10214000B10BBE018EE79BE00E94027167E071E077
:1021500088E09BE00E9402716EE77BE088E09BE0F4
:102160000E94EC706FE970E088E09BE0DF91CF9116
:102170000C94BD708F929F92AF92BF92CF92DF92DC
:10218000EF92FF920F931F93CF93DF93CDB7DEB7FC
:10219000A4970FB6F894DEBF0FBECDBF182F4A012B
:1021A0005B0180916F01882309F480C1CB01BA01E2
:1021B00020E831E541E050E00E946075CA01B901B4
:1021C0002AE030E048E05BE00E94597188E09BE043
:1021D0000E9497108091B40B85FF68C140E069E9C7
:1021E00071E089EC92E00E94B10B40E067E071E0A1
:1021F00089EC92E00E94B10B882301F11D821E82BE
:102200001C821B828BEA91E09A8389836091BB0DCB
:102210007091BC0D22E448E05BE0CE0105960E947F
:102220003062082F8D8183FF17C04D8D5E8D6F8DBD
:1022300078A1CE0105960E94585F0EC019821A82BD
:1022400021E047E051E060EF74E0CE0101960E948A
:1022500094638111D3CF2AC1002309F427C16DE90A
:1022600070E088E09BE00E94C87011113AC0B8E0AD
:10227000EB2EBBE0FB2ED7010D900020E9F7BD014E
:10228000615071098091D5084AE050E090E00E94C9
:1022900026716BE970E0C7010E94BD70F7010190E3
:1022A0000020E9F7BF01615071098091D4084AE02C
:1022B00050E090E00E94267169E970E0C7010E9439
:1022C000BD70D7010D900020E9F7AD0141505109D3
:1022D0006091D6087091D70880E090E02AE030E065
:1022E00094C0143011F54091A9025091AA02609156
:1022F000AB027091AC0280919F0B9091A00BA091CA
:10230000A10BB091A20B84179507A607B70768F435
:10231000C090A902D090AA02E090AB02F090AC026B
:10232000C81AD90AEA0AFB0A03C0C12CD12C7601CB
:10233000E8E0FBE0DF010D900020E9F7AD0141503E
:1023400051092AE030E0C701B6010E94597166E9DF
:1023500070E088E09BE00E94BD70B3E01B9FB0017D
:102360001124685F7E4F88E09BE00E94BD7063E9A6
:1023700070E088E09BE00E94BD701230E1F018F43C
:10238000113029F035C0133051F1143089F58091A6
:10239000A30B9091A40BA091A50BB091A60B88154F
:1023A0009905AA05BB0508F575016401C81AD90A83
:1023B000EA0AFB0A1DC04091930B5091940B609167
:1023C000950B7091960B481559056A057B0568F4C5
:1023D00075016401C41AD50AE60AF70A09C0C0905B
:1023E0006201D12CE12CF12C03C0C12CD12C76013F
:1023F000E8E0FBE0DF010D900020E9F7AD0141507E
:1024000051092AE030E0C701B6010E94597161E923
:1024100070E088E09BE00E94BD70A8E0EA2EABE08F
:10242000FA2EF70101900020E9F7AF014150510960
:102430002AE030E0C501B4010E9459718091600129
:102440008230D1F4111118C06FE870E0C7010E940A
:10245000BD70D7010D900020E9F78D0101501109E1
:102460006091AD027091AE028091AF029091B00286
:1024700022E045E00E944B706BE870E088E09BE052
:102480000E94BD70E8E0FBE0DF010D900020E9F75D
:10249000AD014150510948505B40BF01CE01059646
:1024A0000E942164CE0105960E942762A4960FB671
:1024B000F894DEBF0FBECDBFDF91CF911F910F917A
:1024C000FF90EF90DF90CF90BF90AF909F908F9054
:1024D00008954F925F926F927F92AF92BF92CF9288
:1024E000DF92EF92FF920F931F93CF93DF93A82E6B
:1024F0006A017B0160E00E949C460A2D10E0E80121
:10250000C452D74FB88080918C0AB81608F082C0A8
:102510004090B1025090B2026090B3027090B40249
:1025200082E0481651046104710488F16091B5029B
:102530007091B6028091B7029091B8022091BD02CD
:102540003091BE024091BF025091C002621B730BDA
:10255000840B950BA30192012150310941095109C6
:102560000E946075CA01B9010E9408729B01AC010A
:1025700060E070E68AE697E40E94A0716093AD0285
:102580007093AE028093AF029093B00208C0109295
:10259000AD021092AE021092AF021092B00288E02B
:1025A000B89EF0011124E45FF64F408151816281B1
:1025B00073814C155D056E057F0538F50F5F1F4F64
:1025C0008091B60B90E080179107F9F08091B70BDE
:1025D00090E080179107C9F0A092D408878180937A
:1025E000D508C601841B950B9093D7088093D60815
:1025F000C092D808D092D908E092DA08F092DB08AD
:10260000B701A60180E00E94BA108B2D0E94922F84
:102610008FEF8883DF91CF911F910F91FF90EF9003
:10262000DF90CF90BF90AF907F906F905F904F9072
:1026300008958F929F92AF92BF92CF92DF92EF92C6
:10264000FF920F931F93CF93DF936B017C018091D7
:10265000B40B982F9170A92E81FD08C082FD02C095
:10266000912C06C0809160018130D1F79924939418
:10267000812CB12C8091AE0BB81608F045C08B2D83
:1026800090E08855984F0E947E44C0E0D0E0082F2B
:1026900010E08C2F880D282F30E0A9014F5F5F4F8D
:1026A0006091B60B70E06417750731F16091B70B5C
:1026B00070E06417750701F1F901E452F74FE0810A
:1026C000EF3FD1F098E0E99FF0011124E45FF64F6D
:1026D0009781933688F4AA2059F0992069F09801DF
:1026E0000C2E02C0359527950A94E2F720FD04C010
:1026F000B701A6010E9469122196C830D10549F69A
:10270000B39488E0880EB6CFDF91CF911F910F91DF
:10271000FF90EF90DF90CF90BF90AF909F908F9001
:1027200008950F931F93CF93DF93CDB7DEB7A09794
:102730000FB6F894DEBF0FBECDBF8C0180916F0144
:10274000882389F18091B40B85FF2DC043E050E0D0
:102750006BE971E0C8010E940971892B71F440E0B6
:1027600067E071E089EC92E00E94B10B8823D9F018
:1027700080EF94E00E94416116C0C8010E9497104A
:1027800019821A8221E048E05BE060EF74E0CE013C
:1027900001960E943062882331F068E07BE080EF90
:1027A00094E00E94B562A0960FB6F894DEBF0FBE0B
:1027B000CDBFDF91CF911F910F9108958F929F927E
:1027C000AF92BF92CF92DF92EF92FF9280914D0134
:1027D000882309F449C08091B50B982F929596955E
:1027E000977009F041C09091B40B93FD3DC080FFFC
:1027F0003BC00E948B424B015C018091B50B8E7FE8
:102800008093B50B8091A802811105C061E08CE72F
:1028100090E00E947A470E948A2D6B017C0161152D
:1028200071058105910501F10E945A42C701B60167
:102830000E94081B21E8821628EC92062FE4A206CB
:102840002AE3B20688F40E948B426138784C8F44A8
:102850009A4350F0FF90EF90DF90CF90BF90AF90F1
:102860009F908F900C948543FF90EF90DF90CF90D6
:10287000BF90AF909F908F9008951092CE021092CB
:10288000F0041092F10489E180931305109216056B
:1028900083EB91E09093CA028093C9021092C40224
:1028A0001092C30283EA91E09093C2028093C10226
:1028B0000895CF92DF92EF92FF928091B40B83FD47
:1028C00067C08091B50B81FF63C08D7F8093B50B8E
:1028D0008091A80281110BC041E06FE082EF9AE085
:1028E0000E941F0964E082EF9AE00E94980984ED3B
:1028F0009BE00E94CB340E9498526B017C010E94A5
:10290000C53A0E94ED3684ED9BE00E945636811157
:1029100039C00E9498526C197D098E099F09683C44
:1029200071058105910558F39091B50B892F82951A
:10293000869587708F5F87709F718730F1F4906CF8
:102940009093B50B8091B50B82958695877090E03A
:102950008630910534F08091B40B80648093B40B81
:1029600017C00397ACF00E94984F882389F080919C
:10297000B50B8F718093B50B0BC08295880F807E4D
:10298000892B03C08091B50B8F718093B50BDACF83
:10299000FF90EF90DF90CF9008952F923F924F924B
:1029A0005F926F927F928F929F92AF92BF92CF92DF
:1029B000DF92EF92FF920F931F93CF93DF93CDB7E8
:1029C000DEB7C358D1090FB6F894DEBF0FBECDBF36
:1029D00080915D018093B60B809170018093B70B5D
:1029E0000E946A436B017C010E94C53A0E94ED3649
:1029F000009721F0885E9A4F0E94E52CA8951092CE
:102A0000A4020E945C0F8091A0029091A102A0916B
:102A1000A202B091A3028C159D05AE05BF0509F475
:102A2000FEC4C092A002D092A102E092A202F09253
:102A3000A3028091920B882319F081508093920B0E
:102A40008091A802811104C00E946A430E94BE477F
:102A50002091B40B8091BC0B9091BD0BA091BE0B4B
:102A6000B091BF0B21FF08C0C816D906EA06FB06C5
:102A700050F00E945A4707C0C816D906EA06FB065E
:102A800010F40E9453479091B40B8091B00B8927AA
:102A900081FF1AC091FF09C0C092930BD092940B92
:102AA000E092950BF092960B05C0B701A60182E06B
:102AB0000E94BA109091B40B969591708091B00BD2
:102AC00090FB81F98093B00B809160018130A1F57A
:102AD0000E948A439091B40B8091B00B892782FFAA
:102AE0002BC092FF09C0C092A30BD092A40BE0921E
:102AF000A50BF092A60B15C08091A30B9091A40B8F
:102B0000A091A50BB091A60B0A96A11DB11D8C1525
:102B10009D05AE05BF0528F4B701A60181E00E941E
:102B2000BA109091B40B92FB992790F98091B00B59
:102B300090FB82F98093B00BC701B6010E94A043BD
:102B4000882351F00E94620E80918D0A882321F023
:102B500060E081E00E947A0EC701B6012CE330E00C
:102B600040E050E00E94607580919C0290919D022F
:102B7000A0919E02B0919F02281739074A075B0770
:102B800081F48091B40B83FFFFC140918C0AB8E0BF
:102B90004B9FA0011124445F564FECE0F9E060E048
:102BA000ABC020939C0230939D0240939E025093B1
:102BB0009F02512C612C64E6862E912CA12CB12C05
:102BC00080918D0A681608F072C0BE016F5F7F4F5A
:102BD000862D0E94DB2FB701A601CE0101960E942F
:102BE0004931882309F461C0712C44244394460C74
:102BF0008091AD0B781608F058C0272D30E0A90160
:102C00004F5F5F4F8091B60B90E08417950709F4F2
:102C10004AC08091B70B90E08417950709F443C030
:102C20008901000F111F81E090E08C0F9D1F080F9C
:102C3000191FD8011B968D919C911C97892B99F196
:102C4000C90143E0969587954A95E1F78C54984FD2
:102C50000E947E4490E0272D277002C095958795AD
:102C60002A95E2F780FD1FC0D8011B968D919C919B
:102C70001C970E94262F9B01AC01898181FF86C38E
:102C800010916201A12FB0E00E94BD75A5019401D1
:102C90000E946075143108F079C32A30310541056E
:102CA000510508F079C37394A3CF639489CF55205D
:102CB00009F467CFC701B6010E94890D62CF268152
:102CC00030E02452374FD9019C919F3FC9F008E072
:102CD000909FD0011124A45FB64F8D909D90AD9030
:102CE000BC9080819181A281B38188169906AA0641
:102CF000BB0630F438966F5FE417F50700F303C0A6
:102D0000D9016C93F7CF612C712C8091AE0B7816A2
:102D100008F07CC0E72DF0E0E955F44F8080A12C4D
:102D2000B12C912C562C5A0C852D90E09C012F5FD4
:102D30003F4F4091B60B50E04217530709F45AC079
:102D40004091B70B50E04217530709F453C0FC0100
:102D5000E452F74F00810F3F09F44CC0B8E00B9FDD
:102D600080011124045F164FF80180819181A281B6
:102D7000B3810097A105B10581F024813581820FCF
:102D8000931FA11DB11DC816D906EA06FB0628F03F
:102D9000B701A601852D0E946912C4010A2C02C048
:102DA000959587950A94E2F780FD24C0D8014D914E
:102DB0005D916D917C911397C416D506E606F706D2
:102DC000C8F014968D919C911597480F591F611D5D
:102DD000711DC416D506E606F70660F461E0852D80
:102DE0000E949C461092B9021092BA021092BB0245
:102DF0001092BC02BFEFAB1ABB0AE8E0AE16B104FA
:102E000009F090CF7394F8E06F0E7FCFA0908C0AFA
:102E1000B12C01E0A01AB108850133E0000F111FA9
:102E20003A95E1F7045F164F812C912C3501C301CF
:102E300088199909019601F1D80114962D913C91B8
:102E400015972115310571F08D919D910D90BC91D3
:102E5000A02D820F931FA11DB11DC816D906EA0629
:102E6000FB0620F08A2D88190E94922FBFEF8B1A43
:102E70009B0A08501109DBCFC701B6010E94191344
:102E80000E9430461092D0081092D1081092D208B9
:102E90001092D308709076010CE019E020918C0A12
:102EA000B8E02B9FC0011124845F964F08171907C3
:102EB00080F5D80116966C90169714968D919C917A
:102EC00015978D909D90AD90BC90880E991EA11C79
:102ED000B11CC814D904EA04FB04C0F4862D90E0A8
:102EE00023E0959587952A95E1F78654984F0E949F
:102EF0007E4490E0262D277002C0959587952A95EF
:102F0000E2F780FF03C0772009F471C2085F1F4F0A
:102F1000C5CF211139C00E94C8460E9430460E9488
:102F20006E2F8091B40B877F8093B40B80916001EA
:102F3000823011F5B701A60184E00E94BA104091D9
:102F4000A9025091AA026091AB027091AC028091EB
:102F50009F0B9091A00BA091A10BB091A20B841795
:102F60009507A607B70740F48091A9029091AA029D
:102F7000A091AB02B091AC0280915D018093B60B41
:102F8000809170018093B70B8091B60B882309F470
:102F90009AC080915E010E94602F5C0180915F0168
:102FA0000E94602F8C0168E07BE082EA97E00E943B
:102FB0007744E091AD0BEE96EFAFEE97F091B60B44
:102FC000ED96FFAFED976F2E712C20E030E0A5015C
:102FD000662757FD6095762F4801AA2497FCA09498
:102FE000BA2C822FEE961FADEE97211708F062C023
:102FF00089010F5F1F4FCE57DF4F19830883C258D7
:10300000D0406016710609F44EC0F90103E0F59551
:10301000E7950A95E1F78770582EDF01A955B44F5F
:103020008C9190E0052C02C0959587950A94E2F763
:1030300080FF39C0E85FF44F8081992787FD909524
:1030400002C0959587955A94E2F780FF2CC0F9014C
:10305000E452F74FE08118E0E19FF0011124E45FB2
:10306000F64F2080318042805380DB01CA01820DFF
:10307000931DA41DB51DC816D906EA06FB0698F0D7
:103080008481958192018101080F191F211D311D35
:10309000D901C801880D991DAA1DBB1D8C159D0560
:1030A000AE05BF0548F4CE57DF4F28813981C2589D
:1030B000D04097CF60E001C061E0ED968FADED9715
:1030C00081500E949C468091B70B882309F499C0D7
:1030D000809171010E94602F5C01809172010E94B9
:1030E000602F8C0168E07BE08EEA97E00E947744D5
:1030F0002091AD0BEE962FAFEE973091B70BED967A
:103100003FAFED97632E712C20E030E0A5016627DC
:1031100057FD6095762F4801AA2497FCA094BA2CFD
:10312000822FEE961FADEE97211708F061C0D901EE
:103130001196CE57DF4FB983A883C258D0406A1684
:103140007B0609F44EC0F90113E0F595E7951A9551
:10315000E1F78770582EDF01A955B44F8C9190E0AC
:10316000052C02C0959587950A94E2F780FF39C037
:10317000E85FF44F8081992787FD909502C095956F
:1031800087955A94E2F780FF2CC0F901E452F74F7B
:10319000E081B8E0EB9FF0011124E45FF64F20805E
:1031A000318042805380DB01CA01820D931DA41D32
:1031B000B51DC816D906EA06FB0698F084819581EC
:1031C00092018101080F191F211D311DD901C8016C
:1031D000880D991DAA1DBB1D8C159D05AE05BF054B
:1031E00048F4CE57DF4F28813981C258D04098CF5C
:1031F00060E001C061E0ED968FADED9781500E94D7
:103200009C46C701B6010E9419130E943046809166
:10321000A80281110FC0C701B60123E030E040E0F1
:1032200050E00E946075FB01E554FE4F608181E033
:103230000E947C488091B40B86FF20C083FD1EC095
:1032400010E0460157012CE3820E911CA11CB11C19
:1032500080918D0A181780F4BE016F5F7F4F812F18
:103260000E94DB2FB501A401CE0101960E944931D5
:10327000811104C01F5FECCF0E94854380916001E3
:10328000823009F049C0C701B6012EE130E040E0CC
:1032900050E00E946075672B682B692BE9F58091DF
:1032A000A9029091AA02A091AB02B091AC02409108
:1032B00098025091990260919A0270919B0248176E
:1032C00059076A077B0768F48091A9029091AA02C6
:1032D000A091AB02B091AC02841B950BA60BB70B6F
:1032E00003C080E090E0DC0180939B0B90939C0BEB
:1032F000A0939D0BB0939E0B8091A9029091AA027E
:10330000A091AB02B091AC02809398029093990285
:10331000A0939A02B0939B02C701B60123E831E55E
:1033200041E050E00E946075672B682B692B29F4FF
:103330008091B50B81608093B50B0E94DE13C114A0
:10334000D104E104F10489F0C701B60129E532E0B6
:1033500040E050E00E946075672B682B692B29F4D0
:103360008091B50B82608093B50B0E9459140E9426
:10337000310D8091890B81111092890B809106018A
:10338000882309F44CC01092060149C0211531056B
:103390004105510509F487CCEF962FAFEF97C1583F
:1033A000DF4F3883CF57D040C058DF4F4883C058D5
:1033B000D040CF57DF4F5883C158D0400E94812F53
:1033C000FC01EF962FADEF97C158DF4F3881CF57F3
:1033D000D040009709F467CC1082118212821382C8
:1033E0003583248376824782552453945CCC809124
:1033F000D0089091D108A091D208B091D308881636
:103400009906AA06BB0610F44C015D018092D00813
:103410009092D108A092D208B092D30877CDCD5720
:10342000DF4F0FB6F894DEBF0FBECDBFDF91CF9157
:103430001F910F91FF90EF90DF90CF90BF90AF90D2
:103440009F908F907F906F905F904F903F902F90C4
:103450000895DC01ED91FC910190F081E02D09943B
:103460006AE00E942C7520E1829F900D1124892F23
:103470000895982F92959F708F702AE0929F800DEB
:103480001124089587E69DE00C94265888E690E084
:103490009093CF088093CE0868E670E087E69DE0C1
:1034A0000E943A5860E087E69DE00E94E75787E671
:1034B0009DE00E94B3588823E1F08FE690E090935E
:1034C000CF088093CE086FE670E087E69DE00E940B
:1034D0003A5860E087E69DE00E94E75787E69DE066
:1034E0000E94B358882329F01092CF081092CE087A
:1034F000089580E00895CF93DF93EC018091CE088A
:103500009091CF088836910571F568E670E087E6FE
:103510009DE00E943A5860E087E69DE00E94E757F0
:1035200088810E94301A8F77682F70E087E69DE0CF
:103530000E94291A89810E94301A682F87E69DE02F
:103540000E94E7578A810E94301A682F87E69DE023
:103550000E94E7578B810E94301A682F87E69DE012
:103560000E94E75733C08F36910509F04EC06FE6D1
:1035700070E087E69DE00E943A5860E087E69DE0B3
:103580000E94E75788810E94301A8068682F70E097
:1035900087E69DE00E94291A89810E94301A682FCF
:1035A00087E69DE00E94E7578A810E94301A682FC3
:1035B00087E69DE00E94E7578B810E94301A886061
:1035C000682F70E087E69DE00E94291A8C810E9496
:1035D000301A682F87E69DE00E94E7578D810E9490
:1035E000301A682F87E69DE00E94E7578E818E5142
:1035F0000E94301A682F87E69DE00E94E75787E611
:103600009DE0DF91CF910C94B358DF91CF91089555
:10361000CF93DF93CDB7DEB727970FB6F894DEBF11
:103620000FBECDBFAE014F5F5F4F0E948440CE0101
:1036300001960E947B1A27960FB6F894DEBF0FBE44
:10364000CDBFDF91CF910895CF93DF93EC016091CF
:10365000CE087091CF086115710509F44DC087E659
:103660009DE00E943A5860E087E69DE00E94E7579F
:1036700087E69DE00E94B3586091CE087091CF0814
:1036800047E050E087E69DE00E94B05887E69DE065
:103690000E9497578F770E94391A888387E69DE0AA
:1036A0000E9497570E94391A898387E69DE00E94FD
:1036B00097578F730E94391A8A8387E69DE00E948C
:1036C000975787700E94391A8B8387E69DE00E9486
:1036D00097570E94391A8C8387E69DE00E9497577E
:1036E0008F710E94391A8D8387E69DE00E9497575B
:1036F0000E94391A825E8E83DF91CF910895CF9315
:10370000DF93CDB7DEB727970FB6F894DEBF0FBEB5
:10371000CDBFCE0101960E94241BCE0101960E94CE
:103720009F4127960FB6F894DEBF0FBECDBFDF9145
:10373000CF9108958091C7029091C8022091C5024F
:103740003091C60261E1821B930B0C949C348FEB89
:1037500097E09F938F938AEF97E09F938F9380EEEC
:1037600097E09F938F938AE398E09F938F938AEBE0
:1037700096E09F938F9381EC92E09F938F930E94AA
:1037800039508DB79EB70C960FB6F8949EBF0FBEFA
:103790008DBF08950E94A71B8EEB91E09F938F939E
:1037A00024E02F9382E68F9388ED91E09F938F938F
:1037B0002F938AE38F9381E793E09F938F9381EC1C
:1037C00092E09F938F930E9439508DB79EB70C96CD
:1037D0000FB6F8949EBF0FBE8DBF80E008950F9383
:1037E0001F93CF93DF931F92CDB7DEB72AEF37E059
:1037F0003F932F932FEB37E03F932F932BE837E046
:103800003F932F932AE338E03F932F932FEA36E03C
:103810003F932F9301EC12E01F930F9389830E9433
:1038200039500FB6F894DEBF0FBECDBF8981882313
:1038300061F08DEA96E09F938F931F930F930E9400
:1038400039500F900F900F900F900F90DF91CF9104
:103850001F910F9108958F929F92AF92BF92CF9236
:10386000DF92EF92FF920F931F93CF93DF9380919C
:10387000B40B85FF77C081E00E94EF1B812C912C57
:1038800039E0E32E3BE0F32E4EE2C42E46E0D42E88
:10389000C1ECD2E057E4A52E56E0B52E8091AD0BD9
:1038A000981608F049C0092D10E0C80123E095954D
:1038B00087952A95E1F78054984F0E947E4490E0C6
:1038C000292D277002C0959587952A95E2F780FFEC
:1038D00031C089E7989E9001112449E750E068E0E3
:1038E0007BE080EC9EE00E94512E882059F0BF9230
:1038F000AF92DF93CF930E9439500F900F900F90AB
:103900000F9002C088248394FF92EF928091080B5D
:103910001F928F931F930F93DF92CF92DF93CF93DA
:103920000E9439508DB79EB70A960FB6F8949EBF85
:103930000FBE8DBF9394B2CF8CE296E09F938F938E
:1039400081EC92E09F938F930E94395061E070E088
:1039500080E090E00E94C7520F900F900F900F9060
:1039600080E001C080E2DF91CF911F910F91FF9025
:10397000EF90DF90CF90BF90AF909F908F90089581
:10398000EF92FF920F93CF93DF93DC01F90150E0A8
:10399000002381F1CC918C2F8F7D09F43DC0CA307A
:1039A00009F43AC051113AC08491DD27C7FDD09582
:1039B00090E0C817D90779F43196849181110CC031
:1039C000CD01019651E01196EC91ED3309F050E0F4
:1039D000F901DC0101C0F9011196DCCF8A30E1F078
:1039E00051111CC09081891315C08181882339F041
:1039F000319611968C91982F9F7D81F70DC0CD0146
:103A0000019651E01196EC91ED3309F050E0F90187
:103A1000DC01EFCFF901EDCF5130C1F4FB0150E0F3
:103A2000415051098E2F861B9D91292F2F7D19F40E
:103A3000108251E00CC09A30D9F39632C9F3282F86
:103A400030E024173507A4F79193ECCF80E0E11420
:103A5000F10411F0F7015083DF91CF910F91FF90A6
:103A6000EF900895AF92BF92CF92DF92EF92FF92C4
:103A70000F93CF93DF931F92CDB7DEB76C01E12C8C
:103A8000F12C01E02EE136E040E868E07BE00E94A6
:103A9000C01C882349F188E09BE00E946C705C01A7
:103AA00097FD20C080918D0A90E0A816B906D4F445
:103AB0002AE136E040E868E07BE0C6010E94C01CD5
:103AC000882329F061E08091080B813309F060E0E0
:103AD00069830E94620E698181E08A0D0E947A0EDC
:103AE00081E003C081E101C080E10F90DF91CF91BF
:103AF0000F91FF90EF90DF90CF90BF90AF9008951F
:103B0000EF92FF920F93E12CF12C01E026E136E0D9
:103B100040E868E07BE00E94C01C8823B9F088E0A0
:103B20009BE00E946C708F3F2FEF920719F40E9468
:103B3000D72F08C020918D0A30E08217930724F414
:103B40000E94533081E003C081E101C080E10F9108
:103B5000FF90EF900895EF92FF920F93E12CF12CDC
:103B600001E022E136E040E868E07BE00E94C01C12
:103B7000882399F088E09BE00E946C701816190663
:103B800054F420918D0A30E08217930724F40E94A8
:103B9000053081E003C081E101C080E10F91FF9019
:103BA000EF9008958F929F92AF92BF92CF92DF9243
:103BB000EF92FF920F93CF93DF936C01E12CF12CE6
:103BC00001E028EA31E040E868E07BE00E94C01CA8
:103BD000882309F479C088E09BE00E946C70EC01B6
:103BE00097FF02C081E171C08091AD0B90E0C817D2
:103BF000D907C4F7E12CF12C01E025EA31E040E8D7
:103C000068E07BE0C6010E94C01C882309F45CC008
:103C100088E09BE00E946C70F82E0E946A434B0182
:103C20005C01FF2009F449C0E12CF12C01E023EAFA
:103C300031E040E868E07BE0C6010E94C01C8823B8
:103C400009F442C088E09BE00E948A706B017C010D
:103C5000CB01019780329D4F28F6CE01019620912D
:103C6000B60B30E02817390711F480E32EC02091FD
:103C7000B70B30E028173907C1F3FE01E452F74FC4
:103C8000E081EF3F39F088E0E89FF0011124E45F24
:103C9000F64F03C00E94812FFC01309731F3108250
:103CA000118212821382D582C482C68383E68783FF
:103CB000C501B4010E94890D05C0AB01BC018C2F68
:103CC0000E94691281E001C080E1DF91CF910F91E4
:103CD000FF90EF90DF90CF90BF90AF909F908F902C
:103CE0000895EF92FF920F93E12CF12C01E022E86E
:103CF00031E040E868E07BE00E94C01C882331F09E
:103D000088E09BE00E94911381E001C080E10F9167
:103D1000FF90EF900895CF92DF92EF92FF920F9372
:103D20001F93CF93DF93EC01E12CF12C01E02FEFF7
:103D300031E040E868E07BE00E94C01C81110E94F5
:103D4000680EE12CF12C01E02BEF31E040E868E057
:103D50007BE0CE010E94C01C882341F088E09BE0FC
:103D60000E946C70181619060CF478C0E12CF12C26
:103D700001E028EF31E040E868E07BE0CE010E94FE
:103D8000C01C882391F08091080B813339F4809115
:103D9000B40B80FD0AC00E94404707C0803329F45D
:103DA0008091B40B80FD0E944A47E12CF12C01E088
:103DB00025EF31E040E868E07BE0CE010E94C01CC6
:103DC000882321F188E09BE00E946C708C0118161A
:103DD0001906C4F40E946A436B017C0120E13EE0B5
:103DE000D8010E94B675C60ED71EE81EF91EC092F5
:103DF000BC0BD092BD0BE092BE0BF092BF0B0E94A9
:103E0000534704C0009731F50E945A47E12CF12C2A
:103E100001E022EF31E040E868E07BE0CE010E9463
:103E2000C01C8823C9F08091080B813341F4809134
:103E30007601811111C081E08093760108C0803342
:103E400059F480917601882339F0109276010E940E
:103E50001B4702C081E109C081E007C00E94A71B87
:103E60000E949A1B0E94854381CFDF91CF911F91C1
:103E70000F91FF90EF90DF90CF9008951092C402C1
:103E80001092C3028EE495E09093C6028093C5021F
:103E90009093C8028093C702089581110C949A1BD5
:103EA0008091C7029091C8022091C5023091C6024C
:103EB00060E1821B930B0E949C341092C40210920A
:103EC000C3028EE495E09093C6028093C50290935E
:103ED000C8028093C70208952091C7023091C8029A
:103EE0008091C5029091C602821B930B8A549C4F0D
:103EF00008952F923F924F925F926F927F928F928E
:103F00009F92AF92BF92CF92DF92EF92FF920F9368
:103F10001F93CF93DF93CDB7DEB7A8970FB6F89472
:103F2000DEBF0FBECDBF5C018091B40B85FF01C128
:103F3000E12CF12C01E02EE931E040E868E07BE083
:103F4000C5010E94C01C8823C1F088E09BE00E944C
:103F50006C708C018E3621E0920710F081E138C13F
:103F60000E946A4320E831E541E050E00E9460751C
:103F700069014901801A910A45C0E12CF12C01E048
:103F800028E931E040E868E07BE0C5010E94C01C00
:103F9000811102C080E11CC188E09BE00E948A7010
:103FA0002B013C01E12CF12C01E024E931E040E857
:103FB00068E07BE0C5010E94C01C882359F3A0E89B
:103FC000CA2EA1E5DA2EEE24E394F12CC301B2014E
:103FD000A70196010E94827529013A01490188E0F2
:103FE0009BE00E948A70A70196010E948275690178
:103FF0002415350508F4B2CF241935092E36314081
:1040000008F0ACCF1DA21EA21FA218A6E12CF12C15
:1040100001E02FE831E044E0BE016B5D7F4FC50158
:104020000E94C01C582E80E00E94EF1B8DE891E09A
:104030009F938F9381EC92E09F938F930E943950CE
:1040400084010F900F900F900F90412C6BEA662E19
:1040500061E0762E78E8A72E71E0B72EE1ECEE2E27
:10406000E2E0FE2EFBE88F2EF1E09F2EC016D10677
:1040700008F449C04AE050E068E07BE0C8010E94D3
:10408000267188E09BE00E94971019821A8221E035
:1040900048E05BE060EF74E0CE0101960E94306280
:1040A000882371F11D821E821C821B827A826982A2
:1040B0006091BB0D7091BC0D21E048E05BE0CE014A
:1040C00005960E94306220E030E040E850E068E071
:1040D0007BE0CE0105960E94A55E181619062CF00D
:1040E000CE0105960E9427620BC01092870BE8E074
:1040F000FBE0CF012191222331F32C32D1F71BC0F9
:104100000F5F1F4FB3CF86E891E09F938F9381ECB1
:1041100092E09F938F930E94395061E070E080E0BD
:1041200090E00E94C7520F900F900F900F9080E088
:104130004FC080E24DC09C012E5F3F4F19015520BA
:1041400059F042E050E0B101CE0185960E9409711C
:10415000892B09F0B8CF14C042E050E0B10188EFDC
:1041600091E00E940971892B09F4ADCF42E050E043
:10417000B1018BEF91E00E940971892B09F4A3CF63
:10418000442051F09F928F92FF92EF920E943950FB
:104190000F900F900F900F9088E09BE09F938F936C
:1041A000BF92AF92FF92EF920E9439500E946C1F13
:1041B0000F900F900F900F900F900F9080359105FA
:1041C0001CF0442443947FCF80E00E944D1FF9CF20
:1041D000A8960FB6F894DEBF0FBECDBFDF91CF918A
:1041E0001F910F91FF90EF90DF90CF90BF90AF9015
:1041F0009F908F907F906F905F904F903F902F9007
:10420000089590ED980F9A3060F09FE9980F9630DE
:1042100010F4875508959FEB980F963020F487533C
:104220000895892F089580E00895DF92EF92FF921C
:104230000F931F93CF93DF93EC018C018881882328
:10424000E1F08B32A1F0853299F489810E9401213D
:10425000D82E7E0182E0E80EF11C8A810E940121A5
:1042600090E1D99E90011124822BE70101C080E2E8
:10427000F80181938F012196E1CFF8011082DF913F
:10428000CF911F910F91FF90EF90DF9008952F92A3
:104290003F924F925F926F927F928F929F92AF92D6
:1042A000BF92CF92DF92EF92FF920F931F93CF9323
:1042B000DF9300D000D01F92CDB7DEB75C01BBE426
:1042C000CB2EB1E0DB2E812C912C412C712C512C6A
:1042D0001FE6312E182D123309F477C0183109F476
:1042E00074C0882D8F7E09F470C01E3009F46DC033
:1042F000183209F46AC01B3209F467C0D6012C9049
:10430000F401ED57F24F6490B1E06B1202C0F60178
:10431000108239821A821B821C821D824AE050E080
:10432000BE016E5F7F4FC4010E942671E12CF12C0B
:1043300000E09E012F5F3F4F40E868E07BE0C50151
:104340000E94C01C882361F1F1E06F1203C0D60106
:104350006C9226C088E09BE00E948A702DEE210FAF
:10436000223030F02AED210F223010F0113141F4CB
:10437000CB010E944C2F682F70E080E090E005C0D8
:1043800097FF03C0442443940BC0262D30E040E047
:1043900050E02617370748075907A4F3F601608352
:1043A000D6018C91821589F08FEF810F823010F445
:1043B0005524539480EE810F843028F01F3129F466
:1043C0007724739402C055245394BFEF8B1A9B0A31
:1043D000EFEFCE1ADE0AF3E38F16910409F07ACFDD
:1043E000E12CF12C01E026EE31E040E868E07BE0D2
:1043F000C5010E94C01C8823F1F088E09BE00E9468
:1044000015211092370B6AE074E088E09BE00E946F
:10441000062F882381F0E8E0FBE0DF010D9000200B
:10442000E9F7AD0148505B406AE074E0CF010E94BB
:10443000AE72772473941982FE0131967F0101E0F8
:1044400020EE31E040E868E07BE0C5010E94C01C3E
:104450008823F9F088E09BE00E94152110921F0B41
:104460006AE874E088E09BE00E94062F882321F12F
:10447000E8E0FBE0DF010D900020E9F7AD014850D6
:104480005B406AE874E0CF010E94AE7277247394B7
:1044900013C08981882381F01092080BE8E0FBE0CB
:1044A000DF010D900020E9F7AD0148505B406AE85C
:1044B00074E0CF010E94AE721982FE0131967F0135
:1044C00001E02AED31E040E868E07BE0C5010E94B0
:1044D000C01C882391F088E09BE00E941521109277
:1044E000870BE8E0FBE0DF010D900020E9F7AD016C
:1044F0004150510948505B4011C089818823A9F07F
:104500001092080BE8E0FBE0DF010D900020E9F7D6
:10451000AD014150510948505B4001E020E030E0DE
:10452000BF0186EB9EE00E94F02D80914D0181112C
:104530000DC0E12CF12C01E026ED31E040E868E00F
:104540007BE0C5010E94C01C811141C0E12CF12C0F
:1045500001E022ED31E040E868E07BE0C5010E9427
:10456000C01C8823D1F088E09BE00E9415211092A6
:10457000880BE8E0FBE0DF010D900020E9F7AD01DA
:104580004150510948505B4020E030E0BF0189ECC8
:104590009EE00E94F02D77247394411014C00E9475
:1045A0001B47552029F08091B50B81608093B50B96
:1045B000772059F010928E0B10928F0B1092900B67
:1045C0001092910B02C081E113C081E011C088E01C
:1045D0009BE00E948A706B017C010E94620EC70101
:1045E000B6010E945A42C701B6010E94081BAECF15
:1045F0000F900F900F900F900F90DF91CF911F9120
:104600000F91FF90EF90DF90CF90BF90AF909F9071
:104610008F907F906F905F904F903F902F90089574
:10462000CF92DF92EF92FF920F93CF93DF93CDB7AC
:10463000DEB7C058D1090FB6F894DEBF0FBECDBFAC
:104640006C01E12CF12C01E02EEC31E040E868E057
:104650007BE00E94C01C8823C1F02AEC31E040E8D6
:10466000BE016F5F7F4FC6010E94C01C882359F0B6
:1046700044E250E0BE016F5F7F4F88E09BE00E9404
:104680000971892B21F083E017C080E115C088E013
:104690009BE00E94152110922B0BE8E0FBE0DF016C
:1046A0000D900020E9F7AD0148505B4066EE73E0E5
:1046B000CF010E94AE7281E0C058DF4F0FB6F89470
:1046C000DEBF0FBECDBFDF91CF910F91FF90EF9076
:1046D000DF90CF900895EF92FF920F9320916401A5
:1046E000211118C0E12CF12C01E02AEA36E040E863
:1046F00068E07BE00E94C01C882371F088E09BE0AA
:104700000E94152188E09BE00E94804491E0811185
:1047100004C002C091E001C090E0892F0F91FF908A
:10472000EF900895BF92CF92DF92EF92FF920F9396
:104730001F93CF93DF93EC01CB0168E07BE00E94F5
:104740007744DF93CF9383EA96E09F938F9381EC36
:1047500092E09F938F930E9439500F900F900F908B
:104760000F900F900F90B12C00EA16E0C1ECD2E050
:104770008EE9E82E86E0F82E8091AE0BB81638F55B
:10478000CB2CD12CF601E85FF44F80811F928F93E0
:104790001F930F93DF93CF930E9439508091AE0BFC
:1047A00090E001970F900F900F900F900F900F9047
:1047B000C816D90651F0FF92EF92DF93CF930E9473
:1047C00039500F900F900F900F90B394D5CF8BE985
:1047D00096E09F938F9381EC92E09F938F930E943A
:1047E00039500F900F900F900F90DF91CF911F9144
:1047F0000F91FF90EF90DF90CF90BF900895DF92E0
:10480000EF92FF920F931F93CF93DF9362EA77E0CB
:1048100085E996E00E94922368EA77E089E896E0CD
:104820000E9492236EEA77E082E896E00E9492234B
:1048300064EB77E08AE796E00E9492236AEB77E0E8
:1048400082E796E00E9492238091B40B85FF06C018
:1048500060EC77E08AE696E00E9492238FE596E08E
:104860009F938F9381EC92E09F938F930E94395096
:104870000F900F900F900F90D12C0AE516E0C1EC2D
:10488000D2E098E5E92E96E0F92E8091AD0BD8168E
:1048900098F568E07BE08D2D0E94544428E03BE0D1
:1048A0003F932F931F930F93DF93CF930E94395021
:1048B0004D2D50E02091AD0B30E0215031090F908B
:1048C0000F900F900F900F900F904217530751F0D9
:1048D000FF92EF92DF93CF930E9439500F900F9089
:1048E0000F900F900E946C1F803591051CF480E0A2
:1048F0000E944D1FD394C9CF1F9280E18F9389E40A
:1049000096E09F938F9381EC92E09F938F930E9408
:1049100039500F900F900F900F900F900F9061E013
:1049200070E080E090E0DF91CF911F910F91FF90B8
:10493000EF90DF900C94C75281E00E94EF1B0E9421
:10494000FF2380E008958F929F92AF92BF92CF9203
:10495000DF92EF92FF920F931F93CF93DF93CDB728
:10496000DEB729970FB6F894DEBF0FBECDBF4C015E
:10497000162F6A01BE016F5F7F4FCA010E94774404
:10498000188619861F8310E08091AE0B181728F542
:10499000A12EB12C4AE050E0BE01685F7F4FC501F7
:1049A0000E942671E12CF12C00E09E01295F3F4F0F
:1049B00040E868E07BE0C4010E94C01C882359F0F5
:1049C00088E09BE00E946C70E1E0F0E0EC0FFD1FDE
:1049D000EA0DFB1D80831F5FD7CFBE016F5F7F4F46
:1049E000C6010E94704429960FB6F894DEBF0FBE30
:1049F000CDBFDF91CF911F910F91FF90EF90DF908E
:104A0000CF90BF90AF909F908F900895CF92DF92FC
:104A1000EF92FF920F931F93CF93DF9300D000D0BC
:104A2000CDB7DEB76C0183E789831A821B821C82B3
:104A300010E08091AD0B181710F54AE050E0BE0170
:104A40006E5F7F4F812F90E00E942671E12CF12C48
:104A500000E09E012F5F3F4F40E868E07BE0C60129
:104A60000E94C01C882349F088E09BE00E94152129
:104A700068E07BE0812F0E9462441F5FDACF42EA48
:104A800057E06DE6C6010E94A32448EA57E069E6B4
:104A9000C6010E94A3244EEA57E06EE6C6010E94BA
:104AA000A32444EB57E064E6C6010E94A3244AEB2A
:104AB00057E061E7C6010E94A3248091B40B85FFF3
:104AC00006C040EC57E060E7C6010E94A324E12C39
:104AD000F12C01E028E236E040E868E07BE0C60126
:104AE0000E94C01C8823D1F188E09BE00E946C707A
:104AF000182F8091AD0B811778F125E236E040E860
:104B000068E07BE0C6010E94C01C882349F122E2D4
:104B100036E04FE769E07BE0C6010E94C01C8823B5
:104B2000F9F09091080B90539093080B1092800B22
:104B3000E8E0FBE0DF010D900020E9F7AD01B9E707
:104B40001B9F9001112448505B4000E0BF0180ECA6
:104B50009EE00E94F02D02C081E103C081E001C00F
:104B600080E10F900F900F900F90DF91CF911F91E8
:104B70000F91FF90EF90DF90CF900895CF93DF9348
:104B8000DC011092080BC8E0DBE0ED91FC9111977D
:104B9000AE0148505B409F018D919C9111970A9600
:104BA000E817F90758F481918D3231F08B3221F0FA
:104BB00090ED980F9A3010F48993EACFFA01E85FEC
:104BC000F44F10822F5F3F4F2D933C9388E09BE082
:104BD0000E948A70CB01DF91CF910895BF92CF924E
:104BE000DF92EF92FF920F931F93CF93DF9300D04A
:104BF000CDB7DEB78C010E9415211A830983780195
:104C000084E6E80EF11C09811A81F8018081811186
:104C100002C080E15AC00E151F05D8F743E050E0EE
:104C20006EEF71E0C8010E940971892B29F00F5FB6
:104C30001F4F1A830983E7CF0D5F1F4F1A83098324
:104C40000E94620EC12CD12C2EEFB22E8091AD0BA2
:104C5000D81698F5CE0101960E94BE257C010097DA
:104C600051F18D2D90E033E0969587953A95E1F7D7
:104C70008C54984F0E947E44282F30E08D2D8770F1
:104C800002C0359527958A95E2F720FD14C00E9451
:104C9000812F8C01009779F0F80110821182128225
:104CA0001382C7010E94262FF80175836483B7829F
:104CB000D682CC24C394D394C9CFCC2009F4A9CFF5
:104CC0000E946A430E94890D81E00F900F90DF914E
:104CD000CF911F910F91FF90EF90DF90CF90BF90F9
:104CE0000895AF92BF92CF92DF92EF92FF920F930F
:104CF0001F93CF93DF93CDB7DEB7CD57D1090FB652
:104D0000F894DEBF0FBECDBF5C01E12CF12C01E0B9
:104D10002EE036E040E868E07BE00E94C01C88237B
:104D200009F469C088E09BE00E946C706C018FEF11
:104D3000C816D80614F481E1E4C080918D0A90E091
:104D4000C816D906C4F7E12CF12C01E029E036E0C1
:104D500040E868E07BE0C5010E94C01C882371F038
:104D600088E09BE00E94152140E150E068E07BE094
:104D7000CE0184599F4F0E94177118C060EF76E0F2
:104D8000CE0184599F4F0E94C870EFEFCE16DE0609
:104D900021F480918D0A90E001C0C60101964AE09D
:104DA00050E0BE016C587F4F0E942671C5010E94E1
:104DB0001521EE96BFAEAEAEEE97F4E6AF0EB11C87
:104DC000EE960EAD1FADEE97F8018081882399F025
:104DD0000A151B0580F443E050E062E072E0C80170
:104DE0000E940971892B49F00F5F1F4FEE961FAF8C
:104DF0000EAFEE97E5CF80E184C00D5F1F4FEE96BA
:104E00001FAF0EAFEE97CE0184589F4F0E94BE2574
:104E10008983CE0184589F4F0E94BE258A83CE018C
:104E200084589F4F0E94BE258B83EE968EAD9FAD1A
:104E3000EE970196EE969FAF8EAFEE978E010C5FC8
:104E40001F4F5E018CE0A80EB11CCE0184589F4F0D
:104E50000E94BE25F801819391938F01EA15FB050D
:104E6000A1F7EE968EAD9FADEE970296EE969FAFB0
:104E70008EAFEE9710E08091AD0B181778F4CE014D
:104E800084589F4F0E94BE25FE013196E10FF11D0F
:104E9000E10FF11D948783871F5FEDCFEE968EADF6
:104EA0009FADEE970296EE969FAF8EAFEE971033C2
:104EB00050F4FE013196E10FF11DE10FF11D148652
:104EC00013861F5FF4CF89818073803339F48B811F
:104ED000823020F0CE0102960E944C32FFEFCF16B6
:104EE000DF0629F4CE0101960E94EC2F06C0BE0118
:104EF0006F5F7F4F8C2D0E943F30882309F41BCFBA
:104F000081E0C358DF4F0FB6F894DEBF0FBECDBFB0
:104F1000DF91CF911F910F91FF90EF90DF90CF9095
:104F2000BF90AF9008954F925F926F927F928F9251
:104F30009F92AF92BF92CF92DF92EF92FF920F9328
:104F40001F93CF93DF931F92CDB7DEB74BE4E42ED0
:104F500041E0F42E06EB1DE020E051E0C52E56E0C6
:104F6000D52E61EC862E62E0962E7FEFA72E75E09F
:104F7000B72EF70181917F01482E512C612C712CA5
:104F80009DEE920F923030F09AED920F923010F029
:104F9000213149F429830E94602F2C01662457FC9B
:104FA0006094762C29812E31D1F12031C1F12A3142
:104FB00021F48091B40B87FD32C08091F60A8130D4
:104FC00021F485EE820F823050F145E050E0B801C7
:104FD00088E09BE029830E94F82E7F926F925F9277
:104FE0004F9288E09BE09F938F93DF92CF929F92A6
:104FF0008F920E9439500FB6F894DEBF0FBECDBF1E
:105000002981223361F0BF92AF929F928F922983C0
:105010000E9439500F900F900F900F9029812F5FB1
:105020000B5F1F4F233309F0A4CF1091AF0B0E94E9
:10503000DE431F921F931F9225E02F939F938F9320
:1050400080EE95E09F938F9381EC92E09F938F93F6
:105050000E9439500FB6F894DEBF0FBECDBF61E09D
:1050600070E080E090E00F90DF91CF911F910F9161
:10507000FF90EF90DF90CF90BF90AF909F908F9078
:105080007F906F905F904F900C94C75281E00E9488
:10509000EF1B0E94932780E008952F923F924F923A
:1050A0005F926F927F928F929F92AF92BF92CF92B8
:1050B000DF92EF92FF920F931F93CF93DF93CDB7C1
:1050C000DEB7CB57D1090FB6F894DEBF0FBECDBF08
:1050D0001F9280E18F931F9284E08F931F9288E04C
:1050E0008F938091AE0B1F928F9380918D0A1F92A8
:1050F0008F9381EA95E09F938F9381EC92E09F9349
:105100008F930E9439500FB6F894DEBF0FBECDBF0B
:10511000312CF5E94F2EF5E05F2E01EC12E03E0157
:105120005AE0650E711C6801ABE8AA2EA5E0BA2E04
:10513000B7E88B2EB5E09B2E80918D0A381608F0CB
:10514000C3C0BE016F5F7F4F832D0E94DB2F89811B
:105150008073803339F48B81823020F0CE01029647
:105160000E940E328B811F928F938A811F928F93A0
:1051700089811F928F935F924F921F930F930E948A
:105180003950CE0104967C010FB6F894DEBF0FBEF5
:10519000CDBFF70120813181F2E0EF0EF11C3F938A
:1051A0002F93A1E9B5E0BF93AF931F930F930E9494
:1051B00039500F900F900F900F900F900F90E614B2
:1051C000F70439F78B858F938A858F93BF92AF92BF
:1051D000DF92CF920E9439500F900F900F900F9056
:1051E0000F900F90212C422D50E08091AD0B90E05C
:1051F00001979A01220F331FE1E0F0E0EC0FFD1F51
:10520000E20FF31F481759079CF4838594851F927A
:105210001F929F938F939F928F921F930F930E9441
:10522000395023940FB6F894DEBF0FBECDBFDBCF4D
:10523000838594851F921F929F938F9381E895E0B9
:105240009F938F931F930F930E94395040E150E03A
:10525000BE0164597F4F88E09BE00E941771109255
:10526000180B88E09BE09F938F938EE795E09F93C8
:105270008F931F930F930E943950232D30E080911C
:105280008D0A90E001970FB6F894DEBF0FBECDBF38
:105290002817390719F08AE795E002C087E795E0FB
:1052A0009F938F931F930F930E9439500F900F90ED
:1052B0000F900F900E946C1F8A3F91051CF480E0B4
:1052C0000E944D1F339438CF84E795E09F938F93CE
:1052D00081EC92E09F938F930E94395061E070E0DF
:1052E00080E090E00E94C7520F900F900F900F90B7
:1052F000C558DF4F0FB6F894DEBF0FBECDBFDF91AC
:10530000CF911F910F91FF90EF90DF90CF90BF90C2
:10531000AF909F908F907F906F905F904F903F9055
:105320002F90089581E00E94EF1B0E944D2880E09D
:1053300008954F925F926F927F928F929F92AF9259
:10534000BF92CF92DF92EF92FF920F931F93CF9372
:10535000DF930E946A436B017C018091DB088F938D
:105360008091DA088F938091D9088F938091D80823
:105370008F938091D7088F938091D6088F938091D7
:10538000D5081F928F938091D4081F928F9380919C
:105390008D0B8F9380918C0B8F9380918B0B8F93C0
:1053A00080918A0B8F938091910B8F938091900BBA
:1053B0008F9380918F0B8F9380918E0B8F93809121
:1053C000C30B8F938091C20B8F938091C10B8F93EE
:1053D0008091C00B8F938091BB0B8F938091BA0B00
:1053E0008F938091B90B8F938091B80B8F9384E04A
:1053F0008F939AE89F938F938AE08F938091BF0B4E
:105400008F938091BE0B8F938091BD0B8F93809172
:10541000BC0B8F938091B40B82FB882780F91F927D
:105420008F938091B40B869581701F928F9380919A
:10543000B40B81701F928F938091AE0B1F928F934C
:10544000FF92EF92DF92CF9288ED92E09F938F933D
:10545000C1ECD2E0DF93CF930E9439502DB73EB715
:105460002E5C3F4F0FB6F8943EBF0FBE2DBF80910C
:1054700060018230F9F41F928EE18F9380919E0B30
:105480008F9380919D0B8F9380919C0B8F93809134
:105490009B0B8F9381EC92E09F938F93DF93CF933D
:1054A0000E9439508DB79EB70A960FB6F8949EBFEA
:1054B0000FBE8DBF87EB92E09F938F9381EC92E0BC
:1054C0009F938F930E9439500F900F900F900F90E1
:1054D000B12CC3EBD2E001EC12E08091AE0BB81618
:1054E000A8F4EB2DF0E0E955F44F80811F928F93E3
:1054F000DF93CF931F930F930E943950B3940F9073
:105500000F900F900F900F900F90E7CF89EA92E0E5
:105510009F938F9381EC92E09F938F930E943950D9
:105520000F900F900F900F90912C0EE912E0C1ECAC
:10553000D2E08091AD0B981608F074C0A92CB12C64
:10554000F501E452F74FE081EF3F51F128E0E29F8F
:10555000F0011124E45FF64F408151816281738133
:1055600084819581C416D506E606F706B0F02A01B7
:105570003B01480E591E611C711CD301C2018C19DC
:105580009D09AE09BF09009721E0A207B10508F403
:105590008DC080E090E0DC0189C0A0E0B0E086C072
:1055A000812CF0E0E0E040E080E090E0DC0120E0F1
:1055B00030E04F93EF93FF938F92BF93AF939F93FE
:1055C0008F933F932F931F930F93DF93CF930E945B
:1055D00039508091AD0B90E001972DB73EB7225F17
:1055E0003F4F0FB6F8943EBF0FBE2DBFA816B906A9
:1055F0001CF48CE992E002C08AE992E09F938F93B9
:10560000DF93CF930E9439500E946C1F0F900F9030
:105610000F900F90803591051CF480E00E944D1F83
:10562000939487CF20E030E040E850E068E07BE0F2
:1056300089EC9EE00E94512E8823A1F088E09BE037
:105640009F938F938EE892E09F938F9381EC92E0EB
:105650009F938F930E9439500F900F900F900F904F
:105660000F900F908CE892E09F938F9381EC92E0E3
:105670009F938F930E9439500F900F900F900F902F
:1056800061E070E080E090E0DF91CF911F910F9199
:10569000FF90EF90DF90CF90BF90AF909F908F9052
:1056A0007F906F905F904F900C94C752278130E0AD
:1056B000842EF52FE62F472F7CCF81E00E94EF1B31
:1056C0000E94992980E00895CF93DF930E94A71B41
:1056D00080E297E09F938F9384E592E09F938F936E
:1056E000C1ECD2E0DF93CF930E94395080916401E6
:1056F0001F928F931F9289ED8F9386E392E09F9381
:105700008F93DF93CF930E94395084E08F938AE385
:105710008F9383E092E09F938F93DF93CF930E94C8
:1057200039508DB79EB744960FB6F8949EBF0FBE02
:105730008DBF80E0DF91CF910895CF93DF93FC017F
:10574000DF012081203219F0EC0128830196319687
:105750002C912111F5CFDF91CF910895EF92FF9217
:105760000F93CF93DF93EC01E12CF12C01E02EEEAF
:1057700031E040E868E07BE00E94C01C8823C1F073
:1057800088E09BE00E9415211092300B88E09BE09E
:105790000E949D2BE8E0FBE0DF010D900020E9F77F
:1057A000AD0148505B406AE374E0CF010E94AE72E5
:1057B000E12CF12C01E02AEE31E040E868E07BE0EA
:1057C000CE010E94C01C8823C1F088E09BE00E94AB
:1057D00015211092300B88E09BE00E949D2BE8E0A1
:1057E000FBE0DF010D900020E9F7AD0148505B4080
:1057F00062E674E0CF010E94AE728FEFDF91CF912D
:105800000F91FF90EF900895BF92CF92DF92EF92A9
:10581000FF920F931F93CF93DF9383EC91E09F93BD
:105820008F9381EC92E09F938F930E9439500F9059
:105830000F900F900F90B12C00EC11E0C1ECD2E072
:105840009EEBE92E91E0F92E8091AD0BB816B0F5E4
:10585000CB2CD12CF60183E0F595E7958A95E1F7FD
:10586000E955F44F808190E02B2D277002C095956B
:1058700087952A95E2F7817099279F938F931F93BD
:105880000F93DF93CF930E9439508091AD0B90E03E
:1058900001970F900F900F900F900F900F90C816D8
:1058A000D90651F0FF92EF92DF93CF930E943950C7
:1058B0000F900F900F900F90B394C6CF1F928F93BD
:1058C0008CEA91E09F938F9381EC92E09F938F936A
:1058D0000E9439500F900F900F900F900F900F90E3
:1058E00061E070E080E090E0DF91CF911F910F9137
:1058F000FF90EF90DF90CF90BF900C94C75281E063
:105900000E94EF1B0E94042C80E00895CF93DF9348
:1059100081E00E94EF1B85E791E09F938F93C1EC9C
:10592000D2E0DF93CF930E9439500E94992980E002
:105930000E944D1F87E691E09F938F93DF93CF9353
:105940000E9439500E944D2880E00E944D1F8AE538
:1059500091E09F938F93DF93CF930E9439500E94E1
:10596000932780E00E944D1F8EE491E09F938F93D8
:10597000DF93CF930E9439500E94042C80E00E9454
:105980004D1F80E491E09F938F93DF93CF930E940C
:1059900039500E94FF238EE391E09F938F93DF9312
:1059A000CF930E94395061E070E080E090E00E9467
:1059B000C7528DB79EB748960FB6F8949EBF0FBEDC
:1059C0008DBF80E0DF91CF9108950F931F93CF9308
:1059D000DF938C010E9469340E943E1FD801159606
:1059E0006C91603219F40E94642B47C025EC36E0BC
:1059F000C0E0D0E0862F992787FD9095F90144916A
:105A000050E04817590709F075C03196E491D80164
:105A100016967C91F0E0472F552747FD5095E417E7
:105A2000F50709F067C0085F1F4F633761F16A36F9
:105A300079F57F3659F5C8010E946B2381112DC07D
:105A400081E00E94EF1B80914B011F928F9386EBA8
:105A50009DE09F938F9385E391E09F938F9381ECDB
:105A600092E09F938F930E943950EDB7FEB738961E
:105A70000FB6F894FEBF0FBEEDBFDF91CF911F911F
:105A80000F910C949A1B753719F407C0713699F26F
:105A9000C8010E946B238823B1F0CC0FDD1FC25FC9
:105AA000DE4FE881F981C8010995C82F882329F3C1
:105AB0008F3F51F40E94A71B89EF96E09F938F932D
:105AC00082E391E008C0C2E081E00E94EF1B1F92D8
:105AD000CF9385E291E09F938F9381EC92E09F9327
