:100000000C9471070C9432550C945F550C948C55DC
:100010000C9499070C9499070C9499070C949907E0
:100020000C9411140C9499070C9499070C9499074B
:100030000C9499070C9499070C9499070C949907C0
:100040000C9499070C9499070C943B560C949907BF
:100050000C942F580C94BD580C9499070C94990744
:100060000C9499070C9499070C94F1720C949907CD
:100070000C9464580C94F8580C9499074E545020E2
:1000800053796E63696E672E2E2E002020007273E6
:1000900000726400776C00666C00005D0D0A002C35
:1000A00000222C002C22002C002C005B002E7478E7
:1000B0007400302E2054657374202831206D696ED1
:1000C00029002E20002000486F6C642042332074E9
:1000D0006F20737461727400436C69636B204233E8
:1000E00020746F206C6973740052756E206120500B
:1000F000726F6772616D3A00286C7377632900280C
:10010000656970290020286F73697029003A0028FA
:1001100067776970290077746F7074732E747874C0
:100120000073746E732E64617400667776000074D9
:100130007A0000006E74700000646863700069707B
:10014000310000697032000069703300006970345A
:10015000000067773100006777320000677733006F
:10016000006777340000687030000068703100006C
:10017000687776000065787400007365710000731D
:10018000647400006D617300006D746F6E006D74B7
:100190006F6600757273000072736F0000776C00F9
:1001A000000064656E0000697061730064657669C3
:1001B00064636F6E00006C6974000064696D000018
:1001C000627374000075777400006E747031006E95
:1001D000747032006E747033006E747034006C672B
:1001E0000000006D617332006D746F6E326D746F5C
:1001F000663266776D00006670723000667072312C
:100200000072650000007265736574004669726D66
:10021000776172652076657273696F6E54696D657A
:10022000207A6F6E652028474D54293A456E6162E9
:100230006C65204E54502073796E633F456E616249
:100240006C6520444843503F202020205374617443
:1002500069632E6970313A20202020205374617424
:1002600069632E6970323A20202020205374617413
:1002700069632E6970333A20202020205374617402
:1002800069632E6970343A2020202020476174650C
:100290007761792E6970313A20202020476174659A
:1002A0007761792E6970323A202020204761746589
:1002B0007761792E6970333A202020204761746578
:1002C0007761792E6970343A2020202048545450A8
:1002D00020506F72743A2020202020202D2D2D2DAB
:1002E0002D2D2D2D2D2D2D2D2D2D2D2D4861726473
:1002F000776172652076657273696F6E23206F6611
:10030000206578702E20626F6172643A2D2D2D2D3C
:100310002D2D2D2D2D2D2D2D2D2D2D2D53746E2E5E
:100320002064656C61792028736563294D6173745D
:100330006572203120284D617331293A4D61733146
:1003400020206F6E2061646A7573743A4D61733159
:10035000206F66662061646A7573743A53656E73C4
:100360006F7220747970653A202020204E6F726D74
:10037000616C6C79206F70656E3F202057617465E9
:1003800072696E67206C6576656C3A2044657669A3
:10039000636520656E61626C65643F2049676E6FBE
:1003A00072652070617373776F72643F446576691C
:1003B00063652049443A2020202020204C434420DB
:1003C000636F6E74726173743A2020204C43442032
:1003D0006272696768746E6573733A204C43442097
:1003E00064696D6D696E673A202020204443206265
:1003F0006F6F73742074696D653A2020576561745E
:1004000068657220616C676F2E3A20204E54502030
:100410007365727665722E6970313A204E545020A1
:100420007365727665722E6970323A204E54502090
:100430007365727665722E6970333A204E5450207F
:100440007365727665722E6970343A20456E61620A
:100450006C65206C6F6767696E673F204D617374D0
:100460006572203220284D617332293A4D61733212
:1004700020206F6E2061646A7573743A4D61733227
:10048000206F66662061646A7573743A4669726D9E
:1004900077617265206D696E6F723A2050756C736A
:1004A0006520726174653A20202020202D2D2D2D8D
:1004B0002D2D2D2D2D2D2D2D2D2D2D2D41732072DA
:1004C000656D6F7465206578742E3F204661637496
:1004D0006F72792072657365743F202000006C0193
:1004E00001FFFFFFFFFFFFFFFFFFFF000501F730E8
:1004F0003C78FF01FA0101FFFFFFFFFAFFFFFFFF5A
:10050000FF01303C7800FFFF010120736563002587
:10051000004E6F00596573002E002B002B00303009
:10052000003A002D002B000020202020002D4469DF
:100530007361626C6564212D003A0045004D433AB9
:100540000020284D414329002D002E004D6F6E00E4
:1005500054756500576564005468750046726900FB
:100560005361740053756E00002D002000202000A0
:100570003A00200020414300204C41002044430029
:100580004857207600204F70656E537072696E6B0D
:100590006C657200486F6C6420423320746F207366
:1005A0006176650042312F42323A2B2F2D2C2042AA
:1005B000333A2D3E003D3D536574204F7074696F92
:1005C0006E733D3D00506C656173652057616974C1
:1005D0002E2E2E00526573657474696E672E2E2E52
:1005E000002A002F636D003F70773D244526736914
:1005F000643D244426656E3D244426743D24440015
:10060000436F6E6E656374696E672E2E2E00507296
:100610006F6772616D200063766A636470637063F4
:100620007275706A70636F6A6F73706A73636D63FB
:10063000736A6E6A656A6C646C737563756A61006F
:100640003C7363726970743E77696E646F772E6C69
:100650006F636174696F6E3D222F223B3C2F736381
:10066000726970743E0A0022726573756C74223A66
:1006700024447D0022726573756C74223A24447D93
:1006800000244600222446223A24447D007D002C8A
:100690002273746174696F6E73223A7B002C22732B
:1006A0007461747573223A7B002C226F7074696FC9
:1006B0006E73223A7B002C2270726F6772616D73C9
:1006C000223A7B002273657474696E6773223A7BE9
:1006D00000646179005D002453002C005B00747994
:1006E000706500656E64007374617274006869738C
:1006F00074007400656E00736964005D2C226E7373
:10070000746174696F6E73223A24447D002C002456
:10071000440022736E223A5B00637077006E70773C
:100720000077746F007474740077746B6579006C73
:100730006F6300777370006A737000726500726493
:1007400000656E007262740072736E003C6D6574B9
:1007500061206E616D653D2276696577706F727498
:100760002220636F6E74656E743D227769647468CD
:100770003D6465766963652D77696474682C696E7C
:10078000697469616C2D7363616C653D312E302C29
:100790006D696E696D756D2D7363616C653D312E8C
:1007A000302C757365722D7363616C61626C653D8D
:1007B0006E6F223E0D0A003C736372697074207381
:1007C00072633D2224452F686F6D652E6A73223E49
:1007D0003C2F7363726970743E0A3C2F626F6479B8
:1007E0003E0A3C2F68746D6C3E007661722076651F
:1007F000723D24442C697061733D24443B3C2F734B
:1008000063726970743E0A003C21444F435459504E
:10081000452068746D6C3E0A3C68746D6C3E0A3C01
:10082000686561643E0A24463C2F686561643E0A3F
:100830003C626F64793E0A3C7363726970743E0077
:100840007D002C2277746F223A7B24537D005D005B
:100850002C005B24442C244C2C244C5D00305D2C5B
:10086000227073223A5B0024442C00227362697464
:1008700073223A5B0022666C637274223A244C2C19
:1008800022666C777274223A24442C0022646576C6
:1008900074223A244C2C226E627264223A24442C34
:1008A00022656E223A24442C227264223A24442C7B
:1008B000227273223A24442C2272647374223A24E2
:1008C0004C2C226C6F63223A222445222C2277740E
:1008D0006B6579223A222445222C2273756E726947
:1008E0007365223A24442C2273756E736574223A20
:1008F00024442C22656970223A244C2C226C7763A4
:10090000223A244C2C226C737763223A244C2C22FA
:100910006C72756E223A5B24442C24442C24442CA3
:10092000244C5D2C003C666F726D206E616D653DE0
:100930006F6620616374696F6E3D6375206D6574C9
:10094000686F643D6765743E3C7461626C652063EA
:10095000656C6C73706163696E673D223132223E53
:100960003C74723E3C74643E3C623E4A6176615324
:1009700063726970743C2F623E3A3C2F74643E3C53
:1009800074643E3C696E70757420747970653D7452
:100990006578742073697A653D3430206D61786CB8
:1009A000656E6774683D34302076616C75653D22F4
:1009B000244522206E616D653D6A73703E3C2F7444
:1009C000643E3C2F74723E3C74723E3C74643E4400
:1009D000656661756C743A3C2F74643E3C74643E89
:1009E00024533C2F74643E3C2F74723E3C74723E20
:1009F0003C74643E3C623E576561746865723C2F8E
:100A0000623E3A3C2F74643E3C74643E3C696E70B6
:100A1000757420747970653D746578742073697A93
:100A2000653D3430206D61786C656E6774683D3467
:100A3000302076616C75653D22244522206E616D03
:100A4000653D7773703E3C2F74643E3C2F74723E5C
:100A50003C74723E3C74643E44656661756C743AE5
:100A60003C2F74643E3C74643E24533C2F74643EBB
:100A70003C2F74723E3C74723E3C74643E3C623E59
:100A800050617373776F72643C2F623E3A3C2F74EF
:100A9000643E3C74643E3C696E7075742074797079
:100AA000653D70617373776F72642073697A653D19
:100AB0003332206E616D653D70773E203C696E700B
:100AC000757420747970653D7375626D69743E3C10
:100AD0002F74643E3C2F74723E3C2F7461626C65CF
:100AE0003E3C2F666F726D3E3C736372697074207A
:100AF0007372633D68747470733A2F2F75692E6F2B
:100B000070656E737072696E6B6C65722E636F6D5B
:100B10002F6A732F6861736865722E6A733E3C2F6B
:100B20007363726970743E005D7D00225D00225D1A
:100B30002C00245300244C5D2C2200244C2C002437
:100B4000445D2C5B0024442C005B24442C24442C66
:100B500024442C5B00226E70726F6773223A244427
:100B60002C226E626F61726473223A24442C226DCF
:100B70006E70223A24442C226D6E7374223A2444FF
:100B80002C22706E73697A65223A24442C22706498
:100B9000223A5B002C2264657870223A24442C228D
:100BA0006D657870223A24442C22687774223A24A6
:100BB000447D002C00222453223A2444006E616DAF
:100BC0006500706964007069640070696400736432
:100BD00000737400736964007D00222444223A7B10
:100BE000227374223A24442C227364223A2224531E
:100BF000227D002C005D2C226D61786C656E223A9E
:100C000024447D002C00222453220022736E616D47
:100C10006573223A5B0073746E5F73706500737462
:100C20006E5F7365710073746E5F646973006D61EC
:100C3000736F70320069676E6F72655F7261696EA3
:100C4000006D61736F70005D2C002C002444002245
:100C50002446223A5B00707700485454502F312EBE
:100C60003120323030204F4B0D0A00436F6E7465D7
:100C70006E742D547970653A206170706C6963618F
:100C800074696F6E2F6A736F6E0D0A436F6E6E65B7
:100C90006374696F6E3A20636C6F73650D0A00416F
:100CA00063636573732D436F6E74726F6C2D416C4B
:100CB0006C6F772D4F726967696E3A202A0D0A00B2
:100CC00043616368652D436F6E74726F6C3A206D7B
:100CD00061782D6167653D302C206E6F2D636163F7
:100CE00068652C206E6F2D73746F72652C206D7586
:100CF00073742D726576616C69646174650D0A00A8
:100D00007B0024462446244624460D0A00436F6E89
:100D100074656E742D547970653A20746578742FFB
:100D200068746D6C0D0A0024462446244624460D42
:100D30000A000001080006040001450000820000CE
:100D400040002000504F5354202446204854545013
:100D50002F312E300D0A486F73743A2024460D0A45
:100D6000244624534163636570743A202A2F2A0D68
:100D70000A436F6E74656E742D4C656E6774683AC5
:100D80002024440D0A436F6E74656E742D5479707F
:100D9000653A206170706C69636174696F6E2F7859
:100DA0002D7777772D666F726D2D75726C656E631A
:100DB0006F6465640D0A0D0A2453004745542024CE
:100DC00046245320485454502F312E300D0A486F7A
:100DD00073743A2024460D0A24460D0A0D0A004178
:100DE00063636570743A20746578742F68746D6CF1
:100DF00000E30004FA0001000000012A002F7765DB
:100E000061746865720024442E70793F6C6F633D95
:100E10002445266B65793D2445266677763D244436
:100E20002677746F3D245300726400747A007363F4
:100E3000616C65006569700073756E73657400732D
:100E4000756E726973650000002100240027002A76
:100E50000000002200250028002B000000200023B5
:100E60000026002900020202020202020204040417
:100E70000404040404030303030303030301010143
:100E80000101010101010204081020408001020457
:100E9000081020408001020408102040808040207B
:100EA0001008040201000000010200000000000020
:100EB000000403070600000000000000000000001E
:100EC00000000000007C3C3E5E2B3D3F2F5B5D3B05
:100ED0002C2A225C0000770E55145821D859D75B74
:100EE000B16E11241FBECFEFD0E1DEBFCDBF12E047
:100EF000A0E0B1E0ECEDFAEE02C005900D92A8384A
:100F0000B107D9F71EE0A8E8B2E001C01D92A133F5
:100F1000B107E1F71EE0C2EEDEE004C02297FE0159
:100F20000E946875C63DD107C9F70E946E5A0C949D
:100F3000E0070C940000FC0188279927E894219190
:100F40002032E9F3293010F02E30C8F32B3241F073
:100F50002D3239F4689404C00E94C308820F911D99
:100F6000219120532A30C0F31EF4909581959F4F14
:100F700008951F93FC0199278827BC01E8941191DB
:100F80001032E9F3193010F01E30C8F31B3251F063
:100F90001D3249F4689406C00E94AE08610F711DAD
:100FA000811D911D119110531A30B0F33EF49095AC
:100FB0008095709561957F4F8F4F9F4F1F9108953A
:100FC000F8940C946C75FB01DC0102C005900D9245
:100FD00041505040D8F70895FB01DC010D900020EE
:100FE000E9F7119705900D920020E1F70895FB01B4
:100FF000DC0105900D920020E1F70895FB01DC0172
:1010000004C08D910190801921F441505040C8F7DF
:10101000881B990B0895FB01DC0102C001900D9221
:1010200041505040D8F70895DC0101C06D93415004
:101030005040E0F70895FB01DC010D900020E9F736
:10104000119701900D920020E1F70895FC01819124
:10105000861721F08823D9F7992708953197CF0172
:101060000895FB01DC0101900D920020E1F7089545
:10107000FB01DC014150504030F08D91019080190E
:1010800019F40020B9F7881B990B0895FB01DC01C6
:101090004150504048F001900D920020C9F701C026
:1010A0001D9241505040E0F70895A0E0B0E0EBE51C
:1010B000F8E00C9439757C01EB018A01690109C0E3
:1010C000CE012196F6010995F70181937F01015028
:1010D000104001151105A1F7CDB7DEB7E8E00C947B
:1010E0005575A0E0B0E0E7E7F8E00C943975EC0145
:1010F0007B018A01690109C0CE012196F701619146
:101100007F01F60109950150104001151105A1F765
:10111000CDB7DEB7E8E00C945575FB019F01E8946C
:101120004230C4F04532B4F44A3029F497FB1EF43F
:10113000909581959F4F642F77270E94CB74805D97
:101140008A330CF0895D8193CB010097A1F716F4E7
:101150005DE251931082C9010C94F008592F482F79
:10116000372F262F660F771F881F991F660F771F4F
:10117000881F991F620F731F841F951F660F771FAB
:10118000881F991F08957AE0979F902D879F802D43
:10119000910D11240895FA01CF93FF93EF9322301C
:1011A000CCF02532BCF4C22F2C2F332744275527EF
:1011B000FF93EF930E94F274EF91FF91605D6A33A9
:1011C0000CF0695D6193B901CA01605070408040C4
:1011D000904051F710828F919F91CF910C94F0081D
:1011E000DC01FC01672F71917723E1F7329704C08E
:1011F0007C916D9370836291AE17BF07C8F3089519
:10120000DF93CF9300D000D000D0CDB7DEB7DE01A2
:101210001196ECE1F2E086E001900D928150E1F749
:1012200086E191E0EEEEF2E0DF019C011D9221509B
:101230003040E1F780918802833019F46EED72E05E
:1012400003C0BE016F5F7F4F84E490E043E450E051
:101250000E94E64780918802833039F08EEE92E05A
:10126000BE016F5F7F4F0E94E65481E080931803B8
:101270008093190386E080931A03809195029091E0
:101280009602A0919702B091980280931C039093CC
:101290001D03A0931E03B0931F0380918802833027
:1012A00039F488E193E00C966EEC72E00E94EE5403
:1012B00084E393E068EC72E00E94E654A4E0B4E0BA
:1012C000E0EBF1E002C081918D9331E0E63BF30762
:1012D000D1F790918802992311F083E001C081E059
:1012E00080930A048DE380930B0487E080930C04C1
:1012F00081E080930D04AEE0B4E0E8ECF2E002C0DF
:1013000081918D9382E0EE3CF807D1F78CE08093D9
:10131000140485E080931504EAEAF1E0A6E1B4E064
:1013200002C081918D9321E0EF3AF207D1F72BE1D2
:1013300034E030939D0220939C02913069F582E362
:1013400080931B0484E080931C04D9011296EEEC78
:10135000F2E002C081918D9332E0E23DF307D1F7D4
:1013600086E38093210484E08093220483E294E066
:1013700090939D0280939C02DC01EEEDF2E002C0AE
:1013800081918D9382E0E23EF807D1F787E294E005
:1013900090939D0280939C0220919B02222311F046
:1013A00094E001C093E0A0919C02B0919D02FD01E8
:1013B00087E3819311969C93DF01119681E08183ED
:1013C000FD01319683E011968C93DF01119686E042
:1013D0008183CD01019690939D0280939C022223EC
:1013E00039F011962C93019690939D0280939C0264
:1013F000E0919C02F0919D028FEF8193F0939D020A
:10140000E0939C02CF01885193400E94CC492696DC
:101410000FB6F894DEBF0FBECDBFCF91DF91089518
:10142000BF92CF92DF92EF92FF920F931F93CF93D1
:10143000DF938C0180918802823009F401C18330EE
:1014400030F4882351F1813009F076C14BC08330EC
:1014500021F0843009F070C1F3C00E9480502091C7
:101460008D0230918E0240918F0250919002E09057
:101470008902F0908A0200918B0210918C022E0D4D
:101480003F1D401F511F261737074807590708F00F
:1014900053C10E94000984E018C00E9483566093E3
:1014A00095027093960280939702909398021092FF
:1014B000CE021092CF021092D0021092D1020E945E
:1014C000000981E00E94190F81E0809388020E9448
:1014D000835660939102709392028093930290934B
:1014E00094022AC10634110508F4DEC0809111036C
:1014F000833409F0D9C020911C0330911D03409121
:101500001E0350911F038091950290919602A09125
:101510009702B0919802281739074A075B0709F02C
:10152000C3C0C8E0D4E0FE01A80142515D4FDF0115
:10153000119691819D012F5F3F4F8081853329F462
:1015400011968C91823009F4CEC0F901E90FF11D9A
:10155000E417F50760F3A8C0FE019191B980EF018F
:1015600021969333E1F0943340F4933091F0963028
:1015700099F0913009F04FC009C09A3381F09F3F34
:1015800009F45AC0963309F046C03FC082ED92E09C
:101590003EC08AED92E03BC082EE92E038C081818D
:1015A00090E0A0E0B0E0BA2FA92F982F88272981DA
:1015B000820F911DA11DB11DBA2FA92F982F882729
:1015C0002A81820F911DA11DB11DBA2FA92F982F1D
:1015D00088272B81820F911DA11DB11D80938D0243
:1015E00090938E02A0938F02B09390028158914500
:1015F000A140B04008F499C0C0928D02D0928E02F2
:10160000E0928F02F092900290C08EED92E0BE01C7
:101610000E94EE548AC0E0919902F0919A023097AC
:1016200009F483C080919B02981709F07EC0892F2E
:10163000BE014B2D099579C00E94000982E045CF7B
:101640000634110588F180911103833469F52091E6
:101650001C0330911D0340911E0350911F03809184
:10166000950290919602A0919702B0919802281746
:1016700039074A075B07C1F4E8E0F4E0A8014251EA
:101680005D4FDF01119691819D012F5F3F4F80815A
:10169000853321F411968C918530A9F1F901E90F78
:1016A000F11DE417F50768F30E948356209191021B
:1016B000309192024091930250919402205F384DF4
:1016C0004F4F5F4F261737074807590748F034C078
:1016D0008AED92E00E944C4883E0809388022CC0FF
:1016E0001092880229C08EEC92E068E273E00E94BA
:1016F000EE5480E8C82E81E5D82E81E0E82EF12C4A
:1017000002511D4F29CF81E00E94080F0E94805096
:101710006093890270938A0280938B0290938C026B
:101720008091DA028823C1F2D3CFCB0DD11DC0172F
:10173000D10708F411CF80CFDF91CF911F910F9186
:10174000FF90EF90DF90CF90BF900895CF93DF93FD
:1017500081E08093EA029091CD02892F82958F706B
:101760008F5B8093AD019F709F5B9093AE01109251
:1017700088020E948356EB0104C00E94690F0E94F8
:10178000100A80918802833061F00E9483566C1B9E
:101790007D0B6053754728F40E942A0F882389F334
:1017A000ECCF0E9462471092ED021092EC0290E0A2
:1017B00080918802833009F491E0892FDF91CF91E5
:1017C0000895FF920F931F93CF93DF938C01F62E12
:1017D0000E948356EB010CC00E94690F0E94994A37
:1017E0000E9483566C1B7D0B6053754708F0EFC059
:1017F0000E942A0F882381F30E948356EB010CC0BC
:101800000E94690F0E94994A0E9483566C1B7D0BAF
:101810006053754708F0DBC00E945C47882381F75E
:101820001092E6021092E7021092E8021092E9028A
:1018300080919E028F5F80939E028091E2028823B6
:1018400061F488E098E0A8E0B8E08093E202909329
:10185000E302A093E402B093E50280919E0290E03F
:10186000906E62EE72E045E350E00E94E647E8E1E8
:10187000F3E08CE0DF011D928A95E9F7DF011C9609
:1018800090E0FF2019F0F801808102C0F8018491F6
:101890000F5F1F4F8E3241F0882331F09F5FFD01B3
:1018A000E90FF11D8083EDCFFD019193DF01A90FB9
:1018B000B11D882329F7FD01119211961C92DF01B9
:1018C000119641E04183FD01319611961C924183AE
:1018D00086ED2EEE32E0821B32968E0F8093180337
:1018E00090919E029093190340931A0340931D0315
:1018F00090E00E94CC490E9483568B0161C00E94F7
:101900008356601B710B6053754708F060C00E94DE
:10191000690FEC01009709F453C00E94994A892B82
:1019200009F04EC0C634D10508F44AC080911103B5
:10193000853309F045C080911203803E09F040C014
:101940009091130380919E029817D1F5809119030D
:101950008917B1F580911B0390E08F709070892BEF
:10196000B1F580911803E82FF0E0E85EFC4F9E018E
:1019700022513D4F8081807C39F0329609C08081B0
:10198000882311F4319604C03196E217F307B8F3B7
:10199000CF010E962817390798F08181813051F4D4
:1019A0008185843039F43A9686EE92E0BF010E9438
:1019B000EE5406C0818590E00A96E80FF91FDACF51
:1019C0008091E602882309F49ACF81E001C080E08B
:1019D000DF91CF911F910F91FF900895482F6AE0FA
:1019E0000E94BF74282F30E084E0220F331F8A95B5
:1019F000E1F7842F0E94BF74892F820F0895CF933F
:101A0000DF93EC0180919F029091A00288369105AE
:101A100059F582EA9BE068E670E00E949D5B82EAED
:101A20009BE060E00E941F5C88810E94EE0C682FA2
:101A300070E06F77707082EA9BE00E941F5C898182
:101A40000E94EE0C682F82EA9BE00E941F5C8A8154
:101A50000E94EE0C682F82EA9BE00E941F5C8B8143
:101A60000E94EE0C682F2DC08F36910509F04AC0F8
:101A700082EA9BE06FE670E00E949D5B82EA9BE059
:101A800060E00E941F5C88810E94EE0C682F6068F5
:101A900082EA9BE00E941F5C89810E94EE0C682F05
:101AA00082EA9BE00E941F5C8A810E94EE0C682FF4
:101AB00082EA9BE00E941F5C8B810E94EE0C682FE3
:101AC000686082EA9BE00E941F5C8C810E94EE0CA1
:101AD000682F82EA9BE00E941F5C8D810E94EE0CC1
:101AE000682F82EA9BE00E941F5C8E818E510E94CB
:101AF000EE0C682F82EA9BE00E941F5C82EA9BE06A
:101B00000E94625CDF91CF91089588E690E0909307
:101B1000A00280939F0282EA9BE068E670E00E9448
:101B20009D5B82EA9BE060E00E941F5C82EA9BE092
:101B30000E94625C8823D9F08FE690E09093A00227
:101B400080939F0282EA9BE06FE670E00E949D5BBB
:101B500082EA9BE060E00E941F5C82EA9BE00E94B8
:101B6000625C882321F01092A00210929F020895D7
:101B70001F93CF93DF93EC0160919F027091A002BD
:101B80006115710509F46FC082EA9BE00E949D5BBC
:101B900082EA9BE060E00E941F5C82EA9BE00E9478
:101BA000625C60919F027091A00282EA9BE047E034
:101BB00050E00E94735C82EA9BE00E94B05B282F99
:101BC0002F7722952F701AE0219F900111248F709A
:101BD000820F888382EA9BE00E94B05B282F2295C7
:101BE0002F70219F900111248F70820F898382EAC8
:101BF0009BE00E94B05B282F2F7322952F70219FAE
:101C0000900111248F70820F8A8382EA9BE00E94E8
:101C1000B05B87708B8382EA9BE00E94B05B282FC9
:101C200022952F70219F900111248F70820F8C8339
:101C300082EA9BE00E94B05B282F22952F70219FA3
:101C4000900111248F70820F8D8382EA9BE00E94A5
:101C5000B05B282F2F70225E82958F70819FC0010C
:101C60001124280F2E83DF91CF911F9108950F9398
:101C70001F93DF93CF93CDB7DEB727970FB6F894B6
:101C8000DEBF0FBECDBF8E010F5F1F4FA8010E94A8
:101C90002D4EC8010E94FF0C27960FB6F894DEBFA8
:101CA0000FBECDBFCF91DF911F910F9108950F937C
:101CB0001F93DF93CF93CDB7DEB727970FB6F89476
:101CC000DEBF0FBECDBF8E010F5F1F4FC8010E9448
:101CD000B80DC8010E94734F27960FB6F894DEBF67
:101CE0000FBECDBFCF91DF911F910F91089582EA72
:101CF0009BE00E94775C08958091A40261E00E94BD
:101D0000875778940895FF920F931F93082F162FEB
:101D1000F42EF8948091A40260E00E9487571F710E
:101D2000102B1EBD0DB407FEFDCFFEBC0DB407FE8B
:101D3000FDCF0E947C0E1F910F91FF9008951F937D
:101D4000182F282F30E0207630708091A50290E087
:101D50002817390799F080EA6FE143E00E94830E6B
:101D6000412F40764093A50250E085E05595479578
:101D70008A95E1F780E86FE10E94830E1F91089534
:101D80000F931F93182F062F0E949F0E80E4612F40
:101D9000402F0E94830E1F910F9108950F931F9360
:101DA000182F072F0E94C00E812F8F5F602F0E9477
:101DB000C00E1F910F9108950F931F93182F062F98
:101DC000F8948091A40260E00E948757802F8F7161
:101DD000812B8EBD0DB407FEFDCF1EBC0DB407FEDA
:101DE000FDCF07FF04C01EBC0DB407FEFDCF1EB51E
:101DF0000E947C0E812F1F910F9108951F93182F21
:101E00000E949F0E80E0612F0E94DC0E1F910895BA
:101E1000882311F41092A3028091A302882341F435
:101E200088E30E94FE0E682F6E7F88E30E94C00E3A
:101E300008951F93182F88E30E94FE0E682F61609B
:101E400088E30E94C00E112319F481E08093A3025D
:101E50001F91089584ED61E10E94C00E82ED61E062
:101E60000E94C00E8AEE0E94FE0E80FDFBCF82ED26
:101E700060E00E94C00E89ED0E94FE0E90E09695F3
:101E8000879596958795817008950F931F93CF93AB
:101E9000DF93EC018B01F8948091A40260E00E9432
:101EA00087578AE38EBD0DB407FEFDCF09C01EBC67
:101EB0000DB407FEFDCF8EB5F80181938F012197F8
:101EC0002097A9F70E947C0EDF91CF911F910F916F
:101ED00008950F931F93DF93CF9300D000D000D0CD
:101EE000CDB7DEB789E30E94FE0E882319F400E027
:101EF00010E048C06091A6027091A70280E00E94A5
:101F0000CE0E86E090E0BE016F5F7F4F0E94450FCE
:101F100089819A819093A7028093A6022B813C81AC
:101F2000E091A102F091A2028D8187FD03C000E043
:101F300010E00EC0245030408F0101501040201797
:101F4000310708F48901C8016EEE72E00E94450F66
:101F5000F801E251FD4F10826091A6027091A70234
:101F60008CE06130780724F08CE06FEF7BE003C0F9
:101F7000615070408CE00E94CE0E80E86EE140E43B
:101F80000E94830EC80126960FB6F894DEBF0FBEDE
:101F9000CDBFCF91DF911F910F9108950F931F93A4
:101FA000CF93DF938C01EB01F8948091A40260E061
:101FB0000E9487578AE78EBD0DB407FEFDCF08C08B
:101FC00088818EBD0DB407FEFDCF219601501040D3
:101FD00001151105A9F70E947C0EDF91CF911F9189
:101FE0000F910895CF93DF93EC018CE10E94FE0ED8
:101FF00081FF0FC080E86FE140E80E94830E80EA15
:102000006FE140E80E94830E80EA6CE142E00E94AA
:10201000830E82E060E07CE00E94CE0EBE01605044
:10202000744F86E00E94CE0E8AE760E040E00E9496
:10203000830ECE016EEE72E00E94CE0F80E86FE15B
:1020400048E00E94830EDF91CF91089584E061E023
:102050000E94485784E061E00E94875785E061E074
:102060000E94485787E061E00E94485786E060E0A0
:102070000E94485785E061E00E94875785E060E054
:102080000E94875787E060E00E94875780E58CBDFB
:102090008DB581608DBD0895EF92FF920F931F93D0
:1020A000CF93DF93EB01142F9093A2028093A102B0
:1020B0000CB406FC02C00E9426101093A402812FCB
:1020C00061E00E9448570E947C0E8FEF60E04FEF66
:1020D0000E94830E62E070E080E090E00E949156E2
:1020E0000E9483567B018C0180E395E7A0E0B0E07D
:1020F000E80EF91E0A1F1B1F09C00E948356E61630
:10210000F7060807190710F480E084C080E06DE14D
:102110000E94DC0E882389F31092A7021092A60277
:1021200088E060E070E00E94CE0E8CE060E070E03D
:102130000E94CE0E8AE06FEF7BE00E94CE0E84E01C
:1021400060E07CE00E94CE0E86E06FEF71E10E94BD
:10215000CE0E80E00E94190F88E26FE370E30E94C8
:10216000CE0E80E369EF77EF0E94CE0E80EC6DE03B
:102170000E94C00E81EC60E00E94C00E80E862EC1C
:1021800042E30E94830E86EC62E17CE00E94CE0E68
:1021900084EC62E10E94C00E8AEC6AEE75E00E9457
:1021A000CE0E84EE68810E94C00E85EE69810E9489
:1021B000C00E82EE6A810E94C00E83EE6B810E9487
:1021C000C00E80EE6C810E94C00E81EE6D810E9477
:1021D000C00E84ED60E10E94C00E86ED60E071E00B
:1021E0000E94CE0E8AEE0E94FE0E80FDFBCF8FE194
:1021F0000E949F0E80E86BE140EC0E94830E80E815
:102200006FE144E00E94830E82E70E94FE0E86305A
:1022100008F08F5FDF91CF911F910F91FF90EF90AA
:102220000895EF92FF920F931F93CF93DF93FC01DA
:10223000EB018A0179011092EA02009729F08EECF5
:1022400092E0BF010E94EE54209719F0CE010E9447
:102250004C480115110529F082EE92E0B8010E9468
:10226000EE54E114F10429F082ED92E0B7010E94EE
:10227000EE540E9462471092ED021092EC0281E04F
:10228000DF91CF911F910F91FF90EF900895AF9242
:10229000BF92CF92DF92FF920F931F93CF93DF9362
:1022A0008C01EB01F42E1092EA0238E341E050E099
:1022B00060E070E018C0832F90E0FC01B3E0F5957A
:1022C000E795BA95E1F7E855FD4F877090705A0190
:1022D0006B0104C0AA0CBB1CCC1CDD1C8A95D2F778
:1022E00020812A292083315031F788EC92E0BE0109
:1022F0000E94E654C80168EC72E04F2D0E944C1019
:10230000DF91CF911F910F91FF90DF90CF90BF9001
:10231000AF900895CF92DF92EF92FF920F931F93A9
:10232000DF93CF93CDB7DEB7EB84FC84CD84DE841E
:10233000DE011F9601C0D801F6018491882309F4BB
:10234000BCC00894C11CD11C843209F099C0F601AC
:102350000894C11CD11C8491863409F45FC0873471
:1023600034F4843469F0853409F08AC06EC08C344A
:10237000C9F1833509F445C0883409F081C00DC026
:102380008D010E5F1F4FF701668177818D919C91C2
:102390004AE050E00E948D087EC02C91822F992740
:1023A00087FD909514E0959587951A95E1F78F70C4
:1023B0002F702A300CF0295F8A300CF0895F8D0174
:1023C0000E5F1F4FF701A681B781805DFD018193EC
:1023D000205D11962C933196D7011796FC93EE93BE
:1023E0001697A9CF8D010C5F1F4F6D917D918D9137
:1023F0009C91F701468157812AE030E00E94CB088A
:102400004AC08D010E5F1F4F6D917C91D7011696CA
:102410008D919C9117970E9431083DC08D010E5FF0
:102420001F4F2D913C910AC0D7011696ED91FC915A
:10243000179781931796FC93EE931697F9012F5FE8
:102440003F4F8491882381F776CF8D010E5F1F4F18
:102450002D913C910AC0D7011696ED91FC911797EA
:1024600081931796FC93EE931697F999FECF32BDA0
:1024700021BDF89A80B52F5F3F4F882361F75BCF6E
:10248000F70126813781F90181939F01F701378395
:1024900026838D0150CFD70116968D919C91179769
:1024A000FC0101900020E9F73197E81BF90B8E0F32
:1024B0009F1FF701978386833ECFCF91DF911F91B6
:1024C0000F91FF90EF90DF90CF9008950F931F939F
:1024D0008C01FC01878160E00E94875781E090E0D9
:1024E0000E940157F801878161E00E94875781E0CF
:1024F00090E00E940157F801878160E00E948757B1
:1025000084E690E00E9401571F910F910895CF92A9
:10251000DF92EF92FF920F931F93CF93DF937C0193
:10252000FC0184818823F9F48701C0E0D0E0C62E45
:10253000DD24F801808561E00E944857B6010C2E29
:1025400002C0759567950A94E2F76170F80180857D
:102550000E94875721960F5F1F4FC430D10549F75E
:10256000C7010E946612DF91CF911F910F91FF90DA
:10257000EF90DF90CF9008951F93CF93DF93EC01FE
:10258000162F8C818823C1F48D81642F0E94875778
:102590008E818F3F19F060E00E948757612F70E0B5
:1025A00084E0759567958A95E1F7CE010E948712C0
:1025B000CE01612F0E948712DF91CF911F91089564
:1025C00041E00E94BC1281E090E0089540E00E944A
:1025D000BC120895EF92FF920F931F93CF93DF9356
:1025E0008C017A016770660F660F660F60640E9447
:1025F000E612C0E0D0E0D801ED91FC91D701AC0F1C
:10260000BD1F0190F081E02DC8016C9109952196C4
:10261000C830D10581F7DF91CF911F910F91FF90C5
:10262000EF900895FC0161896E7F618B68600E9464
:10263000E6120895FC016189862F8460818B6C60AD
:10264000CF010E94E6120895DF93CF93CDB7DEB796
:1026500028970FB6F894DEBF0FBECDBF9C01FE01D8
:102660003196AAE2B2E088E00D9001928150E1F744
:10267000F9018481882329F48489481710F0482FB0
:102680004150E42FF0E0EE0FFF1FEC0FFD1F8181A2
:10269000680F6068C9010E94E61228960FB6F89488
:1026A000DEBF0FBECDBFCF91DF91089561E00E94E4
:1026B000E61280ED97E00E9401570895CF93DF93D3
:1026C000EC018C81882309F061C088898860888B3F
:1026D00082E08C8B1D8A80E593EC0E9401578D81EE
:1026E00060E00E9487578F8160E00E9487578E814B
:1026F0008F3F19F060E00E948757688964FD1DC014
:10270000CE0163E00E94871284E991E10E940157A3
:10271000CE0163E00E94871284E991E10E94015793
:10272000CE0163E00E94871286E990E00E94015783
:10273000CE0162E00E94871216C06062CE010E9444
:10274000E61284E991E10E94015768896062CE0136
:102750000E94E61286E990E00E9401576889606253
:10276000CE010E94E61268896062CE010E94E612E4
:1027700084E0898BCE010E941A13CE010E94561369
:1027800082E08A8BCE0166E00E94E612DF91CF9153
:1027900008956F927F928F92AF92CF92EF920F93A4
:1027A000DF93CF93CDB7DEB73C01FC014583268391
:1027B0000783E086C186A28683868C8584878D8583
:1027C00085878E8586878F85878782EA9BE00E9432
:1027D000775CF3011482858161E00E944857F30120
:1027E00086818F3F19F061E00E944857F30187818D
:1027F00061E00E94485788E0F301808BCF91DF9120
:102800000F91EF90CF90AF908F907F906F90089541
:10281000FC01A681B7816D93B783A68381E090E028
:1028200008951F920F920FB60F9211242F933F938A
:102830004F935F936F937F938F939F93AF93BF93C8
:10284000EF93FF938091F5068F5F8093F50680915B
:10285000F506803128F0E091F306F091F406099531
:10286000FF91EF91BF91AF919F918F917F916F9168
:102870005F914F913F912F910F900FBE0F901F903E
:1028800018958091DA0790E023E0880F991F2A9528
:10289000E1F78552984FEBEDF7E003C01582148203
:1028A0003896E817F907D0F3089589E18093AF06C9
:1028B0001092B2061092C6061092CD061092CF0664
:1028C0001092EA061092E90686E392E09093E806F9
:1028D0008093E7060895EF92FF920F931F938091E4
:1028E000C101882341F190911107892F8295869526
:1028F000877009F58091100783FD1DC090FF1BC0F4
:102900009E7F909311078091F606882329F48CE727
:1029100090E061E00E94DF220E942E327B018C0158
:10292000611571058105910531F00E945350C80170
:10293000B7010E94370E1F910F91FF90EF900895FD
:10294000EF92FF920F931F938091D401823099F5FB
:102950000E9483569B01AC0180912D0790912E0718
:10296000A0912F07B091300779018A01E81AF90A7E
:102970000A0B1B0BD801C701C297A105B105D8F0FE
:102980008091EF069091F006A091F106B091F206C9
:102990000196A11DB11D8093EF069093F006A093C0
:1029A000F106B093F20620932D0730932E07409343
:1029B0002F07509330071F910F91FF90EF900895CC
:1029C000EF92FF920F931F938091100783FD6AC0CF
:1029D0008091110781FF66C08D7F809311078091E0
:1029E000F606882359F48FEB97E06FE041E00E94F0
:1029F00024138FEB97E064E00E94E0128AED92E0EE
:102A00000E944C4A0E9483567B018C010E94690FF0
:102A10000E94994A8AED92E00E940E4D882361F44B
:102A20000E9483566E197F09800B910B683C7105DB
:102A30008105910558F323C0809111078F7102C061
:102A40008F71806C80931107809111078295869514
:102A5000877090E08630910534F080911007806493
:102A6000809310071FC00397ECF00E94632D88230A
:102A7000C9F0809111078F718093110713C0809165
:102A80001107982F9295969597709F5F9770292FB1
:102A90002295220F207E8F71822B80931107973011
:102AA00079F2D2CF1F910F91FF90EF900895EF929E
:102AB000FF920F931F938C018EEA96E060E071E025
:102AC00040E00E94AE6934EBE32E37E0F32EC701FD
:102AD000B8010E9431080EE317E0C80168EB71E00D
:102AE0000E943108C801B7010E941B08C8016DEAA5
:102AF00070E00E94EC071F910F91FF90EF900895F6
:102B0000CF93DF93EC018091E301882361F1809101
:102B1000100785FF28C0CE0162E071E043E050E07D
:102B20000E943808009771F48EEA96E068EB71E035
:102B300040E00E94AE698823B1F08DEC96E00E94DF
:102B4000606211C0CE010E9457158EEA96E06EE3D6
:102B500077E00E94AA69882331F08EEA96E06EE35E
:102B600077E00E948769DF91CF9108957F928F92DD
:102B70009F92AF92BF92CF92DF92EF92FF920F930C
:102B80001F93DF93CF93CDB7DEB76E970FB6F89450
:102B9000DEBF0FBECDBF782E4A015B018091E301FD
:102BA000882309F44BC1CB01BA0120E831E541E0AB
:102BB00050E00E94F274CA01B9014EE357E02AE0E6
:102BC00030E00E94CB088EE397E00E945715809179
:102BD000100785FF33C18EEA96E060E071E040E0C7
:102BE0000E94AE698EEA96E068EB71E040E00E94D8
:102BF000AE69882351F48EEA96E068EB71E041E01B
:102C00000E948B69882309F419C11D821F821C82CE
:102C10001B828BE792E09A8389838E010B5F1F4FA3
:102C20004EE3C42E47E0D42EC801B60142E40E9410
:102C3000F867F82E4F89588D698D7A8DC8010E94EA
:102C40007F5DFF2009F4FAC0C6016BEA70E00E94C4
:102C5000F7077720E1F5F60101900020E9F73197B9
:102C6000EC19FD09EC0DFD1D80918C0990E0BF0170
:102C70004AE050E00E948D08C60169EA70E00E94B7
:102C8000EC07F60101900020E9F73197EC19FD09F6
:102C9000EC0DFD1D80918B0990E0BF014AE050E0F2
:102CA0000E948D08C60167EA70E00E94EC07F601F9
:102CB00001900020E9F73197EC19FD0960918D0929
:102CC00070918E0980E090E0EC0DFD1D8DC084E0D8
:102CD0007816A9F48091EF069091F006A091F10684
:102CE000B091F206209125073091260740912707E1
:102CF00050912807281739074A075B0720F0CC2492
:102D0000DD2476010CC0C090EF06D090F006E09074
:102D1000F106F090F206C21AD30AE40AF50A0EE3AD
:102D200017E0F80101900020E9F73197E01BF10B63
:102D3000E00FF11FC701B601AF012AE030E00E94A9
:102D4000CB08C80164EA70E00E94EC0763E0769E5D
:102D5000B001112465577F4FC8010E94EC07C801DC
:102D600061EA70E00E94EC0782E0781699F087151E
:102D700010F081E004C083E0781601F184E0781659
:102D800039F5609121077091220780912307909176
:102D9000240708C060913107709132078091330792
:102DA00090913407681579058A059B0570F47501C3
:102DB0006401C61AD70AE80AF90A0AC08091D60146
:102DC000C82EDD24EE24FF2403C0CC24DD247601AC
:102DD000EEE3F7E001900020E9F73197EE53F7407A
:102DE000E25CF84FC701B601AF012AE030E00E9473
:102DF000CB080EE317E0C8016FE970E00E94EC0712
:102E0000F80101900020E9F73197E01BF10BE00F8A
:102E1000F11FC501B401AF012AE030E00E94CB08E8
:102E2000C8016BE970E00E94EC07CE010196B80181
:102E30000E94536ACE0105960E94E75F6E960FB618
:102E4000F894DEBF0FBECDBFCF91DF911F910F91E0
:102E5000FF90EF90DF90CF90BF90AF909F908F90BA
:102E60007F9008950E94962A0E94D92A0E943D319F
:102E700008952F923F924F925F926F927F928F921E
:102E80009F92AF92BF92CF92DF92EF92FF920F93F9
:102E90001F93DF93CF9300D000D0CDB7DEB72B01C7
:102EA0003C014B015C010894811C911CA11CB11CCC
:102EB0008091D0010E941C52209193093091940975
:102EC000409195095091960942165306640675067D
:102ED00018F07501640109C06C01EE24D7FCE09480
:102EE000FE2CC20ED31EE41EF51E0091EA016BED0E
:102EF000262E67E0362E9C01442737FD4095542F3F
:102F000029833A834B835C8361C0F1018081918185
:102F1000A281B3810097A105B10509F053C0848156
:102F20009581892B09F44EC01681812F869586954F
:102F3000869590E08C53984F0E942D2190E0177059
:102F400002C0959587951A95E2F780FF4EC0002341
:102F500009F04BC0F101C082D182E282F382848108
:102F60009581A0E0B0E029813A814B815C81820F9C
:102F7000931FA41FB51FC80ED91EEA1EFB1E809109
:102F8000100783FD1FC08860809310078091D401D3
:102F90008230C1F48091EF069091F006A091F10685
:102FA000B091F2068093250790932607A0932707F8
:102FB000B09328074092210750922207609223077E
:102FC0007092240748E050E0240E351E8091DA0705
:102FD00090E053E0880F991F5A95E1F78552984F7A
:102FE0002816390608F491CF0BC0F1018082918236
:102FF000A282B3820894811C911CA11CB11CBFCF7A
:103000000F900F900F900F90CF91DF911F910F9124
:10301000FF90EF90DF90CF90BF90AF909F908F90F8
:103020007F906F905F904F903F902F9008954F92B8
:103030005F926F927F928F929F92AF92BF92CF9248
:10304000DF92EF92FF920F931F93DF93CF93CDB751
:10305000DEB7C754D0400FB6F894DEBF0FBECDBF69
:10306000882E0E943217882D81508E3F28F4BE0191
:103070006F5F7F4F0E94843077249924BCE04B2EF1
:10308000512C4C0E5D1EAEEF6A2E47C0A92CBB24FE
:103090008FEF881631F4F2E0EF2EF12C012D112D77
:1030A00012C0882031F4ECE3EE2EF12C012D112D0D
:1030B0000AC0F201EA0DFB1D80810E94AC510E9402
:1030C000D9517B018C010E94182E6C01009721F1CF
:1030D000E114F10401051105F9F073E0B694A79429
:1030E0007A95E1F7C5018254984F0E942D2190E016
:1030F000292D277002C0959587952A95E2F780FDC6
:103100000BC0F6011082118212821382F582E482D2
:103110009682678277247394939480911A07981605
:1031200008F4B4CF772021F00E943D2B0E9439177C
:10313000C95BDF4F0FB6F894DEBF0FBECDBFCF9196
:10314000DF911F910F91FF90EF90DF90CF90BF9094
:10315000AF909F908F907F906F905F904F90089569
:10316000CF92DF92EF92FF920F931F93CF93DF9353
:10317000D82E7A018B0160E00E945D2ACD2DD0E02F
:10318000FE01E55AF64FC0808091DA07C81608F0B4
:1031900041C0EC2DF0E083E0EE0FFF1F8A95E1F7D0
:1031A000E552F84F40815181628173814E155F0570
:1031B0006007710740F59E012F5F3F4F8091120716
:1031C00090E082179307F9F08091130790E082173F
:1031D0009307C9F0D0928B09878180938C09C7012E
:1031E000841B950B90938E0980938D09E0928F0933
:1031F000F0929009009391091093920980E0B80130
:10320000A7010E94B6158C2D0E94332EC55AD64FA9
:103210008FEF8883DF91CF911F910F91FF90EF90F7
:10322000DF90CF9008958F929F92AF92BF92CF92EE
:10323000DF92EF92FF920F931F93CF93DF935B0187
:103240006C018091100788248394882281FD09C035
:1032500082FD02C0EE2407C0EE248091D4018130AB
:1032600011F4EE24E394FF2449C00F2D10E0C801AF
:103270008E54984F0E942D219F2C990C990C990CDB
:10328000C0E0D0E0082F10E0492D4C0FE42FF0E013
:103290009F012F5F3F4F8091120790E082179307A5
:1032A00041F18091130790E08217930711F1E55ADD
:1032B000F64FE081EF3FE9F0F0E093E0EE0FFF1F03
:1032C0009A95E1F7E552F84F8781833690F488208C
:1032D00059F0EE2071F0C8010C2E02C0959587952B
:1032E0000A94E2F780FD05C0842FB601A5010E9473
:1032F000B0182196C830D10539F6F394809119079A
:10330000F81608F4B2CFDF91CF911F910F91FF9083
:10331000EF90DF90CF90BF90AF909F908F900895E7
:103320008091110782958695877009F04FC0809132
:10333000100783FD4BC08091EA01882309F046C045
:103340000E943D2B20913A0730913B0740913C076A
:1033500050913D072115310541055105B9F02F5513
:103360003E4A4E4F5F4F261737074807590770F4FC
:1033700010923A0710923B0710923C0710923D07BB
:10338000809110078064809310070895209136077C
:103390003091370740913807509139072115310591
:1033A0004105510549F02F5E314F4F4F5F4F2617B2
:1033B00037074807590750F460933607709337076B
:1033C00080933807909339070E944253089584B739
:1033D000877F84BF0E94F52B0E9425270E945031D1
:1033E0006CE370E080E090E00E944A5087E59EE048
:1033F0000E94F3500E943D2B0E94772B8091600029
:1034000088618093600081E2809360008091600019
:103410008064809360000E94632D882321F0809156
:1034200011078F7104C0809111078F7180628093A2
:103430001107809111078D7F8160809311070E9491
:10344000D92A8FE0809335070895FF920F931F9339
:10345000DF93CF93CDB7DEB7C754D0400FB6F89403
:10346000DEBF0FBECDBF80913507882321F40E94B7
:1034700063211092F60682E00E94CF21F82E082FD9
:1034800010E086FF24C18FE08093350781E00E9421
:1034900063218091F606833020F4813008F0D3C098
:1034A00004C0833009F013C1C2C0C8018F7090708E
:1034B0008230910509F45AC08430910509F494C012
:1034C000019709F004C1F7FE30C08DE10E94DB577F
:1034D000892B21F48FEF0E941718F9C08EE10E940A
:1034E000DB57892B69F08091DA0790E023E0880FA1
:1034F000991F2A95E1F78552984FEBEDF7E011C03F
:103500008AED92E060E00E9435258FEB97E060E065
:1035100041E00E9424138FE091E022C015821482C2
:103520003896E817F907D0F3D2C08EEC92E060E04D
:103530000E9435258FEB97E060E041E00E94241364
:103540008DE091E00E948D226091B6017091B701EB
:103550008FEB97E04AE050E00E94365B85E091E017
:103560000E948D2281E08093F606B1C0F7FE32C042
:103570008FE10E94DB57892B71F48CE097E061E0CA
:103580000E9435258FEB97E060E041E00E94241314
:103590008FEF90E0E5CF8DE10E94DB57892BB9F4E6
:1035A0008FEB97E00E94561360913A0770913B07AA
:1035B00080913C0790913D070E94772B8FEB97E01D
:1035C00060E041E00E94241388EF90E0C9CF0E94A0
:1035D0009C207DC08FEB97E00E94561388EC92E010
:1035E0000E949D2282E0BFCFF7FE0CC089EE90E0E2
:1035F00060E00E94DF2288ED90E061E00E94DF221F
:1036000083E0B1CF20911107822F86958695877030
:1036100090E060911907019670E00E94DF74877056
:10362000880F880F237E282B2093110750C00F701E
:1036300010700430110509F04AC0F7FE07C08091F0
:1036400003070E9417181092F60641C080910307E5
:1036500090E06091D90770E06F5F7F4F01960E9404
:10366000DF748093030787EC90E060E00E94DF2224
:1036700080910307882331F18150BE016F5F7F4F36
:103680000E94843085EC90E061E00E94DF228FEBA5
:1036900097E060E041E00E942413609103078FEB04
:1036A00097E070E04AE050E00E94875B82EC90E097
:1036B0000E948D228FEB97E0BE01645C7F4F0E94D9
:1036C0009A5B05C082EB90E061E00E94DF22C95B5B
:1036D000DF4F0FB6F894DEBF0FBECDBFCF91DF91A5
:1036E0001F910F91FF9008952F923F924F925F92FA
:1036F0006F927F928F929F92AF92BF92CF92DF9202
:10370000EF92FF920F931F93DF93CF93CDB7DEB766
:10371000CF54D0400FB6F894DEBF0FBECDBF80911E
:10372000D101809312078091E401809313070E94D6
:103730003D2B4B015C010E94690F0E94994A009742
:1037400021F082519D4F0E948E3DA8951092F50662
:103750000E94251A8091FF0690910007A091010711
:10376000B091020788159905AA05BB0509F4B5C4EF
:103770008092FF0690920007A0920107B092020784
:1037800080913507882319F0815080933507809107
:10379000F606882321F40E943D2B0E94772B80910E
:1037A000100781FF10C08091080790910907A09130
:1037B0000A07B0910B0788169906AA06BB0690F077
:1037C0000E948A260FC08091080790910907A09156
:1037D0000A07B0910B0788169906AA06BB0610F4D3
:1037E0000E949A26909110079695917080911407E7
:1037F000869581708917C9F0992349F08092310725
:1038000090923207A0923307B092340705C082E04D
:10381000B501A4010E94B615909110079270809195
:1038200014078D7F892B809314078091D4018130F8
:10383000B9F50E941822909110079695969591706F
:1038400080911407869586958170891749F199238F
:1038500049F08092210790922207A0922307B0920C
:10386000240715C08091210790912207A09123077A
:10387000B09124070A96A11DB11D88159905AA05C6
:10388000BB0528F481E0B501A4010E94B615909112
:1038900010079470809114078B7F892B80931407F5
:1038A000C501B4012CE330E040E050E00E94F27426
:1038B00079018A018091FB069091FC06A091FD069A
:1038C000B091FE06E816F9060A071B0709F49FC027
:1038D000E092FB06F092FC060093FD061093FE06B4
:1038E000552466241E010894211C311C85C0862D98
:1038F000B1010E948430C101B501A4010E94D82FFA
:10390000882309F478C07724462C43946FC0272D70
:1039100030E0A9014F5F5F4F8091120790E084175C
:10392000950709F462C08091130790E0841795070A
:1039300009F45BC00CE010E00C0F1D1F020F131FF9
:10394000D8018C91882309F450C053E0369527950F
:103950005A95E1F7C9018254984F0E942D2190E0B9
:10396000272D277002C0959587952A95E2F780FD4F
:103970003CC0F80180810E94AC510E94D9516B017A
:103980007C01898181FF1DC01091D601212F30E07B
:1039900040E050E0C701B6010E94A07424E630E088
:1039A00040E050E00E94F274C901DA016C017D012F
:1039B000143138F4FAE0CF16D104E104F104A8F090
:1039C00005C0C114D104E104F10479F00E94182E5D
:1039D000FC01009751F01082118212821382D5826D
:1039E000C4827682478255245394739480911A0737
:1039F000781608F48CCF63948091D907681608F480
:103A000076CF552021F0C501B4010E94391780916D
:103A1000100783FF81C18091DA07E82EFF2443E07D
:103A2000EE0CFF1C4A95E1F78BED97E0E80EF91ECE
:103A30008C01DD2429C0D80116968C911697682F29
:103A400070E0FB01E55AF64FE081EF3FB1F0F0E0A6
:103A500033E0EE0FFF1F3A95E1F7E552F84F208172
:103A60003181428153818D919D910D90BC91A02D0A
:103A7000281739074A075B0720F0655A764FFB0184
:103A8000D082085F1F4FD3940E151F05A0F2CC24DF
:103A90007EC08C2D90E0FC01E55EF84F20815C2C0F
:103AA000550C550C550CEE24FF24622E7724D52C92
:103AB000DE0CED2DF0E09F012F5F3F4F809112074C
:103AC00090E08217930709F459C08091130790E0A2
:103AD0008217930709F452C0E55AF64F80818F3F51
:103AE00009F44CC0082F10E023E0000F111F2A95A5
:103AF000E1F70552184FD8012D913D914D915C9100
:103B000013972115310541055105A1F014968D91AA
:103B10009C911597A0E0B0E0820F931FA41FB51FE2
:103B200088169906AA06BB0628F08D2DB501A401BA
:103B30000E94B018C3010E2C02C0959587950A9477
:103B4000E2F780FD1BC0F801208131814281538161
:103B500082169306A406B50688F084819581A0E0BC
:103B6000B0E0820F931FA41FB51F88169906AA06FE
:103B7000BB0620F48D2D61E00E945D2A0894E11CB3
:103B8000F11CF8E0EF16F10409F091CFC394809195
:103B90001907C81608F47DCF8091DA07082F10E0C6
:103BA00001501040780193E0EE0CFF1C9A95E1F76C
:103BB0008BED97E01EC0D70114968D919C911597BF
:103BC000009781F0A0E0B0E0F701208131814281CF
:103BD0005381820F931FA41FB51F88169906AA064A
:103BE000BB0618F0802F0E94332E0150104088EF42
:103BF0009FEFE80EF91E9FEF0F3F1907E1F6C50191
:103C0000B4010E9413190E94D92A109293091092AC
:103C1000940910929509109296096090EA018BED33
:103C2000C82E87E0D82E4BC0D60116967C901697EA
:103C300014968D919C9115977C0100E010E08D9178
:103C40009D910D90BC91A02DE80EF91E0A1F1B1F1F
:103C50008E149F04A006B10670F5872D8695869573
:103C6000869590E08C53984F0E942D2190E0B7E00C
:103C70007B2202C0959587957A94E2F780FF1BC05E
:103C80006620C9F4209193093091940940919509D7
:103C900050919609D801C701E216F30604071507EB
:103CA00010F4DA01C9018093930990939409A093C9
:103CB0009509B0939609E8E0F0E0CE0EDF1E209162
:103CC000DA07822F90E003E0880F991F0A95E1F749
:103CD0008552984FC816D90608F4A6CF2223E1F4DE
:103CE0000E94962A0E94D92A0E943D318091100795
:103CF000877F809310078091D401823029F484E07B
:103D0000B501A4010E94B6158091D10180931207DC
:103D10008091E4018093130780911207882309F4AE
:103D20008CC01091D2010091D3018CEA97E06EE330
:103D300077E00E94082730901A07E0901207CE2CF7
:103D4000DD24FF2461E070E0812F90E0A0E0B0E08E
:103D500060968CAF9DAFAEAFBFAF6097402E55243D
:103D60006624772462C02F2D30E0C616D70609F4EA
:103D700059C0D90113E0B695A7951A95E1F74F2DD3
:103D80004770FD01E55EF84F808190E0042E02C08F
:103D9000959587950A94E2F780FF44C0A25CB84FDE
:103DA0008C91992787FD909502C0959587954A95A6
:103DB000E2F780FF37C0255A364FD9018C91E82FA2
:103DC000F0E0A3E0EE0FFF1FAA95E1F7E552F84FF0
:103DD000208131814281538160968CAD9DADAEAD25
:103DE000BFAD6097820F931FA41FB51F8816990659
:103DF000AA06BB06B8F02C533040404050408481A6
:103E00009581A0E0B0E0280F391F4A1F5B1F240DE9
:103E1000351D461D571D281539054A055B0510F04F
:103E200061E007C0F3946F5F7F4FF31408F49BCFFA
:103E300060E08E2D81500E945D2A809113078823B7
:103E400009F48CC01091E5010091E60188EB97E040
:103E50006EE377E00E94082730901A07E09013077E
:103E6000CE2CDD24FF2461E070E0812F90E0A0E003
:103E7000B0E02C968CAF9DAFAEAFBFAF2C97402E6D
:103E800055246624772462C02F2D30E0C616D7064D
:103E900009F459C0D90153E0B695A7955A95E1F7B1
:103EA0004F2D4770FD01E55EF84F808190E0042EB4
:103EB00002C0959587950A94E2F780FF44C0A25C02
:103EC000B84F8C91992787FD909502C0959587955D
:103ED0004A95E2F780FF37C0255A364FD9018C91B9
:103EE000E82FF0E043E0EE0FFF1F4A95E1F7E552BF
:103EF000F84F20813181428153812C968CAD9DAD4C
:103F0000AEADBFAD2C97820F931FA41FB51F8816AF
:103F10009906AA06BB06B8F02C53304040405040EA
:103F200084819581A0E0B0E0280F391F4A1F5B1FF4
:103F3000240D351D461D571D281539054A055B05FD
:103F400010F061E007C0F3946F5F7F4FF31408F443
:103F50009BCF60E08E2D81500E945D2AC501B40187
:103F60000E9413190E94D92A8091F606882389F4A9
:103F7000C501B40123E030E040E050E00E94F2745B
:103F80009B01AC01265C3D4F81E0F90160810E94FC
:103F90007E248091100786FF22C083FD20C010E0A0
:103FA0003E010894611C711C3CE3C32ED12CE12C12
:103FB000F12CC80CD91CEA1CFB1C0CC0812FB301CE
:103FC0000E948430C301B701A6010E94D82F882324
:103FD00031F41F5F8091D907181780F37BC080915F
:103FE000D401823009F04BC0C501B4012EE130E0AC
:103FF00040E050E00E94F274611571058105910561
:10400000F1F58091EF069091F006A091F106B09144
:10401000F2062091F7063091F8064091F90650918A
:10402000FA06281739074A075B0728F080E090E076
:10403000A0E0B0E00CC08091EF069091F006A09156
:10404000F106B091F206821B930BA40BB50B809383
:10405000290790932A07A0932B07B0932C078091F0
:10406000EF069091F006A091F106B091F2068093D0
:10407000F7069093F806A093F906B093FA06C501E7
:10408000B40123E831E541E050E00E94F27461158B
:1040900071058105910529F4809111078160809354
:1040A00011070E946B14C501B40129E532E040E01C
:1040B00050E00E94F274611571058105910529F4A3
:1040C000809111078260809311070E94E0140E9482
:1040D000901903C00E949C2082CFC15BDF4F0FB6B6
:1040E000F894DEBF0FBECDBFCF91DF911F910F912E
:1040F000FF90EF90DF90CF90BF90AF909F908F9008
:104100007F906F905F904F903F902F9008959C010B
:10411000F999FECF32BD21BDF89A80B508959C0172
:10412000F999FECF1FBA32BD21BD60BD0FB6F8941C
:10413000FA9AF99A0FBE0895E091D507F091D60743
:1041400009950895EF92FF920F931F93FC0120E0D1
:1041500030E040E050E070E038C0908179018A01A1
:1041600084E0EE0CFF1C001F111F8A95D1F7892FE8
:1041700080538A3030F4892F992787FD9095C09716
:1041800019C0892F8154863030F4892F992787FDF3
:104190009095C7970FC0892F8156863028F020E070
:1041A00030E040E050E013C0892F992787FD9095BB
:1041B000875590409C01442737FD4095542F2E0D84
:1041C0003F1D401F511F7F5F3196761730F2B901B6
:1041D000CA011F910F91FF90EF900895EF92FF9207
:1041E0000F931F93CF93DF93EC018B017A0166E06D
:1041F0000E94A220611571058105910521F101152B
:10420000110529F0F8016083718382839383CE01C5
:10421000069666E00E94A220611571058105910550
:1042200091F0E114F10429F0F70160837183828336
:104230009383CE010C9664E00E94A2206115710563
:104240008105910511F460E070E0CB01DF91CF9121
:104250001F910F91FF90EF9008959C01F999FECF67
:1042600032BD21BDF89A80B50895FC0120EF33E0FE
:1042700084E02431380711F440E009C0F999FECFF9
:10428000C901019632BD21BDF89A40B59C019081CB
:10429000442331F0992349F0491739F43196E8CF96
:1042A00080E0992319F481E0089580E0089508954D
:1042B0001092C2071092C10786E292E09093C00765
:1042C0008093BF0708951F93182F8091C3078823F9
:1042D00091F48CE061E00E944857112319F080911D
:1042E000DB0102C08091DC016FEF70E0681B710997
:1042F0008CE00E94DB551F9108958091C3078823AD
:1043000051F48DE061E00E9448576091DA018DE040
:1043100070E00E94DB550895EF92FF920F931F9378
:10432000CF93DF93E82E162F042FF22E662321F071
:10433000623081F4222371F08E2D0E94DB57892B8D
:1043400011F000E024C0FF2011F480E001C080E8FB
:10435000082B1DC0C0E0D0E08E2D0E94DB57892BBA
:1043600081F4113031F0123061F483E0C83ED80797
:1043700044F461E070E080E090E00E949156219664
:10438000EBCFFF2019F4C85ED3400CF00068802FFB
:10439000DF91CF911F910F91FF90EF9008950F93B0
:1043A0001F93082F1091D707107861E070E080E02C
:1043B00090E00E9491568FE10E94DB57892B21F4F7
:1043C0008FE1602F41E013C08EE10E94DB57892B03
:1043D00021F48EE1602F42E00AC08DE10E94DB579C
:1043E000892B11F040E007C08DE1602F44E0212FC0
:1043F0000E948C21482F8091D70790E08F70907099
:10440000242F30E0892B39F42F703070232B71F07A
:10441000842F806406C02F703070232B39F4842FD2
:1044200080624093D7071F910F910895842FF9CF91
:104430008091D401813099F48BE00E94DB5740E0F9
:104440002091D50130E08217930709F041E0440F35
:10445000440F809110078B7F842B80931007089561
:104460001F93182F843690F064E60E94BF74682F63
:104470008FEB97E070E04AE050E00E94875B8FEBA3
:1044800097E066E071E00E949A5B02C08A30A0F07B
:10449000812F6AE00E94BF740E94BF74692F8FEB66
:1044A00097E070E04AE050E00E94875B8FEB97E076
:1044B00066E071E00E949A5B812F6AE00E94BF74FF
:1044C000692F8FEB97E070E04AE050E00E94875B35
:1044D0001F910895EF92FF920F931F938C019FEB12
:1044E000E92E97E0F92EC8016AE070E00E94DF74BF
:1044F000C7014AE050E00E94875BC8016AE070E0B3
:104500000E94DF74BC01C7014AE050E00E94875B53
:104510001F910F91FF90EF900895CF93DF93EC01DF
:1045200004C08FEB97E00E94A75AFE012196649188
:104530006623B9F7DF91CF9108950F931F93CF931F
:10454000DF93182F092F8FEB97E060E040E00E9487
:104550002413212F302FC901EC0110E005C088E49D
:1045600095E00E948D222196688170E024E0759587
:1045700067952A95E1F78FEB97E040E150E00E94C4
:10458000875B688170E06F7070708FEB97E040E13F
:1045900050E00E94875B143031F48FEB97E060E0CD
:1045A00041E00E9424131F5F1630C9F681E495E0B4
:1045B0000E948D22DF91CF911F910F9108950F934B
:1045C0001F93CF93DF938C01462F8FEB97E060E032
:1045D0000E942413E80104C08FEB97E00E94A75AC1
:1045E0009E01201B822FFE01219664916623A1F774
:1045F000992787FD9095C0E1D0E0C81BD90B05C075
:1046000082E795E00E948D222197D7FFF9CFDF91B5
:10461000CF911F910F910895EF92FF920F931F93E7
:10462000CF93DF937C01BC0154E0660F771F5A954E
:10463000E1F7645F7D4F8EE397E040E150E00E9438
:1046400056518FEB97E060E040E00E9424138FEB1F
:1046500097E06EE377E00E949A5B87E295E061E085
:104660000E94DF228FEB97E060E041E00E9424137C
:1046700084E1E816F10409F497C085E1E816F10435
:104680001CF58CE0E816F10409F4A2C08DE0E816F0
:10469000F10454F4E114F10409F440C081E0E81697
:1046A000F10409F0F1C041C081E1E816F10409F418
:1046B000CBC083E1E816F10409F46DC08EE0E81682
:1046C000F10409F0E1C024C08EE1E816F10409F418
:1046D000D5C08FE1E816F1045CF48BE1E816F10433
:1046E00009F4BAC08CE1E816F10409F0CDC0B9C0F4
:1046F00087E2E816F10409F457C089E2E816F104EC
:1047000009F46EC086E2E816F10409F0BDC043C0AA
:104710008FEB97E068E071E00E949A5BF701E1544B
:10472000FE4F80810E943022CBC08091C001C82FF3
:10473000D0E0E097D7FD05C085E295E00E948D228C
:1047400007C083E295E00E948D22D095C195DF4F8E
:10475000CE0164E070E00E94DF748FEB97E04AE0E6
:1047600050E00E94875B81E295E00E948D22CE019D
:1047700064E070E00E94DF74BC0144E0660F771FC4
:104780004A95E1F7681B790B09F063C08EE195E06B
:104790000E948D229CC08CE195E00E948D22F70141
:1047A000E154FE4F608185C0F701E154FE4F8081E6
:1047B0008C3320F08AE195E00E948D22F701E154CC
:1047C000FE4F608170E06C5370408FEB97E074C0D7
:1047D0007091CC0160E08091CB01680F711D2DC0FC
:1047E0001091E90100E08091E801080F111DC80156
:1047F00064E670E00E94CB748FEB97E04AE050E0F3
:104800000E94365B88E195E00E948D22C8016AE033
:1048100070E00E94CB74CB016AE070E00E94CB7420
:10482000BC018FEB97E04AE050E00E94365BC80184
:104830006AE070E00E94CB74BC018FEB97E04AE025
:1048400050E00E94365B43C08091D0010E941C5210
:10485000BC018FEB97E00DC00E947D216091DA01D1
:1048600005C081E00E9463216091DB018FEB97E03E
:1048700070E04AE050E00E94875B29C08FEB97E030
:104880006DE20E94A75A23C0F701E352FB4FE49167
:10489000D701A154BE4FE13059F48C91882319F40B
:1048A00081E195E002C084E195E00E948D2208C07C
:1048B0006C918FEB97E070E04AE050E00E94875BDC
:1048C00087E1E816F10419F48FE095E00EC0C70106
:1048D0004397029740F086E2E816F10421F087E260
:1048E000E816F10421F48AE095E00E948D22DF9120
:1048F000CF911F910F91FF90EF900895FF920F932A
:104900001F93482FF62E8FEB97E060E00E94241350
:104910008091110786958695877019F48DE395E04F
:1049200012C08BE395E00E948D226091110766957D
:10493000669567708FEB97E070E04AE050E00E9468
:10494000875B89E395E00E948D228091100780FDAE
:1049500006C08DE295E061E00E94DF222EC0E0916A
:104960001107E695E695E770F0E0E55EF84F008107
:1049700010E090911107990F98739F5F910F8091AC
:10498000D101981721F400FD0EC06DE40DC0809197
:10499000E401981721F400FD06C06EE405C000FD97
:1049A00002C06FE501C06F2D8FEB97E00E94A75A00
:1049B0001F5F183011F00695DCCF88E295E00E9469
:1049C0008D228FEB97E06CE041E00E9424138091F0
:1049D000EA01882329F08FEB97E065E00E94E0125E
:1049E0008FEB97E06DE041E00E9424138091100767
:1049F00081FD06C082FF09C08091D401813029F475
:104A00008FEB97E063E00E94E0128091D401823046
:104A100029F48FEB97E066E00E94E0128FEB97E0BD
:104A20006EE041E00E9424138091100785FF05C0CD
:104A30008FEB97E062E00E94E0128FEB97E06FE06F
:104A400041E00E94241360E08091110782958695D1
:104A5000877090E003970CF061E08FEB97E00E9485
:104A6000E0121F910F91FF900895DF92EF92FF9255
:104A70000F931F93CF93DF937C01D62E8FEB97E09C
:104A80000E9456138FEB97E060E040E00E942413F1
:104A90008701C0E0D0E0DD2019F0F801638104C097
:104AA000F701EC0FFD1F60818FEB97E070E04AE0AB
:104AB00050E00E94875BC33021F08AE495E00E94B9
:104AC0008D22219601501040C430D10521F7DF918D
:104AD000CF911F910F91FF90EF90DF9008952CE2FE
:104AE00030E0F901E25CF84FD901A154BE4F8C913E
:104AF0008083215030408FEF2F3F380791F780EDB2
:104B000097E06EE377E04DE250E02FE830E20E945C
:104B100071088091CE018F5F8093190790E063E068
:104B2000880F991F6A95E1F780931A079091D70132
:104B30009170809110078E7F892B809310070895C4
:104B40000F931F93CF93DF93EC010AEA82E00E9458
:104B5000CF21482F50E09A012F703070223031055C
:104B600089F12430310509F452C02130310509F0B2
:104B70009BC0209709F49BC0CE30D10509F497C0A3
:104B8000C832D10509F493C0CC30D10509F48FC0E7
:104B9000CD30D10509F48BC0C932D10509F487C0E5
:104BA000CA32D10509F483C0FE01E352FB4FE49100
:104BB000DE01A154BE4F8C91E81709F478C08F5FD5
:104BC0008C9375C0209709F46FC0CE30D10509F4DD
:104BD0006BC0C832D10509F467C0CC30D10509F4E7
:104BE00063C0CD30D10509F45FC0C932D10509F4E5
:104BF0005BC0CA32D10509F457C0FE01E154FE4F33
:104C00009081992309F450C0915090834DC086FF44
:104C10004BC087FF0AC08091EB01882311F00093FD
:104C2000EB010E946F2511E043C0C330D10539F478
:104C30008091C201882319F1CCE0D0E038C0CC309B
:104C4000D10519F4CEE0D0E032C0C932D10519F453
:104C5000CBE2D0E02CC0C531D10539F48091D4012C
:104C60008130A1F0C7E1D0E022C0C231D10539F4D2
:104C70008091D101882351F4C5E1D0E018C0C5323C
:104C8000D10521F48091E401882309F1CE01019638
:104C90006DE270E00E94DF74EC018031910539F41F
:104CA00010E0C1E1D0E004C0882309F44FCF10E048
:104CB000CE010E940C23112309F448CF8FEB97E01B
:104CC0000E941213DF91CF911F910F910895C8E2B6
:104CD000D0E0EDCF809110078E7F80931007109267
:104CE000D7010E946F2508958091100781608093FD
:104CF000100781E08093D7010E946F25089584EE0C
:104D000093E064E077E04CE050E02FE830E20E946E
:104D100071080895809110078D7F8093100710927D
:104D200008071092090710920A0710920B070E94B9
:104D30007F260895809110078260809310070E945B
:104D40007F26089546E050E02FE830E20E94710887
:104D50000895FB01108A90E074E0880F991F7A95FE
:104D6000E1F784559B4FBF0140E150E02FE830E26E
:104D70000E94710808958EE397E060ED77E04DE2C0
:104D800050E027E830E20E94550820E030E0F901C9
:104D9000E154FE4FD901A25CB84F8C9180832F5F04
:104DA0003F4F2D32310599F78091CE018F5F80936F
:104DB000190790E0E3E0880F991FEA95E1F78093E7
:104DC0001A079091D7019170809110078E7F892BDF
:104DD000809310071092E701089584E097E064EE55
:104DE00073E04CE050E027E830E20E9455088091E3
:104DF000100790911107A0911207B09113078093AB
:104E0000140790931507A0931607B09317070895FA
:104E10009C01CB01B90146E050E027E830E20E9456
:104E200055080895FB01108A682F70E0A4E0660F12
:104E3000771FAA95E1F764557B4FCF0140E150E021
:104E400027E830E20E9455080895EF92FF920F93F1
:104E50001F93CF93DF936AEF70E080E090E00E94B1
:104E60009156F999FECF80ED97E092BD81BDF89AF9
:104E700080B5883D59F4F999FECF8CEF97E092BD4B
:104E800081BDF89A80B58A3A09F0DAC084ED95E0E0
:104E900060E00E94DF2285EC95E061E00E94DF2265
:104EA000EEE3F7E0119287E0EE3BF807D9F7C0E0B8
:104EB000D0E000E018E0A8014C1B5D0B4138510523
:104EC00014F040E850E0CE016EE377E02FE830E2E6
:104ED0000E947108C058DF4F88E0C030D80759F7EA
:104EE0000E947F2680EF93E06AE071E049E050E0A5
:104EF0002FE830E20E94710884E194E063E171E000
:104F00004AE050E02FE830E20E94710884E494E027
:104F10006DE171E040E250E02FE830E20E9471085C
:104F20008CE694E06DE371E04AE150E02FE830E276
:104F30000E94710884E994E067E571E041E050E087
:104F40002FE830E20E94710883E580933E071092BB
:104F500041070CEA14E0C1E0D0E0BEE3EB2EB7E07D
:104F6000FB2ECE016AE070E00E94DF74605D60930A
:104F70003F07CE016AE070E00E94DF74805D80939D
:104F80004007F70101900020E9F7EE53F740C80110
:104F90006EE377E0AF012FE830E20E947108005F16
:104FA0001F4F219687E00C3A1807D9F610923E075A
:104FB00080E380933F0710924007C0E0D0E081E299
:104FC00091E06EE377E048E150E09E0100E00E944E
:104FD000D852689684E0C038D80789F78FEF80935D
:104FE0003E0780933F07809340078093410780935B
:104FF0004207809343078CEA97E06EE377E046E050
:1050000050E02FE830E20E94710884EC97E06EE3F4
:1050100077E046E050E02FE830E20E94710886E138
:1050200091E00E9431520E946F2564EF71E080E0B0
:1050300090E00E949156E091D507F091D60709952E
:105040000E94BB260E94ED2680E00E94CF21182FEF
:1050500090E08F7090708130910519F0049781F580
:1050600003C08CE290E021C085EB95E060E00E94F7
:10507000DF2260ED77E080E090E00E94915684EAC4
:1050800095E060E00E94DF2284E995E061E00E9403
:10509000DF2280E00E94CF21182F86FFFACF8FEB0E
:1050A00097E00E94561380E090E00E94A025809136
:1050B000EB01882329F0E091D507F091D6070995F7
:1050C00081E00E9463210E947D21112309F040C0EC
:1050D00085E895E060E00E94DF228FEB97E062E0D8
:1050E00041E00E94241380E895E00E948D221091F7
:1050F000CD01812F6AE00E94BF74682F605D8FEB45
:1051000097E00E94A75A8FEB97E06EE20E94A75AA1
:10511000812F6AE00E94BF74692F605D8FEB97E07A
:105120000E94A75A809118078A3129F08C3D31F4EA
:105130008CE795E005C088E795E002C084E795E03C
:105140000E948D2268EE73E080E090E00E9491560C
:10515000DF91CF911F910F91FF90EF900895AF9243
:10516000BF92DF92EF92FF920F931F93DF93CF9343
:10517000CDB7DEB728970FB6F894DEBF0FBECDBF10
:105180008C01D62E68E00E94A220292F33274427C5
:1051900055272093E6029C01442755272093E702D8
:1051A000272F382F492F55272093E8026093E902D3
:1051B000A090B601B090B701C801089664E00E94C3
:1051C000A2207093B7016093B60186E5E82E87E0D0
:1051D000F82E1C821B8286E392E09A838983FE82EA
:1051E000ED82F886EF82C8010C9662E00E94A22050
:1051F0002DB73EB72C5030400FB6F8943EBF0FBECF
:105200002DBFEDB7FEB731969E012F5F3F4FADB773
:10521000BEB712963C932E93119727EE35E0338359
:10522000228320EF33E03583248377836683D0861F
:10523000118680E690E0938782870E948A112DB7BD
:105240003EB7245F3F4F0FB6F8943EBF0FBE2DBF51
:1052500083EE95E0B70141EE55E027E531E20E948B
:10526000834700E010E00E94690F0E94994A0F5F97
:105270001F4F04361105B9F7B092B701A092B601DD
:1052800028960FB6F894DEBF0FBECDBFCF91DF9149
:105290001F910F91FF90EF90DF90BF90AF90089516
:1052A000EF92FF920F931F93DC01CB0179018A01EA
:1052B000139A0E9401571398C7010E9401571F912A
:1052C0000F91FF90EF9008952F923F924F925F922F
:1052D0006F927F928F929F92AF92BF92CF92DF9206
:1052E000EF92FF920F931F93DF93CF9300D00F9213
:1052F000CDB7DEB74B015C0179018A01DA01C90142
:10530000880F991FAA1FBB1F820F931FA41FB51FD1
:10531000582E692E7A2ECB2EDA01C90155E0880F5E
:10532000991FAA1FBB1F5A95D1F78E199F09A00B71
:10533000B10B8983292E3A2E4B2EDD242FC0D501A7
:10534000C4010A8004C0B695A795979587950A94DD
:10535000D2F780FF07C0652D762D872D9C2DA801E3
:10536000970106C0C801B701252D362D472D5C2DAC
:105370000E9450298A819B8101979B838A838F5F3A
:105380009F4FE9F6C801B7012981322D432D542DD5
:105390000E945029D394FFE0DF1629F087E190E0C6
:1053A0009B838A83CCCF0F900F900F90CF91DF918A
:1053B0001F910F91FF90EF90DF90CF90BF90AF9033
:1053C0009F908F907F906F905F904F903F902F9025
:1053D00008951F93DF93CF93CDB7DEB728970FB60D
:1053E000F894DEBF0FBECDBF162FBE016F5F7F4F9B
:1053F000AE014B5F5F4F0E94EE209C01112329F00C
:1054000069817A818B819C8104C06D817E818F81CD
:10541000988540E050E00E94642928960FB6F894E1
:10542000DEBF0FBECDBFCF91DF911F9108951F93B7
:10543000162F482F50E0F999FECFCA01F3E0959559
:105440008795FA95E1F78653984F92BD81BDF89AFA
:1054500080B590E09A012770307002C095958795CD
:105460002A95E2F780FF27C09A01220F331F240FED
:10547000351F73E0220F331F7A95E1F781E291E047
:105480006EE377E048E150E00E94665280913E076B
:10549000813041F460E0111161E08FE397E00E94F8
:1054A000E92909C0823039F460E0111161E08FE32D
:1054B00097E00E94AF281F910895782F282F30E0A1
:1054C000F901A3E0F595E795AA95E1F7E55EF84FB8
:1054D0002770307081E090E002C0880F991F2A95F4
:1054E000E2F7282F3081482F50E0662371F0832F98
:1054F00090E084239523892BB9F4322B3083872FB6
:1055000061E00E94172A81E00895832F90E08423B0
:105510009523892B49F0209523232083872F60E052
:105520000E94172A8FEF089580E008951F9310E0DE
:10553000812F60E00E945D2A1F5F1133C9F71F9120
:10554000089584E00E94B9559C0183E02A3B380706
:1055500018F020E030E02BC083E02D33380718F03E
:1055600021E030E024C082E02E3D380718F022E030
:1055700030E01DC082E02239380718F023E030E027
:1055800016C082E02535380718F024E030E00FC05F
:1055900082E02232380718F025E030E008C0275FAB
:1055A000314018F026E030E002C02FEF3FEFC90194
:1055B0000895EF92FF920F931F93CF93DF9383E0B1
:1055C00060E00E94875700E217E08091100780FD9D
:1055D00002C060E002C0F8016081C7E0D0E0E62EC2
:1055E000FF2486E160E00E948757B7010C2E02C0BD
:1055F000759567950A94E2F7617085E10E94875777
:1056000086E161E00E9487572197FFEFCF3FDF07D8
:1056100041F70150104087E00A311807B1F683E0E6
:1056200061E00E9487570E94805020E330E040E014
:1056300050E00E94F274962F8091D8076817B1F05D
:105640006093D807E62FE695E695E695F0E0E55EEF
:10565000F84F608170E0892F877002C0759567955B
:105660008A95E2F76170892F0E94172ADF91CF9106
:105670001F910F91FF90EF900895EF92FF920F937B
:105680001F930E9480507B018C016091C00170E0EB
:1056900080E090E024E833E040E050E00E94A07415
:1056A0009B01AC01205C384A404050402E0D3F1D0C
:1056B000401F511FB901CA011F910F91FF90EF9038
:1056C00008950E943D2B20E831E541E050E00E9422
:1056D000F2742D5F3F4F4F4F5F4FCA01B90127E072
:1056E00030E040E050E00E94F274862F0895EF927F
:1056F000FF920F931F937B018C018FEB97E060E08B
:1057000040E00E942413C801B7010E946D4F0E941F
:105710006A2280E795E00E948D22C801B7010E94AD
:10572000674F0E946A228DE695E00E948D220E94BA
:10573000612B90E0880F991F880F991F845B9A4F07
:105740000E948D228BE695E00E948D22C801B70150
:105750000E94554F0E946A2289E695E00E948D22A0
:10576000C801B7010E94614F0E946A221F910F91E8
:10577000FF90EF9008958F92AF92CF92EF920F9398
:1057800000D000D0EDB7FEB73196ADB7BEB71196D9
:105790001C921182128213828FEB97E061E043E149
:1057A0002FEF02E1E4E1EE2E75E1C72E56E1A52EC2
:1057B00037E1832E0E94C9130F900F900F900F9026
:1057C0008FEB97E00E945E138091C307882339F422
:1057D00081E0809381000E9463210E947D210F91CE
:1057E000EF90CF90AF908F9008958F929F92AF924D
:1057F000BF92CF92DF92EF92FF920F931F93DF93AE
:10580000CF93CDB7DEB728970FB6F894DEBF0FBEA3
:10581000CDBF81E061E00E94485781E061E00E94D5
:10582000875783E061E00E94485783E061E00E946F
:10583000875786E161E00E94485785E161E00E9458
:1058400048570E94962A0E94D92A81E060E00E946F
:1058500087578BE060E00E9448578BE061E00E9430
:10586000875781E060EA74E142E050E00E94005511
:105870008091100781608F7B8093100780911007C3
:1058800090911107A0911207B0911307809314070C
:1058900090931507A0931607B093170788E691E039
:1058A000909305078093040788E394E0909307079B
:1058B00080930607FF24F394F092190748E0B42E72
:1058C000B0921A078CE161E00E9448578CE160E0D9
:1058D0000E9487578CEA8093180782EA9BE00E9417
:1058E000775C0E94BB2B198284E18A83BB8235E1FD
:1058F000E32EEC82FD8225E0C22ECE82CF82E886A6
:105900008FEB97E061E08E010F5F1F4FA8010E94AF
:10591000EA121A821B82FC828FEB97E060E0A801FA
:105920000E94EA121A829FE1F92EFB8281E1D82EB1
:10593000DC82FD82DE82B3E18B2E8F82AEE19A2E75
:1059400098868FEB97E062E0A8010E94EA1286E059
:105950008B83F9E0AF2EAC82FD821E82EF82E88657
:105960008FEB97E063E0A8010E94EA1287E08B8347
:1059700083E08C83CD82BE8280E18F8318868FEB9B
:1059800097E064E0A8010E94EA121B82DC828BE0AF
:105990008D83CE82AF8298868FEB97E065E0A80179
:1059A0000E94EA121B829AE19C8382E18D839E838E
:1059B0008F8218868FEB97E066E0A8010E94EA12BA
:1059C00080E061E00E94485780E061E00E948757D4
:1059D0008EEA96E060E044E00E940A6A882329F09B
:1059E000809110078062809310078FE160E00E9431
:1059F00048578EE160E00E9448578DE160E00E94C8
:105A000048578FE161E00E9487578EE161E00E9474
:105A100087578DE161E00E9487570E94850D289687
:105A20000FB6F894DEBF0FBECDBFCF91DF911F91AF
:105A30000F91FF90EF90DF90CF90BF90AF909F902D
:105A40008F900895CF93DF9382EA9BE060E570E04A
:105A50000E949D5B82EA9BE060E00E941F5C82EAFC
:105A60009BE00E94625C882311F080E029C082EAFA
:105A70009BE060E570E00E949D5B82EA9BE06AEF3C
:105A80000E941F5C82EA9BE00E94625C82EA9BE0CB
:105A900060E570E046E050E00E94735C82EA9BE0C3
:105AA0000E94A75B892BD1F3CEE3D7E082EA9BE08B
:105AB0000E94B05B899387E0C434D807B9F781E0CE
:105AC000DF91CF910895DF93CF93CDB7DEB72897BD
:105AD0000FB6F894DEBF0FBECDBF80E096E061E068
