:100000000C94EE050C9419060C9419060C94190620
:100010000C9419060C9419060C9419060C941906E4
:100020000C9478130C9419060C9419060C94190668
:100030000C9419060C9419060C9419060C941906C4
:100040000C9419060C9419060C9484500C941906FF
:100050000C9466520C94FC520C9419060C941906DC
:100060000C9419060C9419060C943E6D0C94190608
:100070000C949F520C943B530C9419060C94190643
:100080000C9419060C9419060C9419064E54502021
:1000900053796E63696E672E2E2E005D0D0A002C5B
:1000A00000222C00302C22002C002C005B002E742F
:1000B000787400302E2054657374202831206D69C7
:1000C0006E29002E20002000486F6C6420423320EF
:1000D000746F20737461727400436C69636B2042A7
:1000E0003320746F206C6973740052756E20612028
:1000F00050726F6772616D3A00286C7377632900E4
:1001000028656970290020286F73697029003A00FA
:100110002867776970290077746F7074732E74780C
:100120007400207365630025004E6F0059657300ED
:10013000206D73002B002B0020474D540030300001
:100140003A002D002B000020202020002D44697350
:1001500061626C6564212D003A0045004D433A0010
:1001600020284D414329002D002E002D0020002085
:1001700020003A00200020414300204C4100204450
:1001800043004857207600204F70656E53707269A7
:100190006E6B6C657200486F6C6420423320746F24
:1001A00020736176650042312F42323A2B2F2D2C7D
:1001B0002042333A2D3E003D3D536574204F70740C
:1001C000696F6E733D3D00506C65617365205761CA
:1001D00069742E2E2E00526573657474696E672ED5
:1001E0002E2E00436F6E6E656374696E672E2E2E21
:1001F0000046573A0066777600545A6F6E653A00AB
:10020000747A004E54503F006E747000444843505E
:100210003F0064686370004F532E6970313A006983
:100220007031002E6970323A00697032002E6970A8
:10023000333A00697033002E6970343A00697034C3
:100240000047572E6970313A00677731002E697088
:10025000323A00677732002E6970333A006777339D
:10026000002E6970343A0067773400506F72743A28
:100270000068703000006870310048573A2000680C
:100280007776004578702E20626F6172643A00655F
:1002900078740053746E2064656C61793A007364FD
:1002A00074004D6173313A006D6173004D617331BB
:1002B00020206F6E2061646A3A006D746F6E004D8D
:1002C000617331206F66662061646A3A006D746FF5
:1002D00066005261696E2073656E736F723A0075C5
:1002E0007273004E6F726D616C6C79206F70656E09
:1002F0003F0072736F0025205761746572696E67E5
:100300003A00776C004465762E20656E61626C65FC
:100310003F0064656E0049676E207077643F006936
:10032000706173004465762E2049443A0064657616
:100330006964004C434420636F6E2E3A00636F6E15
:10034000004C4344206C69742E3A006C6974004C74
:1003500043442064696D2E3A0064696D00426F6FFA
:1003600073743A0062737400557365207765617425
:100370006865723F00757774004E54502E69703175
:100380003A006E747031002E6970323A006E7470EB
:1003900032002E6970333A006E747033002E69702B
:1003A000343A006E747034004C6F673F006C670025
:1003B0004D6173323A006D617332004D61733220CA
:1003C000206F6E2061646A3A006D746F6E32004D6A
:1003D000617332206F66662061646A3A006D746FE3
:1003E00066320046576D3A0066776D005265736558
:1003F0007420616C6C3F007265736574004D6F6EA4
:10040000005475650057656400546875004672694C
:10041000005361740053756E0050726F6772616DA6
:1004200020006376006A630064700063700063728A
:10043000007570006A7000636F006A6F007370006F
:100440006A7300636D006373006A6E006A6C006417
:100450006C007375006375003C7363726970743E61
:1004600077696E646F772E6C6F636174696F6E3D30
:10047000222F223B3C2F7363726970743E0A007B0B
:1004800022726573756C74223A24447D007B22725B
:100490006573756C74223A24447D0024460022243E
:1004A00046223A24447D00646179005D002C245387
:1004B000002453005B007479706500656E640073FE
:1004C000746172740068697374007400656E0073FF
:1004D0006964005D2C226E73746174696F6E73229F
:1004E0003A24447D002C0024440022736E223A5B9F
:1004F00000637077006E70770077746F00747474A7
:100500000077746B6579006C6F63006A73700072BA
:100510006400656E007262740072736E003C6D65FB
:100520007461206E616D653D2276696577706F72CA
:10053000742220636F6E74656E743D2277696474F3
:10054000683D6465766963652D77696474682C69B4
:100550006E697469616C2D7363616C653D312E3019
:100560002C6D696E696D756D2D7363616C653D31C0
:100570002E302C757365722D7363616C61626C65CE
:100580003D6E6F223E0D0A003C73637269707420E9
:100590007372633D2224452F686F6D652E6A732246
:1005A0003E3C2F7363726970743E0A3C2F626F6425
:1005B000793E0A3C2F68746D6C3E0076617220763D
:1005C00065723D24442C697061733D24443B3C2F8B
:1005D0007363726970743E0A003C21444F4354595E
:1005E00050452068746D6C3E0A3C68746D6C3E0A20
:1005F0003C686561643E0A24463C2F686561643E40
:100600000A3C626F64793E0A3C7363726970743E9F
:10061000007D002C2277746F223A7B24537D005D8D
:10062000002C005B24442C244C2C244C5D00305DB9
:100630002C227073223A5B0024442C0022646576DD
:1006400074223A244C2C226E627264223A24442C86
:1006500022656E223A24442C227264223A24442CCD
:10066000227273223A24442C2272647374223A2434
:100670004C2C226C6F63223A222445222C22777460
:100680006B6579223A222445222C2273756E726999
:100690007365223A24442C2273756E736574223A72
:1006A00024442C22656970223A244C2C226C7763F6
:1006B000223A244C2C226C737763223A244C2C224D
:1006C0006C72756E223A5B24442C24442C24442CF6
:1006D000244C5D2C227362697473223A5B003C687F
:1006E00072202F3E3C666F726D206E616D653D6FAE
:1006F0006620616374696F6E3D6375206D65746813
:100700006F643D6765743E3C703E3C623E5363726D
:100710006970742055524C3A3C2F623E3C696E70B1
:10072000757420747970653D746578742073697A86
:10073000653D3332206D61786C656E6774683D315C
:1007400032372076616C75653D22244522206E612A
:100750006D653D6A73703E3C2F703E3C703E446553
:100760006661756C742069732024533C6272202F7B
:100770003E4966206C6F63616C206F6E2075534438
:1007800020636172642C20757365202E2F3C2F70BE
:100790003E3C703E3C623E50617373776F72643AC8
:1007A0003C2F623E3C696E70757420747970653DB3
:1007B00070617373776F72642073697A653D333249
:1007C000206E616D653D70773E3C696E707574207A
:1007D000747970653D7375626D69743E3C2F703E2F
:1007E0003C6872202F3E3C2F666F726D3E3C7363F7
:1007F00072697074207372633D68747470733A2FF9
:100800002F75692E6F70656E737072696E6B6C6593
:10081000722E636F6D2F6A732F6861736865722E15
:100820006A733E3C2F7363726970743E005D7D0095
:10083000225D00225D2C00245300244C5D2C2200FC
:10084000244C2C0024445D2C5B0024442C005B24AD
:10085000442C24442C24442C5B00226E70726F675D
:1008600073223A24442C226E626F61726473223ABE
:1008700024442C226D6E70223A24442C226D6E7317
:1008800074223A24442C22706E73697A65223A24C9
:10089000442C227064223A5B002C2264657870221A
:1008A0003A24442C226D657870223A24442C226824
:1008B0007774223A24447D002C00222446223A24D4
:1008C00044006E616D650070696400706964007059
:1008D0006964005D2C226D61786C656E223A244457
:1008E0007D002C00222453220022736E616D6573FB
:1008F000223A5B0073746E5F736571007266737485
:100900006E0073746E5F646973006D61736F703233
:100910000069676E6F72655F7261696E006D617309
:100920006F70005D2C002C00244400222446223AE3
:100930005B00707700485454502F312E31203230F4
:1009400030204F4B0D0A00436F6E74656E742D544A
:100950007970653A206170706C69636174696F6E5B
:100960002F6A736F6E0D0A436F6E6E656374696FE5
:100970006E3A20636C6F73650D0A004163636573A3
:10098000732D436F6E74726F6C2D416C6C6F772D8D
:100990004F726967696E3A202A0D0A0043616368E5
:1009A000652D436F6E74726F6C3A206D61782D61A6
:1009B00067653D302C206E6F2D63616368652C2068
:1009C0006E6F2D73746F72652C206D7573742D723C
:1009D0006576616C69646174650D0A00244624467D
:1009E000244624460D0A7B002446244624462446F9
:1009F0000D0A00436F6E74656E742D547970653AFC
:100A000020746578742F68746D6C0D0A0024462478
:100A100046244624460D0A00000108000604000191
:100A200045000082000040002000504F5354202415
:100A30004620485454502F312E300D0A486F73749D
:100A40003A2024460D0A244624534163636570749A
:100A50003A202A2F2A0D0A436F6E74656E742D4C4E
:100A6000656E6774683A2024440D0A436F6E74659E
:100A70006E742D547970653A206170706C69636191
:100A800074696F6E2F782D7777772D666F726D2D65
:100A900075726C656E636F6465640D0A0D0A24538C
:100AA00000474554202446245320485454502F31A5
:100AB0002E300D0A486F73743A2024460D0A2446DE
:100AC0000D0A0D0A004163636570743A20746578FD
:100AD000742F68746D6C00E30004FA0001000000DC
:100AE00001776561746865722E6F70656E737072E0
:100AF000696E6B6C65722E636F6D002F7765617424
:100B00006865720024442E70793F6C6F633D244504
:100B1000266B65793D2445266677763D2444267705
:100B2000746F3D24530065697000747A00736361CB
:100B30006C650073756E7365740073756E7269739E
:100B4000650000002100240027002A000000220088
:100B5000250028002B00000020002300260029008B
:100B60000202020202020202040404040404040455
:100B70000303030303030303010101010101010155
:100B80000102040810204080010204081020408067
:100B90000102040810204080804020100804020157
:100BA000000000010200000000000000040307062E
:100BB0000000000000000000000000000000000035
:100BC0007C3C3E5E2B3D3F2F5B5D3B2C2A225C0034
:100BD000F70CAC13E71F1F542856FE6811241FBEE4
:100BE000CFEFD0E4DEBFCDBF13E0A0E0B1E0EEE791
:100BF000FFED00E00BBF02C007900D92A036B107D9
:100C0000D9F71BBE11E1A0E6B3E001C01D92A034EC
:100C1000B107E1F71BE0CCEDDBE004C02297FE0159
:100C20000E94B96FC03DD107C9F70E94B5540C941A
:100C300060060C940000FC0188279927E894219114
:100C40002032E9F3293010F02E30C8F32B3241F076
:100C50002D3239F4689404C00E944307820F911D1D
:100C6000219120532A30C0F31EF4909581959F4F17
:100C700008951F93FC0199278827BC01E8941191DE
:100C80001032E9F3193010F01E30C8F31B3251F066
:100C90001D3249F4689406C00E942E07610F711D31
:100CA000811D911D119110531A30B0F33EF49095AF
:100CB0008095709561957F4F8F4F9F4F1F9108953D
:100CC000F8940C94BD6FFB01DC0102C005900D92FD
:100CD00041505040D8F70895FB01DC010D900020F1
:100CE000E9F7119705900D920020E1F70895FB01B7
:100CF000DC0105900D920020E1F70895FB01DC0175
:100D000004C08D910190801921F441505040C8F7E2
:100D1000881B990B0895FB01DC0102C001900D9224
:100D200041505040D8F70895DC0101C06D93415007
:100D30005040E0F70895FB01DC010D900020E9F739
:100D4000119701900D920020E1F70895FC01819127
:100D5000861721F08823D9F7992708953197CF0175
:100D60000895FB01DC0101900D920020E1F7089548
:100D7000FB01DC014150504030F08D910190801911
:100D800019F40020B9F7881B990B0895FB01DC01C9
:100D90004150504048F001900D920020C9F701C029
:100DA0001D9241505040E0F70895A0E0B0E0EBED17
:100DB000F6E00C948A6F7C01EB018A01690109C09D
:100DC000CE012196F6010995F70181937F0101502B
:100DD000104001151105A1F7CDB7DEB7E8E00C947E
:100DE000A66FA0E0B0E0E7EFF6E00C948A6FEC01AC
:100DF0007B018A01690109C0CE012196F701619149
:100E00007F01F60109950150104001151105A1F768
:100E1000CDB7DEB7E8E00C94A66FFB019F01E89424
:100E20004230C4F04532B4F44A3029F497FB1EF442
:100E3000909581959F4F642F77270E941C6F805D4E
:100E40008A330CF0895D8193CB010097A1F716F4EA
:100E50005DE251931082C9010C947007592F482FFD
:100E6000372F262F660F771F881F991F660F771F52
:100E7000881F991F620F731F841F951F660F771FAE
:100E8000881F991F08957AE0979F902D879F802D46
:100E9000910D11240895FA01CF93FF93EF9322301F
:100EA000CCF02532BCF4C22F2C2F332744275527F2
:100EB000FF93EF930E94436FEF91FF91605D6A3360
:100EC0000CF0695D6193B901CA01605070408040C7
:100ED000904051F710828F919F91CF910C947007A1
:100EE000DC01FC01672F71917723E1F7329704C091
:100EF0007C916D9370836291AE17BF07C8F308951C
:100F0000DF93CF9300D000D000D0CDB7DEB7DE01A5
:100F10001196E4EFF2E086E001900D928150E1F746
:100F200086E191E0E6ECF3E0DF019C011D922150A7
:100F30003040E1F780916003833019F466EB73E091
:100F400003C0BE016F5F7F4F84E490E043E450E054
:100F50000E94764380916003833039F086EC93E001
:100F6000BE016F5F7F4F0E94CA4F81E08093F00304
:100F70008093F10386E08093F20380916D0390915A
:100F80006E03A0916F03B09170038093F40390936C
:100F9000F503A093F603B093F703809160038330C9
:100FA00039F480EF93E00C9666EA73E00E94D24F2A
:100FB0008CE094E060EA73E00E94CA4FACEDB4E0CC
:100FC000E3E8F1E002C081918D9331E0E938F30765
:100FD000D1F790916003992311F083E001C081E083
:100FE0008093E2048DE38093E30487E08093E4043C
:100FF00081E08093E504A6EEB4E0E0EAF3E002C00D
:1010000081918D9383E0E63AF807D1F78CE08093E5
:10101000EC0485E08093ED04EDE7F1E0AEEEB4E0A2
:1010200002C081918D9321E0E238F207D1F723EFDE
:1010300034E03093750320937403913069F582E3B3
:101040008093F30484E08093F404D9011296E6EAD5
:10105000F3E002C081918D9333E0EA3AF307D1F7D0
:1010600086E38093F90484E08093FA048BEF94E0A4
:101070009093750380937403DC01E6EBF3E002C008
:1010800081918D9383E0EA3BF807D1F78FEF94E0ED
:10109000909375038093740320917303222311F0BE
:1010A00094E001C093E0A0917403B0917503FD0139
:1010B00087E3819311969C93DF01119681E08183F0
:1010C000FD01319683E011968C93DF01119686E045
:1010D0008183CD010196909375038093740322233D
:1010E00039F011962C9301969093750380937403B5
:1010F000E0917403F09175038FEF8193F093750382
:10110000E0937403CF01805F93400E945C45269674
:101110000FB6F894DEBF0FBECDBFCF91DF9108951B
:10112000BF92CF92DF92EF92FF920F931F93CF93D4
:10113000DF938C0180916003823009F401C1833018
:1011400030F4882351F1813009F076C14BC08330EF
:1011500021F0843009F070C1F3C00E94104C20913E
:101160006503309166034091670350916803E090F6
:101170006103F090620300916303109164032E0DEC
:101180003F1D401F511F261737074807590708F012
:1011900053C10E94800784E018C00E94CC50609325
:1011A0006D0370936E0380936F039093700310929E
:1011B000A6031092A7031092A8031092A9030E94FD
:1011C000800781E00E94990D81E0809360030E9476
:1011D000CC506093690370936A0380936B03909380
:1011E0006C032AC10634110508F4DEC08091E903BE
:1011F000833409F0D9C02091F4033091F503409174
:10120000F6035091F70380916D0390916E03A091C6
:101210006F03B0917003281739074A075B0709F07D
:10122000C3C0C0EED4E0FE01A8014A535C4FDF0109
:10123000119691819D012F5F3F4F8081853329F465
:1012400011968C91823009F4CEC0F901E90FF11D9D
:10125000E417F50760F3A8C0FE019191B980EF0192
:1012600021969333E1F0943340F4933091F096302B
:1012700099F0913009F04FC009C09A3381F09F3F37
:1012800009F45AC0963309F046C03FC08AEA93E099
:101290003EC082EB93E03BC08AEB93E038C0818193
:1012A00090E0A0E0B0E0BA2FA92F982F88272981DD
:1012B000820F911DA11DB11DBA2FA92F982F88272C
:1012C0002A81820F911DA11DB11DBA2FA92F982F20
:1012D00088272B81820F911DA11DB11D809365036D
:1012E00090936603A0936703B09368038158914578
:1012F000A140B04008F499C0C0926503D092660343
:10130000E0926703F092680390C086EB93E0BE0121
:101310000E94D24F8AC0E0917103F091720330971E
:1013200009F483C080917303981709F07EC0892F58
:10133000BE014B2D099579C00E94800782E045CF00
:101340000634110588F18091E903833469F5209111
:10135000F4033091F5034091F6035091F703809127
:101360006D0390916E03A0916F03B09170032817E5
:1013700039074A075B07C1F4E0EEF4E0A8014A53DD
:101380005C4FDF01119691819D012F5F3F4F80815E
:10139000853321F411968C918530A9F1F901E90F7B
:1013A000F11DE417F50768F30E94CC502091690302
:1013B00030916A0340916B0350916C03205F384D6C
:1013C0004F4F5F4F261737074807590748F034C07B
:1013D00082EB93E00E94DC4383E0809360032CC0A7
:1013E0001092600329C086EA93E060E074E00E94F6
:1013F000D24F80E8C82E81E5D82E81E0E82EF12C6E
:101400000A531C4F29CF81E00E94880D0E94104C86
:10141000609361037093620380936303909364030A
:101420008091B2038823C1F2D3CFCB0DD11DC01759
:10143000D10708F411CF80CFDF91CF911F910F9189
:10144000FF90EF90DF90CF90BF900895CF93DF9300
:1014500081E08093C2039091A503892F82958F70BC
:101460008F5B809380019F709F5B909381011092AE
:1014700060030E94CC50EB0104C00E94E90D0E9461
:10148000900880916003833061F00E94CC506C1B07
:101490007D0B6053754728F40E94AA0D882389F3B9
:1014A000ECCF0E94F2421092C5031092C40390E068
:1014B00080916003833009F491E0892FDF91CF910F
:1014C0000895FF920F931F93CF93DF938C01F62E15
:1014D0000E94CC50EB010CC00E94E90D0E942946ED
:1014E0000E94CC506C1B7D0B6053754708F0EFC019
:1014F0000E94AA0D882381F30E94CC50EB010CC0FE
:101500000E94E90D0E9429460E94CC506C1B7D0B65
:101510006053754708F0DBC00E94EC42882381F7D6
:101520001092BE031092BF031092C0031092C10329
:10153000809176038F5F809376038091BA0388232E
:1015400061F488E098E0A8E0B8E08093BA03909353
:10155000BB03A093BC03B093BD038091760390E0DE
:10156000906E6AEB73E045E350E00E947643E0EF53
:10157000F3E08CE0DF011D928A95E9F7DF011C960C
:1015800090E0FF2019F0F801808102C0F8018491F9
:101590000F5F1F4F8E3241F0882331F09F5FFD01B6
:1015A000E90FF11D8083EDCFFD019193DF01A90FBC
:1015B000B11D882329F7FD01119211961C92DF01BC
:1015C000119641E04183FD01319611961C924183B1
:1015D00086ED26EC33E0821B32968E0F8093F0036B
:1015E000909176039093F1034093F2034093F503B7
:1015F00090E00E945C450E94CC508B0161C00E942B
:10160000CC50601B710B6053754708F060C00E949E
:10161000E90DEC01009709F453C00E942946892B7B
:1016200009F04EC0C634D10508F44AC08091E903E0
:10163000853309F045C08091EA03803E09F040C03F
:101640009091EB03809176039817D1F58091F10387
:101650008917B1F58091F30390E08F709070892B1A
:10166000B1F58091F003E82FF0E0E051FC4F9E01CE
:101670002A533C4F8081807C39F0329609C08081AA
:10168000882311F4319604C03196E217F307B8F3BA
:10169000CF010E962817390798F08181813051F4D7
:1016A0008185843039F43A968EEB93E0BF010E9435
:1016B000D24F06C0818590E00A96E80FF91FDACF75
:1016C0008091BE03882309F49ACF81E001C080E0B5
:1016D000DF91CF911F910F91FF900895482F6AE0FD
:1016E0000E94106F282F30E084E0220F331F8A956C
:1016F000E1F7842F0E94106F892F820F0895CF93F6
:10170000DF93EC01809177039091780388369105FF
:1017100059F581EB9EE068E670E00E94EE5581EBA2
:101720009EE060E00E94705688810E946E0B682FD8
:1017300070E06F77707081EB9EE00E947056898137
:101740000E946E0B682F81EB9EE00E9470568A818A
:101750000E946E0B682F81EB9EE00E9470568B8179
:101760000E946E0B682F2DC08F36910509F04AC07C
:1017700081EB9EE06FE670E00E94EE5581EB9EE00B
:1017800060E00E94705688810E946E0B682F60682E
:1017900081EB9EE00E94705689810E946E0B682F3B
:1017A00081EB9EE00E9470568A810E946E0B682F2A
:1017B00081EB9EE00E9470568B810E946E0B682F19
:1017C000686081EB9EE00E9470568C810E946E0BD7
:1017D000682F81EB9EE00E9470568D810E946E0BF7
:1017E000682F81EB9EE00E9470568E818E510E9480
:1017F0006E0B682F81EB9EE00E94705681EB9EE09D
:101800000E94B356DF91CF91089588E690E09093BF
:1018100078038093770381EB9EE068E670E00E9496
:10182000EE5581EB9EE060E00E94705681EB9EE0F9
:101830000E94B3568823D9F08FE690E09093780306
:101840008093770381EB9EE06FE670E00E94EE5597
:1018500081EB9EE060E00E94705681EB9EE00E946A
:10186000B356882321F010927803109277030895DD
:101870001F93CF93DF93EC0160917703709178030E
:101880006115710509F46FC081EB9EE00E94EE5571
:1018900081EB9EE060E00E94705681EB9EE00E942A
:1018A000B356609177037091780381EB9EE047E037
:1018B00050E00E94C45681EB9EE00E940156282F02
:1018C0002F7722952F701AE0219F900111248F709D
:1018D000820F888381EB9EE00E940156282F22957B
:1018E0002F70219F900111248F70820F898381EBCB
:1018F0009EE00E940156282F2F7322952F70219F62
:10190000900111248F70820F8A8381EB9EE00E94E8
:10191000015687708B8381EB9EE00E940156282F31
:1019200022952F70219F900111248F70820F8C833C
:1019300081EB9EE00E940156282F22952F70219F57
:10194000900111248F70820F8D8381EB9EE00E94A5
:101950000156282F2F70225E82958F70819FC001C3
:101960001124280F2E83DF91CF911F9108950F939B
:101970001F93DF93CF93CDB7DEB727970FB6F894B9
:10198000DEBF0FBECDBF8E010F5F1F4FA8010E94AB
:10199000BD49C8010E947F0B27960FB6F894DEBFA1
:1019A0000FBECDBFCF91DF911F910F9108950F937F
:1019B0001F93DF93CF93CDB7DEB727970FB6F89479
:1019C000DEBF0FBECDBF8E010F5F1F4FC8010E944B
:1019D000380CC8010E94034B27960FB6F894DEBF5F
:1019E0000FBECDBFCF91DF911F910F91089581EB75
:1019F0009EE00E94C856089580917C0361E00E9499
:101A0000025278940895FF920F931F93082F162F78
:101A1000F42EF89480917C0360E00E9402521F71C2
:101A2000102B1EBD0DB407FEFDCFFEBC0DB407FE8E
:101A3000FDCF0E94FC0C1F910F91FF9008951F9302
:101A4000182F282F30E02076307080917D0390E0B1
:101A50002817390799F080EA6FE143E00E94030DEF
:101A6000412F407640937D0350E085E055954795A2
:101A70008A95E1F780E86FE10E94030D1F910895B8
:101A80000F931F93182F062F0E941F0D80E4612FC4
:101A9000402F0E94030D1F910F9108950F931F93E4
:101AA000182F072F0E94400D812F8F5F602F0E94FB
:101AB000400D1F910F9108950F931F93182F062F1C
:101AC000F89480917C0360E00E940252802F8F7115
:101AD000812B8EBD0DB407FEFDCF1EBC0DB407FEDD
:101AE000FDCF07FF04C01EBC0DB407FEFDCF1EB521
:101AF0000E94FC0C812F1F910F9108951F93182FA6
:101B00000E941F0D80E0612F0E945C0D1F910895BF
:101B1000882311F410927B0380917B03882341F486
:101B200088E30E947E0D682F6E7F88E30E94400D3F
:101B300008951F93182F88E30E947E0D682F61601F
:101B400088E30E94400D112319F481E080937B0308
:101B50001F91089584ED61E10E94400D82ED61E0E6
:101B60000E94400D8AEE0E947E0D80FDFBCF82ED2B
:101B700060E00E94400D89ED0E947E0D90E09695F8
:101B8000879596958795817008950F931F93CF93AE
:101B9000DF93EC018B01F89480917C0360E00E945C
:101BA00002528AE38EBD0DB407FEFDCF09C01EBCF4
:101BB0000DB407FEFDCF8EB5F80181938F012197FB
:101BC0002097A9F70E94FC0CDF91CF911F910F91F4
:101BD00008950F931F93DF93CF9300D000D000D0D0
:101BE000CDB7DEB789E30E947E0D882319F400E0AB
:101BF00010E048C060917E0370917F0380E00E94F6
:101C00004E0D86E090E0BE016F5F7F4F0E94C50DD4
:101C100089819A8190937F0380937E032B813C81FD
:101C2000E0917903F0917A038D8187FD03C000E094
:101C300010E00EC0245030408F010150104020179A
:101C4000310708F48901C80166EC73E00E94C50DF4
:101C5000F801EA53FC4F108260917E0370917F037C
:101C60008CE06130780724F08CE06FEF7BE003C0FC
:101C7000615070408CE00E944E0D80E86EE140E4BF
:101C80000E94030DC80126960FB6F894DEBF0FBE62
:101C9000CDBFCF91DF911F910F9108950F931F93A7
:101CA000CF93DF938C01EB01F89480917C0360E08B
:101CB0000E9402528AE78EBD0DB407FEFDCF08C018
:101CC00088818EBD0DB407FEFDCF219601501040D6
:101CD00001151105A9F70E94FC0CDF91CF911F910E
:101CE0000F910895CF93DF93EC018CE10E947E0D5C
:101CF00081FF0FC080E86FE140E80E94030D80EA99
:101D00006FE140E80E94030D80EA6CE142E00E942E
:101D1000030D82E060E07CE00E944E0DBE01605049
:101D2000744F86E00E944E0D8AE760E040E00E941A
:101D3000030DCE0166EC73E00E944E0E80E86FE169
:101D400048E00E94030DDF91CF91089584E061E0A7
:101D50000E94855184E061E00E94025285E061E0CA
:101D60000E94855187E061E00E94855186E060E035
:101D70000E94855185E061E00E94025285E060E0AA
:101D80000E94025287E060E00E94025280E58CBD12
:101D90008DB581608DBD0895EF92FF920F931F93D3
:101DA000CF93DF93EB01142F90937A038093790301
:101DB0000CB406FC02C00E94A60E10937C03812F77
:101DC00061E00E9485510E94FC0C8FEF60E04FEFB4
:101DD0000E94030D62E070E080E090E00E94DA5023
:101DE0000E94CC507B018C0180E395E7A0E0B0E03D
:101DF000E80EF91E0A1F1B1F09C00E94CC50E616F0
:101E0000F7060807190710F480E084C080E06DE150
:101E10000E945C0D882389F310927F0310927E0349
:101E200088E060E070E00E944E0D8CE060E070E0C1
:101E30000E944E0D8AE06FEF7BE00E944E0D84E021
:101E400060E07CE00E944E0D86E06FEF71E10E9441
:101E50004E0D80E00E94990D88E26FE370E30E94CE
:101E60004E0D80E369EF77EF0E944E0D80EC6DE040
:101E70000E94400D81EC60E00E94400D80E862EC21
:101E800042E30E94030D86EC62E17CE00E944E0D6D
:101E900084EC62E10E94400D8AEC6AEE75E00E94DB
:101EA0004E0D84EE68810E94400D85EE69810E948E
:101EB000400D82EE6A810E94400D83EE6B810E948C
:101EC000400D80EE6C810E94400D81EE6D810E947C
:101ED000400D84ED60E10E94400D86ED60E071E010
:101EE0000E944E0D8AEE0E947E0D80FDFBCF8FE199
:101EF0000E941F0D80E86BE140EC0E94030D80E81A
:101F00006FE144E00E94030D82E70E947E0D86305F
:101F100008F08F5FDF91CF911F910F91FF90EF90AD
:101F20000895EF92FF920F931F93CF93DF93FC01DD
:101F3000EB018A0179011092C203009729F086EA29
:101F400093E0BF010E94D24F209719F0CE010E946A
:101F5000DC430115110529F08AEB93E0B8010E94DA
:101F6000D24FE114F10429F08AEA93E0B7010E940C
:101F7000D24F0E94F2421092C5031092C40381E036
:101F8000DF91CF911F910F91FF90EF900895AF9245
:101F9000BF92CF92DF92FF920F931F93CF93DF9365
:101FA0008C01EB01F42E1092C20338E341E050E0C3
:101FB00060E070E018C0832F90E0FC01B3E0F5957D
:101FC000E795BA95E1F7E058FC4F877090705A0199
:101FD0006B0104C0AA0CBB1CCC1CDD1C8A95D2F77B
:101FE00020812A292083315031F780EA93E0BE0115
:101FF0000E94CA4FC80160EA73E04F2D0E94CC0EC8
:10200000DF91CF911F910F91FF90DF90CF90BF9004
:10201000AF900895CF92DF92EF92FF920F931F93AC
:10202000DF93CF93CDB7DEB7EB84FC84CD84DE8421
:10203000DE011F9601C0D801F6018491882309F4BE
:10204000BCC00894C11CD11C843209F099C0F601AF
:102050000894C11CD11C8491863409F45FC0873474
:1020600034F4843469F0853409F08AC06EC08C344D
:10207000C9F1833509F445C0883409F081C00DC029
:102080008D010E5F1F4FF701668177818D919C91C5
:102090004AE050E00E940D077EC02C91822F9927C4
:1020A00087FD909514E0959587951A95E1F78F70C7
:1020B0002F702A300CF0295F8A300CF0895F8D0177
:1020C0000E5F1F4FF701A681B781805DFD018193EF
:1020D000205D11962C933196D7011796FC93EE93C1
:1020E0001697A9CF8D010C5F1F4F6D917D918D913A
:1020F0009C91F701468157812AE030E00E944B070E
:102100004AC08D010E5F1F4F6D917C91D7011696CD
:102110008D919C9117970E94B1063DC08D010E5F75
:102120001F4F2D913C910AC0D7011696ED91FC915D
:10213000179781931796FC93EE931697F9012F5FEB
:102140003F4F8491882381F776CF8D010E5F1F4F1B
:102150002D913C910AC0D7011696ED91FC911797ED
:1021600081931796FC93EE931697F999FECF32BDA3
:1021700021BDF89A80B52F5F3F4F882361F75BCF71
:10218000F70126813781F90181939F01F701378398
:1021900026838D0150CFD70116968D919C9117976C
:1021A000FC0101900020E9F73197E81BF90B8E0F35
:1021B0009F1FF701978386833ECFCF91DF911F91B9
:1021C0000F91FF90EF90DF90CF9008950F931F93A2
:1021D0008C01FC01848560E00E94025281E090E065
:1021E0000E943351F801848561E00E94025281E02F
:1021F00090E00E943351F801848560E00E94025211
:1022000084E690E00E9433511F910F910895CF9280
:10221000DF92EF92FF920F931F936C01062F81EBD9
:10222000E82E8EE0F82EC701F60164810E94E45585
:1022300010E0F601808590E0082B192BC701602F74
:102240000E947056C7010E94B3561F910F91FF90D4
:10225000EF90DF90CF900895FF920F931F938C0122
:10226000F62E64600E94071181E090E00E943351D5
:102270008BEFF822C8016F2D0E94071182E390E0D6
:102280000E9433511F910F91FF900895FC0188E047
:102290008087CF0160E00E9407110895FC0110863D
:1022A00060E00E9407110895CF92DF92EF92FF92B3
:1022B0000F931F93CF93DF937C01D62EFC01818572
:1022C000813039F4C7010E940711C7016D2D0E94AA
:1022D0002C11F70181858823F9F48701C0E0D0E053
:1022E000CD2CDD24F801858561E00E948551B60181
:1022F0000C2E02C0759567950A94E2F76170F8019B
:1023000085850E94025221960F5F1F4FC430D10570
:1023100049F7C7010E94E610DF91CF911F910F91FD
:10232000FF90EF90DF90CF9008950F931F93CF937E
:10233000DF93EC01062F142F8985813061F4607FD3
:10234000642BCE010E945411602F6295607F612B37
:10235000CE010E94541189858823C1F48A85612F9A
:102360000E9402528B858F3F19F060E00E9402525A
:10237000602F70E094E0759567959A95E1F7CE012E
:102380000E945411CE01602F0E945411DF91CF9111
:102390001F910F91089541E00E94951181E090E016
:1023A000089540E00E9495110895EF92FF920F93D7
:1023B0001F93CF93DF938C017A016770660F660FCE
:1023C000660F60640E94D111C0E0D0E0D801ED91A9
:1023D000FC91D701AC0FBD1F0190F081E02DC80129
:1023E0006C9109952196C830D10581F7DF91CF9185
:1023F0001F910F91FF90EF900895FC0166896E7F09
:10240000668B68600E94D1110895FC016689862F51
:102410008460868B6C60CF010E94D1110895DF9398
:10242000CF93CDB7DEB728970FB6F894DEBF0FBEB7
:10243000CDBF9C01FE013196A2E0B3E088E00D9093
:1024400001928150E1F7F9018185813021F4868183
:10245000841748F406C0882331F4F901818D4817A8
:1024600010F0482F4150E42FF0E0EE0FFF1FEC0F6B
:10247000FD1F8181680F6068C9010E94D1112896F3
:102480000FB6F894DEBF0FBECDBFCF91DF91089598
:1024900062E00E94D11180ED97E00E9433510895CF
:1024A00061E00E94D11180ED97E00E9433510895C0
:1024B000CF93DF93EC018985813009F044C088E037
:1024C0008D8B62E370E080E090E00E94DA50CE01F4
:1024D00068850E94071168EE73E080E090E00E943A
:1024E000DA50CE0160E30E94541184E991E10E9428
:1024F0003351CE0160E30E94541184E991E10E94BE
:102500003351CE0160E30E94541186E990E00E94AD
:102510003351CE0160E20E9454116D896062CE0198
:102520000E94D11184E08E8BCE010E940512CE0153
:102530000E94501282E08F8BCE0166E00E94D11182
:10254000CE010E9448128985882309F061C08D89D7
:1025500088608D8B82E0898F1A8E80E593EC0E94D3
:1025600033518A8560E00E9402528C8560E00E94AF
:1025700002528B858F3F19F060E00E9402526D89F4
:1025800064FD1DC0CE0163E00E94541184E991E115
:102590000E943351CE0163E00E94541184E991E11D
:1025A0000E943351CE0163E00E94541186E990E00D
:1025B0000E943351CE0162E00E94541116C0606245
:1025C000CE010E94D11184E991E10E9433516D89BD
:1025D0006062CE010E94D11186E990E00E943351E1
:1025E0006D896062CE010E94D1116D896062CE0159
:1025F0000E94D11184E08E8BCE010E940512CE0183
:102600000E94501282E08F8BCE0166E00E94D111B1
:10261000DF91CF9108956F927F928F92AF92CF9278
:10262000EF920F93DF93CF93CDB7DEB73C01FC0160
:10263000428723870487E586C686A786808A8C859D
:10264000818B8D85828B8E85838B8F85848B81EBAF
:102650009EE00E94C856F301118681EB9EE067E27E
:1026600070E00E94EE5581EB9EE060E00E947056A3
:1026700081EB9EE00E94B356882319F481E0F301B8
:102680008187F3018185813049F487E2848380E189
:10269000858382E08683178288E08087F3018185C5
:1026A000882381F4828561E00E948551F30183854E
:1026B0008F3F19F061E00E948551F301848561E04C
:1026C0000E94855188E0F301858BCF91DF910F91B6
:1026D000EF90CF90AF908F907F906F900895FC0116
:1026E000A681B7816D93B783A68381E090E00895BA
:1026F0001F920F920FB60F920BB60F9211242F93C9
:102700003F934F935F936F937F938F939F93AF9379
:10271000BF93EF93FF938091E5098F5F8093E50965
:102720008091E509803128F0E091E309F091E40916
:102730000995FF91EF91BF91AF919F918F917F91FB
:102740006F915F914F913F912F910F900BBE0F9022
:102750000FBE0F901F90189589E18093A3091092E6
:10276000A6091092BA091092C1091092C3091092D9
:10277000DE091092DD098EE093E09093DC098093EE
:10278000DB0908950E94AB29AB01BC019091090AB5
:1027900020E014C0A22FB0E0FD01E059F34F80818A
:1027A000882359F0AA0FBB1FAA0FBB1FA055B44F17
:1027B0004D935D936D937C9313972F5F291750F37F
:1027C0000895EF92FF920F931F938091A6018823A3
:1027D00009F44FC08091000A82958F7009F049C0BA
:1027E0008091FF0983FD45C080913D0A90913E0A8A
:1027F000A0913F0AB091400A0097A105B10599F058
:102800000E94AB2920913D0A30913E0A40913F0A37
:102810005091400A2D573E4A4E4F5F4F26173707BB
:102820004807590730F50E94AB2960933D0A709321
:102830003E0A80933F0A9093400A8091E6098823DC
:1028400029F48CE890E061E00E9479210E942C300C
:102850007B018C01611571058105910551F00E9484
:10286000E34B8091FF0984FF04C0C801B7010E94B7
:10287000B70C1F910F91FF90EF900895AF92BF9208
:10288000CF92DF92EF92FF920F931F938091FF09F7
:1028900083FD9AC08091000A82958F7091E0E92EA5
:1028A000F12C02C0EE0CFF1C8A95E2F70027F7FC22
:1028B0000095102F0E94104C5B016C01C801B701FC
:1028C0002BE330E040E050E00E94F16E2091490A95
:1028D00030914A0A40914B0A50914C0A260F371FFB
:1028E000481F591F2A153B054C055D0508F06CC0B3
:1028F0000E94104C6093490A70934A0A80934B0AD5
:1029000090934C0A8091E609882359F48BEC9AE065
:102910006FE041E00E940F128BEC9AE064E00E94AD
:10292000CB1182EB93E00E94DC450E94CC507B01EE
:102930008C010E94E90D0E94294682EB93E00E94DF
:102940009E48882361F40E94CC506E197F09800B49
:10295000910B683C71058105910558F322C0809167
:10296000000A8F7002C08F7080668093000A809189
:10297000000A82958F7090E08630910534F0809146
:10298000FF0980648093FF091FC00397ECF00E9449
:10299000C12B8823C9F08091000A8F708093000AB0
:1029A00013C08091000A282F22952F702F5F2F705F
:1029B000922F9295907F8F70892B8093000A30E040
:1029C0002730310584F6D3CF1F910F91FF90EF9000
:1029D000DF90CF90BF90AF900895EF92FF920F934A
:1029E0001F938C0182EA99E060E071E040E00E9470
:1029F000FF6320ECE22E2AE0F22EC701B8010E940C
:102A0000B10602E51AE0C8016BE871E00E94B10668
:102A1000C801B7010E949B06C8016EEA70E00E94DF
:102A20006C061F910F91FF90EF900895CF93DF9365
:102A3000EC0180917202882361F18091FF0985FF8A
:102A400028C0CE0162E071E043E050E00E94B80689
:102A5000009771F482EA99E06BE871E040E00E942F
:102A6000FF638823B1F081EC99E00E94B15C11C052
:102A7000CE010E94ED1482EA99E062E57AE00E94BC
:102A8000FB63882331F082EA99E062E57AE00E94F4
:102A9000D863DF91CF9108958F929F92AF92BF92AA
:102AA000CF92DF92EF92FF920F931F93DF93CF931A
:102AB000CDB7DEB76E970FB6F894DEBF0FBECDBFB1
:102AC000E82E4A015B0180917202882309F416C145
:102AD000CB01BA0120E831E541E050E00E94436FAC
:102AE000CA01B90142E55AE02AE030E00E944B07F2
:102AF00082E59AE00E94ED148091FF0985FFFEC0F7
:102B000082EA99E060E071E040E00E94FF6382EABF
:102B100099E06BE871E040E00E94FF63882351F484
:102B200082EA99E06BE871E041E00E94DC6388236F
:102B300009F4E4C01D821F821C821B8283E593E09E
:102B40009A8389838E010B5F1F4F42E5C42E4AE0B2
:102B5000D42EC801B60142E40E944962F82E4F8982
:102B6000588D698D7A8DC8010E94D057FF2009F4D5
:102B7000C5C0C6016CEA70E00E947706EE20D1F570
:102B8000F60101900020E9F73197EC19FD09EC0DF1
:102B9000FD1D8091A10C90E0BF014AE050E00E9431
:102BA0000D07C6016AEA70E00E946C06F60101900A
:102BB0000020E9F73197EC19FD09EC0DFD1D80911E
:102BC000A00C90E0BF014AE050E00E940D07C60152
:102BD00068EA70E00E946C06F60101900020E9F7B7
:102BE0003197EC19FD09EC0DFD1D8091A20C90911F
:102BF000A30C5AC0C60164EA70E00E946C06EE2D78
:102C0000F0E0EE0FFF1FEE56FE4F60817181C601AE
:102C10000E949B06C60161EA70E00E946C0622E0F9
:102C2000E216B9F033E0E31699F141E0E41609F059
:102C300040C0F60101900020E9F73197E255FA40D3
:102C40008091340A9091350AA091360AB091370AE2
:102C50000FC0F60101900020E9F73197E255FA40E4
:102C60008091380A9091390AA0913A0AB0913B0AB2
:102C7000A5019401281B390B4A0B5B0BCA01B90152
:102C8000EE5AF54FAF012AE030E00E944B0711C029
:102C9000F60101900020E9F73197E255FA40EE5A2B
:102CA000F54F8091510A90E0BF014AE050E00E9448
:102CB0000D0702E51AE0C8016FE970E00E946C069A
:102CC000F80101900020E9F73197E01BF10BE00FCC
:102CD000F11FC501B401AF012AE030E00E944B07AB
:102CE000C8016BE970E00E946C06CE010196B80144
:102CF0000E94A064CE0105960E94385A6E960FB6C7
:102D0000F894DEBF0FBECDBFCF91DF911F910F9121
:102D1000FF90EF90DF90CF90BF90AF909F908F90FB
:102D20000895CF92DF92EF92FF921F936B017C0187
:102D30008091E7099091E809A091E909B091EA0929
:102D40008C579C4FAF4FBF4F8C159D05AE05BF05EF
:102D500078F5C092E709D092E809E092E909F0928B
:102D6000EA092091510A30E040E050E01091EB096F
:102D7000612F70E080E090E00E94F16E20912402CB
:102D8000620F711D811D911D1F5F1093EB09212F93
:102D900030E040E050E00E94436F2093510A10362B
:102DA00039F483E0B701A6010E944C151092EB099B
:102DB0001F91FF90EF90DF90CF9008950E94DA1F4F
:102DC0000E94F1280E94AA2C08952F923F924F92C0
:102DD0005F926F927F928F929F92AF92BF92CF92AB
:102DE000DF92EF92FF920F931F93DF93CF93CDB7B4
:102DF000DEB72C970FB6F894DEBF0FBECDBF7B01B8
:102E00008C015B016C010894A11CB11CC11CD11C7C
:102E1000809100020E94934D4C012091A80C3091AA
:102E2000A90C4091AA0C5091AB0CE216F3060407D2
:102E3000150718F08601750109C07C010027F7FC11
:102E40000095102FE20EF31E041F151F4090090A73
:102E50008091010A282F30E03A8329838091020A69
:102E6000282E33246091FF096695669566956170FA
:102E7000552481E0682E712CC401AA2797FDA095E6
:102E8000BA2F8B839C83AD83BE8385C0E52DF0E094
:102E9000A981BA81A615B70509F479C026143704AB
:102EA00009F475C0CF01880F991F880F991FA0EBF7
:102EB0008A2EABE09A2E880E991ED4012D913D9159
:102EC0004D915C91211531054105510509F45FC013
:102ED000DC01A051B54FB887AF838D919D910D90C6
:102EE000BC91A02D0097A105B10509F050C0DF01EC
:102EF00073E0B695A7957A95E1F7752D7770FD018A
:102F0000E65FF54F808190E0072E02C0959587958A
:102F10000A94E2F780FD3BC0A25DB54F8C9190E032
:102F200002C0959587957A95E2F780FF1AC0EF81E8
:102F3000F885E082F18202831383DA01C9018E0DE4
:102F40009F1DA01FB11FF40180839183A283B383CF
:102F5000EB80FC800D811E81E80EF91E0A1F1B1FED
:102F600015C0AF81B885AD92BD92CD92DC9213971A
:102F70002A0D3B1D4C1D5D1DF401208331834283CE
:102F800053830894A11CB11CC11CD11C61E0539453
:102F90000894611C711C541408F478CF6170660F9A
:102FA000660F660F8091FF09877F862B8093FF094C
:102FB0002C960FB6F894DEBF0FBECDBFCF91DF9138
:102FC0001F910F91FF90EF90DF90CF90BF90AF9047
:102FD0009F908F907F906F905F904F903F902F9039
:102FE0000895AF92BF92CF92DF92EF92FF920F932C
:102FF0001F93DF93CF93CDB7DEB7C754D0400FB642
:10300000F894DEBF0FBECDBFE82E0E94DE168E2DD7
:1030100081508E3F28F4BE016F5F7F4F0E94A22E29
:10302000DD24FF244EEFC42E3CE0A32EB12CAC0EC9
:10303000BD1E41C00F2D10E08FEFE81629F442E0CD
:1030400050E060E070E012C0EE2009F440C0F501ED
:10305000E00FF11F80810E94234D0E94504DAB0173
:10306000BC01411551056105710521F1F80123E00D
:10307000F695E7952A95E1F7EE5DF54F808190E0B2
:103080002F2D277002C0959587952A95E2F780FD30
:1030900011C0F801EE0FFF1FEE0FFF1FE055F44FB8
:1030A00040835183628373830059134FF801C082B8
:1030B000DD24D394F3948091090AF81608F4BACF6A
:1030C000DD2051F00E94AB290E94E51605C04CE3BB
:1030D00050E060E070E0CACFC95BDF4F0FB6F894F4
:1030E000DEBF0FBECDBFCF91DF911F910F91FF903B
:1030F000EF90DF90CF90BF90AF900895DF92EF9266
:10310000FF920F931F93CF93DF93D82E7A018B01F9
:10311000C82FD0E060E00E94B61FFE01EE0FFF1F37
:10312000EE0FFF1FE051F54F208131814281538125
:10313000211531054105510509F45EC02E153F05E5
:103140004007510708F042C0BE016F5F7F4F80917A
:10315000010A90E08617970711F18091020A90E02A
:1031600086179707E1F0D092A00CFE01E059F34FCB
:1031700080818093A10CC701821B930B9093A30CB9
:103180008093A20CE092A40CF092A50C0093A60CE4
:103190001093A70C80E0B801A7010E944C15FE0116
:1031A00063E0F695E7956A95E1F7E85DF54F808174
:1031B00090E02D2D277002C0959587952A95E2F70E
:1031C00080FF04C08D2D60E00E948228FE01EE0F7A
:1031D000FF1FEE0FFF1FDF01A051B54F1D921D9283
:1031E0001D921C921397E055F44F108211821282A7
:1031F0001382C059D34F1882DF91CF911F910F9145
:10320000FF90EF90DF9008954F925F926F927F92C0
:103210008F929F92AF92BF92CF92DF92EF92FF92E6
:103220000F931F93CF93DF935B016C019091FF0984
:1032300044244394492291FD0CC0809118028823B4
:1032400011F4FF2408C0F92EF694F69481E0F822D8
:1032500011F0FF24F394EE2469C08E2D90E0FC0160
:10326000EA5EF54F3081FC01E65FF54F20815E2C70
:10327000550C550C550C00E010E0622E7724832E7F
:103280009924452D400FC42FD0E09E012F5F3F4F62
:103290008091010A90E08217930709F440C0809161
:1032A000020A90E082179307D1F1FE01E059F34F33
:1032B000E081E336A0F5442059F0FF2081F1C401FC
:1032C000002E02C0959587950A94E2F780FD27C0ED
:1032D000C301002E02C0959587950A94E2F780FFFE
:1032E00006C0842FB601A5010E947E1818C0EE23E7
:1032F000B1F0FE01EE0FFF1FEE0FFF1FDF01A05127
:10330000B54F1D921D921D921C921397E055F44FDC
:103310001082118212821382C059D34F18820F5F1C
:103320001F4F0830110509F0ACCFE3948091080AD3
:10333000E81608F492CFDF91CF911F910F91FF9083
:10334000EF90DF90CF90BF90AF909F908F907F9045
:103350006F905F904F9008958091000A82958F70D2
:1033600009F04AC08091FF0983FD46C00E94AB2945
:103370002091450A3091460A4091470A5091480AE7
:103380002115310541055105B9F02F553E4A4E4FE3
:103390005F4F261737074807590770F41092450A00
:1033A0001092460A1092470A1092480A8091FF092B
:1033B00080648093FF0908952091410A3091420A68
:1033C0004091430A5091440A2115310541055105A8
:1033D00049F02F5E314F4F4F5F4F26173707480791
:1033E000590750F46093410A7093420A8093430A4C
:1033F0009093440A0E946E4E089584B7877F84BFDD
:103400000E942A2A0E9461260E94802C6CE370E0B0
:1034100080E090E00E94DA4B8091FF0984FD03C0B8
:1034200080E090E002C087ED9CE00E94834C64EF56
:1034300071E080E090E00E94DA500E94AB290E9487
:10344000E5298091600088618093600081E280932B
:103450006000809160008064809360000E94C12BB6
:10346000882321F08091000A8F7004C08091000AA7
:103470008F7080618093000A64EF71E080E090E0DB
:103480000E94DA500E94F1288FE080933C0A089550
:10349000FF920F931F93DF93CF93CDB7DEB7C7543F
:1034A000D0400FB6F894DEBF0FBECDBF80913C0A6E
:1034B000882321F40E94F21F1092E60982E00E9404
:1034C0006D20F82E082F10E086FF0FC18FE080934B
:1034D0003C0A81E00E94F21F8091E609833020F4CB
:1034E000813008F0BEC004C0833009F0FEC0ADC01A
:1034F000C8018F7090708230910509F449C0843002
:10350000910509F483C0019709F0EFC0F7FE1FC0D1
:103510008DE10E943552892B21F48FEF0E94F11723
:10352000E4C08EE10E943552892B71F482EB93E066
:1035300060E00E9498238BEC9AE060E041E00E94FA
:103540000F1280E191E01EC00E94C213CEC086EA35
:1035500093E060E00E9498238BEC9AE060E041E009
:103560000E940F128EE091E00E9427216091890154
:1035700070918A018BEC9AE04AE050E00E947D5500
:1035800086E091E00E94272181E08093E609ADC0AA
:10359000F7FE32C08FE10E943552892B71F48DE421
:1035A0009AE061E00E9498238BEC9AE060E041E0B1
:1035B0000E940F1280E091E0E5CF8DE10E9435522C
:1035C000892BB9F48BEC9AE00E9450126091450A65
:1035D0007091460A8091470A9091480A0E94E52915
:1035E0008BEC9AE060E041E00E940F1289EF90E0DE
:1035F000C9CF0E948E1F79C08BEC9AE00E945012B6
:1036000080EA93E00E94372182E0BFCFF7FE0CC032
:103610008AEE90E060E00E94792189ED90E061E01F
:103620000E94792183E0B1CF2091000A822F8F7010
:1036300090E06091080A019670E00E94306F8F70F0
:10364000207F282B2093000A50C00F701070043088
:10365000110509F04AC0F7FE07C08091F6090E94E3
:10366000F1171092E60941C08091F60990E060914F
:10367000EF0A70E06F5F7F4F01960E94306F80937A
:10368000F60988EC90E060E00E9479218091F609CB
:10369000882331F18150BE016F5F7F4F0E94A22EBF
:1036A00086EC90E061E00E9479218BEC9AE060E08A
:1036B00041E00E940F126091F6098BEC9AE070E0F5
:1036C0004AE050E00E94CE5583EC90E00E94272112
:1036D0008BEC9AE0BE01645C7F4F0E94E15505C00F
:1036E00083EB90E061E00E947921C95BDF4F0FB668
:1036F000F894DEBF0FBECDBFCF91DF911F910F9128
:10370000FF9008952F923F924F925F926F927F9217
:103710008F929F92AF92BF92CF92DF92EF92FF92E1
:103720000F931F93DF93CF93CDB7DEB7C854D0402C
:103730000FB6F894DEBF0FBECDBF80910602809316
:10374000010A809178028093020A0E94AB294B0102
:103750005C010E94E90D0E9429469093ED09809337
:10376000EC09009721F08A539C4F0E94293AA895B2
:103770001092E5090E94481A8091F2099091F3098C
:10378000A091F409B091F50988159905AA05BB0522
:1037900009F495C38092F2099092F309A092F4097A
:1037A000B092F50980913C0A882319F081508093EA
:1037B0003C0A8091E609882321F40E94AB290E94EB
:1037C000E5298091FF0981FF10C08091FB0990914C
:1037D000FC09A091FD09B091FE0988169906AA0678
:1037E000BB0690F00E94E4240FC08091FB099091E9
:1037F000FC09A091FD09B091FE0988169906AA0658
:10380000BB0610F40E94F4240E94B6209091FF0998
:10381000969591708091030A869581708917C9F0F9
:10382000992349F08092380A9092390AA0923A0A74
:10383000B0923B0A05C082E0B501A4010E944C157C
:103840009091FF0992708091030A8D7F892B80935C
:10385000030A9091FF099695969591708091030ABD
:103860008695869581708917C9F0992349F08092D1
:10387000340A9092350AA092360AB092370A05C0EF
:1038800081E0B501A4010E944C159091FF0994704C
:103890008091030A8B7F892B8093030AC501B401B1
:1038A0002CE330E040E050E00E94436F79018A0150
:1038B0008091EE099091EF09A091F009B091F10982
:1038C000E816F9060A071B0709F4C5C0E092EE09DD
:1038D000F092EF090093F0091093F1095524442464
:1038E0001E010894211C311CABC0852DB1010E9422
:1038F000A22EC101B501A4010E94B22D882309F4B2
:103900009EC000E0852D8F5F29968FAF299792C0CA
:10391000602E772493012F5F3F4F8091010A90E042
:103920008217930709F485C08091020A90E08217FC
:10393000930709F47EC0D30113E0B695A7951A95B5
:10394000E1F7202F2770FD01E65FF54F808190E0C1
:10395000022E02C0959587950A94E2F780FD69C012
:10396000AE5DB54F8C9190E002C0959587952A95F4
:10397000E2F780FD5EC0ECE0F0E0EC0FFD1FE60D2D
:10398000F71D2081222309F454C0F301EE0FFF1F1D
:10399000EE0FFF1FE055F44F80819181A281B3812A
:1039A0000097A105B10509F044C0822F0E94234D64
:1039B0000E94504D6B017C01898181FF1FC01091D5
:1039C0002402212F30E040E050E0C701B6010E9400
:1039D000F16E24E630E040E050E00E94436FC90100
:1039E000DA016C017D01143148F49AE0C916D10462
:1039F000E104F10418F4CC24DD247601F301EE0F88
:103A0000FF1FEE0FFF1FE055F44FC082D182E2820C
:103A1000F382C114D104E104F10459F0E0E7FCE0C1
:103A20006E0E7F1E29968FAD2997F3018083442463
:103A300043940F5F8091090A081708F469CF5394E3
:103A40008091EF0A581608F450CF442021F0C501A8
:103A5000B4010E94E5168091FF0983FFF7C0772427
:103A600086C0872D90E0FC01E65FF54F2081672C32
:103A7000660C660C660CEE24FF24222E332468E2CA
:103A8000462E6AE0562E480E591ED62CDE0C0D2D01
:103A900010E098012F5F3F4F8091010A90E082175C
:103AA000930709F45BC08091020A90E082179307A4
:103AB00009F454C0F801E059F34F80818823A9F03C
:103AC000F801EE0FFF1FEE0FFF1FE055F44F80814E
:103AD0009181A281B38188169906AA06BB0628F0B7
:103AE0008D2DB501A4010E947E18C1010E2C02C0CB
:103AF000959587950A94E2F780FD30C09801220FD2
:103B0000331F220F331FF901E051F54F808191815E
:103B1000A281B38188169906AA06BB06F8F0205543
:103B2000344FF90180819181A281B3818816990671
:103B3000AA06BB0698F48D2D61E00E94B61FF20123
:103B4000808190E00E2C02C0959587950A94E2F74B
:103B500080FF04C08D2D61E00E9482280894E11C42
:103B6000F11CF8E0EF16F10409F08FCF7394809107
:103B7000080A781608F475CFC501B4010E9404192B
:103B80000E94F1281092A80C1092A90C1092AA0C75
:103B90001092AB0C7091090A60E080E03FC0A62F44
:103BA000B0E0FD01EE0FFF1FEE0FFF1FE055F44FD9
:103BB000E080F180028113818E149F04A006B1067B
:103BC00060F523E0B695A7952A95E1F7A25DB54F7C
:103BD0008C9190E0262F277002C0959587952A95A5
:103BE000E2F780FF19C02091A80C3091A90C4091F8
:103BF000AA0C5091AB0CD801C701E216F3060407DA
:103C0000150710F4DA01C9018093A80C9093A90C50
:103C1000A093AA0CB093AB0C81E06F5F671708F418
:103C2000BECF882399F40E94DA1F0E94F1280E94D7
:103C3000AA2C8091FF09877F8093FF09809106025B
:103C40008093010A809178028093020AD090010A41
:103C5000DD2009F470C080910C0290911202C09096
:103C6000090AFF2401E010E02D2C3324482E5524AE
:103C700066247724492F50E060E070E04C535040B8
:103C80006040704050C02F2D30E02016310609F4FE
:103C900047C0D90193E0B695A7959A95E1F787E0DB
:103CA000E82EEF20FD01E65FF54F808190E00E2CBD
:103CB00002C0959587950A94E2F780FF31C0A05F16
:103CC000B54F8C9190E002C095958795EA94E2F704
:103CD00080FF26C0220F331F220F331FF901E0514E
:103CE000F54F80819181A281B381840D951DA61D20
:103CF000B71D88169906AA06BB0690F02055344FCA
:103D0000F90180819181A281B381840F951FA61F43
:103D1000B71F88159905AA05BB0510F061E007C01B
:103D2000F3940F5F1F4FFC1408F4ADCF60E08D2DAE
:103D300081500E94B61FD090020ADD2009F470C0A5
:103D400080917E0290918402C090090AFF2401E0D4
:103D500010E02D2C3324482E552466247724492F37
:103D600050E060E070E04C5350406040704050C004
:103D70002F2D30E02016310609F447C0D901E3E0C9
:103D8000B695A795EA95E1F797E0E92EEF20FD01BA
:103D9000E65FF54F808190E00E2C02C095958795E7
:103DA0000A94E2F780FF31C0A45EB54F8C9190E099
:103DB00002C095958795EA94E2F780FF26C0220F0E
:103DC000331F220F331FF901E051F54F808191819C
:103DD000A281B381840D951DA61DB71D8816990675
:103DE000AA06BB0690F02055344FF90180819181DD
:103DF000A281B381840F951FA61FB71F881599054F
:103E0000AA05BB0510F061E007C0F3940F5F1F4FD8
:103E1000FC1408F4ADCF60E08D2D81500E94B61FD8
:103E2000C501B4010E9404190E94F1288091E6099D
:103E3000882389F4C501B40123E030E040E050E07C
:103E40000E94436F9B01AC012E5E3C4F81E0F90163
:103E500060810E94FE228091FF0986FF22C083FDBF
:103E600020C010E03E010894611C711CBCE3CB2E05
:103E7000D12CE12CF12CC80CD91CEA1CFB1C0CC069
:103E8000812FB3010E94A22EC301B701A6010E9497
:103E9000B22D882331F41F5F8091EF0A181780F349
:103EA0000BC00E94E1130E943E140E94AC19C50190
:103EB000B4010E94911603C00E948E1FF2CFC85B0E
:103EC000DF4F0FB6F894DEBF0FBECDBFCF91DF91AD
:103ED0001F910F91FF90EF90DF90CF90BF90AF9028
:103EE0009F908F907F906F905F904F903F902F901A
:103EF00008959C01F999FECF32BD21BDF89A80B595
:103F000008959C01F999FECF1FBA32BD21BD60BD55
:103F10000FB6F894FA9AF99A0FBE0895E091E60A5E
:103F2000F091E70A09950895FC0124EF33E084E05D
:103F30002431380711F440E009C0F999FECFC901D6
:103F4000019632BD21BDF89A40B59C019081442371
:103F500031F0992349F0491739F43196E8CF80E0E0
:103F6000992319F481E0089580E00895282F27709F
:103F700086958695869590E0662369F0FC01E65F5C
:103F8000F54F81E090E002C0880F991F2A95E2F773
:103F90002081282B0DC0FC01E65FF54F81E090E009
:103FA00002C0880F991F2A95E2F780952081282367
:103FB0002083089510920A0A10920B0A10920C0A9C
:103FC00010920D0A10920E0A10920F0A0895109284
:103FD000CE0A1092CD0A8EEF92E09093CC0A809395
:103FE000CB0A08951F93182F8091D40A813059F479
:103FF000112329F08BEC9AE00E94461104C08BEC4F
:104000009AE00E944E118091D40A882391F48CE0AA
:1040100061E00E948551112319F08091420202C093
:10402000809148026FEF70E0681B71098CE00E947C
:1040300006501F9108958091D40A882351F48DE091
:1040400061E00E94855160913C028DE070E00E9429
:1040500006500895EF92FF920F931F93CF93DF9333
:10406000E82E162F042FF22E662321F0623081F401
:10407000222371F08E2D0E943552892B11F000E021
:1040800024C0FF2011F480E001C080E8082B1DC08F
:10409000C0E0D0E08E2D0E943552892B81F4113082
:1040A00031F0123061F483E0C83ED80744F461E097
:1040B00070E080E090E00E94DA502196EBCFFF2084
:1040C00019F4C85ED3400CF00068802FDF91CF91C7
:1040D0001F910F91FF90EF9008950F931F93082F5A
:1040E0001091E80A107861E070E080E090E00E94B2
:1040F000DA508FE10E943552892B21F48FE1602F35
:1041000041E013C08EE10E943552892B21F48EE1EB
:10411000602F42E00AC08DE10E943552892B11F0D8
:1041200040E007C08DE1602F44E0212F0E942A204B
:10413000482F8091E80A90E08F709070242F30E033
:10414000892B39F42F703070232B71F0842F806409
:1041500006C02F703070232B39F4842F8062409377
:10416000E80A1F910F910895842FF9CF8BE00E94E8
:10417000355240E020911E0230E08217930709F08B
:1041800041E0440F440F8091FF098B7F842B809383
:10419000FF0908951F93182F843690F064E60E945B
:1041A000106F682F8BEC9AE070E04AE050E00E94BC
:1041B000CE558BEC9AE060E171E00E94E15502C0BF
:1041C0008A30A0F0812F6AE00E94106F0E94106F69
:1041D000692F8BEC9AE070E04AE050E00E94CE55E7
:1041E0008BEC9AE060E171E00E94E155812F6AE07A
:1041F0000E94106F692F8BEC9AE070E04AE050E06B
:104200000E94CE551F910895EF92FF920F931F9336
:104210008C018BECE82E8AE0F82EC8016AE070E091
:104220000E94306FC7014AE050E00E94CE55C8019D
:104230006AE070E00E94306FBC01C7014AE050E0C4
:104240000E94CE551F910F91FF90EF900895CF934C
:10425000DF93EC0104C08BEC9AE00E94EE54FE0167
:10426000219664916623B9F7DF91CF9108950F935A
:104270001F93CF93DF93182F092F8BEC9AE060E008
:1042800040E00E940F12212F302FC901EC0110E0F5
:1042900005C087E691E00E9427212196688170E0A1
:1042A00094E0759567959A95E1F78BEC9AE040E17B
:1042B00050E00E94CE55688170E06F7070708BEC9A
:1042C0009AE040E150E00E94CE55143031F48BEC7E
:1042D0009AE060E041E00E940F121F5F1630C9F6BD
:1042E00080E691E00E942721DF91CF911F910F91ED
:1042F00008950F931F93CF93DF938C01462F8BEC80
:104300009AE060E00E940F12E80104C08BEC9AE092
:104310000E94EE549E01201B822FFE012196649183
:104320006623A1F7992787FD9095C0E1D0E0C81BCF
:10433000D90B05C084E791E00E9427212197D7FF80
:10434000F9CFDF91CF911F910F9108950F931F9394
:10435000CF93DF938C01FC01EE0FFF1FE80FF91FD5
:10436000EE0FFF1FE456FE4F8081918160E00E94B6
:10437000792186E491E061E00E9479218BEC9AE05A
:1043800060E041E00E940F120331110509F489C079
:1043900004311105BCF40C30110509F4B1C00D3025
:1043A000110544F40115110581F10130110509F0E1
:1043B000EBC038C00E30110511F10131110509F0C3
:1043C000E3C0ACC00C31110509F4B5C00D311105C5
:1043D0004CF40431110509F473C00B31110509F0D7
:1043E000D3C0A4C00632110509F45BC00732110521
:1043F00009F466C00E31110509F0C6C0A9C08BECE6
:104400009AE062E171E00E94E155F801EE0FFF1FB2
:10441000E00FF11FEE0FFF1FE656FE4F80810E9456
:10442000CA20D0C08091A001C82FD0E0E097D7FD6E
:1044300005C084E491E00E94272107C082E491E056
:104440000E942721D095C195DF4FCE0164E070E036
:104450000E94306F8BEC9AE04AE050E00E94CE550B
:1044600080E491E00E942721CE0164E070E00E9488
:10447000306F9C01BC0194E0660F771F9A95E1F7BD
:10448000621B730B29F48DE391E00E94272106C083
:104490008BEC9AE04AE050E00E94CE5588E391E030
:1044A00070C086E391E00E942721F801EE0FFF1F04
:1044B000E00FF11FEE0FFF1FE656FE4F60817BC03D
:1044C000F801EE0FFF1FE00FF11FEE0FFF1FE65682
:1044D000FE4F80818C3320F084E391E00E942721FD
:1044E000F801EE0FFF1FE00FF11FEE0FFF1FE65662
:1044F000FE4F608170E06C5370408BEC9AE05EC0C0
:104500007091E80160E08091E201680F711D8BEC11
:104510009AE04AE050E00E947D555AC08091000226
:104520000E94934DBC018BEC9AE00DC00E941B20B1
:1045300060913C0205C081E00E94F21F609142023E
:104540008BEC9AE070E04AE050E00E94CE5540C00B
:104550008091070A8C3A31F48BEC9AE06DE20E946C
:10456000EE5436C060914E0270E0660F771F660F02
:10457000771F8BEC9AE04AE050E00E94CE5580E332
:1045800091E00E94272124C0F801EE0FFF1FE00FE9
:10459000F11FEE0FFF1FE656FE4F818160818130D3
:1045A00051F4662319F489E291E002C08CE291E0B3
:1045B0000E94272107C08BEC9AE070E04AE050E0AF
:1045C0000E94CE550731110519F487E291E00FC022
:1045D000C8014397029748F00632110531F00732BF
:1045E000110519F00131110521F482E291E00E94D8
:1045F0002721DF91CF911F910F910895FF920F9383
:104600001F93482FF62E8BEC9AE060E00E940F1269
:104610008091000A8F7019F48CE591E010C08AE552
:1046200091E00E9427216091000A6F708BEC9AE064
:1046300070E04AE050E00E94CE5588E591E00E948B
:1046400027218091FF0980FD06C08CE491E061E0A4
:104650000E9479212EC0E091000AEF70F0E0E65F41
:10466000F54F008110E09091000A9F70990F990F0B
:10467000990F9F5F910F80910602981721F400FD1A
:104680000EC06DE40DC080917802981721F400FDF2
:1046900006C06EE405C000FD02C06FE501C06F2DCD
:1046A0008BEC9AE00E94EE541F5F183011F00695D3
:1046B000DACF87E491E00E9427218BEC9AE06DE04D
:1046C00041E00E940F128091FF0981FD06C082FF28
:1046D00009C080911802882329F08BEC9AE063E0EE
:1046E0000E94CB118BEC9AE06EE041E00E940F1229
:1046F0008091FF0985FF05C08BEC9AE062E00E9483
:10470000CB118BEC9AE06FE041E00E940F1260E069
:104710008091000A82958F7090E003970CF061E021
:104720008BEC9AE00E94CB111F910F91FF9008959E
:10473000DF92EF92FF920F931F93CF93DF937C0151
:10474000D62E8BEC9AE00E9450128BEC9AE060E03F
:1047500040E00E940F128701C0E0D0E0DD2019F098
:10476000F801638104C0F701EC0FFD1F60818BEC41
:104770009AE070E04AE050E00E94CE55C33021F04C
:1047800089E691E00E942721219601501040C43013
:10479000D10521F7DF91CF911F910F91FF90EF90FD
:1047A000DF900895E0E9F2E0ABE7BAE080818C9316
:1047B0003697119781E0E439F807C1F782EC97E06A
:1047C00062E57AE04AE250E021E83FE10E94F1062A
:1047D0008091F4018F5F8093080A90E063E0880F76
:1047E000991F6A95E1F78093090A90912A029170C6
:1047F0008091FF098E7F892B8093FF0908950F9385
:104800001F93CF93DF93EC010AEA82E00E946D20B0
:10481000482F50E09A012F7030702230310561F13D
:104820002430310509F44BC02130310509F099C01D
:10483000209709F499C0CE30D10509F495C0C8324B
:10484000D10509F491C0CC30D10509F48DC0CD302B
:10485000D10509F489C0FE01EE0FFF1FEC0FFD1F0B
:10486000EE0FFF1FE656FE4F90818181891709F4F4
:104870007BC09F5F908378C0209709F472C0CE30D0
:10488000D10509F46EC0C832D10509F46AC0CC3034
:10489000D10509F466C0CD30D10509F462C0FE012E
:1048A000EE0FFF1FEC0FFD1FEE0FFF1FE656FE4F32
:1048B0009081992309F455C09150908352C086FF8E
:1048C00050C087FF0AC080919002882311F00093A6
:1048D00090020E94D22311E048C0C330D10539F4C0
:1048E0008091AC01882339F1CCE0D0E02BC0CC30F2
:1048F000D10519F4CEE0D0E025C0C531D10539F499
:10490000809118028823B9F4C7E1D0E01BC0C231FE
:10491000D10539F480910602882369F4C5E1D0E01D
:1049200011C0C532D10539F480917802882319F479
:10493000C8E2D0E007C0CE0101966AE270E00E94B2
:10494000306FEC01FE01EE0FFF1FEC0FFD1FEE0FAD
:10495000FF1FE656FE4F84819581892B29F421960D
:1049600003C0882309F451CF10E0CE010E94A62194
:10497000112309F44ACF8BEC9AE00E94FD11DF91DC
:10498000CF911F910F9108958091FF098E7F8093A1
:10499000FF0910922A020E94D22308958091FF09F4
:1049A00081608093FF0981E080932A020E94D223D4
:1049B00008958CEE93E067EF79E048E050E021E85D
:1049C0003FE10E94F10608958091FF098D7F809359
:1049D000FF091092FB091092FC091092FD09109238
:1049E000FE090E94D92408958091FF098260809376
:1049F000FF090E94D924089546E050E021E83FE1F4
:104A00000E94F1060895FB01108A90E024E0880FCF
:104A1000991F2A95E1F78C559B4F40E150E021E822
:104A20003FE10E94F106089582E59AE062EC77E0AA
:104A30004AE250E029E73FE10E94D506A2E5BAE04C
:104A4000EAE9F1E08D91808336968AE0AC37B807C9
:104A5000C9F78091F4018F5F8093080A90E033E0FA
:104A6000880F991F3A95E1F78093090A90912A02DD
:104A700091708091FF098E7F892B8093FF0982E0DE
:104A800080938A02089587EF99E06CEE73E048E026
:104A900050E029E73FE10E94D5068091FF099091FF
:104AA000000AA091010AB091020A8093030A909330
:104AB000040AA093050AB093060A08959C01CB014D
:104AC000B90146E050E029E73FE10E94D50608958C
:104AD000FB01108A682F70E044E0660F771F4A954B
:104AE000E1F76C557B4FCF0140E150E029E73FE112
:104AF0000E94D5060895DF92EF92FF920F931F93C5
:104B00009C01D62E82E59AE0B9014D2D50E029E7AF
:104B10003FE10E94D506E2E5FAE020E030E040E027
:104B200050E060E038C0908179018A0154E0EE0CD9
:104B3000FF1C001F111F5A95D1F7892F80538A300F
:104B400030F4892F992787FD9095C09719C0892F38
:104B50008154863030F4892F992787FD9095C79727
:104B60000FC0892F8156863028F020E030E040E0E9
:104B700050E013C0892F992787FD90958755904065
:104B80009C01442737FD4095542F2E0D3F1D401F9B
:104B9000511F6F5F31966D1530F2B901CA011F9137
:104BA0000F91FF90EF90DF900895EF92FF920F9397
:104BB0001F93CF93DF938B017A01C82FD0E064E07D
:104BC000CC0FDD1F6A95E1F7CC55DB4FCE0166E0D7
:104BD0000E947B25611571058105910521F1011563
:104BE000110529F0F8016083718382839383CE01DC
:104BF000069666E00E947B25611571058105910589
:104C000091F0E114F10429F0F7016083718382834C
:104C10009383CE010C9664E00E947B25611571059B
:104C20008105910511F460E070E0CB01DF91CF9137
:104C30001F910F91FF90EF900895AF92BF92DF9276
:104C4000EF92FF920F931F93CF93DF9308E21AE046
:104C5000EE24FF2471E0A72EB12CF8011082DE2C87
:104C6000DD0CDD0CDD0CC0E0D0E08D2D8C2B60E088
:104C700070E040E050E00E94D525892B59F0950165
:104C80000C2E02C0220F331F0A94E2F7F801808134
:104C9000822B80832196C830D10539F70894E11C16
:104CA000F11C0F5F1F4FF6E0EF16F104B1F6DF9134
:104CB000CF911F910F91FF90EF90DF90BF90AF9039
:104CC0000895EF92FF920F931F93CF93DF9364EFBA
:104CD00071E080E090E00E94DA50F999FECF82EC1A
:104CE00097E092BD81BDF89A80B5873D59F4F99956
:104CF000FECF8BEE97E092BD81BDF89A80B58A3ADF
:104D000009F0B8C086ED91E060E00E94792187EC5F
:104D100091E061E00E947921E2E5FAE011928AE0F7
:104D2000EA3CF807D9F7C0E0D0E000E018E0A801BD
:104D30004C1B5D0B4937510514F048E750E0CE019C
:104D400062E57AE021E83FE10E94F106C858DF4FB2
:104D500088E0C037D80759F70E94D92484EF93E040
:104D600064E171E049E050E021E83FE10E94F10692
:104D700084E194E06DE171E04AE050E021E83FE138
:104D80000E94F10684E494E067E271E040E250E0C2
:104D900021E83FE10E94F10684E894E067E471E0D5
:104DA00041E050E021E83FE10E94F10683E5809375
:104DB000520A1092550A04EA14E0C1E0D0E0E2E59C
:104DC000EE2EEAE0FE2ECE016AE070E00E94306F27
:104DD000605D6093530ACE016AE070E00E94306F1C
:104DE000805D8093540AF70101900020E9F7E255B5
:104DF000FA40C80162E57AE0AF0121E83FE10E9494
:104E0000F106005F1F4F219687E0043A1807D9F694
:104E10008FEF8093520A8093530A8093540A8093B1
:104E2000550A8093560A8093570A84EA97E062E510
:104E30007AE046E050E021E83FE10E94F1068CEB89
:104E400097E062E57AE046E050E021E83FE10E9429
:104E5000F1060E94D22387E191E00E94A84D64EF01
:104E600071E080E090E00E94DA50E091E60AF09173
:104E7000E70A09950E94142584EA97E060E17AE048
:104E80000E945E258AEA97E066E17AE00E945E254C
:104E900080EB97E06CE17AE00E945E2586EB97E07C
:104EA00062E27AE00E945E258CEB97E06EE27AE0A7
:104EB0000E945E250E941D260E94432580E00E94DC
:104EC0006D20182F90E08F7090708130910519F04F
:104ED000049781F503C089E290E021C087EB91E05F
:104EE00060E00E94792160ED77E080E090E00E9430
:104EF000DA5086EA91E060E00E94792186E991E04B
:104F000061E00E94792180E00E946D20182F86FFC9
:104F1000FACF8BEC9AE00E94501280E090E00E9461
:104F2000FF2380919002882329F0E091E60AF09116
:104F3000E70A099581E00E94F21F0E941B201123BD
:104F400009F040C087E891E060E00E9479218BEC95
:104F50009AE062E041E00E940F1282E891E00E9434
:104F600027211091EE01812F6AE00E94106F682FB7
:104F7000605D8BEC9AE00E94EE548BEC9AE06EE25E
:104F80000E94EE54812F6AE00E94106F692F605DCD
:104F90008BEC9AE00E94EE548091070A8A3129F046
:104FA0008C3D31F48EE791E005C08AE791E002C0C4
:104FB00086E791E00E94272168EE73E080E090E0B0
:104FC0000E94DA50DF91CF911F910F91FF90EF90E7
:104FD0000895EF92FF920F931F93DC01CB017901AB
:104FE0008A01139A0E9433511398C7010E943351CA
:104FF0001F910F91FF90EF9008952F923F924F9243
:105000005F926F927F928F929F92AF92BF92CF9258
:10501000DF92EF92FF920F931F93DF93CF9300D015
:105020000F92CDB7DEB74B015C0179018A01DA013D
:10503000C901880F991FAA1FBB1F8E0D9F1DA01F9E
:10504000B11F582E692E7A2ECB2ED801C701F5E05C
:10505000880F991FAA1FBB1FFA95D1F78E199F09B8
:10506000A00BB10B8983292E3A2E4B2EDD242FC0A5
:10507000D501C4010A8004C0B695A7959795879578
:105080000A94D2F780FF07C0652D762D872D9C2DC1
:10509000A801970106C0C801B701252D362D472D5F
:1050A0005C2D0E94E9278A819B8101979B838A83DB
:1050B0008F5F9F4FE9F6C801B7012981322D432D3B
:1050C000542D0E94E927D394FFE0DF1629F087E1F1
:1050D00090E09B838A83CCCF0F900F900F90CF915D
:1050E000DF911F910F91FF90EF90DF90CF90BF90D5
:1050F000AF909F908F907F906F905F904F903F9078
:105100002F900895EF92FF920F931F93DF93CF9309
:10511000CDB7DEB728970FB6F894DEBF0FBECDBF70
:10512000162FBE016F5F7F4FAE014B5F5F4F0E9436
:10513000D5259C01112329F0E980FA800B811C817F
:1051400004C0ED80FE800F811885C90145E0969569
:1051500087954A95E1F7281B390B40E050E0C801DC
:10516000B7010E94FD2728960FB6F894DEBF0FBE48
:10517000CDBFCF91DF911F910F91FF90EF900895D8
:1051800084E00E94E44F9C0183E02E3B380718F036
:1051900020E030E024C083E02734380718F021E015
:1051A00030E01DC082E02B3E380718F022E030E0EE
:1051B00016C082E0223A380718F023E030E00FC032
:1051C00082E02536380718F024E030E008C0235389
:1051D000324018F025E030E002C02FEF3FEFC90168
:1051E0000895BF92CF92DF92EF92FF920F931F9399
:1051F000CF93DF9383E060E00E9402520EEE1AE04C
:105200005FE0E52E5AE0F52EBB248091FF0980FD7A
:1052100002C020E002C0F7012081C22EDD24F80187
:10522000808190E0809590958C219D21892B11F0B3
:10523000BB24B394F8012083C7E0D0E086E160E0AE
:105240000E940252B6010C2E02C0759567950A9411
:10525000E2F7617085E10E94025286E161E00E94FE
:1052600002522197FFEFCF3FDF0741F70150104077
:105270000894E108F1088AE0083E180731F68091A9
:10528000070A8C3D01F5BB20F1F087E160E00E9448
:1052900002526AE070E080E090E00E94DA5084E11F
:1052A00061E00E9402526AEF70E080E090E00E94AC
:1052B000DA5084E160E00E94025283E061E00E94E3
:1052C000025287E101C083E061E00E940252DF9157
:1052D000CF911F910F91FF90EF90DF90CF90BF90F3
:1052E00008958F92AF92CF92EF920F9300D000D09B
:1052F000EDB7FEB73196ADB7BEB711961C921182CD
:10530000128213828BEC9AE061E043E12FEF02E11D
:10531000A4E1EA2EF5E1CF2EE6E1AE2E77E1872E6D
:105320000E940B130F900F900F900F908BEC9AE050
:105330000E9458128091D40A882339F481E0809326
:1053400081000E94F21F0E941B200F91EF90CF90CE
:10535000AF908F900895EF92FF920F931F930E944A
:10536000104C7B018C016091A00170E080E090E026
:1053700024E833E040E050E00E94F16E9B01AC0174
:10538000205C384A404050402E0D3F1D401F511FA9
:10539000B901CA011F910F91FF90EF9008950E94EB
:1053A000AB2920E831E541E050E00E94436F2D5FDA
:1053B0003F4F4F4F5F4FCA01B90127E030E040E057
:1053C00050E00E94436F862F0895EF92FF920F9353
:1053D0001F937B018C018BEC9AE060E040E00E941F
:1053E0000F12C801B7010E94FD4A0E94042182E702
:1053F00091E00E942721C801B7010E94F74A0E944C
:1054000004218FE691E00E9427210E94CF29E82FF6
:10541000F0E0EE0FFF1FEA56FD4F808191810E9460
:1054200027218DE691E00E942721C801B7010E9443
:10543000E54A0E9404218BE691E00E942721C801E1
:10544000B7010E94F14A0E9404211F910F91FF9021
:10545000EF900895CF92DF92EF92FF920F931F93F8
:10546000DF93CF93CDB7DEB728970FB6F894DEBFA2
:105470000FBECDBF81E061E00E94855181E061E017
:105480000E94025283E061E00E94855183E061E066
:105490000E94025286E161E00E94855185E161E04F
:1054A0000E94855110920A0A10920B0A10920C0A5F
:1054B00010920D0A10920E0A10920F0A0E94F12803
:1054C00081E060E00E9402528BE060E00E94855122
:1054D0008BE061E00E9402528091FF0981608F7B26
:1054E0008093FF098091FF099091000AA091010A21
:1054F000B091020A8093030A9093040AA093050ACC
:10550000B093060A88E691E09093F8098093F70932
:1055100088E394E09093FA098093F90981E08093FD
:10552000080A88E08093090A8CE161E00E948551B5
:105530008CE160E00E9402528CEA8093070A81EBC2
:105540009EE00E94C85681EB9EE060E570E00E94FC
:10555000EE5581EB9EE060E00E94705681EB9EE08C
:105560000E94B3568823D1F481EB9EE060E570E0A1
:1055700041E050E00E94C45681EB9EE00E94F85545
:10558000892BD1F381EB9EE00E9401568C3A21F0E9
:105590008C3D11F08A3111F48093070A8091070A3B
:1055A0008C3D81F484E161E00E94855184E160E0FA
:1055B0000E94025287E161E00E94855187E160E02C
:1055C0000E9402520E947129198284E18A8338E084
:1055D000C32ECB8225E1E22EEC82FF24F394FD82E0
:1055E00095E0D92EDE82DF82E8868BEC9AE061E0DE
:1055F0008E010F5F1F4FA8010E94D5111A821B82D6
:10560000FC828BEC9AE060E0A8010E94D51119821F
:105610001A828FE1F82EFB8281E18C83FD828E83DA
:1056200083E18F838EE188878BEC9AE062E0A801AA
:105630000E94D51119821A8286E08B8389E08C83BF
:10564000FD821E82EF82E8868BEC9AE063E0A8017F
:105650000E94D51119821A8287E08B8383E08C83A4
:10566000DD82CE8280E18F8318868BEC9AE064E045
:10567000A8010E94D51180E061E00E94855180E080
:1056800061E00E94025282EA99E060E044E00E94F8
:105690005B64882329F08091FF0980628093FF0971
:1056A0008FE160E00E9485518EE160E00E948551AB
:1056B0008DE160E00E9485518FE161E00E9402521D
:1056C0008EE161E00E9402528DE161E00E9402528F
:1056D0000E94050C882329F48091FF098061809342
:1056E000FF0928960FB6F894DEBF0FBECDBFCF914D
:1056F000DF911F910F91FF90EF90DF90CF90089571
:10570000CF93DF9381EB9EE060E570E00E94EE5561
:1057100081EB9EE060E00E94705681EB9EE00E946B
:10572000B356882311F080E029C081EB9EE060E54C
:1057300070E00E94EE5581EB9EE06AEF0E94705689
:1057400081EB9EE00E94B35681EB9EE060E570E045
:1057500046E050E00E94C45681EB9EE00E94F8555E
:10576000892BD1F3C2E5DAE081EB9EE00E9401567D
:1057700089938AE0C835D807B9F781E0DF91CF91E6
:105780000895DF93CF93CDB7DEB728970FB6F8947F
:10579000DEBF0FBECDBF83EE91E061E00E947921B4
:1057A0000E94104C6093490A70934A0A80934B0AF6
:1057B00090934C0A0E94802B882391F41092520AF5
:1057C00089E68093530A8093540A8DE28093550AA8
:1057D00081E38093560A809136028093570A05C070
:1057E0008091FF0980688093FF098CED95E062E568
:1057F0007AE044E00E94C70F882309F461C09091C9
:10580000E80180E02091E201820F911D90938A01CE
:10581000809389018091AC01882349F10E94260A76
:10582000882309F44DC08091A6038093B201809132
:10583000A7038093B8018091A8038093BE01809153
:10584000A9038093C4018091B2038093CA0180911F
:10585000B3038093D0018091B4038093D6018091EB
:10586000B5038093DC010E94D22391E02AC080918D
:10587000B20189838091B8018A838091BE018B83B4
:105880008091C4018C838091CA018D838091D00165
:105890008E838091D6018F838091DC018887AE0151
:1058A0004B5F5F4FCE010196BA0120E030E00E94CD
:1058B000910F90E0882309F491E081E0982701C0DE
:1058C00090E0892F28960FB6F894DEBF0FBECDBFAB
:1058D000CF91DF9108959C01F999FECF32BD21BD92
:1058E000F89A80B508959C01F999FECF1FBA32BD90
:1058F00021BD60BD0FB6F894FA9AF99A0FBE0895CB
:10590000A0E7BCE080E090E0FC01E051F54F1082A0
:10591000118212821382FC01E055F44F1082118231
:10592000128213821D920496803C910569F71092B1
:10593000A80C1092A90C1092AA0C1092AB0CF99919
:10594000FECF89E090E092BD81BDF89A80B580934A
:10595000EF0A0895A0E7BCE080E090E0FC01E05190
:10596000F54F1082118212821382FC01E055F44F30
:1059700010821182128213821D920496803C91053E
:1059800069F71092A80C1092A90C1092AA0C109210
:10599000AB0C08951092EF0AF999FECF1FBA89E077
:1059A00090E092BD81BD10BC0FB6F894FA9AF99AB6
:1059B0000FBE0895982F8091EF0A981708F041C004
:1059C000992309F43EC0892F90E0019727E430E045
:1059D000AC01429FC001439F900D529F900D112436
:1059E0009C01265F3F4F8F5A9F4F24C0F999FECFED
:1059F00032BD21BDF89A50B5F999FECF72BD61BD97
:105A0000F89A40B5F999FECF1FBA32BD21BD40BD0D
:105A10000FB6F894FA9AF99A0FBEF999FECF1FBA09
:105A200072BD61BD50BD0FB6F894FA9AF99A0FBED7
:105A30002F5F3F4FB901695B7F4F2817390709F086
:105A4000D5CF089577FF03C06FEF7FEF22C0CB0162
:105A5000977074FF03C0909581959F4F76FF0BC0A0
:105A60006091F7097091F809680F791F77FF11C0ED
:105A700060E070E00EC075FF0CC06091F909709194
:105A8000FA09680F791F85E0603A780714F06FE92A
:105A900075E0CB010895BF92CF92DF92EF92FF9213
:105AA0000F931F936C01FC01B080E1800E94AB2931
:105AB00020E831E541E050E00E94436F2B0D311D9D
:105AC000411D511DFF2400E010E0CA01B901A801E9
:105AD00097010E94436FF60160831F910F91FF9021
