:100000000C9460090C94C1590C94F2590C94235A25
:100010000C948F090C948F090C948F090C948F0900
:100020000C94430E0C948F090C948F090C948F0937
:100030000C948F090C948F090C948F090C948F09E0
:100040000C948F090C948F090C94545A0C948F09BA
:100050000C94385E0C94B85E0C948F090C948F0944
:100060000C948F090C948F090C9432760C948F09A0
:100070000C94705E0C94F75E0C948F090C948F09AD
:100080000C948F090C948F090C948F09885B8D5BFD
:10009000925B9C5BCA5BA65BAE5BB65BC05BE75BDF
:1000A000EA5BDD5BE15B015CEE5BF25BF85BFC5BFA
:1000B0004E54502053796E63696E672E2E2E005D6C
:1000C0000D0A002C002C00222C002C22002C002CCD
:1000D000005B002E747874002F7472696767657214
:1000E0002F737072696E6B6C65722F776974682FED
:1000F0006B65792F006D616B65722E69667474741F
:100100002E636F6D00227D005265626F6F746564AF
:100110002E204465766963652049503A2000252EDB
:10012000005761746572206C6576656C207570642B
:10013000617465643A200045787465726E616C2064
:10014000495020757064617465643A20002C2076F3
:100150006F6C756D653A2000466C6F7720636F7524
:100160006E743A200064652D61637469766174650C
:1001700064006163746976617465642E005261691C
:100180006E2073656E736F7220005261696E206419
:10019000656C6179200025207761746572206C653B
:1001A00076656C2E002077697468200050726F6746
:1001B00072616D20004175746F6D61746963616C6B
:1001C0006C79207363686564756C656420004D61AB
:1001D0006E75616C6C79207363686564756C6564B9
:1001E000200020466C6F7720726174653A200020F1
:1001F0007365636F6E64732E00206D696E75746530
:1002000073200020636C6F7365642E204974207224
:10021000616E20666F72200053746174696F6E2086
:10022000007B2276616C756531223A2200302E20E7
:1002300054657374202831206D696E29002E2000CA
:100240002000486F6C6420423320746F2073746107
:10025000727400436C69636B20423320746F206CAE
:100260006973740052756E20612050726F677261FD
:100270006D3A00286C73776329002865697029003E
:1002800020286F73697029003A0028677769702900
:1002900000202000727300726400776C00666C00AE
:1002A0000022726573756C74223A24447D002272B8
:1002B0006573756C74223A24447D00244600222420
:1002C00046223A24447D007D002C227374617469B7
:1002D0006F6E73223A7B002C2273746174757322E3
:1002E0003A7B002C226F7074696F6E73223A7B0028
:1002F0002C2270726F6772616D73223A7B002273D9
:10030000657474696E6773223A7B00646179005D7D
:10031000002453002C005B007479706500656E64E6
:100320000073746172740068697374007400656EA0
:1003300000736964005D2C226E73746174696F6E62
:1003400073223A24447D002C0024440022736E2240
:100350003A5B00637077006E70770077746F00749B
:1003600074740069666B65790077746B6579006CED
:100370006F6300777370006A737000726500726457
:1003800000656E007262740072736E003C7363727B
:10039000697074207372633D2224452F686F6D6508
:1003A0002E6A73223E3C2F7363726970743E0A3C5E
:1003B0002F626F64793E0A3C2F68746D6C3E007644
:1003C0006172207665723D24442C697061733D240E
:1003D000443B3C2F7363726970743E0A003C2144B5
:1003E0004F43545950452068746D6C3E0A3C687404
:1003F0006D6C3E0A3C686561643E0A24463C2F6889
:100400006561643E0A3C626F64793E0A3C736372C4
:100410006970743E007D002C2269666B6579223A12
:1004200022245322002C2277746F223A7B24537D9E
:10043000005D002C005B24442C244C2C244C5D00DB
:10044000305D2C227073223A5B0024442C0022730E
:1004500062697473223A5B0022666C637274223A9A
:10046000244C2C22666C777274223A24442C00228D
:1004700063757272223A24442C00226465767422D9
:100480003A244C2C226E627264223A24442C226557
:100490006E223A24442C227264223A24442C227282
:1004A00073223A24442C2272647374223A244C2C12
:1004B000226C6F63223A222445222C2277746B65CA
:1004C00079223A222445222C2273756E7269736553
:1004D000223A24442C2273756E736574223A2444A4
:1004E0002C22656970223A244C2C226C7763223AC4
:1004F000244C2C226C737763223A244C2C226C728D
:10050000756E223A5B24442C24442C24442C244C25
:100510005D2C003C666F726D206E616D653D6F668F
:1005200020616374696F6E3D6375206D6574686FDB
:10053000643D6765743E3C7461626C652063656C04
:100540006C73706163696E673D223132223E3C7488
:10055000723E3C74643E3C623E4A61766153637213
:100560006970743C2F623E3A3C2F74643E3C746464
:100570003E3C696E70757420747970653D74657861
:10058000742073697A653D3430206D61786C656ED6
:100590006774683D34302076616C75653D22244572
:1005A00022206E616D653D6A73703E3C2F74643E1F
:1005B0003C2F74723E3C74723E3C74643E446566EB
:1005C00061756C743A3C2F74643E3C74643E2453F1
:1005D0003C2F74643E3C2F74723E3C74723E3C74FB
:1005E000643E3C623E576561746865723C2F623EB2
:1005F0003A3C2F74643E3C74643E3C696E70757482
:1006000020747970653D746578742073697A653DEE
:100610003430206D61786C656E6774683D343020CD
:1006200076616C75653D22244522206E616D653DC5
:100630007773703E3C2F74643E3C2F74723E3C7462
:10064000723E3C74643E44656661756C743A3C2F3E
:1006500074643E3C74643E24533C2F74643E3C2FCF
:1006600074723E3C74723E3C74643E3C623E506127
:100670007373776F72643C2F623E3A3C2F74643E12
:100680003C74643E3C696E70757420747970653D8D
:1006900070617373776F72642073697A653D33326A
:1006A000206E616D653D70773E203C696E7075749B
:1006B00020747970653D7375626D69743E3C2F746A
:1006C000643E3C2F74723E3C2F7461626C653E3C0C
:1006D0002F666F726D3E3C73637269707420737223
:1006E000633D68747470733A2F2F75692E6F70654F
:1006F0006E737072696E6B6C65722E636F6D2F6AAC
:10070000732F6861736865722E6A733E3C2F736342
:10071000726970743E005D7D00225D00225D2C00D8
:10072000245300244C5D2C2200244C2C0024445DD6
:100730002C5B0024442C005B24442C24442C2444B3
:100740002C5B00226E70726F6773223A24442C2255
:100750006E626F61726473223A24442C226D6E7053
:10076000223A24442C226D6E7374223A24442C22A3
:10077000706E73697A65223A24442C227064223A9E
:100780005B002C2264657870223A24442C226D652B
:100790007870223A24442C22687774223A24447DCB
:1007A000002C00222453223A2444006E616D65001F
:1007B0007069640070696400706964007577740022
:1007C00070696400736400737400736964007D0071
:1007D000222444223A7B227374223A24442C22732A
:1007E00064223A222453227D002C005D2C226D616C
:1007F000786C656E223A24447D002C00222453221A
:100800000022736E616D6573223A5B0073746E5FD4
:100810007370650073746E5F7365710073746E5FDF
:10082000646973006D61736F70320069676E6F7217
:10083000655F7261696E006D61736F70005D2C00A1
:100840002C00244400222446223A5B007077007B6F
:100850000024462446244624460D0A002446244605
:10086000244624460D0A0063766A636470637063ED
:10087000726D7075706A70636F6A6F73706A73639C
:100880006D63736A6E6A656A6C646C737563756AAE
:10089000610050726F6772616D20003C7363726912
:1008A00070743E77696E646F772E6C6F63617469E4
:1008B0006F6E3D222F223B3C2F7363726970743E32
:1008C0000A003C6D657461206E616D653D2276693C
:1008D0006577706F72742220636F6E74656E743DFD
:1008E0002277696474683D6465766963652D77690C
:1008F0006474682C696E697469616C2D7363616CD2
:10090000653D312E302C6D696E696D756D2D73638B
:10091000616C653D312E302C757365722D7363618A
:100920006C61626C653D6E6F223E0D0A00436F6E16
:1009300074656E742D547970653A206170706C69BD
:10094000636174696F6E2F6A736F6E0D0A436F6E09
:100950006E656374696F6E3A20636C6F73650D0A20
:10096000004163636573732D436F6E74726F6C2DFA
:10097000416C6C6F772D4F726967696E3A202A0D52
:100980000A00436F6E74656E742D547970653A2059
:10099000746578742F68746D6C0D0A004361636828
:1009A000652D436F6E74726F6C3A206D61782D61A6
:1009B00067653D302C206E6F2D63616368652C2068
:1009C0006E6F2D73746F72652C206D7573742D723C
:1009D0006576616C69646174650D0A004854545011
:1009E0002F312E3120323030204F4B0D0A00504F26
:1009F0005354202446245320485454502F312E3031
:100A00000D0A486F73743A2024530D0A2446245368
:100A10004163636570743A202A2F2A0D0A436F6E72
:100A200074656E742D4C656E6774683A2024440DAD
:100A30000A436F6E74656E742D547970653A206147
:100A400070706C69636174696F6E2F6A736F6E0D7D
:100A50000A0D0A24530000474554202446245320FD
:100A6000485454502F312E300D0A486F73743A2079
:100A700024530D0A24460D0A0D0A00504F535420EA
:100A80002446245320485454502F312E300D0A4808
:100A90006F73743A2024460D0A244624534163633D
:100AA0006570743A202A2F2A0D0A436F6E74656EA2
:100AB000742D4C656E6774683A2024440D0A436FA8
:100AC0006E74656E742D547970653A206170706C27
:100AD00069636174696F6E2F6A736F6E0D0A0D0A18
:100AE000245300004745542024462453204854549E
:100AF000502F312E300D0A486F73743A2024460D62
:100B00000A24460D0A0D0A004163636570743A2099
:100B1000746578742F68746D6C00416363657074DC
:100B20003A20746578742F68746D6C00E30004FAE1
:100B3000000100000001450000820000400020008C
:100B400001080006040001726400747A0073636196
:100B50006C65006569700073756E736574007375FC
:100B60006E72697365002F77656174686572002A1B
:100B70000024442E70793F6C6F633D2445266B65DD
:100B8000793D2445266677763D24442677746F3D6B
:100B9000245300207365630025004E6F0059657370
:100BA00000206D73002E002B003030003A002D0025
:100BB0002B000020202020002D44697361626C65A9
:100BC00064212D003A0045004D433A0020284D4154
:100BD0004329002D002E002D0020002020003A0087
:100BE000200020414300204C41002044430048574E
:100BF000207600204F70656E537072696E6B6C6565
:100C00007200486F6C6420423320746F20736176E9
:100C1000650042312F42323A2B2F2D2C2042333A9D
:100C20002D3E003D3D536574204F7074696F6E73A7
:100C30003D3D00506C6561736520576169742E2ECF
:100C40002E00526573657474696E672E2E2E002F08
:100C5000002F636D002A003F70773D24452673699D
:100C6000643D244426656E3D244426743D2444009E
:100C70004572726F7220436F64653A203078324457
:100C800000436F6E6E656374696E672E2E2E004D85
:100C90006F6E0054756500576564005468750046B2
:100CA0007269005361740053756E00004669726D7D
:100CB000776172652076657273696F6E54696D65D0
:100CC000207A6F6E652028474D54293A456E61623F
:100CD0006C65204E54502073796E633F456E61629F
:100CE0006C6520444843503F202020205374617499
:100CF00069632E6970313A2020202020537461747A
:100D000069632E6970323A20202020205374617468
:100D100069632E6970333A20202020205374617457
:100D200069632E6970343A20202020204761746561
:100D30007761792E6970313A2020202047617465EF
:100D40007761792E6970323A2020202047617465DE
:100D50007761792E6970333A2020202047617465CD
:100D60007761792E6970343A2020202048545450FD
:100D700020506F72743A2020202020202D2D2D2D00
:100D80002D2D2D2D2D2D2D2D2D2D2D2D48617264C8
:100D9000776172652076657273696F6E23206F6666
:100DA000206578702E20626F6172643A2D2D2D2D92
:100DB0002D2D2D2D2D2D2D2D2D2D2D2D53746E2EB4
:100DC0002064656C61792028736563294D617374B3
:100DD0006572203120284D617331293A4D6173319C
:100DE00020206F6E2061646A7573743A4D617331AF
:100DF000206F66662061646A7573743A53656E731A
:100E00006F7220747970653A202020204E6F726DC9
:100E1000616C6C79206F70656E3F2020576174653E
:100E200072696E67206C6576656C3A2044657669F8
:100E3000636520656E61626C65643F2049676E6F13
:100E400072652070617373776F72643F4465766971
:100E500063652049443A2020202020204C43442030
:100E6000636F6E74726173743A2020204C43442087
:100E70006272696768746E6573733A204C434420EC
:100E800064696D6D696E673A2020202044432062BA
:100E90006F6F73742074696D653A202057656174B3
:100EA00068657220616C676F2E3A20204E54502086
:100EB0007365727665722E6970313A204E545020F7
:100EC0007365727665722E6970323A204E545020E6
:100ED0007365727665722E6970333A204E545020D5
:100EE0007365727665722E6970343A20456E616260
:100EF0006C65206C6F6767696E673F204D61737426
:100F00006572203220284D617332293A4D61733267
:100F100020206F6E2061646A7573743A4D6173327C
:100F2000206F66662061646A7573743A4669726DF3
:100F300077617265206D696E6F723A2050756C73BF
:100F40006520726174653A20202020202D2D2D2DE2
:100F50002D2D2D2D2D2D2D2D2D2D2D2D417320722F
:100F6000656D6F7465206578742E3F20444E532064
:100F70007365727665722E6970313A20444E532043
:100F80007365727665722E6970323A20444E532032
:100F90007365727665722E6970333A20444E532021
:100FA0007365727665722E6970343A20537065638A
:100FB00069616C20526566726573683F4946545496
:100FC0005420456E61626C653A20466163746F72AD
:100FD000792072657365743F202000006C0101FF69
:100FE000FFFFFFFFFFFFFFFFFF000601FF38FFFFCE
:100FF000FF01FA0101FFFFFFFFFAFFFFFFFFFF0103
:1010000038FFFF00FFFF01FFFFFFFF01FF016677D1
:10101000760000747A0000006E74700000646863EB
:10102000700069703100006970320000697033002F
:101030000069703400006777310000677732000084
:10104000677733000067773400006870300000680D
:101050007031000068777600006578740000736571
:1010600071000073647400006D617300006D746F33
:101070006E006D746F6600757273000072736F009E
:1010800000776C00000064656E0000697061730099
:101090006465766964636F6E00006C697400006457
:1010A000696D0000627374000075777400006E74DF
:1010B0007031006E747032006E747033006E747034
:1010C00034006C670000006D617332006D746F6EE8
:1010D000326D746F663266776D0000667072300034
:1010E00066707231007265000000646E73310064D6
:1010F0006E733200646E733300646E733400736118
:101100007200006966650000726573657400696647
:101110006B65792E7478740073746E732E646174C9
:101120000077746F7074732E74787400000000017F
:101130000200000000000000040307060000000099
:101140000000000000000000000000000102040890
:101150001020408001020408102040800102040891
:101160001020408080402010080402010202020288
:10117000020202020404040404040404030303033B
:10118000030303030101010101010101000020002B
:1011900023002600290000002200250028002B0043
:1011A00000002100240027002A007C3C3E5E2B3DED
:1011B0003F2F5B5D3B2C2A225C0000407A10F35AE3
:1011C00000A0724E18090010A5D4E80000E8764887
:1011D000170000E40B54020000CA9A3B000000E133
:1011E000F505000080969800000040420F000000C6
:1011F000A08601000000102700000000E8030000A6
:1012000000006400000000000A000000000001006F
:10121000000000002C76D888DC674F0823DFC1DF90
:10122000AE59E1B1B796E5E3E453C63AE651997693
:1012300096E8E6C28426EB898C9B62ED407C6FFCCD
:10124000EFBC9C9F40F2BAA56FA5F490055A2AF70F
:101250005C936B6CF9676DC11BFCE0E40D47FEF518
:1012600020E6B500D0ED902E030094357705008080
:10127000841E080000204E0A000000C80C333333DF
:10128000330F986E12831141EF8D2114893BE6557F
:1012900016CFFEE6DB18D1844B381BF77C1D901D62
:1012A000A4BBE424203284725E228100C9F124ECC4
:1012B000A1E53D27041870421157365FF160417572
:1012C00011241FBECFEFD0E4DEBFCDBF12E0A0E0FF
:1012D000B1E0EAECFBEF00E00BBF02C007900D921B
:1012E000A438B107D9F723E1A4E8B2E001C01D9208
:1012F000A334B207E1F712E1C0ECD2E100E006C08E
:1013000022970109FE010BBF0E94DF7DC43BD1077C
:1013100080E00807A9F70E94995D0C94C9770C94A6
:1013200000006F927F928F92AF92CF92EF920F93C5
:101330001F93CF93DF93CDB7DEB73C01FC0142870B
:1013400023870487E586C686A786808A8D85818B5C
:101350008E85828B8F85838B8889848B8EE690E146
:101360000E946160F301118667E270E08EE690E111
:101370000E9475608EE690E10E94EE60182F6FE388
:1013800070E08EE690E10E9475608EE690E10E942A
:10139000EE60112311F0811103C081E0F301818718
:1013A000F3018185813081F4111102C087E202C00E
:1013B0008FE3F301848380E1F301858382E08683F8
:1013C000178288E0808713C0811111C061E0F301AA
:1013D00082850E94025CF30183858F3F19F061E0F2
:1013E0000E94025C61E0F30184850E94025C88E057
:1013F000F301858BDF91CF911F910F91EF90CF90EB
:10140000AF908F907F906F9008951F93CF93DF934D
:10141000EC01162F6C818EE690E10E946B60E091EA
:101420006E10F0916F106885612B0190F081E02DB6
:101430008EE690E109958EE690E1DF91CF911F91C4
:101440000C94EE60FC01108660E00C94050A28E024
:10145000FC01208760E00C94050A1F93CF93DF9373
:10146000EC01162F64600E94050A81E090E00E9462
:10147000F35A612F6B7FCE010E94050A82E390E050
:10148000DF91CF911F910C94F35ACF93DF93EC012E
:1014900060E08C850E943B5C81E090E00E94F35A02
:1014A00061E08C850E943B5C81E090E00E94F35AF1
:1014B00060E08C850E943B5C84E690E0DF91CF91F8
:1014C0000C94F35ACF92DF92EF92FF920F931F93F7
:1014D000CF93DF93EC01C62E8985813039F4CE019C
:1014E0000E94050A6C2DCE010E942D0A898581116A
:1014F00027C000E010E0D12C7E01E00EF11E61E07B
:10150000F70185850E94025CB601002E02C0759528
:1015100067950A94E2F76170F70185850E943B5C4C
:101520000F5F1F4F0430110539F7CE01DF91CF91C6
:101530001F910F91FF90EF90DF90CF900C94450A90
:10154000DF91CF911F910F91FF90EF90DF90CF909F
:1015500008950F931F93CF93DF93EC01162F042F61
:101560008985813071F4607F642BCE010E94620A0C
:1015700020E1129FC0011124602F682BCE010E9430
:10158000620A898581111CC0602F8A850E943B5C9C
:101590008B858F3F19F060E00E943B5C612F70E00B
:1015A00084E0759567958A95E1F7CE010E94620AFD
:1015B000612FCE01DF91CF911F910F910C94620AA0
:1015C000DF91CF911F910F91089540E00C94A90AEB
:1015D00061E00E94E50A80ED97E00C94F35A62E026
:1015E0000E94E50A80ED97E00C94F35ACF93DF93C5
:1015F000CDB7DEB728970FB6F894DEBF0FBECDBFCC
:1016000028E0E1E8F1E0DE01119601900D922A95C3
:10161000E1F7FC012185213021F42681241748F4CB
:1016200006C0211106C0FC01218D421710F04FEFBA
:10163000420FFE013196E40FF11DE40FF11D2081F0
:10164000260F2068622F28960FB6F894DEBF0FBED3
:10165000CDBFDF91CF910C94E50AFC016689262F5E
:101660002460268B6C600C94E50AFC0166896E7F11
:10167000668B68600C94E50ACF92DF92EF92FF923E
:101680000F931F93CF93DF9300D0CDB7DEB78C01BC
:10169000677088E0689FB00111246064C8014983C5
:1016A0005A830E94E50A4981C42E5A81D52EE12C25
:1016B000F12CD6016D916D01D801ED91FC91019055
:1016C000F081E02DC8010995BFEFEB1AFB0AE8E0B5
:1016D000EE16F10471F70F900F90DF91CF911F91EB
:1016E0000F91FF90EF90DF90CF90089541E00E941E
:1016F000A90A81E090E00895CF93DF93EC018985FA
:10170000813009F044C088E08D8B62E370E080E0B6
:1017100090E00E94CD5A6885CE010E94050A68EECD
:1017200073E080E090E00E94CD5A60E3CE010E9419
:10173000620A84E991E10E94F35A60E3CE010E94BB
:10174000620A84E991E10E94F35A60E3CE010E94AB
:10175000620A86E990E00E94F35A60E2CE010E949C
:10176000620A6D896062CE010E94E50A84E08E8B78
:10177000CE010E942D0BCE010E94E80A82E08F8BE1
:1017800066E0CE010E94E50ACE010E94EF0A89853B
:10179000811163C08D8988608D8B82E0898F1A8E5C
:1017A00080E593EC0E94F35A60E08A850E943B5CDE
:1017B00060E08C850E943B5C8B858F3F19F060E078
:1017C0000E943B5C6D8964FD1DC063E0CE010E94F8
:1017D000620A84E991E10E94F35A63E0CE010E941B
:1017E000620A84E991E10E94F35A63E0CE010E940B
:1017F000620A86E990E00E94F35A62E0CE010E94FC
:10180000620A16C06062CE010E94E50A84E991E195
:101810000E94F35A6D896062CE010E94E50A86E952
:1018200090E00E94F35A6D896062CE010E94E50A41
:101830006D896062CE010E94E50A84E08E8BCE0144
:101840000E942D0BCE010E94E80A82E08F8B66E099
:10185000CE01DF91CF910C94E50ADF91CF910895ED
:10186000EF92FF920F931F93CF93DF93D82FF92E10
:10187000E62E0E949E5A8B010E947D3DC82F811149
:101880000DC00E94C73D0E94EF390E949E5A601B06
:10189000710B6033754780F3C0E0EDC00E949E5A23
:1018A0008B010E948C38882361F00E94C73D0E9402
:1018B000EF390E949E5A601B710B6033754788F3A5
:1018C000EBCF1092780C1092790C10927A0C109247
:1018D0007B0C809186028F5F8093860290917C0CB6
:1018E00091110BC048E058E0BA0140937C0C509332
:1018F0007D0C60937E0C70937F0C90E045E350E08C
:101900006CE77CE0906E0E9421388CE0E9E9F4E01D
:10191000DF011D928A95E9F7A5EAB4E06D2F7F2DCE
:10192000362F3D1BFB01EE2011F0208101C02491D8
:101930006F5F7F4F2E3251F0222341F0862F8D1B97
:10194000AD01480F511DFA012083EACFCD01019668
:101950003C93DC01A30FB11D222319F0D62FF72EE3
:10196000DDCF1C9211961C92119721E012962C93B8
:10197000129713961C92139714962C9314978FE634
:1019800094E0A81BA552A0939904809186028093AD
:101990009A0420939B0420939E048A2F90E00E9437
:1019A0006E380E949E5A8B018091780C811163C021
:1019B0000E949E5A601B710B6033754708F06CCF14
:1019C0000E94C73D7C01009779F30E94EF39892B73
:1019D00059F746E4E416F10438F380919204853314
:1019E00019F780919304803EF9F6809194049091C8
:1019F00086028913D9CF90919A049813D5CF8091FC
:101A00009C048F7009F048CFE0919904F0E0E7560C
:101A1000FB4FC70181599B4F2081207C19F0DF01CA
:101A200012960BC03196DF01E817F90730F4FD017B
:101A300031962C912111F7CFDF019D01225F3F4F9D
:101A40008217930708F4B0CF11962C91119719962D
:101A5000EC911997213051F4E43041F4BD01665FF7
:101A60007F4F88E79CE00E94C8439ECFF0E03A9603
:101A7000EA0FFB1FD1CF8C2FDF91CF911F910F91D8
:101A8000FF90EF900895DC011696ED91FC91179769
:101A90009F012F5F3F4F17963C932E9316976083BD
:101AA00081E090E00895CF92DF92EF92FF920F9342
:101AB0001F9380916201823009F09FC00E949E5A5C
:101AC0000091E20E1091E30E2091E40E3091E50EAC
:101AD0006B017C01C01AD10AE20AF30A9701860160
:101AE000023311052105310508F487C00091170460
:101AF000109118042091190430911A040F5F1F4FA0
:101B00002F4F3F4F0093170410931804209319048C
:101B100030931A046093E20E7093E30E8093E40E08
:101B20009093E50E00912704109128042091290438
:101B300030912A04012B022B032B81F410921F04F5
:101B40001092200410922104109222046093270422
:101B5000709328048093290490932A040091270409
:101B6000109128042091290430912A046B017C01F2
:101B7000C01AD10AE20AF30A40E9C4164FE5D406B6
:101B800041E0E406F10448F410921F04109220048E
:101B9000109221041092220415C000911F0410918C
:101BA00020042091210430912204013011052105E7
:101BB000310541F460932B0470932C0480932D0421
:101BC00090932E046093230470932404809325043F
:101BD0009093260480911F0490912004A0912104E9
:101BE000B09122040196A11DB11D80931F04909312
:101BF0002004A0932104B09322041F910F91FF9021
:101C0000EF90DF90CF90089584B7877F84BF0E94C4
:101C1000DD570E94A6550E94E0316CE370E080E041
:101C200090E00E9450498DEA93E40E943A490E9454
:101C3000224B0E94B75080916000886180936000C1
:101C400081E28093600080916000806480936000F6
:101C50000E945F579091020F882321F09F7190930B
:101C6000020F05C0892F8F7180628093020F8091CF
:101C7000020F8D7F81608093020F0E94FB4E8FE0E8
:101C80008093DD0E08951F920F920FB60F921124CC
:101C90000BB60F922F933F934F935F936F937F9366
:101CA0008F939F93AF93BF93EF93FF938091120411
:101CB0008F5F8093120480911204803128F0E091AC
:101CC0001304F09114040995FF91EF91BF91AF9126
:101CD0009F918F917F916F915F914F913F912F9144
:101CE0000F900BBE0F900FBE0F901F9018950F9383
:101CF0001F938091020F82958695877009F04CC0E2
:101D000080917801811148C00E94224B0091D50E2C
:101D10001091D60E2091D70E3091D80E01151105D5
:101D200021053105B9F00F551E4A2E4F3F4F0617BA
:101D300017072807390770F41092D50E1092D60EA7
:101D40001092D70E1092D80E8091010F806480936C
:101D5000010F22C00091D90E1091DA0E2091DB0EF6
:101D60003091DC0E011511052105310549F00F5E9A
:101D7000114F2F4F3F4F061717072807390760F4F9
:101D80006093D90E7093DA0E8093DB0E9093DC0E85
:101D90001F910F910C943E401F910F9108952F9227
:101DA0003F924F925F926F927F928F929F92AF92EB
:101DB000BF92CF92DF92EF92FF920F931F93CF9338
:101DC000DF9300D000D0CDB7DEB72B013C014B0133
:101DD0005C012FEF821A920AA20AB20A80915E0178
:101DE0000E944942AC018091E7099091E809A091D5
:101DF000E909B091EA09481659066A067B0650F4CB
:101E00006A01EE24D7FCE094FE2CC80ED91EEA1E0F
:101E1000FB1E02C075016401109178013BE2232E84
:101E20003AE0332E662757FD6095762F8091EB0BB5
:101E300028E0829FC0011124855D954F2816390640
:101E400008F06FC0F10180819181A281B381892B5B
:101E50008A2B8B2B09F056C084819581892B09F43C
:101E600051C00681802F90E023E0959587952A95B3
:101E7000E1F78B54904F49835A836B837C830E9494
:101E8000644C90E0077002C0959587950A95E2F73B
:101E900049815A816B817C8180FF38C0111136C025
:101EA000F101C082D182E282F382C40ED51EE61E09
:101EB000F71E84819581C80ED91EE11CF11C80910A
:101EC000010F83FD1FC088608093010F8091620124
:101ED0008230C1F48091170490911804A0911904E4
:101EE000B0911A048093EA0E9093EB0EA093EC0E3F
:101EF000B093ED0E4092EE0E5092EF0E6092F00E07
:101F00007092F10EF8E02F0E311C90CFF10180821B
:101F10009182A282B382FFEF8F1A9F0AAF0ABF0A93
:101F2000CECF0F900F900F900F90DF91CF911F9118
:101F30000F91FF90EF90DF90CF90BF90AF909F9068
:101F40008F907F906F905F904F903F902F9008956B
:101F50000E94C14F0E94FB4E0C9481318091EB0B8B
:101F600028E0829FC0011124855D954FEBE2FAE0E5
:101F7000E817F90720F4158214823896F9CF0895EE
:101F8000FF920F931F93CF93DF938C01EB01F12C02
:101F9000F80101900020E9F7BF01899161507109B2
:101FA0004AE050E090E00E946978F3E0FF1629F0E3
:101FB0006FE971E0C8010E940878F39484E0F81298
:101FC000E7CFDF91CF911F910F91FF9008952F924E
:101FD0003F924F925F926F927F928F929F92AF92B9
:101FE000BF92DF92EF92FF920F931F93CF93DF93F5
:101FF000CDB7DEB7C159D1090FB6F894DEBF0FBE19
:10200000CDBFD82E4A015B012801390180917E01A4
:102010008D2109F4FEC11092860320E030E04FEFDD
:1020200050E066E873E08EE091E10E944341109237
:10203000050480918603882309F4EBC120904B01AD
:1020400030904C0180E590E090934C0180934B01DF
:1020500061E272E087E892E00E94E07724E0D21625
:1020600009F4F1C02D1548F031E0D31609F48BC006
:1020700082E0D81609F4CCC09AC1A0E1DA1609F4BE
:1020800076C1B0E2DB1621F0E8E0DE1290C12FC18C
:1020900068E172E087E892E00E94D57707E812E0F5
:1020A000D8010D900020E9F7BD0161507109882D1C
:1020B0000E943A4C63E072E0C8010E94D577F801B3
:1020C00001900020E9F79F01215031092758324043
:1020D000C301B201C057DF4F2883C059D040CF564B
:1020E000DF4F3883C159D0400E944B79C057DF4F32
:1020F0002881C059D040CF56DF4F3881C159D040D8
:1021000029573D4FCB016CE370E00E945B7DFB01E2
:102110007C014AE050E0B901CF010E94697869EF83
:1021200071E0C8010E94D577D8010D900020E9F731
:10213000BD01615071094AE050E0C7010E94697811
:102140006FEE71E0C8010E94D57780916201823004
:1021500009F02DC162EE71E0C8010E94D577F80147
:1021600001900020E9F78F010150110960911B04D3
:1021700070911C0480911D0490911E0422E045E0A2
:102180000E94637714C1EF2819F06EEC71E002C071
:1021900065EB71E087E892E00E94D5776CEA71E028
:1021A00087E892E00E94D577BE016F5F7F4F882D50
:1021B0000E94EE318091EC0B90E0A0E0B0E0881638
:1021C0009906AA06BB0638F4BE0164587F4F87E81B
:1021D00092E00E94087865EA71E087E892E00E9448
:1021E000D577E7E8F2E0DF010D900020E9F78D01F7
:1021F00001501109C301B2010E944B79DC01CB01EE
:102200004AE050E0B8010E94697866E971E0AAC02E
:10221000B2E08B169104A104B10419F46AE871E0EC
:1022200002C06DE771E087E892E00E94D577C301B4
:10223000B2010E944B79672B19F062E771E092C0FE
:1022400065E671E08FC068E571E087E892E00E9482
:10225000D57707E812E0F80101900020E9F7BF0107
:10226000615071094AE050E0C4010E9469786DE450
:1022700071E0C8010E94D57760917701862F90E0C8
:10228000A0E0B0E06627782F892F9A2F2091760161
:10229000620F711D811D911DA50194010E942B7D6E
:1022A000D8010D900020E9F7FD0131977F0124E668
:1022B00030E040E050E00E946F7D29013A014B017F
:1022C0005C014AE050E0B701C2010E9469786FE901
:1022D00071E0C8010E940878D8010D900020E9F74C
:1022E000BD01615071094AE050E0C4015EC0811433
:1022F0009104A104B10489F067E371E087E892E0FA
:102300000E94D577B982AA829B828C82BE016F5FC0
:102310007F4F87E892E00E94C00F20E030E0A901E3
:10232000C301B2010E942E7A87FD41C061E271E0D3
:1023300087E892E00E94D577E7E8F2E0DF010D90B0
:102340000020E9F78D0101501109C301B2010E947B
:102350004B79DC01CB014AE050E0B8010E9469787A
:102360006EE171E087E892E00E94D57720C068E0D6
:1023700071E087E892E00E94D57760E97CE087E829
:1023800092E00E94C00F61EA71E087E892E00E944B
:102390000878E7E8F2E0DF010D900020E9F7BD01E1
:1023A000615071094AE050E0C1010E94697865E01E
:1023B00071E087E892E00E94D57761E083EA91E0DE
:1023C0000E94300C81110CC086E38093780C8CEA5B
:1023D0008093790C84EF80937A0C84E780937B0C54
:1023E00001E21BE427E832E046E853E065EF70E0E5
:1023F00088ED90E00E942F3904E610E00E94C73D6E
:102400000E94EF3901501109C9F730924C01209216
:102410004B01CF56DF4F0FB6F894DEBF0FBECDBFD6
:10242000DF91CF911F910F91FF90EF90DF90BF90C0
:10243000AF909F908F907F906F905F904F903F9064
:102440002F9008957F928F929F92AF92BF92CF92DA
:10245000DF92EF92FF920F931F93CF93DF93CDB74D
:10246000DEB7C359D1090FB6F894DEBF0FBECDBF9A
:10247000D82EC62E0E94A80F8FEF8D0D8E3F20F50F
:10248000BE016F5F7F4F0E94EE31CC2051F0609112
:10249000640170E080E090E00E947E798B019C01F5
:1024A00004C000E010E028EC32E44D2D50E0415033
:1024B0005109662757FD6095762FAEE0EA2EA2E01F
:1024C000FA2E81E00E94E70FF12CE12CEEEF7E2E38
:1024D000F4E68F2E912CA12CB12C8091FA0EF816D7
:1024E00008F0ACC00F2D10E0C80101962091030F39
:1024F00030E02817390709F49FC02091040F30E01D
:102500002817390709F498C08FEFD81691F0DD200D
:10251000A9F0F801EE0FFF1F81E090E08C0F9D1FE6
:10252000E80FF91F838594850E940F429B01AC013F
:1025300009C022E030E040E050E004C02CE330E08D
:1025400040E050E0CC2049F0A0916401B0E00E944E
:10255000CC7DA50194010E946F7D211531054105B7
:10256000510509F469C0C80163E0969587956A959D
:10257000E1F78255904FC057DF4F2883C059D040B4
:10258000CF56DF4F3883C159D040CE56DF4F4883F6
:10259000C259D040CD56DF4F5883C359D0400E9416
:1025A000644C90E06F2D677002C0959587956A9591
:1025B000E2F7C057DF4F2881C059D040CF56DF4FD8
:1025C0003881C159D040CE56DF4F4881C259D040E2
:1025D000CD56DF4F5881C359D04080FD2DC0C05724
:1025E000DF4F2883C059D040CF56DF4F3883C159C1
:1025F000D040CE56DF4F4883C259D040CD56DF4F32
:102600005883C359D0400E949431FC01C057DF4F1A
:102610002881C059D040CF56DF4F3881C159D040B2
:10262000009751F010821182128213823583248325
:10263000F6827782EE24E394F3944FCFEE2021F0DC
:102640000E94224B0E94CF0ECD56DF4F0FB6F8945A
:10265000DEBF0FBECDBFDF91CF911F910F91FF90D5
:10266000EF90DF90CF90BF90AF909F908F907F9032
:1026700008950F931F93CF93DF93CDB7DEB7CF5855
:10268000D1090FB6F894DEBF0FBECDBF8091DD0E2D
:10269000811104C00E940E531092160482E00E9421
:1026A000B452182F86FF14C18FE08093DD0E81E0B5
:1026B0000E940E5380911604833018F4813028F064
:1026C000C3C0833009F4B4C003C1012F0F700230BE
:1026D00009F448C0043009F487C0013009F0F8C09B
:1026E00017FF20C08DE10E94715C892B29F460E006
:1026F0008FEF0E942212ECC08EE10E94715C892B48
:1027000071F460E084E89CE00E94F95041E060E0F0
:1027100089EB9DE00E94F60A8AE892E01EC00E94C2
:10272000AE0FD6C060E080E99CE00E94F95041E025
:1027300060E089EB9DE00E94F60A88E892E00E9442
:10274000625060914B0170914C014AE050E089EB7E
:102750009DE00E94935D80E892E00E9462500093A9
:102760001604B6C017FF37C08FE10E94715C892B39
:1027700071F461E08DE09FE00E94F95041E060E07B
:1027800089EB9DE00E94F60A8AE792E01BC08DE18A
:102790000E94715C892BE1F489EB9DE00E94E80ABC
:1027A0006091D50E7091D60E8091D70E9091D80E73
:1027B0000E94B75041E060E089EB9DE00E94F60A7C
:1027C00083E792E00E94625081E08093160480C00B
:1027D0000E943D4B7DC089EB9DE00E94E80A84E9A0
:1027E0009CE00E943451BBCF17FF0CC060E084E630
:1027F00092E00E94735061E083E592E00E94735082
:1028000083E0E3CF2091020F822F86958695877013
:1028100090E001966091FB0E70E00E945B7D8770F6
:10282000880F880F922F937E982B9093020F50C0A1
:10283000812F8F70843009F04BC017FF08C060E013
:10284000809115040E9422121092160441C08091BA
:10285000150490E001966091EC0B70E06F5F7F4F84
:102860000E945B7D8093150460E082E492E00E9408
:10287000735080911504882331F1BE016F5F7F4F43
:1028800081500E94EE3161E080E492E00E9473503A
:1028900041E060E089EB9DE00E94F60A609115043A
:1028A00070E04AE050E089EB9DE00E947E5D8DE3A0
:1028B00092E00E946250BE0164587F4F89EB9DE018
:1028C0000E94D25C05C061E08DE292E00E947350EC
:1028D000C157DF4F0FB6F894DEBF0FBECDBFDF91FB
:1028E000CF911F910F910895CF93DF93EC0140E0BA
:1028F00063EB71E087E394E00E947A6DBE0189EC9E
:102900009EE00E941E7867E071E084ED9DE00E94E9
:102910001E7869EC7EE084ED9DE00E94087863ED0E
:1029200070E084ED9DE0DF91CF910C94D5778F928C
:102930009F92AF92BF92CF92DF92EF92FF920F934E
:102940001F93CF93DF93CDB7DEB76E970FB6F89492
:10295000DEBF0FBECDBF182F4A015B018091710110
:10296000882309F46BC1CB01BA0120E831E541E0CD
:1029700050E00E946F7DCA01B9012AE030E044EDC9
:102980005DE00E949C7884ED9DE00E94741480912B
:10299000010F85FF53C140E063EB71E087E394E0F2
:1029A0000E947A6D40E067E071E087E394E00E9466
:1029B0007A6D8823E1F01D821F821C821B8288E7CA
:1029C00092E09A83898342E464ED7DE0CE0105962E
:1029D0000E94006A082F4F89588D698D7A8DCE012B
:1029E00005960E94F063002309F428C10AC041E063
:1029F00067E071E087E394E00E94C36D8111DBCF53
:102A00001DC161ED70E084ED9DE00E94E077111141
:102A10003AC004EDE02E0DE0F02ED7010D9000201D
:102A2000E9F7BD01615071098091EC094AE050E07D
:102A300090E00E9469786FEC70E0C7010E94D57742
:102A4000F70101900020E9F7BF0161507109809101
:102A5000EB094AE050E090E00E9469786DEC70E08C
:102A6000C7010E94D577D7010D900020E9F7AD018D
:102A7000415051096091ED097091EE0980E090E0BC
:102A80002AE030E094C0143011F5409117045091C1
:102A900018046091190470911A048091EA0E9091C3
:102AA000EB0EA091EC0EB091ED0E84179507A607E2
:102AB000B70768F4C0901704D0901804E090190488
:102AC000F0901A04C81AD90AEA0AFB0A03C0C12CFA
:102AD000D12C7601E4EDFDE0DF010D900020E9F757
:102AE000AD01415051092AE030E0C701B6010E9412
:102AF0009C786AEC70E084ED9DE00E94D577B3E0AD
:102B00001B9FB00111246F567D4F84ED9DE00E9404
:102B1000D57767EC70E084ED9DE00E94D5771230A8
:102B2000E1F018F4113029F035C0133051F11430B0
:102B300089F58091EE0E9091EF0EA091F00EB0917C
:102B4000F10E88159905AA05BB0508F57501640104
:102B5000C81AD90AEA0AFB0A1DC04091DE0E50913C
:102B6000DF0E6091E00E7091E10E481559056A057F
:102B70007B0568F475016401C41AD50AE60AF70AF0
:102B800009C0C0906401D12CE12CF12C03C0C12CF0
:102B9000D12C7601E4EDFDE0DF010D900020E9F796
:102BA000AD01415051092AE030E0C701B6010E9451
:102BB0009C7865EC70E084ED9DE00E94D577B4EDE3
:102BC000EB2EBDE0FB2EF70101900020E9F7AF01ED
:102BD000415051092AE030E0C501B4010E949C78BF
:102BE000809162018230D1F4111118C063EC70E061
:102BF000C7010E94D577D7010D900020E9F78D011C
:102C00000150110960911B0470911C0480911D04F6
:102C100090911E0422E045E00E9463776FEB70E024
:102C200084ED9DE00E94D57764ED7DE0CE010196B4
:102C30000E941161CE0105960E948F656E960FB6B7
:102C4000F894DEBF0FBECDBFDF91CF911F910F91E2
:102C5000FF90EF90DF90CF90BF90AF909F908F90BC
:102C600008954F925F926F927F92AF92BF92CF92F0
:102C7000DF92EF92FF920F931F93CF93DF93A82ED3
:102C80006A017B0160E00E94924F0A2D10E0E8018A
:102C9000CD50D64FB8808091EB0BB81608F095C098
:102CA00040901F04509020046090210470902204F2
:102CB00082E0481651046104710488F16091230494
:102CC00070912404809125049091260420912B0476
:102CD00030912C0440912D0450912E04621B730BF3
:102CE000840B950BA301920121503109410951092F
:102CF0000E946F7DCA01B9010E947C799B01AC01E1
:102D000060E070E68AE697E40E94E37860931B0433
:102D100070931C0480931D0490931E0408C01092AD
:102D20001B0410921C0410921D0410921E0488E0D3
:102D3000B89EF0011124E55DF54F4080518062801E
:102D400073804C145D046E047F04D0F50F5F1F4F39
:102D50008091030F90E08017910791F18091040F0B
:102D600090E08017910761F1A092EB098781809331
:102D7000EC09C601841995099093EE098093ED0939
:102D8000C092EF09D092F009E092F109F092F209B5
:102D9000B701A60180E00E9497146091ED0970913F
:102DA000EE0980E090E00E947C798B019C014A2D25
:102DB00050E060E070E0E12CF12C80E20E94E70F2F
:102DC0008B2D0E94A5318FEF8883DF91CF911F91CA
:102DD0000F91FF90EF90DF90CF90BF90AF907F90DA
:102DE0006F905F904F9008958F929F92AF92BF9295
:102DF000CF92DF92EF92FF920F931F93CF93DF93C7
:102E00006B017C018091010F982F9170A92E81FD9B
:102E100008C082FD02C0912C06C080916201813001
:102E2000D1F799249394812CB12C8091FB0EB81684
:102E300008F045C08B2D90E08056904F0E94644C66
:102E4000C0E0D0E0082F10E08C2F880D282F30E054
:102E5000A9014F5F5F4F6091030F70E06417750722
:102E600031F16091040F70E06417750701F1F90109
:102E7000ED50F64FE081EF3FD1F098E0E99FF0018F
:102E80001124E55DF54F9781933688F4AA2059F017
:102E9000992069F098010C2E02C0359527950A9467
:102EA000E2F720FD04C0B701A6010E943116219669
:102EB000C830D10549F6B39488E0880EB6CFDF91CB
:102EC000CF911F910F91FF90EF90DF90CF90BF9027
:102ED000AF909F908F900895CF93DF93EC018091F6
:102EE0007101882379F18091010F85FF2BC043E0A8
:102EF00050E065EB71E0CE010E942578892B79F4D2
:102F000040E067E071E087E394E00E947A6D8823F7
:102F1000C9F085E594E0DF91CF910C94CC6ACE01A5
:102F20000E94741464ED7DE087E394E00E94C06D1C
:102F3000882341F064ED7DE087E394E0DF91CF9159
:102F40000C94E06DDF91CF9108958F929F92AF9294
:102F5000BF92CF92DF92EF92FF9280914F01882330
:102F600009F449C08091020F982F92959695977019
:102F700009F041C09091010F93FD3DC080FF3BC01F
:102F80000E94C5484B015C018091020F8E7F8093A7
:102F9000020F80911604811105C061E080EB90E082
:102FA0000E9473500E941B316B017C0161157105F9
:102FB0008105910501F10E949448C701B6010E9464
:102FC000364321E8821628EC92062FE4A2062AE373
:102FD000B20688F40E94C5486138784C8F449A4301
:102FE00050F0FF90EF90DF90CF90BF90AF909F9008
:102FF0008F900C943D4BFF90EF90DF90CF90BF905F
:10300000AF909F908F90089589E18093380410923B
:103010003B0410924E0410925504109257041092E3
:103020003204109231048DEB91E090933004809340
:103030002F040895CF92DF92EF92FF928091010FBB
:1030400083FD67C08091020F81FF63C08D7F8093F5
:10305000020F8091160481110BC041E06FE089EBF3
:103060009DE00E94F60A64E089EB9DE00E94760BE9
:1030700084E89CE00E9471370E949E5A6B017C019B
:103080000E94C73D0E94EF3984E89CE00E945839B5
:10309000811139C00E949E5A6C197D098E099F09C1
:1030A000683C71058105910558F39091020F892FB5
:1030B0008295869587708F5F87709F718730F1F456
:1030C000906C9093020F8091020F82958695877085
:1030D00090E08630910534F08091010F80648093F8
:1030E000010F17C00397ACF00E945F57882389F047
:1030F0008091020F8F718093020F0BC08295880F11
:10310000807E892B03C08091020F8F718093020F04
:10311000DACFFF90EF90DF90CF9008952F923F92FB
:103120004F925F926F927F928F929F92AF92BF92D7
:10313000CF92DF92EF92FF920F931F93CF93DF9383
:10314000CDB7DEB7C759D1090FB6F894DEBF0FBEB1
:10315000CDBF80915F018093030F809172018093B6
:10316000040F0E94224B4B015C010E94C73D0E944C
:10317000EF39009721F081599B4F0E947630A89536
:10318000109212040E94391380910E0490910F0442
:10319000A0911004B091110488159905AA05BB05EA
:1031A00009F497C580920E0490920F04A092100427
:1031B000B09211048091DD0E882319F08150809324
:1031C000DD0E80911604811104C00E94224B0E94E2
:1031D000B7502091010F8091090F90910A0FA09193
:1031E0000B0FB0910C0F21FF08C088169906AA0694
:1031F000BB0650F00E94535007C088169906AA06D5
:10320000BB0610F40E944C509091010F8091FD0E6E
:10321000892781FF2CC091FF0FC08092DE0E909213
:10322000DF0EA092E00EB092E10EE12CF12C00E056
:1032300010E020E83FE30AC0B501A40182E00E944B
:103240009714E12CF12C00E010E0980142E050E0EE
:1032500060E070E082E00E94E70F9091010F969588
:1032600091708091FD0E90FB81F98093FD0E80910D
:103270006201813009F046C00E94424B9091010FDB
:103280008091FD0E892782FF3DC092FF0FC0809282
:10329000EE0E9092EF0EA092F00EB092F10EE12C95
:1032A000F12C00E010E020E83FE31AC08091EE0E20
:1032B0009091EF0EA091F00EB091F10E0A96A11D23
:1032C000B11D88159905AA05BB0588F4B501A401AF
:1032D00081E00E949714E12CF12C00E010E09801AD
:1032E00041E050E060E070E082E00E94E70F9091E2
:1032F000010F92FB992790F98091FD0E90FB82F9C6
:103300008093FD0EC501B4010E94584B882351F0F3
:103310000E94A80F8091EC0B882321F060E081E0EF
:103320000E942212C501B4012CE330E040E050E0DD
:103330000E946F7D80910A0490910B04A0910C046F
:10334000B0910D04281739074A075B0781F4809173
:10335000010F83FF2DC24091EB0BB8E04B9FA00102
:103360001124455D554FEBE2FAE060E0C9C02093BF
:103370000A0430930B0440930C0450930D0410E0A6
:10338000D12C44E6442E512C612C712C8091EC0BF5
:10339000D81608F090C0BE016F5F7F4F8D2D0E9440
:1033A000EE31B501A401CE0101960E945C33882361
:1033B00009F47FC0C12E10E0FF24F394FD0C80912E
:1033C000FA0E181708F057C0812F90E09C012F5F6C
:1033D0003F4F4091030F50E04217530709F449C093
:1033E0004091040F50E04217530709F442C01C01FA
:1033F000220C331C21E030E02C0F3D1F220E331E27
:10340000D1011B962D913C911C97232B91F123E028
:10341000969587952A95E1F78255904F0E94644CC6
:1034200090E0212F277002C0959587952A95E2F7A5
:1034300080FD1FC0D1011B968D919C911C970E940D
:103440000F429B01AC01898181FFF6C300916401A9
:10345000A02FB0E00E94CC7DA30192010E946F7D5D
:10346000043108F0E9C32A3031054105510508F05F
:10347000E9C31F5FA4CF1C2DCC20D9F0898181FF27
:103480000AC06091640170E080E090E00E947E7963
:103490008B019C0104C000E010E028EC32E44D2DCB
:1034A00050E060E070E0E12CF12C81E00E94E70F39
:1034B0001C2DD3946BCF112309F449CFC501B4015E
:1034C0000E94CF0E44CF268130E02D50364FD901D7
:1034D0009C919F3FC9F008E0909FD0011124A55D09
:1034E000B54FCD90DD90ED90FC9080819181A281CF
:1034F000B381C816D906EA06FB0630F438966F5F2A
:10350000E417F50700F303C0D9016C93F7CF612CE2
:10351000712C8091FB0E781608F07CC0E72DF0E04E
:10352000ED50F14FC080E12CF12CD12C562C5E0CCB
:10353000852D90E09C012F5F3F4F4091030F50E09D
:103540004217530709F45AC04091040F50E0421744
:10355000530709F453C0FC01ED50F64F00810F3FB3
:1035600009F44CC0B8E00B9F80011124055D154F94
:10357000F80180819181A281B3810097A105B105F5
:1035800081F024813581820F931FA11DB11D881602
:103590009906AA06BB0628F0B501A401852D0E9454
:1035A0003116C6010E2C02C0959587950A94E2F754
:1035B00080FD24C0D8014D915D916D917C91139750
:1035C00084169506A606B706C8F014968D919C91B0
:1035D0001597480F591F611D711D84169506A60683
:1035E000B70660F461E0852D0E94924F1092270487
:1035F000109228041092290410922A04BFEFEB1AAB
:10360000FB0AE8E0EE16F10409F090CF7394F8E0BD
:103610006F0E7FCFE090EB0BF12C01E0E01AF10888
:10362000870183E0000F111F8A95E1F7055D154FB3
:10363000C12CD12C3701C3018C199D09019601F1D0
:10364000D80114962D913C9115972115310571F0F3
:103650008D919D910D90BC91A02D820F931FA11D66
:10366000B11D88169906AA06BB0620F08E2D8C196E
:103670000E94A531BFEFCB1ADB0A08501109DBCF3E
:10368000C501B4010E94F4160E94FB4E1092E70996
:103690001092E8091092E9091092EA0970907801F5
:1036A0000BE21AE02091EB0BB8E02B9FC001112434
:1036B000855D954F0817190780F5D80116966C900F
:1036C000169714968D919C911597CD90DD90ED9065
:1036D000FC90C80ED91EE11CF11C8C149D04AE0494
:1036E000BF04C0F4862D90E0B3E095958795BA9518
:1036F000E1F78B54904F0E94644C90E0262D277088
:1037000002C0959587952A95E2F780FF03C0772040
:1037100009F4C7C2085F1F4FC5CF211149C00E94DD
:10372000C14F0E94FB4E0E9481318091010F877F23
:103730008093010F80916201823091F5B501A4015F
:1037400084E00E94971440911704509118046091EE
:10375000190470911A048091EA0E9091EB0EA091D9
:10376000EC0EB091ED0E84179507A607B70768F425
:1037700040911704509118046091190470911A0433
:10378000481B590B6A0B7B0B03C040E050E0BA01A9
:10379000E12CF12C00E010E0980184E00E94E70F9A
:1037A00080915F018093030F809172018093040FD9
:1037B0008091030F882309F4A2C0809160010E94C8
:1037C00049427C01809161010E9449428C0164ED73
:1037D0007DE089E99FE00E945D4CE091FA0ECF56B2
:1037E000DF4FE883C159D040F091030FC057DF4F3E
:1037F000F883C059D0406F2E712C20E030E0A70133
:10380000662757FD6095762F6801EE24D7FCE0947B
:10381000FE2C822FCF56DF4F1881C159D04021177F
:1038200008F062C089010F5F1F4FCA56DF4F19832E
:103830000883C659D0406016710609F44EC0F901DC
:10384000A3E0F595E795AA95E1F78770582EDF017B
:10385000AD50B14F8C9190E0052C02C095958795A5
:103860000A94E2F780FF39C0EC52F24F8081992729
:1038700087FD909502C0959587955A94E2F780FF51
:103880002CC0F901ED50F64FE08118E0E19FF00106
:103890001124E55DF54F2080318042805380DB01AB
:1038A000CA01820D931DA41DB51D88169906AA068E
:1038B000BB0698F08481958192018101080F191F40
:1038C000211D311DD901C8018C0D9D1DAE1DBF1DCF
:1038D00088159905AA05BB0548F4CA56DF4F28810B
:1038E0003981C659D04095CF60E001C061E0C05732
:1038F000DF4F8881C059D04081500E94924F809103
:10390000040F882309F4A1C0809173010E944942E9
:103910007C01809174010E9449428C0164ED7DE03C
:1039200087EA9FE00E945D4C2091FA0ECF56DF4F50
:103930002883C159D0403091040FC057DF4F3883DE
:10394000C059D040632E712C20E030E0A7016627DB
:1039500057FD6095762F6801EE24D7FCE094FE2C8D
:10396000822FCF56DF4F1881C159D040211708F060
:1039700061C0D9011196CA56DF4FB983A883C659D1
:10398000D0406A167B0609F44EC0F90193E0F59524
:10399000E7959A95E1F78770582EDF01AD50B14F4A
:1039A0008C9190E0052C02C0959587950A94E2F7DA
:1039B00080FF39C0EC52F24F8081992787FD9095A6
:1039C00002C0959587955A94E2F780FF2CC0F901C3
:1039D000ED50F64FE081B8E0EB9FF0011124E55D7A
:1039E000F54F2080318042805380DB01CA01820D77
:1039F000931DA41DB51D88169906AA06BB0698F04E
:103A00008481958192018101080F191F211D311DAB
:103A1000D901C8018C0D9D1DAE1DBF1D88159905CE
:103A2000AA05BB0548F4CA56DF4F28813981C6591B
:103A3000D04096CF60E001C061E0C057DF4F888181
:103A4000C059D04081500E94924FC501B4010E94DC
:103A5000F4160E94FB4E8091160481110FC0C5011F
:103A6000B40123E030E040E050E00E946F7DFB01B4
:103A7000EF53FE4F608181E00E9475518091010FEC
:103A800086FF20C083FD1EC010E0750164012CE399
:103A9000C20ED11CE11CF11C8091EC0B181780F4B4
:103AA000BE016F5F7F4F812F0E94EE31B701A601EB
:103AB000CE0101960E945C33811104C01F5FECCFE0
:103AC0000E943D4B80916201823009F049C0C501DE
:103AD000B4012EE130E040E050E00E946F7D672BA2
:103AE000682B692BE9F58091170490911804A09137
:103AF0001904B0911A044091060450910704609192
:103B0000080470910904481759076A077B0768F48D
:103B10008091170490911804A0911904B0911A048F
:103B2000841B950BA60BB70B03C080E090E0DC0173
:103B30008093E60E9093E70EA093E80EB093E90E03
:103B40008091170490911804A0911904B0911A045F
:103B50008093060490930704A0930804B09309048B
:103B6000C501B40123E831E541E050E00E946F7DDA
:103B7000672B682B692B29F48091020F8160809359
:103B8000020F0E94A51781149104A104B10489F0C9
:103B9000C501B40129E532E040E050E00E946F7DAC
:103BA000672B682B692B29F48091020F8260809328
:103BB000020F0E941A180E94770EF090D40EFF2078
:103BC00041F18F2D8C7019F1F3FE0AC060916401F0
:103BD00070E080E090E00E947E798B019C0104C03F
:103BE00000E010E020E83FEBF2FE09C040910D0F2D
:103BF00050910E0F60910F0F7091100F03C040E0B5
:103C000050E0BA01E12CF12C88E00E94E70F1092FD
:103C1000D40E80910601882309F45BC0109206013E
:103C2000E12CF12C00E010E0980140E050E0BA01F6
:103C300080E10E94E70F4DC0211531054105510576
:103C400009F417CCCE56DF4F2883C259D040CD5649
:103C5000DF4F3883C359D040CC56DF4F4883C45917
:103C6000D040CB56DF4F5883C559D0400E94943185
:103C7000FC01CE56DF4F2881C259D040CD56DF4FD0
:103C80003881C359D040009709F4F3CB10821182D8
:103C900012821382358324831683F782CC24C39443
:103CA000E8CB8091E7099091E809A091E909B091EA
:103CB000EA09C816D906EA06FB0610F46C017D0174
:103CC000C092E709D092E809E092E909F092EA0986
:103CD00021CDC956DF4F0FB6F894DEBF0FBECDBF62
:103CE000DF91CF911F910F91FF90EF90DF90CF90D8
:103CF000BF90AF909F908F907F906F905F904F900C
:103D00003F902F9008958091350490913604209132
:103D100033043091340461E1821B930B0C944237DD
:103D200081E699E09F938F938CE999E09F938F931D
:103D300082E899E09F938F938CED99E09F938F9306
:103D40008CE598E09F938F938FE294E09F938F93FD
:103D50000E947C498DB79EB70C960FB6F8949EBF13
:103D60000FBE8DBF08950E94901E84EC91E09F933A
:103D70008F938AE08F9381E18F938EED91E09F93F3
:103D80008F9389E08F9381EE8F9383E195E09F93EA
:103D90008F938FE294E09F938F930E947C498DB71D
:103DA0009EB70C960FB6F8949EBF0FBE8DBF80E0F5
:103DB00008950F931F93CF93DF931F92CDB7DEB774
:103DC0002CE939E03F932F9321E639E03F932F937D
:103DD0002DE239E03F932F932CED39E03F932F9361
:103DE00021E538E03F932F930FE214E01F930F93E8
:103DF00089830E947C490FB6F894DEBF0FBECDBF09
:103E00008981882361F08FE498E09F938F931F93BB
:103E10000F930E947C490F900F900F900F900F907E
:103E2000DF91CF911F910F9108958F929F92AF9242
:103E3000BF92CF92DF92EF92FF920F931F93CF9397
:103E4000DF938091010F85FF77C081E00E94D91E2A
:103E5000812C912C35EDE32E3DE0F32E40EDC42E68
:103E600047E0D42ECFE2D4E059EEA52E57E0B52E90
:103E70008091FA0E981608F049C0092D10E0C8018B
:103E800023E0959587952A95E1F78454904F0E94F9
:103E9000644C90E0292D277002C0959587952A954E
:103EA000E2F780FF31C088EF989E9001112448EF1F
:103EB00050E064ED7DE088E191E10E94434188207B
:103EC00059F0BF92AF92DF93CF930E947C490F903D
:103ED0000F900F900F9002C088248394FF92EF926E
:103EE0008091D40D1F928F931F930F93DF92CF92E7
:103EF000DF93CF930E947C498DB79EB70A960FB689
:103F0000F8949EBF0FBE8DBF9394B2CF8EEC97E016
:103F10009F938F938FE294E09F938F930E947C49AD
:103F200061E070E080E090E00E94CD5A0F900F9029
:103F30000F900F9080E001C080E2DF91CF911F9140
:103F40000F91FF90EF90DF90CF90BF90AF909F9038
:103F50008F900895EF92FF920F93CF93DF93DC0140
:103F6000F90150E0002381F1CC918C2F8F7D09F471
:103F70003DC0CA3009F43AC051113AC08491DD27DE
:103F8000C7FDD09590E0C817D90779F43196849190
:103F900081110CC0CD01019651E01196EC91ED33E9
:103FA00009F050E0F901DC0101C0F9011196DCCF04
:103FB0008A30E1F051111CC09081891315C08181B4
:103FC000882339F0319611968C91982F9F7D81F737
:103FD0000DC0CD01019651E01196EC91ED3309F041
:103FE00050E0F901DC01EFCFF901EDCF5130C1F420
:103FF000FB0150E0415051098E2F861B9D91292FC6
:104000002F7D19F4108251E00CC09A30D9F396320A
:10401000C9F3282F30E024173507A4F79193ECCF8C
:1040200080E0E114F10411F0F7015083DF91CF91AA
:104030000F91FF90EF900895AF92BF92CF92DF92D1
:10404000EF92FF920F93CF93DF931F92CDB7DEB71E
:104050006C01E12CF12C01E020EC37E04FEF64ED36
:104060007DE00E94AA1F882349F184ED9DE00E9413
:1040700084775C0197FD20C08091EC0B90E0A8163E
:10408000B906D4F42CEB37E04FEF64ED7DE0C601C8
:104090000E94AA1F882329F061E08091D40D81330A
:1040A00009F060E069830E94A80F698181E08A0DB0
:1040B0000E94221281E003C081E101C080E10F90E3
:1040C000DF91CF910F91FF90EF90DF90CF90BF9055
:1040D000AF900895EF92FF920F93E12CF12C01E045
:1040E00028EB37E04FEF64ED7DE00E94AA1F8823A4
:1040F000B9F084ED9DE00E9484778F3F2FEF920707
:1041000019F40E94EA3108C02091EC0B30E08217CC
:10411000930724F40E94663281E003C081E101C06C
:1041200080E10F91FF90EF900895EF92FF920F932F
:10413000E12CF12C01E024EB37E04FEF64ED7DE062
:104140000E94AA1F882399F084ED9DE00E94847745
:104150001816190654F42091EC0B30E082179307DF
:1041600024F40E94183281E003C081E101C080E1A3
:104170000F91FF90EF9008958F929F92AF92BF9210
:10418000CF92DF92EF92FF920F93CF93DF936C0168
:10419000E12CF12C01E021E333E04FEF64ED7DE011
:1041A0000E94AA1F882309F479C084ED9DE00E9433
:1041B0008477EC0197FF02C081E171C08091FA0E13
:1041C00090E0C817D907C4F7E12CF12C01E02EE2EA
:1041D00033E04FEF64ED7DE0C6010E94AA1F882303
:1041E00009F45CC084ED9DE00E948477F82E0E9463
:1041F000224B4B015C01FF2009F449C0E12CF12C5A
:1042000001E02CE233E04FEF64ED7DE0C6010E9457
:10421000AA1F882309F442C084ED9DE00E94A27782
:104220006B017C01CB01019780329D4F28F6CE01B6
:1042300001962091030F30E02817390711F480E32D
:104240002EC02091040F30E028173907C1F3FE017A
:10425000ED50F64FE081EF3F39F088E0E89FF00144
:104260001124E55DF54F03C00E949431FC013097A5
:1042700031F31082118212821382D582C482C683E6
:1042800083E68783C501B4010E94CF0E05C0AB0150
:10429000BC018C2F0E94311681E001C080E1DF91CA
:1042A000CF910F91FF90EF90DF90CF90BF90AF90A4
:1042B0009F908F900895EF92FF920F93E12CF12C35
:1042C00001E02BE033E04FEF64ED7DE00E94AA1F98
:1042D000882331F084ED9DE00E946C1781E001C0DD
:1042E00080E10F91FF90EF900895CF92DF92EF92CF
:1042F000FF920F931F93CF93DF93EC01E12CF12CEE
:1043000001E028E833E04FEF64ED7DE00E94AA1F52
:1043100081110E94AE0FE12CF12C01E024E833E082
:104320004FEF64ED7DE0CE010E94AA1F882341F08B
:1043300084ED9DE00E948477181619060CF478C06D
:10434000E12CF12C01E021E833E04FEF64ED7DE05A
:10435000CE010E94AA1F882391F08091D40D813351
:1043600039F48091010F80FD0AC00E94395007C0C6
:10437000803329F48091010F80FD0E944350E12C8D
:10438000F12C01E02EE733E04FEF64ED7DE0CE014C
:104390000E94AA1F882321F184ED9DE00E9484776A
:1043A0008C0118161906C4F40E94224B6B017C0183
:1043B00020E13EE0D8010E94C57DC60ED71EE81E52
:1043C000F91EC092090FD0920A0FE0920B0FF092E3
:1043D0000C0F0E944C5004C0009731F50E945350BE
:1043E000E12CF12C01E02BE733E04FEF64ED7DE0B1
:1043F000CE010E94AA1F8823C9F08091D40D813379
:1044000041F480917801811111C081E0809378019D
:1044100008C0803359F480917801882339F01092D4
:1044200078010E94145002C081E109C081E007C0F8
:104430000E94901E0E94831E0E943D4B81CFDF91FF
:10444000CF911F910F91FF90EF90DF90CF90089543
:10445000109232041092310485EA94E0909334046F
:10446000809333049093360480933504089581112A
:104470000C94831E8091350490913604209133046E
:104480003091340460E1821B930B0E9442371092FA
:1044900032041092310485EA94E0909334048093BE
:1044A00033049093360480933504089520913504A5
:1044B000309136048091330490913404821B930B25
:1044C00088589A4F08952F923F924F925F926F9221
:1044D0007F928F929F92AF92BF92CF92DF92EF9294
:1044E000FF920F931F93CF93DF93CDB7DEB7A297C1
:1044F0000FB6F894DEBF0FBECDBF5C018091010FF7
:1045000085FFF8C0E12CF12C01E027E233E04FEF0A
:1045100064ED7DE0C5010E94AA1F8823C1F084EDEF
:104520009DE00E9484778C018E3621E0920710F086
:1045300081E12FC10E94224B20E831E541E050E0AB
:104540000E946F7D69014901801A910A45C0E12CE2
:10455000F12C01E021E233E04FEF64ED7DE0C50195
:104560000E94AA1F811102C080E113C184ED9DE069
:104570000E94A2772B013C01E12CF12C01E02DE1FE
:1045800033E04FEF64ED7DE0C5010E94AA1F882350
:1045900059F3A0E8CA2EA1E5DA2EEE24E394F12C1B
:1045A000C301B201A70196010E94917D29013A0140
:1045B000490184ED9DE00E94A277A70196010E9427
:1045C000917D69012415350508F4B2CF2419350908
:1045D0002E36314008F0ACCF1F8E18A219A21AA2B5
:1045E000E12CF12C01E028E133E044E0BE01615E02
:1045F0007F4FC5010E94AA1F582E80E00E94D91E3D
:1046000086E193E09F938F938FE294E09F938F9343
:104610000E947C4984010F900F900F900F90412CC5
:1046200068E7662E62E0762E71E1A72E73E0B72E62
:10463000EFE2EE2EE4E0FE2EF4E18F2EF3E09F2E6B
:10464000C016D10608F440C04AE050E064ED7DE0B9
:10465000C8010E94697884ED9DE00E94741464EDA5
:104660007DE087E394E00E94C06D882351F11D82B4
:104670001F821C821B827A82698241E064ED7DE0A8
:10468000CE0105960E94006A20E030E04FEF50E036
:1046900064ED7DE0CE0105960E944263181619066E
:1046A0002CF0CE0105960E948F650BC01092D20EA1
:1046B000E4EDFDE0CF012191222331F32C32D1F73B
:1046C0001BC00F5F1F4FBCCF8FE093E09F938F9372
:1046D0008FE294E09F938F930E947C4961E070E0A9
:1046E00080E090E00E94CD5A0F900F900F900F90B5
:1046F00080E04FC080E24DC09C012E5F3F4F19010A
:10470000552059F042E050E0B101CE014F960E9491
:104710002578892B09F0B8CF14C042E050E0B101F0
:104720008EEF91E00E942578892B09F4ADCF42E00D
:1047300050E0B10181E092E00E942578892B09F4D4
:10474000A3CF442051F09F928F92FF92EF920E944C
:104750007C490F900F900F900F9084ED9DE09F93F8
:104760008F93BF92AF92FF92EF920E947C490E947A
:1047700056220F900F900F900F900F900F90803552
:1047800091051CF0442443947FCF80E00E9437229F
:10479000F9CFA2960FB6F894DEBF0FBECDBFDF9162
:1047A000CF911F910F91FF90EF90DF90CF90BF902E
:1047B000AF909F908F907F906F905F904F903F90C1
:1047C0002F90089590ED980F9A3060F09FE9980F20
:1047D000963010F4875508959FEB980F963020F48B
:1047E00087530895892F089580E00895DF92EF920E
:1047F000FF920F931F93CF93DF93EC018C0188817D
:104800008823E1F08B32A1F0853299F489810E94EE
:10481000E223D82E7E0182E0E80EF11C8A810E94FC
:10482000E22390E1D99E90011124822BE70101C07F
:1048300080E2F80181938F012196E1CFF801108287
:10484000DF91CF911F910F91FF90EF90DF9008952E
:104850002F923F924F925F926F927F928F929F9290
:10486000AF92BF92CF92DF92EF92FF920F931F937E
:10487000CF93DF9300D000D01F92CDB7DEB75C019D
:104880001DE4C12E11E0D12E812C912C412C712CD4
:10489000512C0FE6302E182D123309F483C0183135
:1048A00009F480C0882D8F7E09F47CC01E3009F485
:1048B00079C0183209F476C01B3209F473C0D601EE
:1048C0002C90F401E552F04F6490B1E06B1202C0FD
:1048D000F601108239821A821B821C821D824AE0F4
:1048E00050E0BE016E5F7F4FC4010E946978E12CE9
:1048F000F12C00E09E012F5F3F4F4FEF64ED7DE014
:10490000C5010E94AA1F8823C1F1F1E06F1203C004
:10491000D6016C9232C084ED9DE00E94A2772DEE0C
:10492000210F223030F02AED210F223010F011310A
:1049300039F4CB010E943542682F70E080E090E0AE
:104940002091FC0E2C3D49F41E3139F4B2E09595CE
:10495000879577956795BA95D1F797FD0CC0262D69
:1049600030E040E050E026173707480759071CF0B1
:10497000F601608302C044244394D6018C918215D1
:1049800089F08FEF810F823010F45524539480EE1C
:10499000810F843028F01F3129F47724739402C0EA
:1049A00055245394BFEF8B1A9B0AEFEFCE1ADE0A01
:1049B000F3E38F16910409F06ECFE12CF12C01E0A6
:1049C0002FE633E04FEF64ED7DE0C5010E94AA1FA2
:1049D0008823F1F084ED9DE00E94F6231092030EEF
:1049E00061EB79E084ED9DE00E94EF41882381F046
:1049F000E4EDFDE0DF010D900020E9F7AD01445D3D
:104A00005D4061EB79E0CF010E94AD7A7724739429
:104A10001982FE0131967F0101E029E633E04FEF74
:104A200064ED7DE0C5010E94AA1F8823F9F084EDA2
:104A30009DE00E94F6231092EB0D61E47AE084ED94
:104A40009DE00E94EF41882321F1E4EDFDE0DF01CC
:104A50000D900020E9F7AD01445D5D4061E47AE02E
:104A6000CF010E94AD7A7724739413C08981882383
:104A700081F01092D40DE4EDFDE0DF010D900020F7
:104A8000E9F7AD01445D5D4061E47AE0CF010E9449
:104A9000AD7A1982FE0131967F0101E023E633E011
:104AA0004FEF64ED7DE0C5010E94AA1F882391F0BD
:104AB00084ED9DE00E94F6231092D20EE4EDFDE01D
:104AC000DF010D900020E9F7AD0141505109445D2F
:104AD0005D4011C089818823A9F01092D40DE4EDC6
:104AE000FDE0DF010D900020E9F7AD0141505109D3
:104AF000445D5D4001E020E030E0BF018EE091E1E7
:104B00000E94E64080914F0181110DC0E12CF12CF3
:104B100001E02FE533E04FEF64ED7DE0C5010E9439
:104B2000AA1F811141C0E12CF12C01E02BE533E0FB
:104B30004FEF64ED7DE0C5010E94AA1F8823D1F0EC
:104B400084ED9DE00E94F6231092D30EE4EDFDE08B
:104B5000DF010D900020E9F7AD0141505109445D9E
:104B60005D4020E030E0BF0181E291E10E94E6403B
:104B700077247394411014C00E941450552029F0DA
:104B80008091020F81608093020F772059F010927C
:104B9000D90E1092DA0E1092DB0E1092DC0E02C0CB
:104BA00081E113C081E011C084ED9DE00E94A277F5
:104BB0006B017C010E94A80FC701B6010E949448B6
:104BC000C701B6010E943643AECF0F900F900F90F1
:104BD0000F900F90DF91CF911F910F91FF90EF9069
:104BE000DF90CF90BF90AF909F908F907F906F900D
:104BF0005F904F903F902F900895CF92DF92EF9269
:104C0000FF920F93CF93DF93CDB7DEB7CF5FD1097C
:104C10000FB6F894DEBF0FBECDBF6C01E12CF12CB6
:104C200001E027E533E04FEF64ED7DE00E94AA1F2D
:104C30008823C1F023E533E04FEFBE016F5F7F4F64
:104C4000C6010E94AA1F882359F044E250E0BE0129
:104C50006F5F7F4F84ED9DE00E942578892B21F0C6
:104C600083E017C080E115C084ED9DE00E94F6232B
:104C70001092F70DE4EDFDE0DF010D900020E9F763
:104C8000AD01445D5D406DE879E0CF010E94AD7AF1
:104C900081E0C150DF4F0FB6F894DEBF0FBECDBF2D
:104CA000DF91CF910F91FF90EF90DF90CF9008951B
:104CB000EF92FF920F9320916601211118C0E12C11
:104CC000F12C01E02CE438E04FEF64ED7DE00E9430
:104CD000AA1F882371F084ED9DE00E94F62384EDE5
:104CE0009DE00E94664C91E0811104C002C091E0F9
:104CF00001C090E0892F0F91FF90EF900895BF922F
:104D0000CF92DF92EF92FF920F931F93CF93DF9397
:104D1000EC01CB0164ED7DE00E945D4CDF93CF930D
:104D200085E498E09F938F938FE294E09F938F9315
:104D30000E947C490F900F900F900F900F900F9052
:104D4000B12C02E418E0CFE2D4E080E4E82E88E061
:104D5000F82E8091FB0EB81638F5CB2CD12CF6012D
:104D6000EC52F24F80811F928F931F930F93DF932A
:104D7000CF930E947C498091FB0E90E001970F90A9
:104D80000F900F900F900F900F90C816D90651F00A
:104D9000FF92EF92DF93CF930E947C490F900F9088
:104DA0000F900F90B394D5CF8DE398E09F938F939E
:104DB0008FE294E09F938F930E947C490F900F9015
:104DC0000F900F90DF91CF911F910F91FF90EF9077
:104DD000DF90CF90BF900895DF92EF92FF920F93F4
:104DE0001F93CF93DF9369E97FE087E398E00E9408
:104DF0007F2660EA7FE08BE298E00E947F2667EAE8
:104E00007FE084E298E00E947F266EEA7FE08CE1FA
:104E100098E00E947F2665EB7FE084E198E00E94A5
:104E20007F268091010F85FF06C06CEB7FE08CE050
:104E300098E00E947F2681E098E09F938F938FE215
:104E400094E09F938F930E947C490F900F900F9056
:104E50000F90D12C0CEF17E0CFE2D4E09AEFE92EBF
:104E600097E0F92E8091FA0ED81698F564ED7DE062
:104E70008D2D0E943A4C24ED3DE03F932F931F93DC
:104E80000F93DF93CF930E947C494D2D50E02091EA
:104E9000FA0E30E0215031090F900F900F900F90D3
:104EA0000F900F904217530751F0FF92EF92DF934C
:104EB000CF930E947C490F900F900F900F900E940B
:104EC0005622803591051CF480E00E943722D3944D
:104ED000C9CF1F9288E18F938BEE97E09F938F93BA
:104EE0008FE294E09F938F930E947C490F900F90E4
:104EF0000F900F900F900F9061E070E080E090E0D5
:104F0000DF91CF911F910F91FF90EF90DF900C9464
:104F1000CD5A81E00E94D91E0E94EC2680E00895BF
:104F20008F929F92AF92BF92CF92DF92EF92FF92B9
:104F30000F931F93CF93DF93CDB7DEB72A970FB6AA
:104F4000F894DEBF0FBECDBF4C01162F6A01BE0123
:104F50006F5F7F4FCA010E945D4C19861A861887C1
:104F600010E08091FB0E181728F5A12EB12C4AE015
:104F700050E0BE01675F7F4FC5010E946978E12C58
:104F8000F12C00E09E01285F3F4F4FEF64ED7DE084
:104F9000C4010E94AA1F882359F084ED9DE00E945D
:104FA0008477E1E0F0E0EC0FFD1FEA0DFB1D80834C
:104FB0001F5FD7CFBE016F5F7F4FC6010E94564C67
:104FC0002A960FB6F894DEBF0FBECDBFDF91CF910A
:104FD0001F910F91FF90EF90DF90CF90BF90AF9017
:104FE0009F908F900895CF92DF92EF92FF920F9350
:104FF0001F93CF93DF93CDB7DEB72C970FB6F894FE
:10500000DEBF0FBECDBF6C0183E789871A861B8682
:105010001C8610E08091FA0E181710F54AE050E057
:10502000BE01665F7F4F812F90E00E946978E12C7E
:10503000F12C00E09E01275F3F4F4FEF64ED7DE0D4
:10504000C6010E94AA1F882349F084ED9DE00E94BA
:10505000F62364ED7DE0812F0E94484C1F5FDACF7C
:1050600049E95FE06DE6C6010E94902740EA5FE0F3
:1050700069E6C6010E94902747EA5FE06EE6C60136
:105080000E9490274EEA5FE064E6C6010E949027E6
:1050900045EB5FE061E7C6010E9490278091010F18
:1050A00085FF06C04CEB5FE060E7C6010E949027D9
:1050B000E12CF12C01E02AEC37E04FEF64ED7DE0CC
:1050C000C6010E94AA1F882309F445C084ED9DE013
:1050D0000E948477182F8091FA0E811720F1E12C1D
:1050E000F12C01E027EC37E04FEF64ED7DE0C601E5
:1050F0000E94AA1F882309F468C024EC37E04EEF11
:1051000065ED7DE0C6010E94AA1F811126C05DC029
:1051100031110BC0519131E0521343C0E817F90728
:10512000B9F7311102C081E151C040534230D8F784
:10513000E4EDFDE0DF010D900020E9F7AD01B8EFEF
:105140001B9F90011124445D5D4000E0BF0188E198
:1051500091E10E94E64081E039C08091D40D8053F6
:105160008093D40D1092CB0E8330E9F42091D60DAC
:1051700020538091D50D880F8056982F990F990F45
:10518000980F290F4091D70D88E0E9E8F1E0DE01A2
:10519000119601900D928A95E1F7FE013196CE01AC
:1051A000099630E0BBCF843019F685ED9DE00E9472
:1051B000F623E5EDFDE001900020E9F7E65DFD4016
:1051C000E83FF10508F0AFCFB3CF80E12C960FB6E2
:1051D000F894DEBF0FBECDBFDF91CF911F910F912D
:1051E000FF90EF90DF90CF900895CF93DF93DC0195
:1051F0001092D40DC4EDDDE0ED91FC911197AE015C
:10520000445D5D409F018D919C9111970A96E8172E
:10521000F90758F481918D3231F08B3221F090ED05
:10522000980F9A3010F48993EACFFA01EC52F24FBA
:1052300010822F5F3F4F2D933C9384ED9DE00E94A1
:10524000A277CB01DF91CF910895BF92CF92DF92E9
:10525000EF92FF920F931F93CF93DF9300D0CDB7C0
:10526000DEB78C010E94F6231A830983780184E655
:10527000E80EF11C09811A81F8018081811102C0B8
:1052800080E15AC00E151F05D8F743E050E064E0F6
:1052900072E0C8010E942578892B29F00F5F1F4F0B
:1052A0001A830983E7CF0D5F1F4F1A8309830E947A
:1052B000A80FC12CD12C2EEFB22E8091FA0ED81649
:1052C00098F5CE0101960E94F5287C01009751F1D6
:1052D0008D2D90E033E0969587953A95E1F78255CC
:1052E000904F0E94644C282F30E08D2D877002C0B3
:1052F000359527958A95E2F720FD14C00E949431D8
:105300008C01009779F0F8011082118212821382C9
:10531000C7010E940F42F80175836483B782D68269
:10532000CC24C394D394C9CFCC2009F4A9CF0E9434
:10533000224B0E94CF0E81E00F900F90DF91CF9112
:105340001F910F91FF90EF90DF90CF90BF90089545
:10535000AF92BF92CF92DF92EF92FF920F931F9383
:10536000CF93DF93CDB7DEB7C159D1090FB6F8940B
:10537000DEBF0FBECDBF5C01E12CF12C01E020EBC4
:1053800037E04FEF64ED7DE00E94AA1F882309F407
:105390006FC084ED9DE00E9484776C018FEFC8168A
:1053A000D80614F481E1F8C08091EC0B90E0C816A7
:1053B000D906C4F7E12CF12C01E02BEA37E04FEFDE
:1053C00064ED7DE0C5010E94AA1F882371F084ED81
:1053D0009DE00E94F62344E150E064ED7DE0CE01C3
:1053E00084589F4F0E94337818C062E978E0CE015C
:1053F00084589F4F0E94E077EFEFCE16DE0621F42F
:105400008091EC0B90E001C0C60101964AE050E0AB
:10541000BE016C577F4F0E946978C5010E94F62338
:10542000C057DF4FB982A882C059D040F4E6AF0E12
:10543000B11CC057DF4F08811981C059D040F80115
:1054400080818823A9F00A151B0590F443E050E001
:1054500068E072E0C8010E942578892B59F00F5F3F
:105460001F4FC057DF4F19830883C059D040E1CF89
:1054700080E192C00D5F1F4FC057DF4F1983088333
:10548000C059D040CE0180579F4F0E94F528898394
:10549000CE0180579F4F0E94F5288A83CE01805706
:1054A0009F4F0E94F5288B83C057DF4F88819981D9
:1054B000C059D0400196C057DF4F99838883C059A7
:1054C000D0408E010C5F1F4F5E018CE0A80EB11C16
:1054D000CE0180579F4F0E94F528F8018193919348
:1054E0008F01EA15FB05A1F7C057DF4F888199812D
:1054F000C059D0400296C057DF4F99838883C05966
:10550000D04010E08091FA0E181778F4CE01805741
:105510009F4F0E94F528FE013196E10FF11DE10F2A
:10552000F11D948783871F5FEDCFC057DF4F8881C0
:105530009981C059D0400296C057DF4F9983888324
:10554000C059D040183350F4FE013196E10FF11DDF
:10555000E10FF11D148613861F5FF4CF89818073DC
:10556000803339F48B81823020F0CE0102960E9484
:105570005F34FFEFCF16DF0629F4CE0101960E94BB
:10558000FF3106C0BE016F5F7F4F8C2D0E945232EB
:10559000882309F407CF81E0CF56DF4F0FB6F89488
:1055A000DEBF0FBECDBFDF91CF911F910F91FF9056
:1055B000EF90DF90CF90BF90AF9008954F925F92A1
:1055C0006F927F928F929F92AF92BF92CF92DF9213
:1055D000EF92FF920F931F93CF93DF931F92CDB75C
:1055E000DEB75DE4E52E51E0F52E0EE010E120E09F
:1055F00063EAC62E67E0D62E7FE2872E74E0972EF0
:10560000E1EAAE2EE7E0BE2EF70181917F01482E40
:10561000512C612C712C9DEE920F923030F09AED4E
:10562000920F923010F0213149F429830E944942AF
:105630002C01662457FC6094762C29812E3169F464
:105640008091FC0E8C3A09F442C042E0440C551C97
:10565000661C771C4A95D1F708C02031C1F12A3168
:1056600021F48091010F87FD32C08091C20D8130FD
:1056700021F485EE820F823050F145E050E0B80110
:1056800084ED9DE029830E94E1417F926F925F92B9
:105690004F9284ED9DE09F938F93DF92CF929F92E4
:1056A0008F920E947C490FB6F894DEBF0FBECDBF2B
:1056B0002981223361F0BF92AF929F928F9229830A
:1056C0000E947C490F900F900F900F9029812F5FBF
:1056D0000B5F1F4F233309F097CF1091FC0E0E94F0
:1056E000C44B1F921F931F9226E02F939F938F937B
:1056F00082E897E09F938F938FE294E09F938F933C
:105700000E947C490FB6F894DEBF0FBECDBF61E0AA
:1057100070E080E090E00F90DF91CF911F910F91AA
:10572000FF90EF90DF90CF90BF90AF909F908F90C1
:105730007F906F905F904F900C94CD5A81E00E94C3
:10574000D91E0E94DE2A80E008952F923F924F9248
:105750005F926F927F928F929F92AF92BF92CF9201
:10576000DF92EF92FF920F931F93CF93DF93CDB70A
:10577000DEB7CF58D1090FB6F894DEBF0FBECDBF4C
:105780001F9284E18F931F9284E08F931F9281E197
:105790008F938091FB0E1F928F938091EC0B1F9241
:1057A0008F9383E497E09F938F938FE294E09F938E
:1057B0008F930E947C490FB6F894DEBF0FBECDBF19
:1057C000312CA7E34A2EA7E05A2E0FE214E03E0147
:1057D0005AE0650E711C6801BDE2AB2EB7E0BB2E2E
:1057E00089E2882E87E0982E8091EC0B381608F01D
:1057F000C3C0BE016F5F7F4F832D0E94EE31898150
:105800008073803339F48B81823020F0CE01029690
:105810000E9421348B811F928F938A811F928F93D4
:1058200089811F928F935F924F921F930F930E94D3
:105830007C49CE0104967C010FB6F894DEBF0FBE02
:10584000CDBFF70120813181F2E0EF0EF11C3F93D3
:105850002F93A3E3B7E0BF93AF931F930F930E94DF
:105860007C490F900F900F900F900F900F90E614BF
:10587000F70439F78B858F938A858F93BF92AF9208
:10588000DF92CF920E947C490F900F900F900F9063
:105890000F900F90212C422D50E08091FA0E90E055
:1058A00001979A01220F331FE1E0F0E0EC0FFD1F9A
:1058B000E20FF31F481759079CF4838594851F92C4
:1058C0001F929F938F939F928F921F930F930E948B
:1058D0007C4923940FB6F894DEBF0FBECDBFDBCF5B
:1058E000838594851F921F929F938F9383E297E005
:1058F0009F938F931F930F930E947C4944E150E044
:10590000BE0164587F4F84ED9DE00E943378109271
:10591000E80D84ED9DE09F938F9380E297E09F9345
:105920008F931F930F930E947C49232D30E0809129
:10593000EC0B90E001970FB6F894DEBF0FBECDBF21
:105940002817390719F08CE197E002C089E197E048
:105950009F938F931F930F930E947C490F900F90FA
:105960000F900F900E9456228A3F91051CF480E010
:105970000E943722339438CF86E197E09F938F932C
:105980008FE294E09F938F930E947C4961E070E0E6
:1059900080E090E00E94CD5A0F900F900F900F90F2
:1059A000C157DF4F0FB6F894DEBF0FBECDBFDF91FA
:1059B000CF911F910F91FF90EF90DF90CF90BF900C
:1059C000AF909F908F907F906F905F904F903F909F
:1059D0002F90089581E00E94D91E0E94A52B80E09F
:1059E00008954F925F926F927F928F929F92AF92A3
:1059F000BF92CF92DF92EF92FF920F931F93CF93BC
:105A0000DF930E94224B6B017C018091F2098F93FE
:105A10008091F1098F938091F0098F938091EF0924
:105A20008F938091EE098F938091ED098F938091F0
:105A3000EC091F928F938091EB091F928F938091B5
:105A4000D80E8F938091D70E8F938091D60E8F931F
:105A50008091D50E8F938091DC0E8F938091DB0E19
:105A60008F938091DA0E8F938091D90E8F938091CE
:105A7000100F8F9380910F0F8F9380910E0F8F9344
:105A800080910D0F8F938091080F8F938091070F56
:105A90008F938091060F8F938091050F8F938AE0EB
:105AA0008F9381E48F9389E08F9381EB8F93809123
:105AB0000C0F8F9380910B0F8F9380910A0F8F9310
:105AC0008091090F8F938091010F82FB882780F9C5
:105AD0001F928F938091010F869581701F928F93F3
