:100000000C9480070C94A6570C94D7570C9408585E
:100010000C94AB070C94AB070C94AB070C94AB0798
:100020000C940B150C94AB070C94AB070C94AB071A
:100030000C94AB070C94AB070C94AB070C94AB0778
:100040000C94AB070C94AB070C94D9580C94AB07E9
:100050000C94BB5A0C94515B0C94AB070C94AB07FB
:100060000C94AB070C94AB070C9497750C94AB07EE
:100070000C94F45A0C94905B0C94AB070C94AB0763
:100080000C94AB070C94AB070C94AB074E54502068
:1000900053796E63696E672E2E2E002020007273D6
:1000A00000726400776C00666C00005D0D0A002C25
:1000B00000222C002C22002C002C005B002E7478D7
:1000C0007400302E2054657374202831206D696EC1
:1000D00029002E20002000486F6C642042332074D9
:1000E0006F20737461727400436C69636B204233D8
:1000F00020746F206C6973740052756E20612050FB
:10010000726F6772616D3A00286C737763290028FB
:10011000656970290020286F73697029003A0028EA
:1001200067776970290077746F7074732E747874B0
:100130000073746E732E64617400667776000074C9
:100140007A0000006E74700000646863700069706B
:10015000310000697032000069703300006970344A
:10016000000067773100006777320000677733005F
:10017000006777340000687030000068703100005C
:10018000687776000065787400007365710000730D
:10019000647400006D617300006D746F6E006D74A7
:1001A0006F6600757273000072736F0000776C00E9
:1001B000000064656E0000697061730064657669B3
:1001C00064636F6E00006C6974000064696D000008
:1001D000627374000075777400006E747031006E85
:1001E000747032006E747033006E747034006C671B
:1001F0000000006D617332006D746F6E326D746F4C
:10020000663266776D00006670723000667072311B
:100210000072650000007265736574004669726D56
:10022000776172652076657273696F6E54696D656A
:10023000207A6F6E652028474D54293A456E6162D9
:100240006C65204E54502073796E633F456E616239
:100250006C6520444843503F202020205374617433
:1002600069632E6970313A20202020205374617414
:1002700069632E6970323A20202020205374617403
:1002800069632E6970333A202020202053746174F2
:1002900069632E6970343A202020202047617465FC
:1002A0007761792E6970313A20202020476174658A
:1002B0007761792E6970323A202020204761746579
:1002C0007761792E6970333A202020204761746568
:1002D0007761792E6970343A202020204854545098
:1002E00020506F72743A2020202020202D2D2D2D9B
:1002F0002D2D2D2D2D2D2D2D2D2D2D2D4861726463
:10030000776172652076657273696F6E23206F6600
:10031000206578702E20626F6172643A2D2D2D2D2C
:100320002D2D2D2D2D2D2D2D2D2D2D2D53746E2E4E
:100330002064656C61792028736563294D6173744D
:100340006572203120284D617331293A4D61733136
:1003500020206F6E2061646A7573743A4D61733149
:10036000206F66662061646A7573743A53656E73B4
:100370006F7220747970653A202020204E6F726D64
:10038000616C6C79206F70656E3F202057617465D9
:1003900072696E67206C6576656C3A204465766993
:1003A000636520656E61626C65643F2049676E6FAE
:1003B00072652070617373776F72643F446576690C
:1003C00063652049443A2020202020204C434420CB
:1003D000636F6E74726173743A2020204C43442022
:1003E0006272696768746E6573733A204C43442087
:1003F00064696D6D696E673A202020204443206255
:100400006F6F73742074696D653A2020576561744D
:1004100068657220616C676F2E3A20204E54502020
:100420007365727665722E6970313A204E54502091
:100430007365727665722E6970323A204E54502080
:100440007365727665722E6970333A204E5450206F
:100450007365727665722E6970343A20456E6162FA
:100460006C65206C6F6767696E673F204D617374C0
:100470006572203220284D617332293A4D61733202
:1004800020206F6E2061646A7573743A4D61733217
:10049000206F66662061646A7573743A4669726D8E
:1004A00077617265206D696E6F723A2050756C735A
:1004B0006520726174653A20202020202D2D2D2D7D
:1004C0002D2D2D2D2D2D2D2D2D2D2D2D41732072CA
:1004D000656D6F7465206578742E3F204661637486
:1004E0006F72792072657365743F202000006C0183
:1004F00001FFFFFFFFFFFFFFFFFFFF000601F738CF
:100500003C78FF01FA0101FFFFFFFFFAFFFFFFFF49
:10051000FF01383C7800FFFF01012073656300256F
:10052000004E6F0059657300206D73002E002B0084
:100530002B003030003A002D002B0000202020201E
:10054000002D44697361626C6564212D003A004599
:10055000004D433A0020284D414329002D002E0034
:100560004D6F6E00547565005765640054687500E2
:10057000467269005361740053756E00002D0020AF
:10058000002020003A00200020414300204C410080
:10059000204443004857207600204F70656E53700A
:1005A00072696E6B6C657200486F6C642042332018
:1005B000746F20736176650042312F42323A2B2FDF
:1005C0002D2C2042333A2D3E003D3D536574204F83
:1005D0007074696F6E733D3D00506C65617365208A
:1005E000576169742E2E2E00526573657474696E9E
:1005F000672E2E2E002A002F636D003F70773D245A
:1006000045267369643D244426656E3D2444267462
:100610003D244400436F6E6E656374696E672E2ED1
:100620002E0050726F6772616D200063766A63649A
:10063000706370637275706A70636F6A6F73706AEB
:1006400073636D63736A6E6A656A6C646C737563F9
:10065000756A61003C7363726970743E77696E6499
:100660006F772E6C6F636174696F6E3D222F223B32
:100670003C2F7363726970743E0A00227265737551
:100680006C74223A24447D0022726573756C742266
:100690003A24447D00244600222446223A24447D04
:1006A000007D002C2273746174696F6E73223A7B33
:1006B000002C22737461747573223A7B002C226FB4
:1006C0007074696F6E73223A7B002C2270726F67B0
:1006D00072616D73223A7B002273657474696E6770
:1006E00073223A7B00646179005D002453002C0082
:1006F0005B007479706500656E6400737461727478
:100700000068697374007400656E00736964005D4D
:100710002C226E73746174696F6E73223A24447D67
:10072000002C0024440022736E223A5B0063707731
:10073000006E70770077746F007474740077746B58
:100740006579006C6F6300777370006A7370007274
:100750006500726400656E007262740072736E00F0
:100760003C6D657461206E616D653D2276696577CB
:10077000706F72742220636F6E74656E743D2277A1
:10078000696474683D6465766963652D776964742E
:10079000682C696E697469616C2D7363616C653D69
:1007A000312E302C6D696E696D756D2D7363616CC2
:1007B000653D312E302C757365722D7363616C61EC
:1007C000626C653D6E6F223E0D0A003C7363726978
:1007D0007074207372633D2224452F686F6D652EFF
:1007E0006A73223E3C2F7363726970743E0A3C2F19
:1007F000626F64793E0A3C2F68746D6C3E007661CE
:1008000072207665723D24442C697061733D2444E6
:100810003B3C2F7363726970743E0A003C21444F65
:1008200043545950452068746D6C3E0A3C68746DA1
:100830006C3E0A3C686561643E0A24463C2F68654C
:1008400061643E0A3C626F64793E0A3C736372697C
:1008500070743E007D002C2277746F223A7B245303
:100860007D005D002C005B24442C244C2C244C5D2A
:1008700000305D2C227073223A5B0024442C00224D
:100880007362697473223A5B0022666C637274222D
:100890003A244C2C22666C777274223A24442C0041
:1008A0002263757272223A24442C002264657674A5
:1008B000223A244C2C226E627264223A24442C2266
:1008C000656E223A24442C227264223A24442C225B
:1008D0007273223A24442C2272647374223A244C98
:1008E0002C226C6F63223A222445222C2277746BCF
:1008F0006579223A222445222C2273756E7269731F
:1009000065223A24442C2273756E736574223A244E
:10091000442C22656970223A244C2C226C77632285
:100920003A244C2C226C737763223A244C2C226C90
:1009300072756E223A5B24442C24442C24442C24CB
:100940004C5D2C003C666F726D206E616D653D6F75
:100950006620616374696F6E3D6375206D657468B0
:100960006F643D6765743E3C7461626C65206365CD
:100970006C6C73706163696E673D223132223E3C5C
:1009800074723E3C74643E3C623E4A6176615363DD
:10099000726970743C2F623E3A3C2F74643E3C7422
:1009A000643E3C696E70757420747970653D746541
:1009B00078742073697A653D3430206D61786C6598
:1009C0006E6774683D34302076616C75653D222415
:1009D0004522206E616D653D6A73703E3C2F7464E4
:1009E0003E3C2F74723E3C74723E3C74643E4465DF
:1009F0006661756C743A3C2F74643E3C74643E24AA
:100A0000533C2F74643E3C2F74723E3C74723E3CE7
:100A100074643E3C623E576561746865723C2F6247
:100A20003E3A3C2F74643E3C74643E3C696E707583
:100A30007420747970653D746578742073697A6583
:100A40003D3430206D61786C656E6774683D34307C
:100A50002076616C75653D22244522206E616D65AE
:100A60003D7773703E3C2F74643E3C2F74723E3C65
:100A700074723E3C74643E44656661756C743A3CC5
:100A80002F74643E3C74643E24533C2F74643E3C9B
:100A90002F74723E3C74723E3C74643E3C623E5025
:100AA000617373776F72643C2F623E3A3C2F7464BB
:100AB0003E3C74643E3C696E707574207479706558
:100AC0003D70617373776F72642073697A653D332B
:100AD00032206E616D653D70773E203C696E7075A9
:100AE0007420747970653D7375626D69743E3C2F36
:100AF00074643E3C2F74723E3C2F7461626C653EA0
:100B00003C2F666F726D3E3C736372697074207324
:100B100072633D68747470733A2F2F75692E6F700D
:100B2000656E737072696E6B6C65722E636F6D2F7C
:100B30006A732F6861736865722E6A733E3C2F7307
:100B400063726970743E005D7D00225D00225D2C41
:100B500000245300244C5D2C2200244C2C002444FF
:100B60005D2C5B0024442C005B24442C24442C2466
:100B7000442C5B00226E70726F6773223A24442CFF
:100B8000226E626F61726473223A24442C226D6E6D
:100B900070223A24442C226D6E7374223A24442C21
:100BA00022706E73697A65223A24442C2270642282
:100BB0003A5B002C2264657870223A24442C226D22
:100BC000657870223A24442C22687774223A2444AF
:100BD0007D002C00222453223A2444006E616D656E
:100BE0000070696400706964007069640073640077
:100BF000737400736964007D00222444223A7B22CE
:100C00007374223A24442C227364223A22245322FD
:100C10007D002C005D2C226D61786C656E223A247B
:100C2000447D002C00222453220022736E616D65E6
:100C300073223A5B0073746E5F7370650073746E39
:100C40005F7365710073746E5F646973006D6173C7
:100C50006F70320069676E6F72655F7261696E00F6
:100C60006D61736F70005D2C002C00244400222401
:100C700046223A5B00707700485454502F312E3191
:100C800020323030204F4B0D0A00436F6E74656E7A
:100C9000742D547970653A206170706C6963617469
:100CA000696F6E2F6A736F6E0D0A436F6E6E6563A8
:100CB00074696F6E3A20636C6F73650D0A0041634F
:100CC000636573732D436F6E74726F6C2D416C6C22
:100CD0006F772D4F726967696E3A202A0D0A0043BB
:100CE000616368652D436F6E74726F6C3A206D613D
:100CF000782D6167653D302C206E6F2D63616368D0
:100D0000652C206E6F2D73746F72652C206D75735A
:100D1000742D726576616C69646174650D0A007B7F
:100D20000024462446244624460D0A00436F6E7470
:100D3000656E742D547970653A20746578742F68E7
:100D4000746D6C0D0A0024462446244624460D0A80
:100D50000000010800060400014500008200004078
:100D6000002000504F535420244620485454502F04
:100D7000312E300D0A486F73743A2024460D0A2430
:100D80004624534163636570743A202A2F2A0D0A62
:100D9000436F6E74656E742D4C656E6774683A208F
:100DA00024440D0A436F6E74656E742D547970651A
:100DB0003A206170706C69636174696F6E2F782D71
:100DC0007777772D666F726D2D75726C656E636FB8
:100DD0006465640D0A0D0A245300474554202446D7
:100DE000245320485454502F312E300D0A486F732D
:100DF000743A2024460D0A24460D0A0D0A00416368
:100E0000636570743A20746578742F68746D6C0033
:100E1000E30004FA0001000000012A002F77656159
:100E2000746865720024442E70793F6C6F633D24B2
:100E300045266B65793D2445266677763D24442614
:100E400077746F3D245300726400747A0073636199
:100E50006C65006569700073756E736574007375F9
:100E60006E726973650000002100240027002A00CB
:100E700000002200250028002B0000002000230095
:100E800026002900020202020202020204040404F3
:100E90000404040403030303030303030101010126
:100EA0000101010101020408102040800102040830
:100EB0001020408001020408102040808040201053
:100EC0000804020100000001020000000000000010
:100ED00004030706000000000000000000000000FE
:100EE000000000007C3C3E5E2B3D3F2F5B5D3B2CB9
:100EF0002A225C008A0E53157922745C7D5E57713C
:100F000011241FBECFEFD0E4DEBFCDBF12E0A0E0C2
:100F1000B1E0EAE6F2EF00E00BBF02C007900D92ED
:100F2000A838B107D9F71BBE10E1A8E8B2E001C0AC
:100F30001D92AC39B107E1F71EE0C0E0DFE004C06C
:100F40002297FE010E942F79C43FD107C9F70E9462
:100F50000A5D0C94F2070C940000FC018827992785
:100F6000E89421912032E9F3293010F02E30C8F3B3
:100F70002B3241F02D3239F4689404C00E94D50818
:100F8000820F911D219120532A30C0F31EF49095B9
:100F900081959F4F08951F93FC0199278827BC01D5
:100FA000E89411911032E9F3193010F01E30C8F3B3
:100FB0001B3251F01D3249F4689406C00E94C008EB
:100FC000610F711D811D911D119110531A30B0F3E5
:100FD0003EF490958095709561957F4F8F4F9F4F10
:100FE0001F910895F8940C943379FB01DC0102C041
:100FF00005900D9241505040D8F70895FB01DC0157
:101000000D900020E9F7119705900D920020E1F76F
:101010000895FB01DC0105900D920020E1F7089591
:10102000FB01DC0104C08D910190801921F4415035
:101030005040C8F7881B990B0895FB01DC0102C0E2
:1010400001900D9241505040D8F70895DC0101C045
:101050006D9341505040E0F70895FB01DC010D9085
:101060000020E9F7119701900D920020E1F7089513
:10107000FC018191861721F08823D9F799270895DB
:101080003197CF010895FB01DC0101900D92002002
:10109000E1F70895FB01DC014150504030F08D91A3
:1010A0000190801919F40020B9F7881B990B089555
:1010B000FB01DC014150504048F001900D920020AE
:1010C000C9F701C01D9241505040E0F70895A0E0DB
:1010D000B0E0EDE6F8E00C9400797C01EB018A01C8
:1010E000690109C0CE012196F6010995F7018193A6
:1010F0007F010150104001151105A1F7CDB7DEB7F2
:10110000E8E00C941C79A0E0B0E0E9E8F8E00C9489
:101110000079EC017B018A01690109C0CE012196A9
:10112000F70161917F01F601099501501040011509
:101130001105A1F7CDB7DEB7E8E00C941C79FB01EF
:101140009F01E8944230C4F04532B4F44A3029F4A7
:1011500097FB1EF4909581959F4F642F77270E94EF
:101160009278805D8A330CF0895D8193CB01009782
:10117000A1F716F45DE251931082C9010C940209A3
:10118000592F482F372F262F660F771F881F991F3B
:10119000660F771F881F991F620F731F841F951F8B
:1011A000660F771F881F991F08957AE0979F902DEB
:1011B000879F802D910D11240895FA01CF93FF93FD
:1011C000EF932230CCF02532BCF4C22F2C2F3327E2
:1011D00044275527FF93EF930E94B978EF91FF9131
:1011E000605D6A330CF0695D6193B901CA016050BA
:1011F00070408040904051F710828F919F91CF9125
:101200000C940209DC01FC01672F71917723E1F74F
:10121000329704C07C916D9370836291AE17BF07C3
:10122000C8F30895DF93CF9300D000D000D0CDB79E
:10123000DEB7DE011196ECE1F2E086E001900D925E
:101240008150E1F786E191E0EEEEF2E0DF019C01F2
:101250001D9221503040E1F780918802833019F4CB
:101260006EED72E003C0BE016F5F7F4F84E490E0DB
:1012700043E450E00E94584A80918802833039F05C
:101280008EEE92E0BE016F5F7F4F0E945A5781E061
:10129000809318038093190386E080931A0380914A
:1012A000950290919602A0919702B0919802809336
:1012B0001C0390931D03A0931E03B0931F03809102
:1012C0008802833039F488E193E00C966EEC72E08A
:1012D0000E94625784E393E068EC72E00E945A57E0
:1012E000A4E0B4E0E0EBF1E002C081918D9331E045
:1012F000E63BF307D1F790918802992311F083E040
:1013000001C081E080930A048DE380930B0487E0A1
:1013100080930C0481E080930D04AEE0B4E0E8EC2F
:10132000F2E002C081918D9382E0EE3CF807D1F7A4
:101330008CE08093140485E080931504EAEAF1E0E0
:10134000A6E1B4E002C081918D9321E0EF3AF2076B
:10135000D1F72BE134E030939D0220939C02913031
:1013600069F582E380931B0484E080931C04D90117
:101370001296EEECF2E002C081918D9332E0E23DF4
:10138000F307D1F786E38093210484E0809322045D
:1013900083E294E090939D0280939C02DC01EEED49
:1013A000F2E002C081918D9382E0E23EF807D1F72E
:1013B00087E294E090939D0280939C0220919B028F
:1013C000222311F094E001C093E0A0919C02B0911F
:1013D0009D02FD0187E3819311969C93DF01119695
:1013E00081E08183FD01319683E011968C93DF01CA
:1013F000119686E08183CD01019690939D028093A2
:101400009C02222339F011962C93019690939D0211
:1014100080939C02E0919C02F0919D028FEF81935A
:10142000F0939D02E0939C02CF01885193400E946B
:101430003E4C26960FB6F894DEBF0FBECDBFCF91BF
:10144000DF910895BF92CF92DF92EF92FF920F93B8
:101450001F93CF93DF938C0180918802823009F42F
:1014600001C1833030F4882351F1813009F076C115
:101470004BC0833021F0843009F070C1F3C00E946A
:10148000F25220918D0230918E0240918F02509144
:101490009002E0908902F0908A0200918B021091F4
:1014A0008C022E0D3F1D401F511F2617370748077E
:1014B000590708F053C10E94120984E018C00E9425
:1014C00021596093950270939602809397029093AE
:1014D00098021092CE021092CF021092D002109277
:1014E000D1020E94120981E00E942C0F81E08093BA
:1014F00088020E9421596093910270939202809316
:101500009302909394022AC10634110508F4DEC0B8
:1015100080911103833409F0D9C020911C033091CC
:101520001D0340911E0350911F03809195029091DD
:101530009602A0919702B0919802281739074A079E
:101540005B0709F0C3C0C8E0D4E0FE01A801425126
:101550005D4FDF01119691819D012F5F3F4F80818B
:10156000853329F411968C91823009F4CEC0F901AB
:10157000E90FF11DE417F50760F3A8C0FE01919192
:10158000B980EF0121969333E1F0943340F4933026
:1015900091F0963099F0913009F04FC009C09A331C
:1015A00081F09F3F09F45AC0963309F046C03FC00E
:1015B00082ED92E03EC08AED92E03BC082EE92E086
:1015C00038C0818190E0A0E0B0E0BA2FA92F982F19
:1015D00088272981820F911DA11DB11DBA2FA92F26
:1015E000982F88272A81820F911DA11DB11DBA2F26
:1015F000A92F982F88272B81820F911DA11DB11D26
:1016000080938D0290938E02A0938F02B0939002EC
:1016100081589145A140B04008F499C0C0928D0214
:10162000D0928E02E0928F02F092900290C08EEDE6
:1016300092E0BE010E9462578AC0E0919902F09147
:101640009A02309709F483C080919B02981709F0A1
:101650007EC0892FBE014B2D099579C00E941209C9
:1016600082E045CF0634110588F18091110383345F
:1016700069F520911C0330911D0340911E03509188
:101680001F038091950290919602A0919702B091CC
:101690009802281739074A075B07C1F4E8E0F4E02D
:1016A000A80142515D4FDF01119691819D012F5F8D
:1016B0003F4F8081853321F411968C918530A9F1BB
:1016C000F901E90FF11DE417F50768F30E942159AC
:1016D0002091910230919202409193025091940294
:1016E000205F384D4F4F5F4F261737074807590780
:1016F00048F034C08AED92E00E94BE4A83E08093B5
:1017000088022CC01092880229C08EEC92E068E218
:1017100073E00E94625780E8C82E81E5D82E81E0F0
:10172000E82EF12C02511D4F29CF81E00E941B0FA2
:101730000E94F2526093890270938A0280938B0216
:1017400090938C028091DA028823C1F2D3CFCB0D23
:10175000D11DC017D10708F411CF80CFDF91CF91F1
:101760001F910F91FF90EF90DF90CF90BF90089561
:10177000CF93DF9381E08093EA029091CD02892F8D
:1017800082958F708F5B8093AD019F709F5B90936C
:10179000AE01109288020E942159EB0104C00E9400
:1017A0007C0F0E94220A80918802833061F00E949F
:1017B00021596C1B7D0B6053754728F40E943D0F27
:1017C000882389F3ECCF0E94D4491092ED02109245
:1017D000EC0290E080918802833009F491E0892F37
:1017E000DF91CF910895FF920F931F93CF93DF93D3
:1017F0008C01F62E0E942159EB010CC00E947C0F37
:101800000E940B4D0E9421596C1B7D0B6053754744
:1018100008F0EFC00E943D0F882381F30E942159F8
:10182000EB010CC00E947C0F0E940B4D0E942159BD
:101830006C1B7D0B6053754708F0DBC00E94CE49DE
:10184000882381F71092E6021092E7021092E802D4
:101850001092E90280919E028F5F80939E02809198
:10186000E202882361F488E098E0A8E0B8E0809381
:10187000E2029093E302A093E402B093E502809128
:101880009E0290E0906E62EE72E045E350E00E94AE
:10189000584AE8E1F3E08CE0DF011D928A95E9F710
:1018A000DF011C9690E0FF2019F0F801808102C052
:1018B000F80184910F5F1F4F8E3241F0882331F081
:1018C0009F5FFD01E90FF11D8083EDCFFD01919335
:1018D000DF01A90FB11D882329F7FD01119211968F
:1018E0001C92DF01119641E04183FD013196119672
:1018F0001C92418386ED2EEE32E0821B32968E0FD3
:101900008093180390919E029093190340931A03B9
:1019100040931D0390E00E943E4C0E9421598B0190
:1019200061C00E942159601B710B6053754708F01C
:1019300060C00E947C0FEC01009709F453C00E9424
:101940000B4D892B09F04EC0C634D10508F44AC0AE
:1019500080911103853309F045C080911203803EC8
:1019600009F040C09091130380919E029817D1F521
:10197000809119038917B1F580911B0390E08F7056
:101980009070892BB1F580911803E82FF0E0E85EA4
:10199000FC4F9E0122513D4F8081807C39F0329670
:1019A00009C08081882311F4319604C03196E21772
:1019B000F307B8F3CF010E962817390798F0818105
:1019C000813051F48185843039F43A9686EE92E084
:1019D000BF010E94625706C0818590E00A96E80F19
:1019E000F91FDACF8091E602882309F49ACF81E0CB
:1019F00001C080E0DF91CF911F910F91FF9008957A
:101A0000482F6AE00E948678282F30E084E0220F79
:101A1000331F8A95E1F7842F0E948678892F820FE1
:101A20000895CF93DF93EC0180919F029091A002E3
:101A30008836910559F58DE09EE068E670E00E94D9
:101A4000435E8DE09EE060E00E94C55E88810E945A
:101A5000000D682F70E06F7770708DE09EE00E943F
:101A6000C55E89810E94000D682F8DE09EE00E9476
:101A7000C55E8A810E94000D682F8DE09EE00E9465
:101A8000C55E8B810E94000D682F2DC08F36910599
:101A900009F04AC08DE09EE06FE670E00E94435E70
:101AA0008DE09EE060E00E94C55E88810E94000D8E
:101AB000682F60688DE09EE00E94C55E89810E946B
:101AC000000D682F8DE09EE00E94C55E8A810E9415
:101AD000000D682F8DE09EE00E94C55E8B810E9404
:101AE000000D682F68608DE09EE00E94C55E8C81CD
:101AF0000E94000D682F8DE09EE00E94C55E8D81E2
:101B00000E94000D682F8DE09EE00E94C55E8E81D0
:101B10008E510E94000D682F8DE09EE00E94C55EF0
:101B20008DE09EE00E94085FDF91CF91089588E6E6
:101B300090E09093A00280939F028DE09EE068E683
:101B400070E00E94435E8DE09EE060E00E94C55E12
:101B50008DE09EE00E94085F8823D9F08FE690E038
:101B60009093A00280939F028DE09EE06FE670E06C
:101B70000E94435E8DE09EE060E00E94C55E8DE0C5
:101B80009EE00E94085F882321F01092A00210922C
:101B90009F0208951F93CF93DF93EC0160919F0202
:101BA0007091A0026115710509F470C08DE09EE08E
:101BB0000E94435E8DE09EE060E00E94C55E8DE085
:101BC0009EE00E94085F60919F027091A0028DE0EC
:101BD0009EE047E050E00E94195F8DE09EE00E9489
:101BE000565E282F2F7722952F701AE0219F9001A3
:101BF00011248F70820F88838DE09EE00E94565ED4
:101C0000282F22952F70219F900111248F70820F11
:101C100089838DE09EE00E94565E282F2F732295C7
:101C20002F70219F900111248F70820F8A838DE085
:101C30009EE00E94565E87708B838DE09EE00E943E
:101C4000565E282F22952F70219F900111248F70AE
:101C5000820F8C838DE09EE00E94565E282F2F71AC
:101C600022952F70219F900111248F70820F8D83F8
:101C70008DE09EE00E94565E282F2F70225E829596
:101C80008F70819FC0011124280F2E83DF91CF9187
:101C90001F9108950F931F93DF93CF93CDB7DEB7B6
:101CA00027970FB6F894DEBF0FBECDBF8E010F5F32
:101CB0001F4FA8010E949F50C8010E94110D279636
:101CC0000FB6F894DEBF0FBECDBFCF91DF911F914D
:101CD0000F9108950F931F93DF93CF93CDB7DEB786
:101CE00027970FB6F894DEBF0FBECDBF8E010F5FF2
:101CF0001F4FC8010E94CA0DC8010E94E5512796D6
:101D00000FB6F894DEBF0FBECDBFCF91DF911F910C
:101D10000F9108958DE09EE00E941D5F08958091CF
:101D2000A40261E00E94575A78940895FF920F939D
:101D30001F93082F162FF42EF8948091A40260E0D0
:101D40000E94575A1F71102B1EBD0DB407FEFDCF08
:101D5000FEBC0DB407FEFDCF0E948F0E1F910F91A8
:101D6000FF9008951F93182F282F30E020763070B1
:101D70008091A50290E02817390799F080EA6FE179
:101D800043E00E94960E412F40764093A50250E01A
:101D900085E0559547958A95E1F780E86FE10E94C7
:101DA000960E1F9108950F931F93182F062F0E94D0
:101DB000B20E80E4612F402F0E94960E1F910F916A
:101DC00008950F931F93182F072F0E94D30E812F72
:101DD0008F5F602F0E94D30E1F910F9108950F9374
:101DE0001F93182F062FF8948091A40260E00E94A0
:101DF000575A802F8F71812B8EBD0DB407FEFDCFFA
:101E00001EBC0DB407FEFDCF07FF04C01EBC0DB401
:101E100007FEFDCF1EB50E948F0E812F1F910F91DF
:101E200008951F93182F0E94B20E80E0612F0E9428
:101E3000EF0E1F910895882311F41092A302809150
:101E4000A302882341F488E30E94110F682F6E7F5C
:101E500088E30E94D30E08951F93182F88E30E94F1
:101E6000110F682F616088E30E94D30E112319F4CB
:101E700081E08093A3021F91089584ED61E10E94A7
:101E8000D30E82ED61E00E94D30E8AEE0E94110F04
:101E900080FDFBCF82ED60E00E94D30E89ED0E94B1
:101EA000110F90E096958795969587958170089586
:101EB0000F931F93CF93DF93EC018B01F8948091E4
:101EC000A40260E00E94575A8AE38EBD0DB407FE5B
:101ED000FDCF09C01EBC0DB407FEFDCF8EB5F801C5
:101EE00081938F0121972097A9F70E948F0EDF9190
:101EF000CF911F910F9108950F931F93DF93CF936D
:101F000000D000D000D0CDB7DEB789E30E94110F1A
:101F1000882319F400E010E048C06091A602709197
:101F2000A70280E00E94E10E86E090E0BE016F5FB4
:101F30007F4F0E94580F89819A819093A7028093C6
:101F4000A6022B813C81E091A102F091A2028D8139
:101F500087FD03C000E010E00EC0245030408F0128
:101F6000015010402017310708F48901C8016EEEB6
:101F700072E00E94580FF801E251FD4F108260910B
:101F8000A6027091A7028CE06130780724F08CE003
:101F90006FEF7BE003C0615070408CE00E94E10E67
:101FA00080E86EE140E40E94960EC80126960FB6C6
:101FB000F894DEBF0FBECDBFCF91DF911F910F917F
:101FC00008950F931F93CF93DF938C01EB01F89447
:101FD0008091A40260E00E94575A8AE78EBD0DB43A
:101FE00007FEFDCF08C088818EBD0DB407FEFDCF72
:101FF00021960150104001151105A9F70E948F0E7E
:10200000DF91CF911F910F910895CF93DF93EC0152
:102010008CE10E94110F81FF0FC080E86FE140E862
:102020000E94960E80EA6FE140E80E94960E80EAD8
:102030006CE142E00E94960E82E060E07CE00E944B
:10204000E10EBE016050744F86E00E94E10E8AE707
:1020500060E040E00E94960ECE016EEE72E00E94BB
:10206000E10F80E86FE148E00E94960EDF91CF918A
:10207000089584E061E00E94DA5984E061E00E9402
:10208000575A85E061E00E94DA5987E061E00E94DA
:10209000DA5986E060E00E94DA5985E061E00E944A
:1020A000575A85E060E00E94575A87E060E00E943E
:1020B000575A80E58CBD8DB581608DBD0895EF9236
:1020C000FF920F931F93CF93DF93EB01142F909305
:1020D000A2028093A1020CB406FC02C00E94391037
:1020E0001093A402812F61E00E94DA590E948F0EA2
:1020F0008FEF60E04FEF0E94960E62E070E080E0AC
:1021000090E00E942F590E9421597B018C0180E3AD
:1021100095E7A0E0B0E0E80EF91E0A1F1B1F09C0FA
:102120000E942159E616F7060807190710F480E007
:1021300084C080E06DE10E94EF0E882389F3109245
:10214000A7021092A60288E060E070E00E94E10E13
:102150008CE060E070E00E94E10E8AE06FEF7BE0CF
:102160000E94E10E84E060E07CE00E94E10E86E0E7
:102170006FEF71E10E94E10E80E00E942C0F88E277
:102180006FE370E30E94E10E80E369EF77EF0E9456
:10219000E10E80EC6DE00E94D30E81EC60E00E94C5
:1021A000D30E80E862EC42E30E94960E86EC62E178
:1021B0007CE00E94E10E84EC62E10E94D30E8AEC86
:1021C0006AEE75E00E94E10E84EE68810E94D30EF3
:1021D00085EE69810E94D30E82EE6A810E94D30E41
:1021E00083EE6B810E94D30E80EE6C810E94D30E31
:1021F00081EE6D810E94D30E84ED60E10E94D30ECA
:1022000086ED60E071E00E94E10E8AEE0E94110FFF
:1022100080FDFBCF8FE10E94B20E80E86BE140ECC5
:102220000E94960E80E86FE144E00E94960E82E7DD
:102230000E94110F863008F08F5FDF91CF911F91C0
:102240000F91FF90EF900895EF92FF920F931F93DD
:10225000CF93DF93FC01EB018A0179011092EA022E
:10226000009729F08EEC92E0BF010E946257209700
:1022700019F0CE010E94BE4A0115110529F082EE27
:1022800092E0B8010E946257E114F10429F082ED56
:1022900092E0B7010E9462570E94D4491092ED0269
:1022A0001092EC0281E0DF91CF911F910F91FF908E
:1022B000EF900895AF92BF92CF92DF92FF920F936B
:1022C0001F93CF93DF938C01EB01F42E1092EA025F
:1022D00038E341E050E060E070E018C0832F90E008
:1022E000FC01B3E0F595E795BA95E1F7E855FD4FA8
:1022F000877090705A016B0104C0AA0CBB1CCC1CE7
:10230000DD1C8A95D2F720812A292083315031F7AC
:1023100088EC92E0BE010E945A57C80168EC72E056
:102320004F2D0E945F10DF91CF911F910F91FF9071
:10233000DF90CF90BF90AF900895CF92DF92EF9251
:10234000FF920F931F93DF93CF93CDB7DEB7EB844C
:10235000FC84CD84DE84DE011F9601C0D801F60125
:102360008491882309F4BCC00894C11CD11C843218
:1023700009F099C0F6010894C11CD11C84918634DF
:1023800009F45FC0873434F4843469F0853409F08B
:102390008AC06EC08C34C9F1833509F445C08834D5
:1023A00009F081C00DC08D010E5F1F4FF7016681DE
:1023B00077818D919C914AE050E00E949F087EC0F9
:1023C0002C91822F992787FD909514E095958795FC
:1023D0001A95E1F78F702F702A300CF0295F8A3040
:1023E0000CF0895F8D010E5F1F4FF701A681B78149
:1023F000805DFD018193205D11962C933196D7016C
:102400001796FC93EE931697A9CF8D010C5F1F4F83
:102410006D917D918D919C91F701468157812AE0C4
:1024200030E00E94DD084AC08D010E5F1F4F6D91A4
:102430007C91D70116968D919C9117970E94430825
:102440003DC08D010E5F1F4F2D913C910AC0D701F9
:102450001696ED91FC91179781931796FC93EE9346
:102460001697F9012F5F3F4F8491882381F776CF2C
:102470008D010E5F1F4F2D913C910AC0D70116961A
:10248000ED91FC91179781931796FC93EE93169715
:10249000F999FECF32BD21BDF89A80B52F5F3F4F2D
:1024A000882361F75BCFF70126813781F90181939A
:1024B0009F01F701378326838D0150CFD7011696F0
:1024C0008D919C911797FC0101900020E9F73197BD
:1024D000E81BF90B8E0F9F1FF701978386833ECF72
:1024E000CF91DF911F910F91FF90EF90DF90CF90F0
:1024F00008950F931F938C01FC01848560E00E9476
:10250000575A81E090E00E948859F801848561E083
:102510000E94575A81E090E00E948859F801848512
:1025200060E00E94575A84E690E00E9488591F910B
:102530000F910895CF92DF92EF92FF920F931F9326
:102540006C01062F8DE0E82E8EE0F82EC701F60113
:1025500064810E94395E10E0F601808590E0082BCE
:10256000192BC701602F0E94C55EC7010E94085F3A
:102570001F910F91FF90EF90DF90CF900895FF9201
:102580000F931F938C01F62E64600E949A1281E0D3
:1025900090E00E9488598BEFF822C8016F2D0E94AD
:1025A0009A1282E390E00E9488591F910F91FF9048
:1025B0000895FC0188E08087CF0160E00E949A12B4
:1025C0000895FC01108660E00E949A120895CF924F
:1025D000DF92EF92FF920F931F93CF93DF937C01D3
:1025E000D62EFC018185813039F4C7010E949A12F0
:1025F000C7016D2D0E94BF12F70181858823F9F470
:102600008701C0E0D0E0CD2CDD24F801858561E0B4
:102610000E94DA59B6010C2E02C0759567950A948E
:10262000E2F76170F80185850E94575A21960F5F85
:102630001F4FC430D10549F7C7010E947912DF91BD
:10264000CF911F910F91FF90EF90DF90CF90089561
:102650000F931F93CF93DF93EC01062F142F8985DF
:10266000813061F4607F642BCE010E94E712602FFD
:102670006295607F612BCE010E94E71289858823D5
:10268000C1F48A85612F0E94575A8B858F3F19F0BC
:1026900060E00E94575A602F70E094E0759567954E
:1026A0009A95E1F7CE010E94E712CE01602F0E94B9
:1026B000E712DF91CF911F910F91089541E00E94A1
:1026C000281381E090E0089540E00E9428130895C7
:1026D000EF92FF920F931F93CF93DF938C017A01B8
:1026E0006770660F660F660F60640E946413C0E037
:1026F000D0E0D801ED91FC91D701AC0FBD1F019046
:10270000F081E02DC8016C9109952196C830D10562
:1027100081F7DF91CF911F910F91FF90EF90089576
:10272000FC0166896E7F668B68600E946413089561
:10273000FC016689862F8460868B6C60CF010E94C5
:1027400064130895DF93CF93CDB7DEB728970FB604
:10275000F894DEBF0FBECDBF9C01FE013196AAE208
:10276000B2E088E00D9001928150E1F7F901818596
:10277000813021F48681841748F406C0882331F41F
:10278000F901818D481710F0482F4150E42FF0E0F7
:10279000EE0FFF1FEC0FFD1F8181680F6068C901FC
:1027A0000E94641328960FB6F894DEBF0FBECDBF0B
:1027B000CF91DF91089562E00E94641380ED97E06D
:1027C0000E948859089561E00E94641380ED97E0AB
:1027D0000E9488590895CF93DF93EC018985813059
:1027E00009F044C088E08D8B62E370E080E090E007
:1027F0000E942F59CE0168850E949A1268EE73E0FC
:1028000080E090E00E942F59CE0160E30E94E71221
:1028100084E991E10E948859CE0160E30E94E712A9
:1028200084E991E10E948859CE0160E30E94E71299
:1028300086E990E00E948859CE0160E20E94E7128A
:102840006D896062CE010E94641384E08E8BCE019C
:102850000E949813CE010E94E31382E08F8BCE0179
:1028600066E00E946413CE010E94DB1389858823F1
:1028700009F061C08D8988608D8B82E0898F1A8E06
:1028800080E593EC0E9488598A8560E00E94575A3F
:102890008C8560E00E94575A8B858F3F19F060E06D
:1028A0000E94575A6D8964FD1DC0CE0163E00E94ED
:1028B000E71284E991E10E948859CE0163E00E9409
:1028C000E71284E991E10E948859CE0163E00E94F9
:1028D000E71286E990E00E948859CE0162E00E94EA
:1028E000E71216C06062CE010E94641384E991E190
:1028F0000E9488596D896062CE010E94641386E946
:1029000090E00E9488596D896062CE010E94641334
:102910006D896062CE010E94641384E08E8BCE01CB
:102920000E949813CE010E94E31382E08F8BCE01A8
:1029300066E00E946413DF91CF9108956F927F92B9
:102940008F92AF92CF92EF920F93DF93CF93CDB749
:10295000DEB73C01FC01428723870487E586C686F3
:10296000A786808A8C85818B8D85828B8E85838BD3
:102970008F85848B8DE09EE00E941D5FF3011186A0
:102980008DE09EE067E270E00E94435E8DE09EE095
:1029900060E00E94C55E8DE09EE00E94085F882393
:1029A00019F481E0F3018187F3018185813049F4D5
:1029B00087E2848380E1858382E08683178288E0D2
:1029C0008087F3018185882381F4828561E00E94FC
:1029D000DA59F30183858F3F19F061E00E94DA59DB
:1029E000F301848561E00E94DA5988E0F301858B68
:1029F000CF91DF910F91EF90CF90AF908F907F901C
:102A00006F900895FC01A681B7816D93B783A6836B
:102A100081E090E008951F920F920FB60F920BB6CF
:102A20000F9211242F933F934F935F936F937F9354
:102A30008F939F93AF93BF93EF93FF93809111096F
:102A40008F5F8093110980911109803128F0E09106
:102A50000F09F09110090995FF91EF91BF91AF9186
:102A60009F918F917F916F915F914F913F912F91A6
:102A70000F900BBE0F900FBE0F901F901895809176
:102A8000FD0990E023E0880F991F2A95E1F7825015
:102A9000964FEEEFF9E003C0158214823896E817DE
:102AA000F907D0F3089589E18093CB081092CE08FE
:102AB0001092E2081092E9081092EB0810920609B1
:102AC0001092050986E392E090930409809303092C
:102AD0000895AF92BF92CF92DF92EF92FF920F9341
:102AE0001F938091C101882309F440C090912D0962
:102AF000892F829586958770C9F580912C0983FD71
:102B000035C090FF33C00E94F2525B016C0180918E
:102B10002D098E7F80932D0980911209882329F435
:102B20008CE890E061E00E940F240E9460347B01F9
:102B30008C016115710581059105C1F00E94C55296
:102B4000C801B7010E944A0E21E8A21628ECB2067D
:102B50002FE4C2062AE3D20648F40E94F2526158DA
:102B6000784C8F449A4310F00E94BD211F910F9121
:102B7000FF90EF90DF90CF90BF90AF900895EF92CD
:102B8000FF920F931F938091D401823099F50E9498
:102B900021599B01AC0180914B0990914C09A09166
:102BA0004D09B0914E0979018A01E81AF90A0A0B18
:102BB0001B0BD801C701C297A105B105D8F08091C0
:102BC0000B0990910C09A0910D09B0910E09019685
:102BD000A11DB11D80930B0990930C09A0930D09C1
:102BE000B0930E0920934B0930934C0940934D0943
:102BF00050934E091F910F91FF90EF900895EF921F
:102C0000FF920F931F9380912C0983FD6AC08091DE
:102C10002D0981FF66C08D7F80932D098091120957
:102C2000882359F48DED99E06FE041E00E94A213F2
:102C30008DED99E064E00E945E138AED92E00E94BF
:102C4000BE4C0E9421597B018C010E947C0F0E9486
:102C50000B4D8AED92E00E94804F882361F40E9420
:102C600021596E197F09800B910B683C7105810514
:102C7000910558F323C080912D098F7102C08F7187
:102C8000806C80932D0980912D098295869587709F
:102C900090E08630910534F080912C098064809317
:102CA0002C091FC00397ECF00E94952F8823C9F0D0
:102CB00080912D098F7180932D0913C080912D096A
:102CC000982F9295969597709F5F9770292F2295D0
:102CD000220F207E8F71822B80932D09973079F2FD
:102CE000D2CF1F910F91FF90EF900895EF92FF9236
:102CF0000F931F938C018AEC98E060E071E040E054
:102D00000E94546C32EDE32E39E0F32EC701B80176
:102D10000E9443080CE519E0C80168EB71E00E94CD
:102D20004308C801B7010E942D08C8016DEB70E08F
:102D30000E94FE071F910F91FF90EF900895CF938F
:102D4000DF93EC018091E301882361F180912C09EC
:102D500085FF28C0CE0162E071E043E050E00E94B0
:102D60004A08009771F48AEC98E068EB71E040E063
:102D70000E94546C8823B1F089EE98E00E940665A9
:102D800011C0CE010E9476168AEC98E06CE579E0DD
:102D90000E94506C882331F08AEC98E06CE579E071
:102DA0000E942D6CDF91CF9108957F928F929F9218
:102DB000AF92BF92CF92DF92EF92FF920F931F9349
:102DC000DF93CF93CDB7DEB76E970FB6F894DEBF23
:102DD0000FBECDBF782E4A015B018091E3018823AD
:102DE00009F44BC1CB01BA0120E831E541E050E0E4
:102DF0000E94B978CA01B9014CE559E02AE030E0F7
:102E00000E94DD088CE599E00E94761680912C09DD
:102E100085FF33C18AEC98E060E071E040E00E94F9
:102E2000546C8AEC98E068EB71E040E00E94546CCE
:102E3000882351F48AEC98E068EB71E041E00E944D
:102E4000316C882309F419C11D821F821C821B82E8
:102E50008BE792E09A8389838E010B5F1F4F4CE5CD
:102E6000C42E49E0D42EC801B60142E40E949E6AF5
:102E7000F82E4F89588D698D7A8DC8010E94256082
:102E8000FF2009F4FAC0C6016BEB70E00E9409084C
:102E90007720E1F5F60101900020E9F73197EC1970
:102EA000FD09EC0DFD1D8091F70B90E0BF014AE09C
:102EB00050E00E949F08C60169EB70E00E94FE0787
:102EC000F60101900020E9F73197EC19FD09EC0DAE
:102ED000FD1D8091F60B90E0BF014AE050E00E949A
:102EE0009F08C60167EB70E00E94FE07F6010190A3
:102EF0000020E9F73197EC19FD096091F80B70910A
:102F0000F90B80E090E0EC0DFD1D8DC084E078169B
:102F1000A9F480910B0990910C09A0910D09B09131
:102F20000E0920914309309144094091450950917F
:102F30004609281739074A075B0720F0CC24DD240F
:102F400076010CC0C0900B09D0900C09E0900D09DF
:102F5000F0900E09C21AD30AE40AF50A0CE519E04A
:102F6000F80101900020E9F73197E01BF10BE00F29
:102F7000F11FC701B601AF012AE030E00E94DD0871
:102F8000C80164EB70E00E94FE0763E0769EB0012A
:102F9000112465567F4FC8010E94FE07C80161EBEE
:102FA00070E00E94FE0782E0781699F0871510F015
:102FB00081E004C083E0781601F184E0781639F5E9
:102FC00060913F09709140098091410990914209B7
:102FD00008C060914F0970915009809151099091FA
:102FE0005209681579058A059B0570F4750164011D
:102FF000C61AD70AE80AF90A0AC08091D601C82E73
:10300000DD24EE24FF2403C0CC24DD247601ECE58E
:10301000F9E001900020E9F73197EC55F940E45AC6
:10302000F64FC701B601AF012AE030E00E94DD088B
:103030000CE519E0C8016FEA70E00E94FE07F80194
:1030400001900020E9F73197E01BF10BE00FF11F31
:10305000C501B401AF012AE030E00E94DD08C801DB
:103060006BEA70E00E94FE07CE010196B8010E9453
:10307000F96CCE0105960E948D626E960FB6F8949B
:10308000DEBF0FBECDBFCF91DF911F910F91FF909B
:10309000EF90DF90CF90BF90AF909F908F907F90F8
:1030A00008950E940F2C0E94822C0E946F33089575
:1030B0002F923F924F925F926F927F928F929F9248
:1030C000AF92BF92CF92DF92EF92FF920F931F9336
:1030D000DF93CF9300D000D0CDB7DEB72B013C01FA
:1030E0004B015C010894811C911CA11CB11C8091B6
:1030F000D0010E948E542091FE0B3091FF0B409125
:10310000000C5091010C421653066406750618F027
:103110007501640109C06C01EE24D7FCE094FE2C1B
:10312000C20ED31EE41EF51E0091EA016EEF262E9C
:1031300069E0362E9C01442737FD4095542F2983A2
:103140003A834B835C8361C0F10180819181A281CC
:10315000B3810097A105B10509F053C08481958121
:10316000892B09F44EC01681812F86958695869508
:1031700090E08654904F0E944E2290E0177002C05B
:10318000959587951A95E2F780FF4EC0002309F0C8
:103190004BC0F101C082D182E282F38284819581A9
:1031A000A0E0B0E029813A814B815C81820F931FBE
:1031B000A41FB51FC80ED91EEA1EFB1E80912C0944
:1031C00083FD1FC0886080932C098091D4018230D8
:1031D000C1F480910B0990910C09A0910D09B09157
:1031E0000E098093430990934409A0934509B09335
:1031F000460940923F0950924009609241097092FD
:10320000420948E050E0240E351E8091FD0990E00F
:1032100053E0880F991F5A95E1F78250964F281670
:10322000390608F491CF0BC0F10180829182A2820D
:10323000B3820894811C911CA11CB11CBFCF0F90BC
:103240000F900F900F90CF91DF911F910F91FF90F2
:10325000EF90DF90CF90BF90AF909F908F907F9036
:103260006F905F904F903F902F9008956F927F9254
:103270008F929F92AF92BF92CF92DF92EF92FF9286
:103280000F931F93DF93CF93CDB7DEB7C755D040D1
:103290000FB6F894DEBF0FBECDBFA82E0E94511806
:1032A0008A2D81508E3F28F4BE016F5F7F4F0E94B0
:1032B000B6329924BB24BEEF8B2EACE06A2E712C63
:1032C0006C0E7D1E41C0CB2CDD248FEFA81631F48F
:1032D000F2E0EF2EF12C012D112D12C0AA2009F4DD
:1032E0003FC0F301EC0DFD1D80810E941E540E9421
:1032F0004B547B018C01611571058105910519F114
:10330000E3E0D694C794EA95E1F7C6018D54904F57
:103310000E944E2290E02B2D277002C09595879534
:103320002A95E2F780FD0FC00E944A30FC01009709
:1033300051F01082118212821382F582E482B682E9
:10334000878299249394B39480913609B81608F42F
:10335000BACF992059F00E94122D0E94581806C029
:103360007CE3E72EF12C012D112DCACFC95ADF4F76
:103370000FB6F894DEBF0FBECDBFCF91DF911F9186
:103380000F91FF90EF90DF90CF90BF90AF909F9004
:103390008F907F906F900895CF92DF92EF92FF927F
:1033A0000F931F93CF93DF93D82E7A018B0160E0A8
:1033B0000E94D32BCD2DD0E0FE01E254F44FC0800B
:1033C0008091FD09C81608F041C0EC2DF0E083E0C3
:1033D000EE0FFF1F8A95E1F7E250F64F40815181D1
:1033E000628173814E155F056007710740F59E018C
:1033F0002F5F3F4F80912E0990E082179307F9F0DD
:1034000080912F0990E082179307C9F0D092F60BB4
:1034100087818093F70BC701841B950B9093F90B61
:103420008093F80BE092FA0BF092FB0B0093FC0BED
:103430001093FD0B80E0B801A7010E94D5168C2DDA
:103440000E946530C254D44F8FEF8883DF91CF91B3
:103450001F910F91FF90EF90DF90CF9008958F9282
:103460009F92AF92BF92CF92DF92EF92FF920F9313
:103470001F93CF93DF935B016C0180912C0988240B
:103480008394882281FD09C082FD02C0EE2407C01A
:10349000EE248091D401813011F4EE24E394FF24D2
:1034A00049C00F2D10E0C8018B55904F0E944E224D
:1034B0009F2C990C990C990CC0E0D0E0082F10E0DB
:1034C000492D4C0FE42FF0E09F012F5F3F4F80917B
:1034D0002E0990E08217930741F180912F0990E027
:1034E0008217930711F1E254F44FE081EF3FE9F0C6
:1034F000F0E093E0EE0FFF1F9A95E1F7E250F64FF0
:103500008781833690F4882059F0EE2071F0C8014D
:103510000C2E02C0959587950A94E2F780FD05C0B0
:10352000842FB601A5010E94CC192196C830D1057F
:1035300039F6F39480913509F81608F4B2CFDF918B
:10354000CF911F910F91FF90EF90DF90CF90BF90A0
:10355000AF909F908F90089580912D0982958695C8
:10356000877009F04FC080912C0983FD4BC080917A
:10357000EA01882309F046C00E94122D20915809C3
:103580003091590940915A0950915B092115310533
:1035900041055105B9F02F553E4A4E4F5F4F261752
:1035A00037074807590770F41092580910925909C3
:1035B00010925A0910925B0980912C0980648093C3
:1035C0002C090895209154093091550940915609CC
:1035D00050915709211531054105510549F02F5EDC
:1035E000314F4F4F5F4F261737074807590750F4A1
:1035F0006093540970935509809356099093570925
:103600000E94B455089584B7877F84BF0E94CB2D54
:103610000E9464280E9482336CE370E080E090E0B6
:103620000E94BC528AE69EE00E9465530E94122DC1
:103630000E944C2D8091600088618093600081E23F
:1036400080936000809160008064809360000E949D
:10365000952F882321F080912D098F7104C08091CE
:103660002D098F71806280932D0980912D098D7FA6
:10367000816080932D090E94822C8FE080935309F2
:103680000895FF920F931F93DF93CF93CDB7DEB7CB
:10369000C755D0400FB6F894DEBF0FBECDBF8091A6
:1036A0005309882321F40E9484221092120982E097
:1036B0000E94FF22F82E082F10E086FF24C18FE021
:1036C0008093530981E00E94842280911209833003
:1036D00020F4813008F0D3C004C0833009F013C156
:1036E000C2C0C8018F7090708230910509F45AC031
:1036F0008430910509F494C0019709F004C1F7FEE4
:1037000030C08DE10E948A5A892B21F48FEF0E94EC
:103710003619F9C08EE10E948A5A892B69F080918E
:10372000FD0990E023E0880F991F2A95E1F7825068
:10373000964FEEEFF9E011C08AED92E060E00E9452
:1037400079268DED99E060E041E00E94A2138FE1BF
:1037500091E022C0158214823896E817F907D0F359
:10376000D2C08EEC92E060E00E9479268DED99E067
:1037700060E041E00E94A2138DE191E00E94BD2330
:103780006091B6017091B7018DED99E04AE050E08B
:103790000E94D25D85E191E00E94BD2381E080938B
:1037A0001209B1C0F7FE32C08FE10E948A5A892BFC
:1037B00071F488E299E061E00E9479268DED99E04C
:1037C00060E041E00E94A2138FE091E0E5CF8DE13F
:1037D0000E948A5A892BB9F48DED99E00E94E31377
:1037E000609158097091590980915A0990915B092B
:1037F0000E944C2D8DED99E060E041E00E94A21303
:1038000088E091E0C9CF0E94BD217DC08DED99E097
:103810000E94E31388EC92E00E94CD2382E0BFCFA8
:10382000F7FE0CC089EF90E060E00E940F2488EE64
:1038300090E061E00E940F2483E0B1CF20912D0938
:10384000822F86958695877090E060913509019664
:1038500070E00E94A6788770880F880F237E282B3F
:1038600020932D0950C00F7010700430110509F01D
:103870004AC0F7FE07C080911F090E9436191092B6
:10388000120941C080911F0990E06091FC0970E02D
:103890006F5F7F4F01960E94A67880931F0987ED86
:1038A00090E060E00E940F2480911F09882331F18D
:1038B0008150BE016F5F7F4F0E94B63285ED90E070
:1038C00061E00E940F248DED99E060E041E00E94EC
:1038D000A21360911F098DED99E070E04AE050E07D
:1038E0000E94235E82ED90E00E94BD238DED99E061
:1038F000BE016C5B7F4F0E94365E05C082EC90E09B
:1039000061E00E940F24C95ADF4F0FB6F894DEBF62
:103910000FBECDBFCF91DF911F910F91FF90089502
:103920002F923F924F925F926F927F928F929F92CF
:10393000AF92BF92CF92DF92EF92FF920F931F93BD
:10394000DF93CF93CDB7DEB7CF55D0400FB6F89405
:10395000DEBF0FBECDBF8091D10180932E09809133
:10396000E40180932F090E94122D4B015C010E94FB
:103970007C0F0E940B4D009721F082519D4F0E94B9
:10398000DC3FA895109211090E94411B80911B09F0
:1039900090911C09A0911D09B0911E0988159905E7
:1039A000AA05BB0509F4BAC480921B0990921C09B0
:1039B000A0921D09B0921E0980915309882319F025
:1039C00081508093530980911209882321F40E9429
:1039D000122D0E944C2D80912C0981FF10C08091E6
:1039E000240990912509A0912609B09127098816EC
:1039F0009906AA06BB0690F00E94CE270FC08091C0
:103A0000240990912509A0912609B09127098816CB
:103A10009906AA06BB0610F40E94DE2790912C0995
:103A20009695917080913009869581708917C9F0BB
:103A3000992349F080924F0990925009A092510920
:103A4000B092520905C082E0B501A4010E94D516CA
:103A500090912C099270809130098D7F892B8093F1
:103A600030098091D4018130B9F50E9448239091AA
:103A70002C0996959695917080913009869586953A
:103A80008170891749F1992349F080923F099092FA
:103A90004009A0924109B092420915C080913F09A6
:103AA00090914009A0914109B09142090A96A11D47
:103AB000B11D88159905AA05BB0528F481E0B5015B
:103AC000A4010E94D51690912C0994708091300920
:103AD0008B7F892B80933009C501B4012CE330E042
:103AE00040E050E00E94B97879018A01809117097D
:103AF00090911809A0911909B0911A09E816F906D0
:103B00000A071B0709F49FC0E0921709F0921809F1
:103B10000093190910931A09662455241E0108946C
:103B2000211C311C85C0862DB1010E94B632C10115
:103B3000B501A4010E940A32882309F478C07724D1
:103B4000462C43946FC0272D30E0A9014F5F5F4F93
:103B500080912E0990E08417950709F462C0809146
:103B60002F0990E08417950709F45BC00CE010E082
:103B70000C0F1D1F020F131FD8018C91882309F40D
:103B800050C053E0369527955A95E1F7C9018D54F9
:103B9000904F0E944E2290E0272D277002C09595ED
:103BA00087952A95E2F780FD3CC0F80180810E944C
:103BB0001E540E944B546B017C01898181FF1DC002
:103BC0001091D601212F30E040E050E0C701B6014E
:103BD0000E94677824E630E040E050E00E94B97827
:103BE000C901DA016C017D01143138F4FAE0CF1615
:103BF000D104E104F104A8F005C0C114D104E1042A
:103C0000F10479F00E944A30FC01009751F01082D3
:103C1000118212821382D582C48276824782552411
:103C20005394739480913609781608F48CCF63947A
:103C30008091FC09681608F476CF552021F0C50163
:103C4000B4010E94581880912C0983FF81C1809192
:103C5000FD09E82EFF2443E0EE0CFF1C4A95E1F736
:103C60008EEF99E0E80EF91EDD248C0129C0D80101
:103C700016968C911697682F70E0FB01E254F44F72
:103C8000E081EF3FB1F0F0E033E0EE0FFF1F3A9537
:103C9000E1F7E250F64F20813181428153818D91CD
:103CA0009D910D90BC91A02D281739074A075B07FD
:103CB00020F06254744FFB01D082085F1F4FD394F1
:103CC0000E151F05A0F2CC247EC08C2D90E0FC01C7
:103CD000E95CF64F20815C2C550C550C550CEE24FC
:103CE000FF24622E7724D52CDE0CED2DF0E09F0111
:103CF0002F5F3F4F80912E0990E08217930709F4C0
:103D000059C080912F0990E08217930709F452C09F
:103D1000E254F44F80818F3F09F44CC0082F10E02B
:103D200023E0000F111F2A95E1F70250164FD8012A
:103D30002D913D914D915C911397211531054105D0
:103D40005105A1F014968D919C911597A0E0B0E0DB
:103D5000820F931FA41FB51F88169906AA06BB06DB
:103D600028F08D2DB501A4010E94CC19C3010E2CA1
:103D700002C0959587950A94E2F780FD1BC0F80173
:103D8000208131814281538182169306A406B506B3
:103D900088F084819581A0E0B0E0820F931FA41F7A
:103DA000B51F88169906AA06BB0620F48D2D61E082
:103DB0000E94D32B0894E11CF11CF8E0EF16F104EB
:103DC00009F091CFC39480913509C81608F47DCFCE
:103DD0008091FD09082F10E001501040780193E018
:103DE000EE0CFF1C9A95E1F78EEF99E01EC0D7010B
:103DF00014968D919C911597009781F0A0E0B0E00A
:103E0000F7012081318142815381820F931FA41FCA
:103E1000B51F88169906AA06BB0618F0802F0E94C7
:103E200065300150104088EF9FEFE80EF91E9FEFBC
:103E30000F3F1907E1F6C501B4010E942F1A0E9435
:103E4000822C1092FE0B1092FF0B1092000C10921D
:103E5000010C6090EA018EEFC82E89E0D82E4BC08D
:103E6000D60116967C90169714968D919C91159775
:103E70007C0100E010E08D919D910D90BC91A02DF2
:103E8000E80EF91E0A1F1B1F8E149F04A006B10620
:103E900070F5872D86958695869590E08654904F8F
:103EA0000E944E2290E0B7E07B2202C09595879554
:103EB0007A94E2F780FF1BC06620C9F42091FE0BC4
:103EC0003091FF0B4091000C5091010CD801C701BB
:103ED000E216F3060407150710F4DA01C90180930E
:103EE000FE0B9093FF0BA093000CB093010CE8E045
:103EF000F0E0CE0EDF1E2091FD09822F90E003E05E
:103F0000880F991F0A95E1F78250964FC816D90677
:103F100008F4A6CF2223E1F40E940F2C0E94822CE9
:103F20000E946F3380912C09877F80932C098091A8
:103F3000D401823029F484E0B501A4010E94D51691
:103F40008091D10180932E098091E40180932F0903
:103F500080912E09882309F48CC01091D201009120
:103F6000D3018EE99FE06CE579E00E944A28309009
:103F70003609E0902E09CE2CDD24FF2461E070E0AC
:103F8000812F90E0A0E0B0E0A0968CAF9DAFAEAFE7
:103F9000BFAFA097402E55246624772462C02F2DF2
:103FA00030E0C616D70609F459C0D90113E0B6951A
:103FB000A7951A95E1F74F2D4770FD01E95CF64F83
:103FC000808190E0042E02C0959587950A94E2F7CF
:103FD00080FF44C0A45AB64F8C91992787FD9095D5
:103FE00002C0959587954A95E2F780FF37C0225425
:103FF000344FD9018C91E82FF0E0A3E0EE0FFF1FC2
:10400000AA95E1F7E250F64F208131814281538138
:10401000A0968CAD9DADAEADBFADA097820F931FA6
:10402000A41FB51F88169906AA06BB06B8F02C5324
:1040300030404040504084819581A0E0B0E0280F9E
:10404000391F4A1F5B1F240D351D461D571D28159E
:1040500039054A055B0510F061E007C0F3946F5F16
:104060007F4FF31408F49BCF60E08E2D81500E94A7
:10407000D32B80912F09882309F48CC01091E5017E
:104080000091E6018CEA9FE06CE579E00E944A2805
:1040900030903609E0902F09CE2CDD24FF2461E01A
:1040A00070E0812F90E0A0E0B0E06C968CAF9DAF07
:1040B000AEAFBFAF6C97402E55246624772462C004
:1040C0002F2D30E0C616D70609F459C0D90153E0A8
:1040D000B695A7955A95E1F74F2D4770FD01E95C1C
:1040E000F64F808190E0042E02C0959587950A9442
:1040F000E2F780FF44C0A45AB64F8C91992787FD00
:10410000909502C0959587954A95E2F780FF37C054
:104110002254344FD9018C91E82FF0E043E0EE0FA8
:10412000FF1F4A95E1F7E250F64F2081318142812D
:1041300053816C968CAD9DADAEADBFAD6C97820FCB
:10414000931FA41FB51F88169906AA06BB06B8F0D0
:104150002C5330404040504084819581A0E0B0E035
:10416000280F391F4A1F5B1F240D351D461D571D83
:10417000281539054A055B0510F061E007C0F39486
:104180006F5F7F4FF31408F49BCF60E08E2D81505A
:104190000E94D32BC501B4010E942F1A0E94822CC9
:1041A00080911209882389F4C501B40123E030E02D
:1041B00040E050E00E94B9789B01AC01265C3D4F85
:1041C00081E0F90160810E94C22580912C0986FF5F
:1041D00022C083FD20C010E03E010894611C711CC8
:1041E0003CE3C32ED12CE12CF12CC80CD91CEA1CC9
:1041F000FB1C0CC0812FB3010E94B632C301B70172
:10420000A6010E940A32882331F41F5F8091FC09C5
:10421000181780F380C08091D401823009F04BC020
:10422000C501B4012EE130E040E050E00E94B978D1
:104230006115710581059105F1F580910B0990914A
:104240000C09A0910D09B0910E092091130930912C
:1042500014094091150950911609281739074A0782
:104260005B0728F080E090E0A0E0B0E00CC0809117
:104270000B0990910C09A0910D09B0910E09821BB8
:10428000930BA40BB50B8093470990934809A09317
:104290004909B0934A0980910B0990910C09A091AA
:1042A0000D09B0910E098093130990931409A093FE
:1042B0001509B0931609C501B40123E831E541E0C1
:1042C00050E00E94B978611571058105910529F4C6
:1042D00080912D09816080932D090E9469158114B8
:1042E0009104A104B10491F0C501B40129E532E0C3
:1042F00040E050E00E94B978611571058105910593
:1043000029F480912D09826080932D090E94FF1568
:104310000E94AC1A03C00E94BD217DCFC15ADF4F5D
:104320000FB6F894DEBF0FBECDBFCF91DF911F91C6
:104330000F91FF90EF90DF90CF90BF90AF909F9044
:104340008F907F906F905F904F903F902F90089547
:104350009C01F999FECF32BD21BDF89A80B5089530
:104360009C01F999FECF1FBA32BD21BD60BD0FB6C9
:10437000F894FA9AF99A0FBE0895E091F809F0912D
:10438000F90909950895EF92FF920F931F93FC018D
:1043900020E030E040E050E070E038C090817901EA
:1043A0008A0184E0EE0CFF1C001F111F8A95D1F7D3
:1043B000892F80538A3030F4892F992787FD909573
:1043C000C09719C0892F8154863030F4892F9927DE
:1043D00087FD9095C7970FC0892F8156863028F0AA
:1043E00020E030E040E050E013C0892F992787FD9E
:1043F0009095875590409C01442737FD4095542F58
:104400002E0D3F1D401F511F7F5F3196761730F2F2
:10441000B901CA011F910F91FF90EF900895EF929B
:10442000FF920F931F93CF93DF93EC018B017A01DF
:1044300066E00E94C321611571058105910521F196
:104440000115110529F0F80160837183828393833C
:10445000CE01069666E00E94C321611571058105B3
:10446000910591F0E114F10429F0F7016083718363
:1044700082839383CE010C9664E00E94C321611570
:1044800071058105910511F460E070E0CB01DF91C9
:10449000CF911F910F91FF90EF9008959C01F99992
:1044A000FECF32BD21BDF89A80B50895FC0122E906
:1044B00039E089E0263B380711F440E009C0F9995A
:1044C000FECFC901019632BD21BDF89A40B59C01CD
:1044D0009081442331F0992349F0491739F43196FA
:1044E000E8CF80E0992319F481E0089580E00895F1
:1044F00008951092E0091092DF0986E292E090930D
:10450000DE098093DD0908951F93182F8091E60935
:10451000813059F4112329F08DED99E00E94D912D0
:1045200004C08DED99E00E94E1128091E609882394
:1045300091F48CE061E00E94DA59112319F0809126
:10454000DB0102C08091DC016FEF70E0681B710934
:104550008CE00E945B581F9108958091E6098823A2
:1045600051F48DE061E00E94DA596091DA018DE04A
:1045700070E00E945B580895EF92FF920F931F9393
:10458000CF93DF93E82E162F042FF22E662321F00F
:10459000623081F4222371F08E2D0E948A5A892B79
:1045A00011F000E024C0FF2011F480E001C080E899
:1045B000082B1DC0C0E0D0E08E2D0E948A5A892BA6
:1045C00081F4113031F0123061F483E0C83ED80735
:1045D00044F461E070E080E090E00E942F59219661
:1045E000EBCFFF2019F4C85ED3400CF00068802F99
:1045F000DF91CF911F910F91FF90EF9008950F934E
:104600001F93082F1091FA09107861E070E080E0A4
:1046100090E00E942F598FE10E948A5A892B21F441
:104620008FE1602F41E013C08EE10E948A5A892BEE
:1046300021F48EE1602F42E00AC08DE10E948A5A87
:10464000892B11F040E007C08DE1602F44E0212F5D
:104650000E94BC22482F8091FA0990E08F709070E0
:10466000242F30E0892B39F42F703070232B71F018
:10467000842F806406C02F703070232B39F4842F70
:1046800080624093FA091F910F910895842FF9CF0A
:104690008091D401813099F48BE00E948A5A40E0E5
:1046A0002091D50130E08217930709F041E0440FD3
:1046B000440F80912C098B7F842B80932C090895C3
:1046C0001F93182F843690F064E60E948678682F36
:1046D0008DED99E070E04AE050E00E94235E8DEDA0
:1046E00099E066E071E00E94365E02C08A30A0F078
:1046F000812F6AE00E9486780E948678692F8DED6E
:1047000099E070E04AE050E00E94235E8DED99E070
:1047100066E071E00E94365E812F6AE00E94867832
:10472000692F8DED99E070E04AE050E00E94235E31
:104730001F910895EF92FF920F931F938C019DEDAF
:10474000E92E99E0F92EC8016AE070E00E94A6788F
:10475000C7014AE050E00E94235EC8016AE070E0B1
:104760000E94A678BC01C7014AE050E00E94235E87
:104770001F910F91FF90EF900895CF93DF93EC017D
:1047800004C08DED99E00E94435DFE012196649185
:104790006623B9F7DF91CF9108950F931F93CF93BD
:1047A000DF93182F092F8DED99E060E040E00E9423
:1047B000A213212F302FC901EC0110E005C08CE5B8
:1047C00095E00E94BD232196688170E024E07595F4
:1047D00067952A95E1F78DED99E040E150E00E9460
:1047E000235E688170E06F7070708DED99E040E13C
:1047F00050E00E94235E143031F48DED99E060E0CA
:1048000041E00E94A2131F5F1630C9F685E595E0CE
:104810000E94BD23DF91CF911F910F9108950F93B7
:104820001F93CF93DF938C01462F8DED99E060E0CD
:104830000E94A213E80104C08DED99E00E94435D3F
:104840009E01201B822FFE01219664916623A1F711
:10485000992787FD9095C0E1D0E0C81BD90B05C012
:1048600086E895E00E94BD232197D7FFF9CFDF911D
:10487000CF911F910F910895EF92FF920F931F9385
:10488000CF93DF937C01BC0154E0660F771F5A95EC
:10489000E1F7645E7D4F8CE599E040E150E00E94D5
:1048A000C8538DED99E060E040E00E94A2138DEDC9
:1048B00099E06CE579E00E94365E8BE395E061E07B
:1048C0000E940F248DED99E060E041E00E94A21368
:1048D00084E1E816F10409F495C085E1E816F104D5
:1048E0001CF58CE0E816F10409F4A0C08DE0E81690
:1048F000F10454F4E114F10409F440C081E0E81635
:10490000F10409F005C141C081E1E816F10409F4A0
:10491000C9C083E1E816F10409F46BC08EE0E81623
:10492000F10409F0F5C024C08EE1E816F10409F4A1
:10493000D3C08FE1E816F1045CF48BE1E816F104D2
:1049400009F4B8C08CE1E816F10409F0E1C0B7C081
:1049500087E2E816F10409F455C089E2E816F1048B
:1049600009F46CC086E2E816F10409F0D1C041C038
:104970008DED99E068E071E00E94365EF701E15448
:10498000FE4F80810E946023DFC08091C001C82F4C
:10499000D0E0E097D7FD05C089E395E00E94BD23F4
:1049A00007C087E395E00E94BD23D095C195DF4FF6
:1049B000CE0164E070E00E94A6788DED99E04AE0B7
:1049C00050E00E94235E85E395E00E94BD23CE0166
:1049D00064E070E00E94A678BC0144E0660F771F97
:1049E0004A95E1F7681B790B09F061C082E395E015
:1049F0008CC080E395E00E94BD23F701E154FE4F97
:104A000060819BC0F701E154FE4F80818C3320F020
:104A10008EE295E00E94BD23F701E154FE4F6081D4
:104A200070E06C5370408DED99E08AC07091CC01BC
:104A300060E08091CB01680F711D2DC01091E901DC
:104A400000E08091E801080F111DC80164E670E0E4
:104A50000E9492788DED99E04AE050E00E94D25D8C
:104A60008CE295E00E94BD23C8016AE070E00E94DC
:104A70009278CB016AE070E00E949278BC018DEDE3
:104A800099E04AE050E00E94D25DC8016AE070E01F
:104A90000E949278BC018DED99E04AE050E00E94BE
:104AA000D25D59C08091D0010E948E54BC018DED21
:104AB00099E00DC00E94AD226091DA0105C081E04D
:104AC0000E9484226091DB018DED99E070E04AE064
:104AD00050E00E94235E3FC0809134098C3A31F44B
:104AE0008DED99E06DE20E94435D35C06091DD017E
:104AF00070E0660F771F660F771F8DED99E04AE033
:104B000050E00E94235E88E295E00E94BD2323C00E
:104B1000F701E351FB4FE491D701A154BE4FE130BF
:104B200059F48C91882319F481E295E002C084E263
:104B300095E00E94BD2308C06C918DED99E070E076
:104B40004AE050E00E94235E87E1E816F10419F480
:104B50008FE195E00EC0C7014397029740F086E2CF
:104B6000E816F10421F087E2E816F10421F48AE165
:104B700095E00E94BD23DF91CF911F910F91FF908F
:104B8000EF900895FF920F931F93482FF62E8DED0F
:104B900099E060E00E94A21380912D098695869588
:104BA000877019F481E595E012C08FE495E00E94CA
:104BB000BD2360912D096695669567708DED99E02E
:104BC00070E04AE050E00E94235E8DE495E00E9490
:104BD000BD2380912C0980FD06C081E495E061E051
:104BE0000E940F242EC0E0912D09E695E695E7700E
:104BF000F0E0E95CF64F008110E090912D09990FEB
:104C000098739F5F910F8091D101981721F400FD57
:104C10000EC06DE40DC08091E401981721F400FDF1
:104C200006C06EE405C000FD02C06FE501C06F2D37
:104C30008DED99E00E94435D1F5F183011F00695DD
:104C4000DCCF8CE395E00E94BD238DED99E06CE014
:104C500041E00E94A2138091EA01882329F08DEDA2
:104C600099E065E00E945E138DED99E06DE041E012
:104C70000E94A21380912C0981FD06C082FF09C009
:104C80008091D401813029F48DED99E063E00E9498
:104C90005E138091D401823029F48DED99E066E0B5
:104CA0000E945E138DED99E06EE041E00E94A21338
:104CB00080912C0985FF05C08DED99E062E00E948E
:104CC0005E138DED99E06FE041E00E94A21360E079
:104CD00080912D0982958695877090E003970CF05E
:104CE00061E08DED99E00E945E131F910F91FF909E
:104CF0000895DF92EF92FF920F931F93CF93DF936C
:104D00007C01D62E8DED99E00E94E3138DED99E0A4
:104D100060E040E00E94A2138701C0E0D0E0DD2007
:104D200019F0F801638104C0F701EC0FFD1F6081E9
:104D30008DED99E070E04AE050E00E94235EC330C0
:104D400021F08EE595E00E94BD2321960150104090
:104D5000C430D10521F7DF91CF911F910F91FF90C2
:104D6000EF90DF9008952CE230E0F901E45AF64F1D
:104D7000D901A154BE4F8C918083215030408FEFD8
:104D80002F3F380791F788EC9FE06CE579E04DE222
:104D900050E020EB31E20E9483088091CE018F5FCA
:104DA0008093350990E063E0880F991F6A95E1F7D9
:104DB000809336099091D701917080912C098E7F54
:104DC000892B80932C0908950F931F93CF93DF9322
:104DD000EC010AEA82E00E94FF22482F50E09A018B
:104DE0002F7030702230310589F12430310509F4FB
:104DF00052C02130310509F09BC0209709F49BC0B7
:104E0000CE30D10509F497C0C832D10509F493C05A
:104E1000CC30D10509F48FC0CD30D10509F48BC059
:104E2000C932D10509F487C0CA32D10509F483C05B
:104E3000FE01E351FB4FE491DE01A154BE4F8C9182
:104E4000E81709F478C08F5F8C9375C0209709F438
:104E50006FC0CE30D10509F46BC0C832D10509F45A
:104E600067C0CC30D10509F463C0CD30D10509F459
:104E70005FC0C932D10509F45BC0CA32D10509F45B
:104E800057C0FE01E154FE4F9081992309F450C0B0
:104E9000915090834DC086FF4BC087FF0AC0809120
:104EA000EB01882311F00093EB010E94B32611E07F
:104EB00043C0C330D10539F48091C201882319F170
:104EC000CCE0D0E038C0CC30D10519F4CEE0D0E051
:104ED00032C0C932D10519F4CBE2D0E02CC0C531C3
:104EE000D10539F48091D4018130A1F0C7E1D0E03F
:104EF00022C0C231D10539F48091D101882351F407
:104F0000C5E1D0E018C0C532D10521F48091E4019B
:104F1000882309F1CE0101966DE270E00E94A67827
:104F2000EC018031910539F410E0C1E1D0E004C01A
:104F3000882309F44FCF10E0CE010E943C241123B6
:104F400009F448CF8DED99E00E949013DF91CF9145
:104F50001F910F910895C8E2D0E0EDCF80912C0908
:104F60008E7F80932C091092D7010E94B32608955A
:104F700080912C09816080932C0981E08093D70176
:104F80000E94B326089586E899E060E279E04CE05B
:104F900050E020EB31E20E948308089580912C09B3
:104FA0008D7F80932C09109224091092250910926C
:104FB0002609109227090E94C327089580912C0981
:104FC000826080932C090E94C327089547E050E037
:104FD00020EB31E20E9483080895FB01108E98E1D6
:104FE000899FC0011124825A954F48E150E020EB7F
:104FF00031E20E94830808958CE599E068EC7FE037
:105000004DE250E028EA31E20E94670820E030E0FB
:10501000F901E154FE4FD901A45AB64F8C91808317
:105020002F5F3F4F2D32310599F78091CE018F5F71
:105030008093350990E073E0880F991F7A95E1F726
:10504000809336099091D701917080912C098E7FC1
:10505000892B80932C0982E08093E701089580E2F8
:1050600099E066E879E04CE050E028EA31E20E94FD
:10507000670880912C0990912D09A0912E09B0917B
:105080002F098093300990933109A0933209B0938E
:10509000330908959C01CB01B90147E050E028EAAB
:1050A00031E20E9467080895FB01108E98E1899F04
:1050B000B0011124625A754FCF0148E150E028EA4F
:1050C00031E20E9467080895CF92DF92EF92FF923B
:1050D0000F931F93CF93DF936AEF70E080E090E02F
:1050E0000E942F59F999FECF88EC9FE092BD81BDB7
:1050F000F89A80B5883D59F4F999FECF84EF9FE086
:1051000092BD81BDF89A80B58A3A09F0DAC088EE7E
:1051100095E060E00E940F2489ED95E061E00E9437
:105120000F24FCE5EF2EF9E0FF2EF701119289E044
:10513000EC3DF807D9F7C0E0D0E000E010E1A801AD
:105140004C1B5D0B4138510514F040E850E0CE0196
:105150006CE579E020EB31E20E948308C058DF4F14
:1051600090E1C030D90759F70E94C32782E999E03E
:105170006AE071E049E050E020EB31E20E948308F0
:1051800086EB99E063E171E04AE050E020EB31E228
:105190000E94830886EE99E06DE171E040E250E004
:1051A00020EB31E20E94830886E19AE06DE371E032
:1051B0004AE150E020EB31E20E94830886E49AE065
:1051C00067E571E041E050E020EB31E20E948308A6
:1051D00083E580935C0910925F090EE51AE0C1E057
:1051E000D0E0ECE5CE2EE9E0DE2ECE016AE070E004
:1051F0000E94A678605D60935D09CE016AE070E070
:105200000E94A678805D80935E09F60101900020DF
:10521000E9F7EC55F940C8016CE579E0AF0120EB06
:1052200031E20E948308085E1F4F2196EFE00E399D
:105230001E07D9F610925C0980E380935D091092F5
:105240005E09C0E0D0E081E391E06CE579E048E1FF
:1052500050E09E0100E00E944A556896F5E0C03497
:10526000DF0789F78FEFF70181937F01F3E6EF16F0
:10527000F9E0FF06C1F78701075010408EE99FE073
:10528000B80147E050E020EB31E20E9483088AEB4E
:105290009FE0B80147E050E020EB31E20E94830834
:1052A00086E291E00E94A3540E94B32664EF71E06D
:1052B00080E090E00E942F59E091F809F091F909FF
:1052C00009950E94FC270E942F2880E00E94FF225F
:1052D000182F90E08F7090708130910519F004972D
:1052E00081F503C08CE290E021C089EC95E060E09C
:1052F0000E940F2460ED77E080E090E00E942F593B
:1053000088EB95E060E00E940F2488EA95E061E078
:105310000E940F2480E00E94FF22182F86FFFACF00
:105320008DED99E00E94E31380E090E00E94E42676
:105330008091EB01882329F0E091F809F091F909B7
:10534000099581E00E9484220E94AD22112309F078
:1053500040C089E995E060E00E940F248DED99E05E
:1053600062E041E00E94A21384E995E00E94BD231F
:105370001091CD01812F6AE00E948678682F605DD0
:105380008DED99E00E94435D8DED99E06EE20E9403
:10539000435D812F6AE00E948678692F605D8DED04
:1053A00099E00E94435D809134098A3129F08C3D57
:1053B00031F480E995E005C08CE895E002C088E80A
:1053C00095E00E94BD2368EE73E080E090E00E94CB
:1053D0002F59DF91CF911F910F91FF90EF90DF90A8
:1053E000CF900895AF92BF92DF92EF92FF920F930A
:1053F0001F93DF93CF93CDB7DEB728970FB6F894FE
:10540000DEBF0FBECDBF8C01D62E68E00E94C32147
:10541000292F3327442755272093E6029C01442750
:1054200055272093E702272F382F492F5527209300
:10543000E8026093E902A090B601B090B701C801FC
:10544000089664E00E94C3217093B7016093B6018F
:10545000A4E7EA2EA9E0FA2E1C821B8286E392E0E2
:105460009A838983FE82ED82F886EF82C8010C96CA
:1054700062E00E94C3212DB73EB72C5030400FB6DA
:10548000F8943EBF0FBE2DBFEDB7FEB731969E011B
:105490002F5F3F4FADB7BEB712963C932E93119737
:1054A0002BEF35E03383228322E939E035832483EF
:1054B00077836683D086118680E790E09387828722
:1054C0000E949D112DB73EB7245F3F4F0FB6F89451
:1054D0003EBF0FBE2DBF87EF95E0B70145EF55E00A
:1054E00028E732E20E94F54900E010E00E947C0FBC
:1054F0000E940B4D0F5F1F4F04361105B9F7B09294
:10550000B701A092B60128960FB6F894DEBF0FBE81
:10551000CDBFCF91DF911F910F91FF90EF90DF9062
:10552000BF90AF9008950F931F93DF93CF930F9287
:10553000CDB7DEB7FC01162F0181005180812AE032
:10554000829FC0011124080F92819053802F61E047
:1055500099830E94DA599981112319F0802F692FBC
:1055600003C061E0691B802F0E94575A0F90CF91B2
:10557000DF911F910F910895EF92FF920F931F9368
:10558000DC01CB0179018A01139A0E948859139892
:10559000C7010E9488591F910F91FF90EF900895C5
:1055A0002F923F924F925F926F927F928F929F9233
:1055B000AF92BF92CF92DF92EF92FF920F931F9321
:1055C000DF93CF9300D00F92CDB7DEB74B015C01D4
:1055D00079018A01DA01C901880F991FAA1FBB1F2F
:1055E0008E0D9F1DA01FB11F582E692E7A2ECB2E17
:1055F000D801C70145E0880F991FAA1FBB1F4A9514
:10560000D1F78E199F09A00BB10B8983292E3A2E51
:105610004B2EDD242FC0D501C4010A8004C0B695ED
:10562000A795979587950A94D2F780FF07C0652DB7
:10563000762D872D9C2DA801970106C0C801B701C2
:10564000252D362D472D5C2D0E94BC2A8A819B81F9
:1056500001979B838A838F5F9F4FE9F6C801B7014B
:105660002981322D432D542D0E94BC2AD394FFE072
:10567000DF1629F087E190E09B838A83CCCF0F90DF
:105680000F900F90CF91DF911F910F91FF90EF90AE
:10569000DF90CF90BF90AF909F908F907F906F9052
:1056A0005F904F903F902F9008951F93DF93CF937B
:1056B000CDB7DEB728970FB6F894DEBF0FBECDBFCB
:1056C000162FBE016F5F7F4FAE014B5F5F4F0E9491
:1056D0000F229C01112329F069817A818B819C81A1
:1056E00004C06D817E818F81988540E050E00E94EA
:1056F000D02A28960FB6F894DEBF0FBECDBFCF914B
:10570000DF911F9108951F93162F482F50E0F999AC
:10571000FECFCA01E3E095958795EA95E1F78F53AF
:10572000904F92BD81BDF89A80B590E09A012770A4
:10573000307002C0959587952A95E2F780FF31C0B9
:105740009A01220F331F240F351F63E0220F331FEE
:105750006A95E1F781E391E06CE579E048E150E09A
:105760000E94D85480915C09813041F460E01111AD
:1057700061E08DE599E00E94552B13C0823041F421
:1057800060E0111161E08DE599E00E94F22909C005
:10579000833039F460E0111161E08DE599E00E94F9
:1057A000932A1F910895782F282F30E0F901A3E064
:1057B000F595E795AA95E1F7E95CF64F277030700B
:1057C00081E090E002C0880F991F2A95E2F7282F08
:1057D0003081482F50E0662389F0832F90E08423A6
:1057E0009523892BD1F4322B308381E080933E09BD
:1057F000872F61E00E94832B81E00895832F90E042
:1058000084239523892B49F0209523232083872FF8
:1058100060E00E94832B8FEF089580E008951F932E
:1058200010E0812F60E00E94D32B1F5F1933C9F76E
:105830001F91089584E00E9439589C0183E02A3B1F
:10584000380718F020E030E02BC083E02D33380714
:1058500018F021E030E024C082E02E3D380718F037
:1058600022E030E01DC082E02239380718F023E042
:1058700030E016C082E02535380718F024E030E02B
:105880000FC082E02232380718F025E030E008C06F
:10589000275F314018F026E030E002C02FEF3FEFE5
:1058A000C901089580912C0984FD03C060E070E077
:1058B00027C0809134098C3D81F487E00E943958DB
:1058C000AA2797FDA095BA2FBC01CD010E94787739
:1058D00028E431EE40E851E40FC087E00E943958D7
:1058E000AA2797FDA095BA2FBC01CD010E94787719
:1058F00021E73DE346E351E40E9404780E944A77A1
:10590000CB010895EF92FF920F931F93CF93DF93F4
:1059100083E060E00E94575A0DE319E080912C0962
:1059200080FD02C060E002C0F8016081C7E0D0E005
:10593000E62EFF2486E160E00E94575AB7010C2E44
:1059400002C0759567950A94E2F7617085E10E943F
:10595000575A86E161E00E94575A2197FFEFCF3FE7
:10596000DF0741F70150104089E006331807B1F610
:10597000809134098C3D41F580913E09882321F1C5
:1059800087E160E00E94575A84E161E00E94575A23
:105990006091DD0170E0660F771F660F771F882723
:1059A00077FD8095982F0E942F5984E160E00E9436
:1059B000575A87E161E00E94575A83E061E00E94F4
:1059C000575A10923E0904C083E061E00E94575A82
:1059D0000E94F25228E330E040E050E00E94B978A3
:1059E000962F8091FB096817B1F06093FB09E62FB1
:1059F000E695E695E695F0E0E95CF64F608170E0AB
:105A0000892F877002C0759567958A95E2F7617056
:105A1000892F0E94832BDF91CF911F910F91FF90CF
:105A2000EF900895EF92FF920F931F930E94F2520E
:105A30007B018C016091C00170E080E090E024E87F
:105A400033E040E050E00E9467789B01AC01205CAD
:105A5000384A404050402E0D3F1D401F511FB90194
:105A6000CA011F910F91FF90EF9008950E94122D8F
:105A700020E831E541E050E00E94B9782D5F3F4FCA
:105A80004F4F5F4FCA01B90127E030E040E050E0DE
:105A90000E94B978862F0895EF92FF920F931F937B
:105AA0007B018C018DED99E060E040E00E94A21343
:105AB000C801B7010E94DF510E949A2384E895E053
:105AC0000E94BD23C801B7010E94D9510E949A23A8
:105AD00081E895E00E94BD230E94362D90E0880F5A
