:100000000C9457090C94A15A0C94D25A0C94035B8B
:100010000C9486090C9486090C9486090C94860924
:100020000C94120F0C9486090C9486090C94860982
:100030000C9486090C9486090C9486090C94860904
:100040000C9486090C9486090C94345B0C948609F4
:100050000C94185F0C94985F0C9486090C94860994
:100060000C9486090C9486090C9439780C948609B2
:100070000C94505F0C94D75F0C9486090C948609FD
:100080000C9486090C9486090C948609685C6D5C56
:10009000725C7C5CAA5C865C8E5C965CA05CC75CD7
:1000A000CA5CBD5CC15CE15CCE5CD25CD85CDC5CF3
:1000B0004E54502053796E63696E672E2E2E005D6C
:1000C0000D0A002C002C00222C002C22002C002CCD
:1000D000005B002E747874002F7472696767657214
:1000E0002F737072696E6B6C65722F776974682FED
:1000F0006B65792F006D616B65722E69667474741F
:100100002E636F6D00227D005265626F6F746564AF
:100110002E204465766963652049503A2000252EDB
:10012000005761746572206C6576656C207570642B
:10013000617465643A200045787465726E616C2064
:10014000495020757064617465643A20002C2076F3
:100150006F6C756D653A2000466C6F7720636F7524
:100160006E743A200064652D61637469766174650C
:1001700064006163746976617465642E005261691C
:100180006E2073656E736F7220005261696E206419
:10019000656C6179200025207761746572206C653B
:1001A00076656C2E002077697468200050726F6746
:1001B00072616D20004175746F6D61746963616C6B
:1001C0006C79207363686564756C656420004D61AB
:1001D0006E75616C6C79207363686564756C6564B9
:1001E000200020466C6F7720726174653A200020F1
:1001F0007365636F6E64732E00206D696E75746530
:1002000073200020636C6F7365642E204974207224
:10021000616E20666F72200053746174696F6E2086
:10022000007B2276616C756531223A2200302E20E7
:1002300054657374202831206D696E29002E2000CA
:100240002000486F6C6420423320746F2073746107
:10025000727400436C69636B20423320746F206CAE
:100260006973740052756E20612050726F677261FD
:100270006D3A00286C73776329002865697029003E
:1002800020286F73697029003A0028677769702900
:1002900000202000727300726400776C00666C00AE
:1002A0000022726573756C74223A24447D002272B8
:1002B0006573756C74223A24447D00244600222420
:1002C00046223A24447D007D002C227374617469B7
:1002D0006F6E73223A7B002C2273746174757322E3
:1002E0003A7B002C226F7074696F6E73223A7B0028
:1002F0002C2270726F6772616D73223A7B002273D9
:10030000657474696E6773223A7B00646179005D7D
:10031000002453002C005B007479706500656E64E6
:100320000073746172740068697374007400656EA0
:1003300000736964005D2C226E73746174696F6E62
:1003400073223A24447D002C0024440022736E2240
:100350003A5B00637077006E70770077746F00749B
:1003600074740069666B65790077746B6579006CED
:100370006F6300777370006A737000726500726457
:1003800000656E007262740072736E003C7363727B
:10039000697074207372633D2224452F686F6D6508
:1003A0002E6A73223E3C2F7363726970743E0A3C5E
:1003B0002F626F64793E0A3C2F68746D6C3E007644
:1003C0006172207665723D24442C697061733D240E
:1003D000443B3C2F7363726970743E0A003C2144B5
:1003E0004F43545950452068746D6C3E0A3C687404
:1003F0006D6C3E0A3C686561643E0A24463C2F6889
:100400006561643E0A3C626F64793E0A3C736372C4
:100410006970743E007D002C2269666B6579223A12
:1004200022245322002C2277746F223A7B24537D9E
:10043000005D002C005B24442C244C2C244C5D00DB
:10044000305D2C227073223A5B0024442C0022730E
:1004500062697473223A5B0022666C637274223A9A
:10046000244C2C22666C777274223A24442C00228D
:1004700063757272223A24442C00226465767422D9
:100480003A244C2C226E627264223A24442C226557
:100490006E223A24442C227264223A24442C227282
:1004A00073223A24442C2272647374223A244C2C12
:1004B000226C6F63223A222445222C2277746B65CA
:1004C00079223A222445222C2273756E7269736553
:1004D000223A24442C2273756E736574223A2444A4
:1004E0002C22656970223A244C2C226C7763223AC4
:1004F000244C2C226C737763223A244C2C226C728D
:10050000756E223A5B24442C24442C24442C244C25
:100510005D2C003C666F726D206E616D653D6F668F
:1005200020616374696F6E3D6375206D6574686FDB
:10053000643D6765743E3C7461626C652063656C04
:100540006C73706163696E673D223132223E3C7488
:10055000723E3C74643E3C623E4A61766153637213
:100560006970743C2F623E3A3C2F74643E3C746464
:100570003E3C696E70757420747970653D74657861
:10058000742073697A653D3430206D61786C656ED6
:100590006774683D34302076616C75653D22244572
:1005A00022206E616D653D6A73703E3C2F74643E1F
:1005B0003C2F74723E3C74723E3C74643E446566EB
:1005C00061756C743A3C2F74643E3C74643E2453F1
:1005D0003C2F74643E3C2F74723E3C74723E3C74FB
:1005E000643E3C623E576561746865723C2F623EB2
:1005F0003A3C2F74643E3C74643E3C696E70757482
:1006000020747970653D746578742073697A653DEE
:100610003430206D61786C656E6774683D343020CD
:1006200076616C75653D22244522206E616D653DC5
:100630007773703E3C2F74643E3C2F74723E3C7462
:10064000723E3C74643E44656661756C743A3C2F3E
:1006500074643E3C74643E24533C2F74643E3C2FCF
:1006600074723E3C74723E3C74643E3C623E506127
:100670007373776F72643C2F623E3A3C2F74643E12
:100680003C74643E3C696E70757420747970653D8D
:1006900070617373776F72642073697A653D33326A
:1006A000206E616D653D70773E203C696E7075749B
:1006B00020747970653D7375626D69743E3C2F746A
:1006C000643E3C2F74723E3C2F7461626C653E3C0C
:1006D0002F666F726D3E3C73637269707420737223
:1006E000633D68747470733A2F2F75692E6F70654F
:1006F0006E737072696E6B6C65722E636F6D2F6AAC
:10070000732F6861736865722E6A733E3C2F736342
:10071000726970743E005D7D00225D00225D2C00D8
:10072000245300244C5D2C2200244C2C0024445DD6
:100730002C5B0024442C005B24442C24442C2444B3
:100740002C5B00226E70726F6773223A24442C2255
:100750006E626F61726473223A24442C226D6E7053
:10076000223A24442C226D6E7374223A24442C22A3
:10077000706E73697A65223A24442C227064223A9E
:100780005B002C2264657870223A24442C226D652B
:100790007870223A24442C22687774223A24447DCB
:1007A000002C00222453223A2444006E616D65001F
:1007B0007069640070696400706964007577740022
:1007C00070696400736400737400736964007D0071
:1007D000222444223A7B227374223A24442C22732A
:1007E00064223A222453227D002C005D2C226D616C
:1007F000786C656E223A24447D002C00222453221A
:100800000022736E616D6573223A5B0073746E5FD4
:100810007370650073746E5F7365710073746E5FDF
:10082000646973006D61736F70320069676E6F7217
:10083000655F7261696E006D61736F70005D2C00A1
:100840002C00244400222446223A5B007077007B6F
:100850000024462446244624460D0A002446244605
:10086000244624460D0A0063766A636470637063ED
:10087000726D7075706A70636F6A6F73706A73639C
:100880006D63736A6E6A656A6C646C737563756AAE
:10089000610050726F6772616D20003C7363726912
:1008A00070743E77696E646F772E6C6F63617469E4
:1008B0006F6E3D222F223B3C2F7363726970743E32
:1008C0000A003C6D657461206E616D653D2276693C
:1008D0006577706F72742220636F6E74656E743DFD
:1008E0002277696474683D6465766963652D77690C
:1008F0006474682C696E697469616C2D7363616CD2
:10090000653D312E302C6D696E696D756D2D73638B
:10091000616C653D312E302C757365722D7363618A
:100920006C61626C653D6E6F223E0D0A00436F6E16
:1009300074656E742D547970653A206170706C69BD
:10094000636174696F6E2F6A736F6E0D0A436F6E09
:100950006E656374696F6E3A20636C6F73650D0A20
:10096000004163636573732D436F6E74726F6C2DFA
:10097000416C6C6F772D4F726967696E3A202A0D52
:100980000A00436F6E74656E742D547970653A2059
:10099000746578742F68746D6C0D0A004361636828
:1009A000652D436F6E74726F6C3A206D61782D61A6
:1009B00067653D302C206E6F2D63616368652C2068
:1009C0006E6F2D73746F72652C206D7573742D723C
:1009D0006576616C69646174650D0A004854545011
:1009E0002F312E3120323030204F4B0D0A00504F26
:1009F0005354202446245320485454502F312E3031
:100A00000D0A486F73743A2024530D0A2446245368
:100A10004163636570743A202A2F2A0D0A436F6E72
:100A200074656E742D4C656E6774683A2024440DAD
:100A30000A436F6E74656E742D547970653A206147
:100A400070706C69636174696F6E2F6A736F6E0D7D
:100A50000A0D0A24530000474554202446245320FD
:100A6000485454502F312E300D0A486F73743A2079
:100A700024530D0A24460D0A0D0A00504F535420EA
:100A80002446245320485454502F312E300D0A4808
:100A90006F73743A2024460D0A244624534163633D
:100AA0006570743A202A2F2A0D0A436F6E74656EA2
:100AB000742D4C656E6774683A2024440D0A436FA8
:100AC0006E74656E742D547970653A206170706C27
:100AD00069636174696F6E2F6A736F6E0D0A0D0A18
:100AE000245300004745542024462453204854549E
:100AF000502F312E300D0A486F73743A2024460D62
:100B00000A24460D0A0D0A004163636570743A2099
:100B1000746578742F68746D6C00416363657074DC
:100B20003A20746578742F68746D6C00E30004FAE1
:100B3000000100000001450000820000400020008C
:100B400001080006040001726400747A0073636196
:100B50006C65006569700073756E736574007375FC
:100B60006E72697365002F77656174686572002A1B
:100B70000024442E70793F6C6F633D2445266B65DD
:100B8000793D2445266677763D24442677746F3D6B
:100B9000245300207365630025004E6F0059657370
:100BA00000206D73002E002B003030003A002D0025
:100BB0002B000020202020002D44697361626C65A9
:100BC00064212D003A0045004D433A0020284D4154
:100BD0004329002D002E002D0020002020003A0087
:100BE000200020414300204C41002044430048574E
:100BF000207600204F70656E537072696E6B6C6565
:100C00007200486F6C6420423320746F20736176E9
:100C1000650042312F42323A2B2F2D2C2042333A9D
:100C20002D3E003D3D536574204F7074696F6E73A7
:100C30003D3D00506C6561736520576169742E2ECF
:100C40002E00526573657474696E672E2E2E002F08
:100C5000002F636D002A003F70773D24452673699D
:100C6000643D244426656E3D244426743D2444009E
:100C70004572726F7220436F64653A203078324457
:100C800000436F6E6E656374696E672E2E2E004D85
:100C90006F6E0054756500576564005468750046B2
:100CA0007269005361740053756E00004669726D7D
:100CB000776172652076657273696F6E54696D65D0
:100CC000207A6F6E652028474D54293A456E61623F
:100CD0006C65204E54502073796E633F456E61629F
:100CE0006C6520444843503F202020205374617499
:100CF00069632E6970313A2020202020537461747A
:100D000069632E6970323A20202020205374617468
:100D100069632E6970333A20202020205374617457
:100D200069632E6970343A20202020204761746561
:100D30007761792E6970313A2020202047617465EF
:100D40007761792E6970323A2020202047617465DE
:100D50007761792E6970333A2020202047617465CD
:100D60007761792E6970343A2020202048545450FD
:100D700020506F72743A2020202020202D2D2D2D00
:100D80002D2D2D2D2D2D2D2D2D2D2D2D48617264C8
:100D9000776172652076657273696F6E23206F6666
:100DA000206578702E20626F6172643A2D2D2D2D92
:100DB0002D2D2D2D2D2D2D2D2D2D2D2D53746E2EB4
:100DC0002064656C61792028736563294D617374B3
:100DD0006572203120284D617331293A4D6173319C
:100DE00020206F6E2061646A7573743A4D617331AF
:100DF000206F66662061646A7573743A53656E731A
:100E00006F7220747970653A202020204E6F726DC9
:100E1000616C6C79206F70656E3F2020576174653E
:100E200072696E67206C6576656C3A2044657669F8
:100E3000636520656E61626C65643F2049676E6F13
:100E400072652070617373776F72643F4465766971
:100E500063652049443A2020202020204C43442030
:100E6000636F6E74726173743A2020204C43442087
:100E70006272696768746E6573733A204C434420EC
:100E800064696D6D696E673A2020202044432062BA
:100E90006F6F73742074696D653A202057656174B3
:100EA00068657220616C676F2E3A20204E54502086
:100EB0007365727665722E6970313A204E545020F7
:100EC0007365727665722E6970323A204E545020E6
:100ED0007365727665722E6970333A204E545020D5
:100EE0007365727665722E6970343A20456E616260
:100EF0006C65206C6F6767696E673F204D61737426
:100F00006572203220284D617332293A4D61733267
:100F100020206F6E2061646A7573743A4D6173327C
:100F2000206F66662061646A7573743A4669726DF3
:100F300077617265206D696E6F723A2050756C73BF
:100F40006520726174653A20202020202D2D2D2DE2
:100F50002D2D2D2D2D2D2D2D2D2D2D2D417320722F
:100F6000656D6F7465206578742E3F20444E532064
:100F70007365727665722E6970313A20444E532043
:100F80007365727665722E6970323A20444E532032
:100F90007365727665722E6970333A20444E532021
:100FA0007365727665722E6970343A20537065638A
:100FB00069616C20526566726573683F4946545496
:100FC0005420456E61626C653A20466163746F72AD
:100FD000792072657365743F202000006C0101FF69
:100FE000FFFFFFFFFFFFFFFFFF000601FF38FFFFCE
:100FF000FF01FA0101FFFFFFFFFAFFFFFFFFFF0103
:1010000038FFFF00FFFF01FFFFFFFF01FF016677D1
:10101000760000747A0000006E74700000646863EB
:10102000700069703100006970320000697033002F
:101030000069703400006777310000677732000084
:10104000677733000067773400006870300000680D
:101050007031000068777600006578740000736571
:1010600071000073647400006D617300006D746F33
:101070006E006D746F6600757273000072736F009E
:1010800000776C00000064656E0000697061730099
:101090006465766964636F6E00006C697400006457
:1010A000696D0000627374000075777400006E74DF
:1010B0007031006E747032006E747033006E747034
:1010C00034006C670000006D617332006D746F6EE8
:1010D000326D746F663266776D0000667072300034
:1010E00066707231007265000000646E73310064D6
:1010F0006E733200646E733300646E733400736118
:101100007200006966650000726573657400696647
:101110006B65792E7478740073746E732E646174C9
:101120000077746F7074732E74787400000000017F
:101130000200000000000000040307060000000099
:101140000000000000000000000000000102040890
:101150001020408001020408102040800102040891
:101160001020408080402010080402010202020288
:10117000020202020404040404040404030303033B
:10118000030303030101010101010101000020002B
:1011900023002600290000002200250028002B0043
:1011A00000002100240027002A0000407A10F35A92
:1011B00000A0724E18090010A5D4E80000E8764897
:1011C000170000E40B54020000CA9A3B000000E143
:1011D000F505000080969800000040420F000000D6
:1011E000A08601000000102700000000E8030000B6
:1011F00000006400000000000A0000000000010080
:10120000000000002C76D888DC674F0823DFC1DFA0
:10121000AE59E1B1B796E5E3E453C63AE6519976A3
:1012200096E8E6C28426EB898C9B62ED407C6FFCDD
:10123000EFBC9C9F40F2BAA56FA5F490055A2AF71F
:101240005C936B6CF9676DC11BFCE0E40D47FEF528
:1012500020E6B500D0ED902E030094357705008090
:10126000841E080000204E0A000000C80C333333EF
:10127000330F986E12831141EF8D2114893BE6558F
:1012800016CFFEE6DB18D1844B381BF77C1D901D72
:10129000A4BBE424203284725E228100C9F124ECD4
:1012A000A1E53D27FC18931F4B561660D161112410
:1012B0001FBECFEFD0E4DEBFCDBF12E0A0E0B1E0B3
:1012C000E8EDFFEF00E00BBF02C007900D92A838D9
:1012D000B107D9F723E1A8E8B2E001C01D92AD340F
:1012E000B207E1F712E1CEEAD2E100E006C02297B0
:1012F0000109FE010BBF0E94E67FC43AD10780E0DE
:101300000807A9F70E94795E0C94D0790C9400002C
:10131000DC01ED91FC910190F081E02D09946F9238
:101320007F928F92AF92CF92EF920F93CF93DF93F2
:10133000CDB7DEB73C01FC01428723870487E586F1
:10134000C686A786808A8C85818B8D85828B8E85CB
:10135000838B8F85848B89E892E10E944161F30140
:10136000118667E270E089E892E10E94556160E0D1
:1013700070E089E892E10E94880989E892E10E9480
:10138000CE61811103C081E0F3018187F301818582
:10139000813051F487E2848380E1858382E0868313
:1013A000178288E0808713C0811111C061E0F301CA
:1013B00082850E94E25CF30183858F3F19F061E032
:1013C0000E94E25C61E0F30184850E94E25C88E0B7
:1013D000F301858BDF91CF910F91EF90CF90AF907C
:1013E0008F907F906F9008951F93CF93DF93EC01C0
:1013F000162F6C8189E892E10E944B618885812BD0
:10140000682F70E089E892E10E94880989E892E1FA
:10141000DF91CF911F910C94CE61FC01108660E0AA
:101420000C94F40928E0FC01208760E00C94F40996
:101430001F93CF93DF93EC01162F64600E94F40991
:1014400081E090E00E94D35B612F6B7FCE010E9410
:10145000F40982E390E0DF91CF911F910C94D35B6C
:10146000CF93DF93EC0160E08C850E941B5D81E0EF
:1014700090E00E94D35B61E08C850E941B5D81E05F
:1014800090E00E94D35B60E08C850E941B5D84E647
:1014900090E0DF91CF910C94D35BCF92DF92EF92EB
:1014A000FF920F931F93CF93DF93EC01C62E898594
:1014B000813039F4CE010E94F4096C2DCE010E94D6
:1014C000180A8985811127C000E010E0D12C7E0127
:1014D000E00EF11E61E0F70185850E94E25CB60135
:1014E000002E02C0759567950A94E2F76170F701C6
:1014F00085850E941B5D0F5F1F4F0430110539F772
:10150000CE01DF91CF911F910F91FF90EF90DF906F
:10151000CF900C94300ADF91CF911F910F91FF90E3
:10152000EF90DF90CF9008950F931F93CF93DF93A9
:10153000EC01162F042F8985813071F4607F642BB4
:10154000CE010E944D0A20E1129FC0011124602F9C
:10155000682BCE010E944D0A898581111CC0602F25
:101560008A850E941B5D8B858F3F19F060E00E9489
:101570001B5D612F70E084E0759567958A95E1F7B2
:10158000CE010E944D0A612FCE01DF91CF911F91B4
:101590000F910C944D0ADF91CF911F910F910895F7
:1015A00040E00C94940A61E00E94D00A80ED97E03C
:1015B0000C94D35B62E00E94D00A80ED97E00C941B
:1015C000D35BCF93DF93CDB7DEB728970FB6F894F0
:1015D000DEBF0FBECDBF28E0E1E8F1E0DE011196ED
:1015E00001900D922A95E1F7FC012185213021F42B
:1015F0002681241748F406C0211106C0FC01218D64
:10160000421710F04FEF420FFE013196E40FF11D2B
:10161000E40FF11D2081260F2068622F28960FB657
:10162000F894DEBF0FBECDBFDF91CF910C94D00AEE
:10163000FC016689262F2460268B6C600C94D00AEE
:10164000FC0166896E7F668B68600C94D00ACF922D
:10165000DF92EF92FF920F931F93CF93DF9300D00F
:10166000CDB7DEB78C01677088E0689FB0011124A8
:101670006064C80149835A830E94D00A4981C42EFC
:101680005A81D52EE12CF12CD6016D916D01D80136
:10169000ED91FC910190F081E02DC8010995BFEF1B
:1016A000EB1AFB0AE8E0EE16F10471F70F900F90C9
:1016B000DF91CF911F910F91FF90EF90DF90CF902E
:1016C000089541E00E94940A81E090E00895CF934C
:1016D000DF93EC018985813009F044C088E08D8B6F
:1016E00062E370E080E090E00E94AD5B6885CE012F
:1016F0000E94F40968EE73E080E090E00E94AD5B28
:1017000060E3CE010E944D0A84E991E10E94D35B1F
:1017100060E3CE010E944D0A84E991E10E94D35B0F
:1017200060E3CE010E944D0A86E990E00E94D35BFF
:1017300060E2CE010E944D0A6D896062CE010E9476
:10174000D00A84E08E8BCE010E94180BCE010E943D
:10175000D30A82E08F8B66E0CE010E94D00ACE01D0
:101760000E94DA0A8985811163C08D8988608D8B1A
:1017700082E0898F1A8E80E593EC0E94D35B60E053
:101780008A850E941B5D60E08C850E941B5D8B85B5
:101790008F3F19F060E00E941B5D6D8964FD1DC0E4
:1017A00063E0CE010E944D0A84E991E10E94D35B7F
:1017B00063E0CE010E944D0A84E991E10E94D35B6F
:1017C00063E0CE010E944D0A86E990E00E94D35B5F
:1017D00062E0CE010E944D0A16C06062CE010E94F6
:1017E000D00A84E991E10E94D35B6D896062CE01E9
:1017F0000E94D00A86E990E00E94D35B6D89606206
:10180000CE010E94D00A6D896062CE010E94D00A8A
:1018100084E08E8BCE010E94180BCE010E94D30A69
:1018200082E08F8B66E0CE01DF91CF910C94D00ADD
:10183000DF91CF91089581E090918A02911101C0CA
:1018400080E00895CF92DF92EF92FF920F931F9363
:10185000CF93DF93CBE8D2E07FE8E72E72E0F72E5C
:1018600000E010E040E020918A0230E00217130708
:101870006CF55A819B812091D70630E0C92ED12C7E
:101880002C153D05E1F48091D806851318C0F701A9
:1018900020812223A1F02091DA0630E0285031097E
:1018A0004091D90650E0542F4427240F351FE8817A
:1018B000F9814DED56E06DEC76E0099541E00F5F62
:1018C0001F4F2596F5E0EF0EF11CCDCF842FDF9151
:1018D000CF911F910F91FF90EF90DF90CF900895DF
:1018E000EF92FF920F931F93CF93DF93D82FF92E90
:1018F000E62E0E947E5B8B010E946C41C82F8111F5
:101900000DC00E94B6410E94DE3D0E947E5B601BBE
:10191000710B6033754780F3C0E0EDC00E947E5BC1
:101920008B010E947B3C882361F00E94B6410E949B
:10193000DE3D0E947E5B601B710B6033754788F350
:10194000EBCF1092EA101092EB101092EC10109264
:10195000ED108091B3028F5F8093B3029091EE10EF
:1019600091110BC048E058E0BA014093EE1050933B
:10197000EF106093F0107093F11090E045E350E0A9
:101980006EEE70E1906E0E94103C8CE0EDEDF6E0A2
:10199000DF011D928A95E9F7A9EEB6E06D2F7F2D44
:1019A000362F3D1BFB01EE2011F0208101C0249158
:1019B0006F5F7F4F2E3251F0222341F0862F8D1B17
:1019C000AD01480F511DFA012083EACFCD010196E8
:1019D0003C93DC01A30FB11D222319F0D62FF72E63
:1019E000DDCF1C9211961C92119721E012962C9338
:1019F000129713961C92139714962C93149783EBBB
:101A000096E0A81BA552A093DD068091B3028093B7
:101A1000DE062093DF062093E2068A2F90E00E94E4
:101A20005D3C0E947E5B8B018091EA10811163C056
:101A30000E947E5B601B710B6033754708F06CCFB2
:101A40000E94B6417C01009779F30E94DE3D892B0C
:101A500059F746E4E416F10438F38091D60685334D
:101A600019F78091D706803EF9F68091D8069091BB
:101A7000B3028913D9CF9091DE069813D5CF809108
:101A8000E0068F7009F048CFE091DD06F0E0E35208
:101A9000F94FC7018D54994F2081207C19F0DF0147
:101AA00012960BC03196DF01E817F90730F4FD01FB
:101AB00031962C912111F7CFDF019D01225F3F4F1D
:101AC0008217930708F4B0CF11962C9111971996AD
:101AD000EC911997213051F4E43041F4BD01665F77
:101AE0007F4F8AEE90E10E94D5449ECFF0E03A9677
:101AF000EA0FFB1FD1CF8C2FDF91CF911F910F9158
:101B0000FF90EF900895DC011696ED91FC911797E8
:101B10009F012F5F3F4F17963C932E93169760833C
:101B200081E090E0089504960C943C6D895B9D4F94
:101B30000C949863895B9D4F0C946F640F931F9373
:101B4000895B9D4F0E9401641F910F9108950F932F
:101B50001F93895B9D4F0E9439651F910F910895D6
:101B6000CF93DF931F92CDB7DEB7698341E050E09A
:101B7000BE016F5F7F4F04960E943C6D0F90DF9116
:101B8000CF910895DF92EF92FF920F931F93CF931F
:101B9000DF93CDB7DEB7A0970FB6F894DEBF0FBEC8
:101BA000CDBF7C01FB01D42E19821A82808187016E
:101BB000095D1D4F8F32C1F48181811115C0C801AB
:101BC0000E94426BB701C8010E941B66882359F12D
:101BD000DD2041F0F8018081807729F11093DE1239
:101BE0000093DD1281E020C021E0AF01B801CE01F9
:101BF00001960E944B6B8823B9F09981907799F0F8
:101C000090E2FE013196D80101900D929A95E1F78C
:101C1000DD2051F0F8019081907731F01093DE12C1
:101C20000093DD1201C080E0A0960FB6F894DEBFED
:101C30000FBECDBFDF91CF911F910F91FF90EF901D
:101C4000DF900895CF92DF92EF92FF920F931F9350
:101C500080916001823009F09FC00E947E5B0091FC
:101C6000B7101091B8102091B9103091BA106B01D3
:101C70007C01C01AD10AE20AF30A970186010233F5
:101C800011052105310508F487C000914404109125
:101C9000450420914604309147040F5F1F4F2F4F9A
:101CA0003F4F00934404109345042093460430931F
:101CB00047046093B7107093B8108093B910909355
:101CC000BA1000915404109155042091560430919B
:101CD0005704012B022B032B81F410924C04109219
:101CE0004D0410924E0410924F046093540470936C
:101CF0005504809356049093570400915404109116
:101D0000550420915604309157046B017C01C01A90
:101D1000D10AE20AF30A40E9C4164FE5D40641E0CD
:101D2000E406F10448F410924C0410924D04109211
:101D30004E0410924F0415C000914C0410914D04B4
:101D400020914E0430914F040130110521053105D9
:101D500041F4609358047093590480935A0490930B
:101D60005B046093500470935104809352049093E9
:101D7000530480914C0490914D04A0914E04B09175
:101D80004F040196A11DB11D80934C0490934D0406
:101D9000A0934E04B0934F041F910F91FF90EF90CA
:101DA000DF90CF90089584B7877F84BF0E94175734
:101DB0000E94E0540E94CF356CE370E080E090E038
:101DC0000E94084A80ED90E20E94F2490E945C4A1B
:101DD0000E94F14F8091600088618093600081E2F1
:101DE00080936000809160008064809360000E9416
:101DF00099569091D710882321F09F719093D71016
:101E000005C0892F8F7180628093D7108091D71081
:101E10008D7F81608093D7100E94354E8FE0809334
:101E2000B21008951F920F920FB60F9211240BB6A5
:101E30000F922F933F934F935F936F937F938F9363
:101E40009F93AF93BF93EF93FF9380913F048F5F76
:101E500080933F0480913F04803128F0E09140045A
:101E6000F09141040995FF91EF91BF91AF919F913E
:101E70008F917F916F915F914F913F912F910F9033
:101E80000BBE0F900FBE0F901F9018950F931F93CE
:101E90008091D71082958695877009F04CC080910B
:101EA0007601811148C00E945C4A0091AA101091ED
:101EB000AB102091AC103091AD100115110521052A
:101EC0003105B9F00F551E4A2E4F3F4F0617170721
:101ED0002807390770F41092AA101092AB101092D4
:101EE000AC101092AD108091D61080648093D61003
:101EF00022C00091AE101091AF102091B01030911F
:101F0000B110011511052105310549F00F5E114F82
:101F10002F4F3F4F061717072807390760F46093C4
:101F2000AE107093AF108093B0109093B1101F91CA
:101F30000F910C942D441F910F9108952F923F9271
:101F40004F925F926F927F928F929F92AF92BF92C9
:101F5000CF92DF92EF92FF920F931F93CF93DF9375
:101F600000D000D0CDB7DEB72B013C014B015C01A6
:101F70002FEF821A920AA20AB20A80915C010E9493
:101F80006235AC0180912D0C90912E0CA0912F0CFC
:101F9000B091300C481659066A067B0650F46A0167
:101FA000EE24D7FCE094FE2CC80ED91EEA1EFB1EC0
:101FB00002C0750164011091760131E7232E3CE0E7
:101FC000332E662757FD6095762F8091310E28E0DD
:101FD000829FC00111248F58934F2816390608F0AC
:101FE0006FC0F10180819181A281B381892B8A2BFD
:101FF0008B2B09F056C084819581892B09F451C03F
:102000000681802F90E023E0959587952A95E1F74A
:102010008B54904F49835A836B837C830E949E4BE1
:1020200090E0077002C0959587950A95E2F749817F
:102030005A816B817C8180FF38C0111136C0F1015B
:10204000C082D182E282F382C40ED51EE61EF71E44
:1020500084819581C80ED91EE11CF11C8091D61097
:1020600083FD1FC088608093D6108091600182300C
:10207000C1F48091440490914504A0914604B0912C
:1020800047048093BF109093C010A093C110B093E9
:10209000C2104092C3105092C4106092C51070924A
:1020A000C610F8E02F0E311C90CFF1018082918292
:1020B000A282B382FFEF8F1A9F0AAF0ABF0ACECF68
:1020C0000F900F900F900F90DF91CF911F910F9174
:1020D000FF90EF90DF90CF90BF90AF909F908F9048
:1020E0007F906F905F904F903F902F9008950E9447
:1020F000FB4E0E94354E0C9470358091310E28E0D5
:10210000829FC00111248F58934FE1E7FCE0E8174C
:10211000F90720F4158214823896F9CF0895FF92BA
:102120000F931F93CF93DF938C01EB01F12CF801F8
:1021300001900020E9F7BF018991615071094AE0DF
:1021400050E090E00E94707AF3E0FF1629F06FE90A
:1021500071E0C8010E940F7AF39484E0F812E7CF8F
:10216000DF91CF911F910F91FF9008952F923F9291
:102170004F925F926F927F928F929F92AF92BF9297
:10218000DF92EF92FF920F931F93CF93DF93CDB720
:10219000DEB7C159D1090FB6F894DEBF0FBECDBF6F
:1021A000D82E4A015B012801390180917C018D21E3
:1021B00009F4FEC11092B30320E030E04FEF50E08D
:1021C00063EB73E08EE091E10E945334109232048D
:1021D0008091B303882309F4EBC120907E013090F5
:1021E0007F0180E590E090937F0180937E0161E222
:1021F00072E084EB92E00E94E77924E0D21609F4C1
:10220000F1C02D1548F031E0D31609F48BC082E0FF
:10221000D81609F4CCC09AC1A0E1DA1609F476C147
:10222000B0E2DB1621F0E8E0DE1290C12FC168E1D8
:1022300072E084EB92E00E94DC7904EB12E0D801BA
:102240000D900020E9F7BD0161507109882D0E94B1
:10225000744B63E072E0C8010E94DC79F8010190E0
:102260000020E9F79F0121503109245B3240C3016E
:10227000B201C057DF4F2883C059D040CF56DF4F3F
:102280003883C159D0400E94527BC057DF4F28810C
:10229000C059D040CF56DF4F3881C159D0402C545F
:1022A0003D4FCB016CE370E00E94627FFB017C013B
:1022B0004AE050E0B901CF010E94707A69EF71E005
:1022C000C8010E94DC79D8010D900020E9F7BD011A
:1022D000615071094AE050E0C7010E94707A6FEEC8
:1022E00071E0C8010E94DC7980916001823009F0C0
:1022F0002DC162EE71E0C8010E94DC79F801019005
:102300000020E9F78F010150110960914804709194
:10231000490480914A0490914B0422E045E00E94D8
:102320006A7914C1EF2819F06EEC71E002C065EB18
:1023300071E084EB92E00E94DC796CEA71E084EB5E
:1023400092E00E94DC79BE016F5F7F4F882D0E9472
:10235000DD358091320E90E0A0E0B0E0881699065D
:10236000AA06BB0638F4BE0164587F4F84EB92E0A6
:102370000E940F7A65EA71E084EB92E00E94DC79BA
:10238000E4EBF2E0DF010D900020E9F78D01015050
:102390001109C301B2010E94527BDC01CB014AE06A
:1023A00050E0B8010E94707A66E971E0AAC0B2E01C
:1023B0008B169104A104B10419F46AE871E002C01B
:1023C0006DE771E084EB92E00E94DC79C301B20119
:1023D0000E94527B672B19F062E771E092C065E6BC
:1023E00071E08FC068E571E084EB92E00E94DC79D7
:1023F00004EB12E0F80101900020E9F7BF01615001
:1024000071094AE050E0C4010E94707A6DE471E005
:10241000C8010E94DC7960917501862F90E0A0E0F0
:10242000B0E06627782F892F9A2F20917401620FD0
:10243000711D811D911DA50194010E94327FD8015B
:102440000D900020E9F7FD0131977F0124E630E08F
:1024500040E050E00E94767F29013A014B015C0187
:102460004AE050E0B701C2010E94707A6FE971E062
:10247000C8010E940F7AD8010D900020E9F7BD0134
:10248000615071094AE050E0C4015EC081149104BA
:10249000A104B10489F067E371E084EB92E00E944B
:1024A000DC79B982AA829B828C82BE016F5F7F4FEA
:1024B00084EB92E00E948F1020E030E0A901C3017C
:1024C000B2010E94357C87FD41C061E271E084EB7E
:1024D00092E00E94DC79E4EBF2E0DF010D90002055
:1024E000E9F78D0101501109C301B2010E94527B2D
:1024F000DC01CB014AE050E0B8010E94707A6EE145
:1025000071E084EB92E00E94DC7920C068E071E029
:1025100084EB92E00E94DC7962E071E184EB92E06E
:102520000E948F1061EA71E084EB92E00E940F7AC2
:10253000E4EBF2E0DF010D900020E9F7BD0161500E
:1025400071094AE050E0C1010E94707A65E071E0D3
:1025500084EB92E00E94DC7961E083EA91E00E94E2
:10256000700C81110CC086E38093EA108CEA809392
:10257000EB1084EF8093EC1084E78093ED100BE573
:102580001AE424EB32E043EB53E065EF70E088EDB2
:1025900090E00E941E3D04E610E00E94B6410E94B9
:1025A000DE3D01501109C9F730927F0120927E0172
:1025B000CF56DF4F0FB6F894DEBF0FBECDBFDF9111
:1025C000CF911F910F91FF90EF90DF90BF90AF9050
:1025D0009F908F907F906F905F904F903F902F9043
:1025E00008957F928F929F92AF92BF92CF92DF9287
:1025F000EF92FF920F931F93CF93DF93CDB7DEB788
:10260000C359D1090FB6F894DEBF0FBECDBFD82E87
:10261000C62E0E9477108FEF8D0D8E3F20F5BE01E4
:102620006F5F7F4F0E94DD35CC2051F060916201D9
:1026300070E080E090E00E94857B8B019C0104C0EB
:1026400000E010E028EC32E44D2D50E041505109FB
:10265000662757FD6095762FA2E2EA2EA2E0FA2EB9
:1026600081E00E94B610F12CE12CEEEF7E2EF4E614
:102670008F2E912CA12CB12C8091CF10F81608F040
:10268000ACC00F2D10E0C80101962091D81030E0A9
:102690002817390709F49FC02091D91030E0281776
:1026A000390709F498C08FEFD81691F0DD20A9F012
:1026B000F801EE0FFF1F81E090E08C0F9D1FE80FE7
:1026C000F91F838594850E9428359B01AC0109C0C0
:1026D00022E030E040E050E004C02CE330E040E095
:1026E00050E0CC2049F0A0916201B0E00E94D37F7D
:1026F000A50194010E94767F211531054105510500
:1027000009F469C0C80163E0969587956A95E1F779
:102710008255904FC057DF4F2883C059D040CF56C5
:10272000DF4F3883C159D040CE56DF4F4883C2595E
:10273000D040CD56DF4F5883C359D0400E949E4BA6
:1027400090E06F2D677002C0959587956A95E2F7C6
:10275000C057DF4F2881C059D040CF56DF4F388156
:10276000C159D040CE56DF4F4881C259D040CD56D6
:10277000DF4F5881C359D04080FD2DC0C057DF4F77
:102780002883C059D040CF56DF4F3883C159D0403D
:10279000CE56DF4F4883C259D040CD56DF4F5883C5
:1027A000C359D0400E948335FC01C057DF4F2881B8
:1027B000C059D040CF56DF4F3881C159D040009723
:1027C00051F0108211821282138235832483F682A3
:1027D0007782EE24E394F3944FCFEE2021F00E9411
:1027E0005C4A0E949E0FCD56DF4F0FB6F894DEBFB5
:1027F0000FBECDBFDF91CF911F910F91FF90EF9052
:10280000DF90CF90BF90AF909F908F907F90089572
:102810000F931F93CF93DF93CDB7DEB7CF58D10976
:102820000FB6F894DEBF0FBECDBF8091B2108111FC
:1028300004C00E9448521092430482E00E94EE516C
:10284000182F86FF14C18FE08093B21081E00E94A0
:10285000485280914304833018F4813028F0C3C07B
:10286000833009F4B4C003C1012F0F70023009F4A2
:1028700048C0043009F487C0013009F0F8C017FFE0
:1028800020C08DE10E94515D892B29F460E08FEF1B
:102890000E94F112ECC08EE10E94515D892B71F40F
:1028A00060E086EF90E10E94335041E060E08EE806
:1028B0009FE00E94E10A8AE892E01EC00E947D101B
:1028C000D6C060E082E091E10E94335041E060E0D8
:1028D0008EE89FE00E94E10A88E892E00E949C4F07
:1028E00060917E0170917F014AE050E08EE89FE0A8
:1028F0000E94735E80E892E00E949C4F0093430424
:10290000B6C017FF37C08FE10E94515D892B71F46B
:1029100061E082EE90E10E94335041E060E08EE899
:102920009FE00E94E10A8AE792E01BC08DE10E94CD
:10293000515D892BE1F48EE89FE00E94D30A6091FB
:10294000AA107091AB108091AC109091AD100E94C4
:10295000F14F41E060E08EE89FE00E94E10A83E7EA
:1029600092E00E949C4F81E08093430480C00E94CB
:10297000774A7DC08EE89FE00E94D30A86E091E10D
:102980000E946E50BBCF17FF0CC060E084E692E05F
:102990000E94AD4F61E083E592E00E94AD4F83E07D
:1029A000E3CF2091D710822F86958695877090E08F
:1029B00001966091D01070E00E94627F8770880F4E
:1029C000880F922F937E982B9093D71050C0812F11
:1029D0008F70843009F04BC017FF08C060E0809111
:1029E00042040E94F1121092430441C080914204BB
:1029F00090E001966091320E70E06F5F7F4F0E9411
:102A0000627F8093420460E082E492E00E94AD4FD6
:102A100080914204882331F1BE016F5F7F4F815066
:102A20000E94DD3561E080E492E00E94AD4F41E01C
:102A300060E08EE89FE00E94E10A6091420470E04D
:102A40004AE050E08EE89FE00E945E5E8DE392E0F7
:102A50000E949C4FBE0164587F4F8EE89FE00E9409
:102A6000B25D05C061E08DE292E00E94AD4FC157BA
:102A7000DF4F0FB6F894DEBF0FBECDBFDF91CF9111
:102A80001F910F910895CF93DF93EC0140E063EB2A
:102A900071E084E694E00E94C20DBE018EE990E1EF
:102AA0000E94257A67E071E089EA9FE00E94257A1A
:102AB0006EE970E189EA9FE00E940F7A63ED70E0B1
:102AC00089EA9FE0DF91CF910C94DC798F929F92FD
:102AD000AF92BF92CF92DF92EF92FF920F931F932C
:102AE000CF93DF93CDB7DEB7A4970FB6F894DEBFD0
:102AF0000FBECDBF182F4A015B0180916F01882363
:102B000009F480C1CB01BA0120E831E541E050E091
:102B10000E94767FCA01B9012AE030E049EA5FE00D
:102B20000E94A37A89EA9FE00E9443158091D61003
:102B300085FF68C140E063EB71E084E694E00E94A9
:102B4000C20D40E067E071E084E694E00E94C20DAF
:102B5000882301F11D821E821C821B8285EC91E07C
:102B60009A8389836091DD127091DE1222E449EA32
:102B70005FE0CE0105960E944B6B082F8D8183FF8D
:102B800017C04D8D5E8D6F8D78A1CE0105960E9488
:102B900073680EC019821A8221E047E051E06BE8A9
:102BA00076E0CE0101960E94AF6C8111D3CF2AC18D
:102BB000002309F427C161ED70E089EA9FE00E94DB
:102BC000E77911113AC009EAE02E0FE0F02ED701A3
:102BD0000D900020E9F7BD01615071098091320C20
:102BE0004AE050E090E00E94707A6FEC70E0C7011C
:102BF0000E94DC79F70101900020E9F7BF016150E4
:102C000071098091310C4AE050E090E00E94707AA6
:102C10006DEC70E0C7010E94DC79D7010D900020B7
:102C2000E9F7AD01415051096091330C7091340CBA
:102C300080E090E02AE030E094C0143011F540913B
:102C4000440450914504609146047091470480917A
:102C5000BF109091C010A091C110B091C210841704
:102C60009507A607B70768F4C0904404D0904504C0
:102C7000E0904604F0904704C81AD90AEA0AFB0A11
:102C800003C0C12CD12C7601E9EAFFE0DF010D90F1
:102C90000020E9F7AD01415051092AE030E0C701B9
:102CA000B6010E94A37A6AEC70E089EA9FE00E9474
:102CB000DC79B3E01B9FB00111246F567D4F89EA88
:102CC0009FE00E94DC7967EC70E089EA9FE00E9457
:102CD000DC791230E1F018F4113029F035C01330EE
:102CE00051F1143089F58091C3109091C410A091D6
:102CF000C510B091C61088159905AA05BB0508F541
:102D000075016401C81AD90AEA0AFB0A1DC040917C
:102D1000B3105091B4106091B5107091B610481571
:102D200059056A057B0568F475016401C41AD50A62
:102D3000E60AF70A09C0C0906201D12CE12CF12CFF
:102D400003C0C12CD12C7601E9EAFFE0DF010D9030
:102D50000020E9F7AD01415051092AE030E0C701F8
:102D6000B6010E94A37A65EC70E089EA9FE00E94B8
:102D7000DC79B9EAEB2EBFE0FB2EF70101900020D1
:102D8000E9F7AF01415051092AE030E0C501B40133
:102D90000E94A37A809160018230D1F4111118C091
:102DA00063EC70E0C7010E94DC79D7010D90002030
:102DB000E9F78D01015011096091480470914904AF
:102DC00080914A0490914B0422E045E00E946A7988
:102DD0006FEB70E089EA9FE00E94DC79E9EAFFE0AE
:102DE000DF010D900020E9F7AD0141505109495A2A
:102DF0005F40BF01CE0105960E943C6DCE01059655
:102E00000E94426BA4960FB6F894DEBF0FBECDBFF2
:102E1000DF91CF911F910F91FF90EF90DF90CF90B6
:102E2000BF90AF909F908F9008954F925F926F9256
:102E30007F92AF92BF92CF92DF92EF92FF920F9369
:102E40001F93CF93DF93A82E6A017B0160E00E945D
:102E5000CC4E0A2D10E0E801C75CD34FB8808091BA
:102E6000310EB81608F095C040904C0450904D04B7
:102E700060904E0470904F0482E048165104610443
:102E8000710488F160915004709151048091520452
:102E900090915304209158043091590440915A0460
:102EA00050915B04621B730B840B950BA301920181
:102EB00021503109410951090E94767FCA01B901A7
:102EC0000E94837B9B01AC0160E070E68AE697E498
:102ED0000E94EA7A609348047093490480934A04FC
:102EE00090934B0408C01092480410924904109229
:102EF0004A0410924B0488E0B89EF0011124EF5868
:102F0000F34F40805180628073804C145D046E04E6
:102F10007F04D0F50F5F1F4F8091D81090E080178D
:102F2000910791F18091D91090E08017910761F19C
:102F3000A092310C87818093320CC60184199509C7
:102F40009093340C8093330CC092350CD092360C95
:102F5000E092370CF092380CB701A60180E00E9495
:102F600066156091330C7091340C80E090E00E9403
:102F7000837B8B019C014A2D50E060E070E0E12CE6
:102F8000F12C80E20E94B6108B2D0E9494358FEFB9
:102F90008883DF91CF911F910F91FF90EF90DF9089
:102FA000CF90BF90AF907F906F905F904F900895BB
:102FB0008F929F92AF92BF92CF92DF92EF92FF9249
:102FC0000F931F93CF93DF936B017C018091D610F9
:102FD000982F9170A92E81FD08C082FD02C0912C0E
:102FE00006C0809160018130D1F799249394812C9F
:102FF000B12C8091D010B81608F045C08B2D90E010
:103000008056904F0E949E4BC0E0D0E0082F10E009
:103010008C2F880D282F30E0A9014F5F5F4F609102
:10302000D81070E06417750731F16091D91070E025
:103030006417750701F1F901E75CF34FE081EF3F99
:10304000D1F098E0E99FF0011124EF58F34F9781F8
:10305000933688F4AA2059F0992069F098010C2E33
:1030600002C0359527950A94E2F720FD04C0B70108
:10307000A6010E9415172196C830D10549F6B394D0
:1030800088E0880EB6CFDF91CF911F910F91FF900E
:10309000EF90DF90CF90BF90AF909F908F9008956A
:1030A0000F931F93CF93DF93CDB7DEB7A0970FB6E3
:1030B000F894DEBF0FBECDBF8C0180916F018823D5
:1030C00089F18091D61085FF2DC043E050E065EB7B
:1030D00071E0C8010E942C7A892B71F440E067E00E
:1030E00071E084E694E00E94C20D8823D9F08BE859
:1030F00096E00E945C6A16C0C8010E9443151982BE
:103100001A8221E049EA5FE06BE876E0CE010196A1
:103110000E944B6B882331F069EA7FE08BE896E0F0
:103120000E94D06BA0960FB6F894DEBF0FBECDBF45
:10313000DF91CF911F910F9108958F929F92AF923F
:10314000BF92CF92DF92EF92FF9280914D01882340
:1031500009F449C08091D710982F92959695977051
:1031600009F041C09091D61093FD3DC080FF3BC057
:103170000E947D494B015C018091D7108E7F809326
:10318000D71080914304811105C061E080EB90E08D
:103190000E94AD4F0E948C336B017C01611571055B
:1031A0008105910501F10E944C49C701B6010E94B9
:1031B000592021E8821628EC92062FE4A2062AE381
:1031C000B20688F40E947D496138784C8F449A4356
:1031D00050F0FF90EF90DF90CF90BF90AF909F9016
:1031E0008F900C94774AFF90EF90DF90CF90BF9034
:1031F000AF909F908F9008951092690410928B0663
:1032000010928C0689E18093AE061092B1068DEC87
:1032100091E0909365048093640410925F0410928F
:103220005E048DEB91E090935D0480935C040895BF
:10323000CF92DF92EF92FF928091D61083FD67C00C
:103240008091D71081FF63C08D7F8093D7108091CC
:10325000430481110BC041E06FE08EE89FE00E94C3
:10326000E10A64E08EE89FE00E94610B86EF90E146
:103270000E94603B0E947E5B6B017C010E94B64114
:103280000E94DE3D86EF90E10E94473D811139C0EA
:103290000E947E5B6C197D098E099F09683C71054F
:1032A0008105910558F39091D710892F82958695C5
:1032B00087708F5F87709F718730F1F4906C909367
:1032C000D7108091D71082958695877090E08630D0
:1032D000910534F08091D61080648093D61017C089
:1032E0000397ACF00E949956882389F08091D710FB
:1032F0008F718093D7100BC08295880F807E892BA9
:1033000003C08091D7108F718093D710DACFFF90D0
:10331000EF90DF90CF9008952F923F924F925F925F
:103320006F927F928F929F92AF92BF92CF92DF92D5
:10333000EF92FF920F931F93CF93DF93CDB7DEB73A
:10334000C759D1090FB6F894DEBF0FBECDBF80912B
:103350005D018093D810809170018093D9100E94F4
:103360005C4A4B015C010E94B6410E94DE3D009721
:1033700021F08D54994F0E94E732A89510923F0496
:103380000E94081480913B0490913C04A0913D045C
:10339000B0913E0488159905AA05BB0509F497C5A7
:1033A00080923B0490923C04A0923D04B0923E0473
:1033B0008091B210882319F081508093B2108091CF
:1033C0004304811104C00E945C4A0E94F14F209185
:1033D000D6108091DE109091DF10A091E010B09196
:1033E000E11021FF08C088169906AA06BB0650F016
:1033F0000E948D4F07C088169906AA06BB0610F4D6
:103400000E94864F9091D6108091D210892781FF1B
:103410002CC091FF0FC08092B3109092B410A09274
:10342000B510B092B610E12CF12C00E010E020E8CD
:103430003FE30AC0B501A40182E00E946615E12CB9
:10344000F12C00E010E0980142E050E060E070E014
:1034500082E00E94B6109091D6109695917080915E
:10346000D21090FB81F98093D2108091600181305D
:1034700009F046C00E947C4A9091D6108091D210EB
:10348000892782FF3DC092FF0FC08092C3109092A7
:10349000C410A092C510B092C610E12CF12C00E02F
:1034A00010E020E83FE31AC08091C3109091C4104F
:1034B000A091C510B091C6100A96A11DB11D881526
:1034C0009905AA05BB0588F4B501A40181E00E9415
:1034D0006615E12CF12C00E010E0980141E050E08D
:1034E00060E070E082E00E94B6109091D61092FBEE
:1034F000992790F98091D21090FB82F98093D21095
:10350000C501B4010E94924A882351F00E947710AD
:103510008091320E882321F060E081E00E94F11258
:10352000C501B4012CE330E040E050E00E94767F1A
:103530008091370490913804A0913904B0913A04F5
:10354000281739074A075B0781F48091D61083FF5B
:103550002DC24091310EB8E04B9FA00111244F586D
:10356000534FE1E7FCE060E0C9C02093370430939B
:1035700038044093390450933A0410E0D12C44E6C7
:10358000442E512C612C712C8091320ED81608F0EB
:1035900090C0BE016F5F7F4F8D2D0E94DD35B5015C
:1035A000A401CE0101960E944B37882309F47FC005
:1035B000C12E10E0FF24F394FD0C8091CF1018175A
:1035C00008F057C0812F90E09C012F5F3F4F409142
:1035D000D81050E04217530709F449C04091D91060
:1035E00050E04217530709F442C01C01220C331C5F
:1035F00021E030E02C0F3D1F220E331ED1011B961F
:103600002D913C911C97232B91F123E09695879562
:103610002A95E1F78255904F0E949E4B90E0212F12
:10362000277002C0959587952A95E2F780FD1FC007
:10363000D1011B968D919C911C970E9428359B016E
:10364000AC01898181FFF6C300916201A02FB0E037
:103650000E94D37FA30192010E94767F043108F07B
:10366000E9C32A3031054105510508F0E9C31F5F60
:10367000A4CF1C2DCC20D9F0898181FF0AC0609194
:10368000620170E080E090E00E94857B8B019C01EC
:1036900004C000E010E028EC32E44D2D50E060E082
:1036A00070E0E12CF12C81E00E94B6101C2DD39427
:1036B0006BCF112309F449CFC501B4010E949E0FBD
:1036C00044CF268130E0275C334FD9019C919F3F46
:1036D000C9F008E0909FD0011124AF58B34FCD90AE
:1036E000DD90ED90FC9080819181A281B381C8161C
:1036F000D906EA06FB0630F438966F5FE417F50743
:1037000000F303C0D9016C93F7CF612C712C809129
:10371000D010781608F07CC0E72DF0E0E853FF4E9B
:10372000C080E12CF12CD12C562C5E0C852D90E024
:103730009C012F5F3F4F4091D81050E04217530734
:1037400009F45AC04091D91050E04217530709F4C8
:1037500053C0FC01E75CF34F00810F3F09F44CC0FC
:10376000B8E00B9F800111240F58134FF80180819E
:103770009181A281B3810097A105B10581F02481D7
:103780003581820F931FA11DB11D88169906AA06C7
:10379000BB0628F0B501A401852D0E941517C601AE
:1037A0000E2C02C0959587950A94E2F780FD24C0FF
:1037B000D8014D915D916D917C911397841695067A
:1037C000A606B706C8F014968D919C911597480FE0
:1037D000591F611D711D84169506A606B70660F473
:1037E00061E0852D0E94CC4E109254041092550435
:1037F0001092560410925704BFEFEB1AFB0AE8E050
:10380000EE16F10409F090CF7394F8E06F0E7FCFBD
:10381000E090310EF12C01E0E01AF108870183E01D
:10382000000F111F8A95E1F70F58134FC12CD12CAF
:103830003701C3018C199D09019601F1D801149635
:103840002D913C9115972115310571F08D919D9128
:103850000D90BC91A02D820F931FA11DB11D881644
:103860009906AA06BB0620F08E2D8C190E9494356D
:10387000BFEFCB1ADB0A08501109DBCFC501B40139
:103880000E94D8170E94354E10922D0C10922E0CCB
:1038900010922F0C1092300C7090760101E71CE012
:1038A0002091310EB8E02B9FC00111248F58934F07
:1038B0000817190780F5D80116966C90169714967C
:1038C0008D919C911597CD90DD90ED90FC90C80E58
:1038D000D91EE11CF11C8C149D04AE04BF04C0F47D
:1038E000862D90E0B3E095958795BA95E1F78B54D6
:1038F000904F0E949E4B90E0262D277002C0959518
:1039000087952A95E2F780FF03C0772009F4C7C2A4
:10391000085F1F4FC5CF211149C00E94FB4E0E9476
:10392000354E0E9470358091D610877F8093D610D7
:1039300080916001823091F5B501A40184E00E947C
:10394000661540914404509145046091460470917D
:1039500047048091BF109091C010A091C110B09108
:10396000C21084179507A607B70768F4409144046E
:10397000509145046091460470914704481B590BCF
:103980006A0B7B0B03C040E050E0BA01E12CF12C44
:1039900000E010E0980184E00E94B61080915D0183
:1039A0008093D810809170018093D9108091D810A5
:1039B000882309F4A2C080915E010E9462357C01D7
:1039C00080915F010E9462358C0169EA7FE089E99C
:1039D0009FE00E94974BE091CF10CF56DF4FE883D6
:1039E000C159D040F091D810C057DF4FF883C0596B
:1039F000D0406F2E712C20E030E0A701662757FDE4
:103A00006095762F6801EE24D7FCE094FE2C822F7F
:103A1000CF56DF4F1881C159D040211708F062C03E
:103A200089010F5F1F4FCA56DF4F19830883C6599C
:103A3000D0406016710609F44EC0F901A3E0F59577
:103A4000E795AA95E1F78770582EDF01A853BF4E7E
:103A50008C9190E0052C02C0959587950A94E2F729
:103A600080FF39C0E755F04F8081992787FD9095F9
:103A700002C0959587955A94E2F780FF2CC0F90112
:103A8000E75CF34FE08118E0E19FF0011124EF586B
:103A9000F34F2080318042805380DB01CA01820DC8
:103AA000931DA41DB51D88169906AA06BB0698F09D
:103AB0008481958192018101080F191F211D311DFB
:103AC000D901C8018C0D9D1DAE1DBF1D881599051E
:103AD000AA05BB0548F4CA56DF4F28813981C6596B
:103AE000D04095CF60E001C061E0C057DF4F8881D2
:103AF000C059D04081500E94CC4E8091D91088236B
:103B000009F4A1C0809171010E9462357C0180910D
:103B100072010E9462358C0169EA7FE087EA9FE0CA
:103B20000E94974B2091CF10CF56DF4F2883C15969
:103B3000D0403091D910C057DF4F3883C059D040A2
:103B4000632E712C20E030E0A701662757FD6095B9
:103B5000762F6801EE24D7FCE094FE2C822FCF56FE
:103B6000DF4F1881C159D040211708F061C0D90139
:103B70001196CA56DF4FB983A883C659D0406A163A
:103B80007B0609F44EC0F90193E0F595E7959A9507
:103B9000E1F78770582EDF01A853BF4E8C9190E05B
:103BA000052C02C0959587950A94E2F780FF39C0ED
:103BB000E755F04F8081992787FD909502C0959534
:103BC00087955A94E2F780FF2CC0F901E75CF34F28
:103BD000E081B8E0EB9FF0011124EF58F34F208013
:103BE000318042805380DB01CA01820D931DA41DE8
:103BF000B51D88169906AA06BB0698F084819581A2
:103C000092018101080F191F211D311DD901C80121
:103C10008C0D9D1DAE1DBF1D88159905AA05BB0500
:103C200048F4CA56DF4F28813981C659D04096CF13
:103C300060E001C061E0C057DF4F8881C059D040CB
:103C400081500E94CC4EC501B4010E94D8170E9439
:103C5000354E8091430481110FC0C501B40123E0AA
:103C600030E040E050E00E94767FFB01EB52FE4FD7
:103C7000608181E00E94AF508091D61086FF20C005
:103C800083FD1EC010E0750164012CE3C20ED11C3F
:103C9000E11CF11C8091320E181780F4BE016F5F99
:103CA0007F4F812F0E94DD35B701A601CE0101961D
:103CB0000E944B37811104C01F5FECCF0E94774AEE
:103CC00080916001823009F049C0C501B4012EE144
:103CD00030E040E050E00E94767F672B682B692B34
:103CE000E9F58091440490914504A0914604B09177
:103CF000470440913304509134046091350470912D
:103D00003604481759076A077B0768F48091440412
:103D100090914504A0914604B0914704841B950BF3
:103D2000A60BB70B03C080E090E0DC018093BB10D2
:103D30009093BC10A093BD10B093BE10809144042A
:103D400090914504A0914604B091470480933304B8
:103D500090933404A0933504B0933604C501B401A4
:103D600023E831E541E050E00E94767F672B682B25
:103D7000692B29F48091D71081608093D7100E941D
:103D80009D1881149104A104B10489F0C501B40106
:103D900029E532E040E050E00E94767F672B682BF7
:103DA000692B29F48091D71082608093D7100E94EC
:103DB00018190E94460FF090A910FF2041F18F2D95
:103DC0008C7019F1F3FE0AC06091620170E080E02E
:103DD00090E00E94857B8B019C0104C000E010E014
:103DE00020E83FEBF2FE09C04091E2105091E31051
:103DF0006091E4107091E51003C040E050E0BA011A
:103E0000E12CF12C88E00E94B6101092A91080914C
:103E10000601882309F45BC010920601E12CF12C05
:103E200000E010E0980140E050E0BA0180E10E941B
:103E3000B6104DC0211531054105510509F417CCC7
:103E4000CE56DF4F2883C259D040CD56DF4F38833E
:103E5000C359D040CC56DF4F4883C459D040CB56CD
:103E6000DF4F5883C559D0400E948335FC01CE56A0
:103E7000DF4F2881C259D040CD56DF4F3881C3591A
:103E8000D040009709F4F3CB108211821282138282
:103E9000358324831683F782CC24C394E8CB8091A6
:103EA0002D0C90912E0CA0912F0CB091300CC816B7
:103EB000D906EA06FB0610F46C017D01C0922D0CB8
:103EC000D0922E0CE0922F0CF092300C21CDC956DE
:103ED000DF4F0FB6F894DEBF0FBECDBFDF91CF919D
:103EE0001F910F91FF90EF90DF90CF90BF90AF9018
:103EF0009F908F907F906F905F904F903F902F900A
:103F000008956AE00E94427F20E1829F900D112473
:103F1000892F0895982F92959F708F702AE0929F15
:103F2000800D1124089589E892E10C94416188E69E
:103F300090E090932C0C80932B0C68E670E089E85D
:103F400092E10E94556160E089E892E10E9402617D
:103F500089E892E10E94CE618823E1F08FE690E04B
:103F600090932C0C80932B0C6FE670E089E892E123
:103F70000E94556160E089E892E10E94026189E84F
:103F800092E10E94CE61882329F010922C0C1092AD
:103F90002B0C089580E00895CF93DF93EC0180917E
:103FA0002B0C90912C0C8836910571F568E670E029
:103FB00089E892E10E94556160E089E892E10E94FF
:103FC000026188810E94811F8F77682F70E089E8E5
:103FD00092E10E94880989810E94811F682F89E8E7
:103FE00092E10E9402618A810E94811F682F89E804
:103FF00092E10E9402618B810E94811F682F89E8F3
:1040000092E10E94026133C08F36910509F04EC0E3
:104010006FE670E089E892E10E94556160E089E80E
:1040200092E10E94026188810E94811F8068682F4E
:1040300070E089E892E10E94880989810E94811FCD
:10404000682F89E892E10E9402618A810E94811FA3
:10405000682F89E892E10E9402618B810E94811F92
:104060008860682F70E089E892E10E9488098C815D
:104070000E94811F682F89E892E10E9402618D8170
:104080000E94811F682F89E892E10E9402618E815F
:104090008E510E94811F682F89E892E10E9402617F
:1040A00089E892E1DF91CF910C94CE61DF91CF91BD
:1040B0000895CF93DF93CDB7DEB727970FB6F89467
:1040C000DEBF0FBECDBFAE014F5F5F4F0E94764790
:1040D000CE0101960E94CC1F27960FB6F894DEBF42
:1040E0000FBECDBFDF91CF910895CF93DF93EC0149
:1040F00060912B0C70912C0C6115710509F44DC069
:1041000089E892E10E94556160E089E892E10E94AD
:10411000026189E892E10E94CE6160912B0C70915E
:104120002C0C47E050E089E892E10E94CB6189E8DD
:1041300092E10E94B2608F770E948A1F888389E88B
:1041400092E10E94B2600E948A1F898389E892E10D
:104150000E94B2608F730E948A1F8A8389E892E16D
:104160000E94B26087700E948A1F8B8389E892E167
:104170000E94B2600E948A1F8C8389E892E10E94AB
:10418000B2608F710E948A1F8D8389E892E10E943C
:10419000B2600E948A1F825E8E83DF91CF91089564
:1041A000CF93DF93CDB7DEB727970FB6F894DEBF76
:1041B0000FBECDBFCE0101960E947520CE010196A3
:1041C0000E94914827960FB6F894DEBF0FBECDBF70
:1041D000DF91CF91089580916204909163042091C2
:1041E00060043091610461E1821B930B0C94313BBC
:1041F00081E699E09F938F938CE999E09F938F9349
:1042000082E899E09F938F938CED99E09F938F9331
:104210008CE598E09F938F938CE594E09F938F9328
:104220000E9413598DB79EB70C960FB6F8949EBF97
:104230000FBE8DBF08950E94F82088ED91E09F93F6
:104240008F938AE08F9381E18F9382EF91E09F9328
:104250008F9389E08F9381EE8F9383E195E09F9315
:104260008F938CE594E09F938F930E9413598DB7A1
:104270009EB70C960FB6F8949EBF0FBE8DBF80E020
:1042800008950F931F93CF93DF931F92CDB7DEB79F
:104290002CE939E03F932F9321E639E03F932F93A8
:1042A0002DE239E03F932F932CED39E03F932F938C
:1042B00021E538E03F932F930CE514E01F930F9313
:1042C00089830E9413590FB6F894DEBF0FBECDBF8D
:1042D0008981882361F08FE498E09F938F931F93E7
:1042E0000F930E9413590F900F900F900F900F9003
:1042F000DF91CF911F910F9108958F929F92AF926E
:10430000BF92CF92DF92EF92FF920F931F93CF93C2
:10431000DF938091D61085FF77C081E00E94412114
:10432000812C912C3AEAE32E3FE0F32E40EDC42E8F
:1043300047E0D42ECCE5D4E059EEA52E57E0B52EBB
:104340008091CF10981608F049C0092D10E0C801DF
:1043500023E0959587952A95E1F78454904F0E9424
:104360009E4B90E0292D277002C0959587952A9540
:10437000E2F780FF31C088EF989E9001112448EF4A
:1043800050E069EA7FE088E191E10E94533488209F
:1043900059F0BF92AF92DF93CF930E9413590F90C1
:1043A0000F900F900F9002C088248394FF92EF9299
:1043B0008091A90F1F928F931F930F93DF92CF923B
:1043C000DF93CF930E9413598DB79EB70A960FB60D
:1043D000F8949EBF0FBE8DBF9394B2CF8EEC97E042
:1043E0009F938F938CE594E09F938F930E94135932
:1043F00061E070E080E090E00E94AD5B0F900F9074
:104400000F900F9080E001C080E2DF91CF911F916B
:104410000F91FF90EF90DF90CF90BF90AF909F9063
:104420008F900895EF92FF920F93CF93DF93DC016B
:10443000F90150E0002381F1CC918C2F8F7D09F49C
:104440003DC0CA3009F43AC051113AC08491DD2709
:10445000C7FDD09590E0C817D90779F431968491BB
:1044600081110CC0CD01019651E01196EC91ED3314
:1044700009F050E0F901DC0101C0F9011196DCCF2F
:104480008A30E1F051111CC09081891315C08181DF
:10449000882339F0319611968C91982F9F7D81F762
:1044A0000DC0CD01019651E01196EC91ED3309F06C
:1044B00050E0F901DC01EFCFF901EDCF5130C1F44B
:1044C000FB0150E0415051098E2F861B9D91292FF1
:1044D0002F7D19F4108251E00CC09A30D9F3963236
:1044E000C9F3282F30E024173507A4F79193ECCFB8
:1044F00080E0E114F10411F0F7015083DF91CF91D6
:104500000F91FF90EF900895AF92BF92CF92DF92FC
:10451000EF92FF920F93CF93DF931F92CDB7DEB749
:104520006C01E12CF12C01E020EC37E04FEF69EA5F
:104530007FE00E941222882349F189EA9FE00E94CD
:104540008B795C0197FD20C08091320E90E0A81617
:10455000B906D4F42CEB37E04FEF69EA7FE0C601EF
:104560000E941222882329F061E08091A90F8133F3
:1045700009F060E069830E947710698181E08A0D0B
:104580000E94F11281E003C081E101C080E10F903F
:10459000DF91CF910F91FF90EF90DF90CF90BF9080
:1045A000AF900895EF92FF920F93E12CF12C01E070
:1045B00028EB37E04FEF69EA7FE00E941222882360
:1045C000B9F089EA9FE00E948B798F3F2FEF920725
:1045D00019F40E94D93508C02091320E30E08217BC
:1045E000930724F40E94553681E003C081E101C0A5
:1045F00080E10F91FF90EF900895EF92FF920F935B
:10460000E12CF12C01E024EB37E04FEF69EA7FE089
:104610000E941222882399F089EA9FE00E948B79F8
:104620001816190654F42091320E30E082179307C1
:1046300024F40E94073681E003C081E101C080E1DB
:104640000F91FF90EF9008958F929F92AF92BF923B
:10465000CF92DF92EF92FF920F93CF93DF936C0193
:10466000E12CF12C01E021E333E04FEF69EA7FE038
:104670000E941222882309F479C089EA9FE00E94EF
:104680008B79EC0197FF02C081E171C08091CF105E
:1046900090E0C817D907C4F7E12CF12C01E02EE215
:1046A00033E04FEF69EA7FE0C6010E9412228823BF
:1046B00009F45CC089EA9FE00E948B79F82E0E9481
:1046C0005C4A4B015C01FF2009F449C0E12CF12C4C
:1046D00001E02CE233E04FEF69EA7FE0C6010E947F
:1046E0001222882309F442C089EA9FE00E94A97936
:1046F0006B017C01CB01019780329D4F28F6CE01E2
:1047000001962091D81030E02817390711F480E382
:104710002EC02091D91030E028173907C1F3FE01CF
:10472000E75CF34FE081EF3F39F088E0E89FF0016C
:104730001124EF58F34F03C00E948335FC013097DA
:1047400031F31082118212821382D582C482C68311
:1047500083E68783C501B4010E949E0F05C0AB01AB
:10476000BC018C2F0E94151781E001C080E1DF9110
:10477000CF910F91FF90EF90DF90CF90BF90AF90CF
:104780009F908F900895EF92FF920F93E12CF12C60
:1047900001E02BE033E04FEF69EA7FE00E94122254
:1047A000882331F089EA9FE00E94501881E001C01F
:1047B00080E10F91FF90EF900895CF92DF92EF92FA
:1047C000FF920F931F93CF93DF93EC01E12CF12C19
:1047D00001E028E833E04FEF69EA7FE00E9412220F
:1047E00081110E947D10E12CF12C01E024E833E0DE
:1047F0004FEF69EA7FE0CE010E941222882341F048
:1048000089EA9FE00E948B79181619060CF478C08B
:10481000E12CF12C01E021E833E04FEF69EA7FE081
:10482000CE010E941222882391F08091A90F81333A
:1048300039F48091D61080FD0AC00E94734F07C0E2
:10484000803329F48091D61080FD0E947D4FE12CA9
:10485000F12C01E02EE733E04FEF69EA7FE0CE0173
:104860000E941222882321F189EA9FE00E948B791D
:104870008C0118161906C4F40E945C4A6B017C0175
:1048800020E13EE0D8010E94CC7FC60ED71EE81E74
:10489000F91EC092DE10D092DF10E092E010F0928C
:1048A000E1100E94864F04C0009731F50E948D4FA1
:1048B000E12CF12C01E02BE733E04FEF69EA7FE0D8
:1048C000CE010E9412228823C9F08091A90F813362
:1048D00041F480917601811111C081E080937601CD
:1048E00008C0803359F480917601882339F0109202
:1048F00076010E944E4F02C081E109C081E007C0ED
:104900000E94F8200E94EB200E94774A81CFDF911D
:10491000CF911F910F91FF90EF90DF90CF9008956E
:1049200010925F0410925E0489EE96E09093610409
:1049300080936004909363048093620408958111CE
:104940000C94EB20809162049091630420916004A8
:104950003091610460E1821B930B0E94313B109205
:104960005F0410925E0489EE96E090936104809358
:10497000600490936304809362040895209162041C
:10498000309163048091600490916104821B930BC9
:1049900088589A4F08952F923F924F925F926F924C
:1049A0007F928F929F92AF92BF92CF92DF92EF92BF
:1049B000FF920F931F93CF93DF93CDB7DEB7A897E6
:1049C0000FB6F894DEBF0FBECDBF5C018091D6104C
:1049D00085FF01C1E12CF12C01E027E233E04FEF2C
:1049E00069EA7FE0C5010E9412228823C1F089EAAA
:1049F0009FE00E948B798C018E3621E0920710F0A7
:104A000081E138C10E945C4A20E831E541E050E094
:104A10000E94767F69014901801A910A45C0E12C04
:104A2000F12C01E021E233E04FEF69EA7FE0C501BC
:104A30000E941222811102C080E11CC189EA9FE01C
:104A40000E94A9792B013C01E12CF12C01E02DE120
:104A500033E04FEF69EA7FE0C5010E94122288230C
:104A600059F3A0E8CA2EA1E5DA2EEE24E394F12C46
:104A7000C301B201A70196010E94987F29013A0162
:104A8000490189EA9FE00E94A979A70196010E9445
:104A9000987F69012415350508F4B2CF241935092A
:104AA0002E36314008F0ACCF1DA21EA21FA218A6C0
:104AB000E12CF12C01E028E133E044E0BE016B5D24
:104AC0007F4FC5010E941222582E80E00E94412192
:104AD00086E193E09F938F938CE594E09F938F936F
:104AE0000E94135984010F900F900F900F90412C4A
:104AF00065EC662E61E0762E71E1A72E73E0B72E8D
:104B0000ECE5EE2EE4E0FE2EF4E18F2EF3E09F2E96
:104B1000C016D10608F449C04AE050E069EA7FE0D7
:104B2000C8010E94707A89EA9FE00E9443151982A9
:104B30001A8221E049EA5FE06BE876E0CE01019657
:104B40000E944B6B882371F11D821E821C821B8286
:104B50007A8269826091DD127091DE1221E049EA69
:104B60005FE0CE0105960E944B6B20E030E04FEFF6
:104B700050E069EA7FE0CE0105960E94C0671816F2
:104B800019062CF0CE0105960E94426B0BC01092C4
:104B9000A710E9EAFFE0CF012191222331F32C3263
:104BA000D1F71BC00F5F1F4FB3CF8FE093E09F93F0
:104BB0008F938CE594E09F938F930E94135961E04B
:104BC00070E080E090E00E94AD5B0F900F900F903E
:104BD0000F9080E04FC080E24DC09C012E5F3F4FA0
:104BE0001901552059F042E050E0B101CE018596FF
:104BF0000E942C7A892B09F0B8CF14C042E050E013
:104C0000B10182E192E00E942C7A892B09F4ADCFA8
:104C100042E050E0B10185E192E00E942C7A892BBC
:104C200009F4A3CF442051F09F928F92FF92EF920C
:104C30000E9413590F900F900F900F9089EA9FE0F8
:104C40009F938F93BF92AF92FF92EF920E9413595E
:104C50000E94BE240F900F900F900F900F900F9016
:104C6000803591051CF0442443947FCF80E00E945E
:104C70009F24F9CFA8960FB6F894DEBF0FBECDBF24
:104C8000DF91CF911F910F91FF90EF90DF90CF9028
:104C9000BF90AF909F908F907F906F905F904F905C
:104CA0003F902F90089590ED980F9A3060F09FE913
:104CB000980F963010F4875508959FEB980F963013
:104CC00020F487530895892F089580E00895DF9296
:104CD000EF92FF920F931F93CF93DF93EC018C0120
:104CE00088818823E1F08B32A1F0853299F48981A3
:104CF0000E945326D82E7E0182E0E80EF11C8A81A4
:104D00000E94532690E1D99E90011124822BE70145
:104D100001C080E2F80181938F012196E1CFF80173
:104D20001082DF91CF911F910F91FF90EF90DF9054
:104D300008952F923F924F925F926F927F928F923F
:104D40009F92AF92BF92CF92DF92EF92FF920F931A
:104D50001F93CF93DF9300D000D01F92CDB7DEB763
:104D60005C011BE4C12E11E0D12E812C912C412C31
:104D7000712C512C0FE6302E182D123309F483C0FC
:104D8000183109F480C0882D8F7E09F47CC01E3054
:104D900009F479C0183209F476C01B3209F473C0E3
:104DA000D6012C90F401E552F04F6490B1E06B1203
:104DB00002C0F601108239821A821B821C821D8277
:104DC0004AE050E0BE016E5F7F4FC4010E94707ADE
:104DD000E12CF12C00E09E012F5F3F4F4FEF69EA7D
:104DE0007FE0C5010E9412228823C1F1F1E06F1219
:104DF00003C0D6016C9232C089EA9FE00E94A97973
:104E00002DEE210F223030F02AED210F223010F04C
:104E1000113139F4CB010E944E35682F70E080E0EB
:104E200090E02091D1102C3D49F41E3139F4B2E0CC
:104E30009595879577956795BA95D1F797FD0CC0AD
:104E4000262D30E040E050E0261737074807590785
:104E50001CF0F601608302C044244394D6018C9177
:104E6000821589F08FEF810F823010F4552453940E
:104E700080EE810F843028F01F3129F47724739459
:104E800002C055245394BFEF8B1A9B0AEFEFCE1A42
:104E9000DE0AF3E38F16910409F06ECFE12CF12CBA
:104EA00001E02FE633E04FEF69EA7FE0C5010E94A1
:104EB00012228823F1F089EA9FE00E94672610926F
:104EC000D80F61EB79E089EA9FE00E9408358823DA
:104ED00081F0E9EAFFE0DF010D900020E9F7AD0184
:104EE000495A5F4061EB79E0CF010E94B47C77249E
:104EF00073941982FE0131967F0101E029E633E0C7
:104F00004FEF69EA7FE0C5010E9412228823F9F081
:104F100089EA9FE00E9467261092C00F61E47AE060
:104F200089EA9FE00E940835882321F1E9EAFFE041
:104F3000DF010D900020E9F7AD01495A5F4061E4BF
:104F40007AE0CF010E94B47C7724739413C08981E6
:104F5000882381F01092A90FE9EAFFE0DF010D90AC
:104F60000020E9F7AD01495A5F4061E47AE0CF01E2
:104F70000E94B47C1982FE0131967F0101E023E694
:104F800033E04FEF69EA7FE0C5010E9412228823D7
:104F900091F089EA9FE00E9467261092A710E9EA43
:104FA000FFE0DF010D900020E9F7AD01415051090C
:104FB000495A5F4011C089818823A9F01092A90F36
:104FC000E9EAFFE0DF010D900020E9F7AD01415073
:104FD0005109495A5F4001E020E030E0BF018EE016
:104FE00091E10E94F23380914D0181110DC0E12CBD
:104FF000F12C01E02FE533E04FEF69EA7FE0C501D6
:105000000E941222811141C0E12CF12C01E02BE51C
:1050100033E04FEF69EA7FE0C5010E941222882346
:10502000D1F089EA9FE00E9467261092A810E9EA71
:10503000FFE0DF010D900020E9F7AD01415051097B
:10504000495A5F4020E030E0BF0181E291E10E94D7
:10505000F23377247394411014C00E944E4F5520B0
:1050600029F08091D71081608093D710772059F074
:105070001092AE101092AF101092B0101092B110AA
:1050800002C081E113C081E011C089EA9FE00E9463
:10509000A9796B017C010E947710C701B6010E94BB
:1050A0004C49C701B6010E945920AECF0F900F9016
:1050B0000F900F900F90DF91CF911F910F91FF9064
:1050C000EF90DF90CF90BF90AF909F908F907F90A8
:1050D0006F905F904F903F902F900895CF92DF9206
:1050E000EF92FF920F93CF93DF93CDB7DEB7CF5FF1
:1050F000D1090FB6F894DEBF0FBECDBF6C01E12C15
:10510000F12C01E027E533E04FEF69EA7FE00E94F0
:1051100012228823C1F023E533E04FEFBE016F5F19
:105120007F4FC6010E941222882359F044E250E0CA
:10513000BE016F5F7F4F89EA9FE00E942C7A892B26
:1051400021F083E017C080E115C089EA9FE00E944A
:1051500067261092CC0FE9EAFFE0DF010D900020F6
:10516000E9F7AD01495A5F406DE879E0CF010E944F
:10517000B47C81E0C150DF4F0FB6F894DEBF0FBEA4
:10518000CDBFDF91CF910F91FF90EF90DF90CF9047
:105190000895EF92FF920F9320916401211118C09E
:1051A000E12CF12C01E02CE438E04FEF69EA7FE0DC
:1051B0000E941222882371F089EA9FE00E946726EC
:1051C00089EA9FE00E94A04B91E0811104C002C0D7
:1051D00091E001C090E0892F0F91FF90EF9008952A
:1051E000BF92CF92DF92EF92FF920F931F93CF93D4
:1051F000DF93EC01CB0169EA7FE00E94974BDF93DC
:10520000CF9385E498E09F938F938CE594E09F93F0
:105210008F930E9413590F900F900F900F900F9043
:105220000F90B12C02E418E0CCE5D4E080E4E82E45
:1052300088E0F82E8091D010B81638F5CB2CD12C00
:10524000F601E755F04F80811F928F931F930F93C4
:10525000DF93CF930E9413598091D01090E0019773
:105260000F900F900F900F900F900F90C816D906C7
:1052700051F0FF92EF92DF93CF930E9413590F905A
:105280000F900F900F90B394D5CF8DE398E09F933C
:105290008F938CE594E09F938F930E9413590F9006
:1052A0000F900F900F90DF91CF911F910F91FF9072
:1052B000EF90DF90CF90BF900895DF92EF92FF9232
:1052C0000F931F93CF93DF9369E97FE087E398E023
:1052D0000E94F02860EA7FE08BE298E00E94F028CC
:1052E00067EA7FE084E298E00E94F0286EEA7FE0BF
:1052F0008CE198E00E94F02865EB7FE084E198E083
:105300000E94F0288091D61085FF06C06CEB7FE0EC
:105310008CE098E00E94F02881E098E09F938F93C2
:105320008CE594E09F938F930E9413590F900F90F8
:105330000F900F90D12C0CEF17E0CCE5D4E09AEF52
:10534000E92E97E0F92E8091CF10D81698F569EAEA
:105350007FE08D2D0E94744B29EA3FE03F932F930D
:105360001F930F93DF93CF930E9413594D2D50E05D
:105370002091CF1030E0215031090F900F900F9005
:105380000F900F900F904217530751F0FF92EF923A
:10539000DF93CF930E9413590F900F900F900F90AF
:1053A0000E94BE24803591051CF480E00E949F2459
:1053B000D394C9CF1F9288E18F938BEE97E09F9390
:1053C0008F938CE594E09F938F930E9413590F90D5
:1053D0000F900F900F900F900F9061E070E080E0C1
:1053E00090E0DF91CF911F910F91FF90EF90DF90B0
:1053F0000C94AD5B81E00E9441210E945D2980E018
:1054000008958F929F92AF92BF92CF92DF92EF92C8
:10541000FF920F931F93CF93DF93CDB7DEB72A97F9
:105420000FB6F894DEBF0FBECDBF4C01162F6A0138
:10543000BE016F5F7F4FCA010E94974B19861A8683
:10544000188710E08091D010181728F5A12EB12CE4
:105450004AE050E0BE01675F7F4FC5010E94707A4D
:10546000E12CF12C00E09E01285F3F4F4FEF69EAED
:105470007FE0C4010E941222882359F089EA9FE04C
:105480000E948B79E1E0F0E0EC0FFD1FEA0DFB1DBF
:1054900080831F5FD7CFBE016F5F7F4FC6010E9421
:1054A000904B2A960FB6F894DEBF0FBECDBFDF91AA
:1054B000CF911F910F91FF90EF90DF90CF90BF9011
:1054C000AF909F908F900895CF92DF92EF92FF92CE
:1054D0000F931F93CF93DF93CDB7DEB72C970FB603
:1054E000F894DEBF0FBECDBF6C0183E789871A86B3
:1054F0001B861C8610E08091CF10181710F54AE02B
:1055000050E0BE01665F7F4F812F90E00E94707A6D
:10551000E12CF12C00E09E01275F3F4F4FEF69EA3D
:105520007FE0C6010E941222882349F089EA9FE0A9
:105530000E94672669EA7FE0812F0E94824B1F5FED
:10554000DACF49E95FE06DE6C6010E94012A40EA30
:105550005FE069E6C6010E94012A47EA5FE06EE665
:10556000C6010E94012A4EEA5FE064E6C6010E947D
:10557000012A45EB5FE061E7C6010E94012A8091A4
:10558000D61085FF06C04CEB5FE060E7C6010E94C5
:10559000012AE12CF12C01E02AEC37E04FEF69EA17
:1055A0007FE0C6010E941222882309F445C089EADF
:1055B0009FE00E948B79182F8091CF10811720F1E6
:1055C000E12CF12C01E027EC37E04FEF69EA7FE0B6
:1055D000C6010E941222882309F468C024EC37E037
:1055E0004EEF6AEA7FE0C6010E941222811126C0B6
:1055F0005DC031110BC0519131E0521343C0E81727
:10560000F907B9F7311102C081E151C0405342306E
:10561000D8F7E9EAFFE0DF010D900020E9F7AD01DE
:10562000B8EF1B9F90011124495A5F4000E0BF0171
:1056300088E191E10E94F23381E039C08091A90FA5
:1056400080538093A90F1092A0108330E9F4209129
:10565000AB0F20538091AA0F880F8056982F990F77
:10566000990F980F290F4091AC0F88E0E9E8F1E01D
:10567000DE01119601900D928A95E1F7FE013196B7
:10568000CE01099630E0BBCF843019F68AEA9FE05C
:105690000E946726EAEAFFE001900020E9F7EB5A52
:1056A000FF40E83FF10508F0AFCFB3CF80E12C9683
:1056B0000FB6F894DEBF0FBECDBFDF91CF911F9123
:1056C0000F91FF90EF90DF90CF900895CF93DF93ED
:1056D000DC011092A90FC9EADFE0ED91FC9111976E
:1056E000AE01495A5F409F018D919C9111970A9696
:1056F000E817F90758F481918D3231F08B3221F09F
:1057000090ED980F9A3010F48993EACFFA01E7559B
:10571000F04F10822F5F3F4F2D933C9389EA9FE01B
:105720000E94A979CB01DF91CF910895BF92CF92CA
:10573000DF92EF92FF920F931F93CF93DF9300D0EE
:10574000CDB7DEB78C010E9467261A8309837801E2
:1057500084E6E80EF11C09811A81F801808181112B
:1057600002C080E15AC00E151F05D8F743E050E093
:1057700068E172E0C8010E942C7A892B29F00F5F42
:105780001F4F1A830983E7CF0D5F1F4F1A830983C9
:105790000E947710C12CD12C2EEFB22E8091CF1009
:1057A000D81698F5CE0101960E94662B7C010097D1
:1057B00051F18D2D90E033E0969587953A95E1F77C
:1057C0008255904F0E949E4B282F30E08D2D877080
:1057D00002C0359527958A95E2F720FD14C00E94F6
:1057E00083358C01009779F0F801108211821282C2
:1057F0001382C7010E942835F80175836483B7823C
:10580000D682CC24C394D394C9CFCC2009F4A9CF99
:105810000E945C4A0E949E0F81E00F900F90DF91E2
:10582000CF911F910F91FF90EF90DF90CF90BF909D
:105830000895AF92BF92CF92DF92EF92FF920F93B3
:105840001F93CF93DF93CDB7DEB7C159D1090FB600
:10585000F894DEBF0FBECDBF5C01E12CF12C01E05E
:1058600020EB37E04FEF69EA7FE00E9412228823A5
:1058700009F46FC089EA9FE00E948B796C018FEF79
:10588000C816D80614F481E1F8C08091320E90E079
:10589000C816D906C4F7E12CF12C01E02BEA37E059
:1058A0004FEF69EA7FE0C5010E941222882371F060
:1058B00089EA9FE00E94672644E150E069EA7FE0C0
:1058C000CE0184589F4F0E943A7A18C062E978E06E
:1058D000CE0184589F4F0E94E779EFEFCE16DE0687
:1058E00021F48091320E90E001C0C60101964AE099
:1058F00050E0BE016C577F4F0E94707AC5010E9434
:105900006726C057DF4FB982A882C059D040F4E65D
:10591000AF0EB11CC057DF4F08811981C059D0406C
:10592000F80180818823A9F00A151B0590F443E053
:1059300050E06CE172E0C8010E942C7A892B59F08A
:105940000F5F1F4FC057DF4F19830883C059D040E6
:10595000E1CF80E192C00D5F1F4FC057DF4F198329
:105960000883C059D040CE0180579F4F0E94662BBC
:105970008983CE0180579F4F0E94662B8A83CE0178
:1059800080579F4F0E94662B8B83C057DF4F8881C3
:105990009981C059D0400196C057DF4F99838883C1
:1059A000C059D0408E010C5F1F4F5E018CE0A80EE5
:1059B000B11CCE0180579F4F0E94662BF801819346
:1059C00091938F01EA15FB05A1F7C057DF4F88813E
:1059D0009981C059D0400296C057DF4F9983888380
:1059E000C059D04010E08091CF10181778F4CE0144
:1059F00080579F4F0E94662BFE013196E10FF11DEB
:105A0000E10FF11D948783871F5FEDCFC057DF4FF4
:105A100088819981C059D0400296C057DF4F998341
:105A20008883C059D040183350F4FE013196E10FFD
:105A3000F11DE10FF11D148613861F5FF4CF8981DC
:105A40008073803339F48B81823020F0CE0102964E
:105A50000E944E38FFEFCF16DF0629F4CE010196E3
:105A60000E94EE3506C0BE016F5F7F4F8C2D0E94F5
:105A70004136882309F407CF81E0CF56DF4F0FB6B8
:105A8000F894DEBF0FBECDBFDF91CF911F910F9174
:105A9000FF90EF90DF90CF90BF90AF9008954F921E
:105AA0005F926F927F928F929F92AF92BF92CF92AE
:105AB000DF92EF92FF920F931F93CF93DF931F928A
:105AC000CDB7DEB75BE4E52E51E0F52E0EE010E138
:105AD00020E063EAC62E67E0D62E7CE5872E74E0D0
