:100000000C9480070C9448570C9479570C94AA5779
:100010000C94AB070C94AB070C94AB070C94AB0798
:100020000C940A150C94AB070C94AB070C94AB071B
:100030000C94AB070C94AB070C94AB070C94AB0778
:100040000C94AB070C94AB070C947B580C94AB0747
:100050000C945D5A0C94F35A0C94AB070C94AB07B8
:100060000C94AB070C94AB070C9439750C94AB074C
:100070000C94965A0C94325B0C94AB070C94AB071F
:100080000C94AB070C94AB070C94AB074E54502068
:1000900053796E63696E672E2E2E002020007273D6
:1000A00000726400776C00666C00005D0D0A002C25
:1000B00000222C002C22002C002C005B002E7478D7
:1000C0007400302E2054657374202831206D696EC1
:1000D00029002E20002000486F6C642042332074D9
:1000E0006F20737461727400436C69636B204233D8
:1000F00020746F206C6973740052756E20612050FB
:10010000726F6772616D3A00286C737763290028FB
:10011000656970290020286F73697029003A0028EA
:1001200067776970290077746F7074732E747874B0
:100130000073746E732E64617400667776000074C9
:100140007A0000006E74700000646863700069706B
:10015000310000697032000069703300006970344A
:10016000000067773100006777320000677733005F
:10017000006777340000687030000068703100005C
:10018000687776000065787400007365710000730D
:10019000647400006D617300006D746F6E006D74A7
:1001A0006F6600757273000072736F0000776C00E9
:1001B000000064656E0000697061730064657669B3
:1001C00064636F6E00006C6974000064696D000008
:1001D000627374000075777400006E747031006E85
:1001E000747032006E747033006E747034006C671B
:1001F0000000006D617332006D746F6E326D746F4C
:10020000663266776D00006670723000667072311B
:100210000072650000007265736574004669726D56
:10022000776172652076657273696F6E54696D656A
:10023000207A6F6E652028474D54293A456E6162D9
:100240006C65204E54502073796E633F456E616239
:100250006C6520444843503F202020205374617433
:1002600069632E6970313A20202020205374617414
:1002700069632E6970323A20202020205374617403
:1002800069632E6970333A202020202053746174F2
:1002900069632E6970343A202020202047617465FC
:1002A0007761792E6970313A20202020476174658A
:1002B0007761792E6970323A202020204761746579
:1002C0007761792E6970333A202020204761746568
:1002D0007761792E6970343A202020204854545098
:1002E00020506F72743A2020202020202D2D2D2D9B
:1002F0002D2D2D2D2D2D2D2D2D2D2D2D4861726463
:10030000776172652076657273696F6E23206F6600
:10031000206578702E20626F6172643A2D2D2D2D2C
:100320002D2D2D2D2D2D2D2D2D2D2D2D53746E2E4E
:100330002064656C61792028736563294D6173744D
:100340006572203120284D617331293A4D61733136
:1003500020206F6E2061646A7573743A4D61733149
:10036000206F66662061646A7573743A53656E73B4
:100370006F7220747970653A202020204E6F726D64
:10038000616C6C79206F70656E3F202057617465D9
:1003900072696E67206C6576656C3A204465766993
:1003A000636520656E61626C65643F2049676E6FAE
:1003B00072652070617373776F72643F446576690C
:1003C00063652049443A2020202020204C434420CB
:1003D000636F6E74726173743A2020204C43442022
:1003E0006272696768746E6573733A204C43442087
:1003F00064696D6D696E673A202020204443206255
:100400006F6F73742074696D653A2020576561744D
:1004100068657220616C676F2E3A20204E54502020
:100420007365727665722E6970313A204E54502091
:100430007365727665722E6970323A204E54502080
:100440007365727665722E6970333A204E5450206F
:100450007365727665722E6970343A20456E6162FA
:100460006C65206C6F6767696E673F204D617374C0
:100470006572203220284D617332293A4D61733202
:1004800020206F6E2061646A7573743A4D61733217
:10049000206F66662061646A7573743A4669726D8E
:1004A00077617265206D696E6F723A2050756C735A
:1004B0006520726174653A20202020202D2D2D2D7D
:1004C0002D2D2D2D2D2D2D2D2D2D2D2D41732072CA
:1004D000656D6F7465206578742E3F204661637486
:1004E0006F72792072657365743F202000006C0183
:1004F00001FFFFFFFFFFFFFFFFFFFF000601F738CF
:100500003C78FF01FA0101FFFFFFFFFAFFFFFFFF49
:10051000FF01383C7800FFFF01012073656300256F
:10052000004E6F0059657300206D73002E002B0084
:100530002B003030003A002D002B0000202020201E
:10054000002D44697361626C6564212D003A004599
:10055000004D433A0020284D414329002D002E0034
:100560004D6F6E00547565005765640054687500E2
:10057000467269005361740053756E00002D0020AF
:10058000002020003A00200020414300204C410080
:10059000204443004857207600204F70656E53700A
:1005A00072696E6B6C657200486F6C642042332018
:1005B000746F20736176650042312F42323A2B2FDF
:1005C0002D2C2042333A2D3E003D3D536574204F83
:1005D0007074696F6E733D3D00506C65617365208A
:1005E000576169742E2E2E00526573657474696E9E
:1005F000672E2E2E002A002F636D003F70773D245A
:1006000045267369643D244426656E3D2444267462
:100610003D244400436F6E6E656374696E672E2ED1
:100620002E0050726F6772616D200063766A63649A
:10063000706370637275706A70636F6A6F73706AEB
:1006400073636D63736A6E6A656A6C646C737563F9
:10065000756A61003C7363726970743E77696E6499
:100660006F772E6C6F636174696F6E3D222F223B32
:100670003C2F7363726970743E0A00227265737551
:100680006C74223A24447D0022726573756C742266
:100690003A24447D00244600222446223A24447D04
:1006A000007D002C2273746174696F6E73223A7B33
:1006B000002C22737461747573223A7B002C226FB4
:1006C0007074696F6E73223A7B002C2270726F67B0
:1006D00072616D73223A7B002273657474696E6770
:1006E00073223A7B00646179005D002453002C0082
:1006F0005B007479706500656E6400737461727478
:100700000068697374007400656E00736964005D4D
:100710002C226E73746174696F6E73223A24447D67
:10072000002C0024440022736E223A5B0063707731
:10073000006E70770077746F007474740077746B58
:100740006579006C6F6300777370006A7370007274
:100750006500726400656E007262740072736E00F0
:100760003C6D657461206E616D653D2276696577CB
:10077000706F72742220636F6E74656E743D2277A1
:10078000696474683D6465766963652D776964742E
:10079000682C696E697469616C2D7363616C653D69
:1007A000312E302C6D696E696D756D2D7363616CC2
:1007B000653D312E302C757365722D7363616C61EC
:1007C000626C653D6E6F223E0D0A003C7363726978
:1007D0007074207372633D2224452F686F6D652EFF
:1007E0006A73223E3C2F7363726970743E0A3C2F19
:1007F000626F64793E0A3C2F68746D6C3E007661CE
:1008000072207665723D24442C697061733D2444E6
:100810003B3C2F7363726970743E0A003C21444F65
:1008200043545950452068746D6C3E0A3C68746DA1
:100830006C3E0A3C686561643E0A24463C2F68654C
:1008400061643E0A3C626F64793E0A3C736372697C
:1008500070743E007D002C2277746F223A7B245303
:100860007D005D002C005B24442C244C2C244C5D2A
:1008700000305D2C227073223A5B0024442C00224D
:100880007362697473223A5B0022666C637274222D
:100890003A244C2C22666C777274223A24442C0041
:1008A0002263757272223A24442C002264657674A5
:1008B000223A244C2C226E627264223A24442C2266
:1008C000656E223A24442C227264223A24442C225B
:1008D0007273223A24442C2272647374223A244C98
:1008E0002C226C6F63223A222445222C2277746BCF
:1008F0006579223A222445222C2273756E7269731F
:1009000065223A24442C2273756E736574223A244E
:10091000442C22656970223A244C2C226C77632285
:100920003A244C2C226C737763223A244C2C226C90
:1009300072756E223A5B24442C24442C24442C24CB
:100940004C5D2C003C666F726D206E616D653D6F75
:100950006620616374696F6E3D6375206D657468B0
:100960006F643D6765743E3C7461626C65206365CD
:100970006C6C73706163696E673D223132223E3C5C
:1009800074723E3C74643E3C623E4A6176615363DD
:10099000726970743C2F623E3A3C2F74643E3C7422
:1009A000643E3C696E70757420747970653D746541
:1009B00078742073697A653D3430206D61786C6598
:1009C0006E6774683D34302076616C75653D222415
:1009D0004522206E616D653D6A73703E3C2F7464E4
:1009E0003E3C2F74723E3C74723E3C74643E4465DF
:1009F0006661756C743A3C2F74643E3C74643E24AA
:100A0000533C2F74643E3C2F74723E3C74723E3CE7
:100A100074643E3C623E576561746865723C2F6247
:100A20003E3A3C2F74643E3C74643E3C696E707583
:100A30007420747970653D746578742073697A6583
:100A40003D3430206D61786C656E6774683D34307C
:100A50002076616C75653D22244522206E616D65AE
:100A60003D7773703E3C2F74643E3C2F74723E3C65
:100A700074723E3C74643E44656661756C743A3CC5
:100A80002F74643E3C74643E24533C2F74643E3C9B
:100A90002F74723E3C74723E3C74643E3C623E5025
:100AA000617373776F72643C2F623E3A3C2F7464BB
:100AB0003E3C74643E3C696E707574207479706558
:100AC0003D70617373776F72642073697A653D332B
:100AD00032206E616D653D70773E203C696E7075A9
:100AE0007420747970653D7375626D69743E3C2F36
:100AF00074643E3C2F74723E3C2F7461626C653EA0
:100B00003C2F666F726D3E3C736372697074207324
:100B100072633D68747470733A2F2F75692E6F700D
:100B2000656E737072696E6B6C65722E636F6D2F7C
:100B30006A732F6861736865722E6A733E3C2F7307
:100B400063726970743E005D7D00225D00225D2C41
:100B500000245300244C5D2C2200244C2C002444FF
:100B60005D2C5B0024442C005B24442C24442C2466
:100B7000442C5B00226E70726F6773223A24442CFF
:100B8000226E626F61726473223A24442C226D6E6D
:100B900070223A24442C226D6E7374223A24442C21
:100BA00022706E73697A65223A24442C2270642282
:100BB0003A5B002C2264657870223A24442C226D22
:100BC000657870223A24442C22687774223A2444AF
:100BD0007D002C00222453223A2444006E616D656E
:100BE0000070696400706964007069640073640077
:100BF000737400736964007D00222444223A7B22CE
:100C00007374223A24442C227364223A22245322FD
:100C10007D002C005D2C226D61786C656E223A247B
:100C2000447D002C00222453220022736E616D65E6
:100C300073223A5B0073746E5F7370650073746E39
:100C40005F7365710073746E5F646973006D6173C7
:100C50006F70320069676E6F72655F7261696E00F6
:100C60006D61736F70005D2C002C00244400222401
:100C700046223A5B00707700485454502F312E3191
:100C800020323030204F4B0D0A00436F6E74656E7A
:100C9000742D547970653A206170706C6963617469
:100CA000696F6E2F6A736F6E0D0A436F6E6E6563A8
:100CB00074696F6E3A20636C6F73650D0A0041634F
:100CC000636573732D436F6E74726F6C2D416C6C22
:100CD0006F772D4F726967696E3A202A0D0A0043BB
:100CE000616368652D436F6E74726F6C3A206D613D
:100CF000782D6167653D302C206E6F2D63616368D0
:100D0000652C206E6F2D73746F72652C206D75735A
:100D1000742D726576616C69646174650D0A007B7F
:100D20000024462446244624460D0A00436F6E7470
:100D3000656E742D547970653A20746578742F68E7
:100D4000746D6C0D0A0024462446244624460D0A80
:100D50000000010800060400014500008200004078
:100D6000002000504F535420244620485454502F04
:100D7000312E300D0A486F73743A2024460D0A2430
:100D80004624534163636570743A202A2F2A0D0A62
:100D9000436F6E74656E742D4C656E6774683A208F
:100DA00024440D0A436F6E74656E742D547970651A
:100DB0003A206170706C69636174696F6E2F782D71
:100DC0007777772D666F726D2D75726C656E636FB8
:100DD0006465640D0A0D0A245300474554202446D7
:100DE000245320485454502F312E300D0A486F732D
:100DF000743A2024460D0A24460D0A0D0A00416368
:100E0000636570743A20746578742F68746D6C0033
:100E1000E30004FA0001000000012A002F77656159
:100E2000746865720024442E70793F6C6F633D24B2
:100E300045266B65793D2445266677763D24442614
:100E400077746F3D245300726400747A0073636199
:100E50006C65006569700073756E736574007375F9
:100E60006E726973650000002100240027002A00CB
:100E700000002200250028002B0000002000230095
:100E800026002900020202020202020204040404F3
:100E90000404040403030303030303030101010126
:100EA0000101010101020408102040800102040830
:100EB0001020408001020408102040808040201053
:100EC0000804020100000001020000000000000010
:100ED00004030706000000000000000000000000FE
:100EE000000000007C3C3E5E2B3D3F2F5B5D3B2CB9
:100EF0002A225C00890E52155522165C1F5EF9707D
:100F000011241FBECFEFD0E4DEBFCDBF12E0A0E0C2
:100F1000B1E0EEEAF1EF00E00BBF02C007900D92E6
:100F2000A838B107D9F71BBE10E1A8E8B2E001C0AC
:100F30001D92AC39B107E1F71EE0C0E0DFE004C06C
:100F40002297FE010E94D178C43FD107C9F70E94C1
:100F5000AC5C0C94F2070C940000FC0188279927E4
:100F6000E89421912032E9F3293010F02E30C8F3B3
:100F70002B3241F02D3239F4689404C00E94D50818
:100F8000820F911D219120532A30C0F31EF49095B9
:100F900081959F4F08951F93FC0199278827BC01D5
:100FA000E89411911032E9F3193010F01E30C8F3B3
:100FB0001B3251F01D3249F4689406C00E94C008EB
:100FC000610F711D811D911D119110531A30B0F3E5
:100FD0003EF490958095709561957F4F8F4F9F4F10
:100FE0001F910895F8940C94D578FB01DC0102C0A0
:100FF00005900D9241505040D8F70895FB01DC0157
:101000000D900020E9F7119705900D920020E1F76F
:101010000895FB01DC0105900D920020E1F7089591
:10102000FB01DC0104C08D910190801921F4415035
:101030005040C8F7881B990B0895FB01DC0102C0E2
:1010400001900D9241505040D8F70895DC0101C045
:101050006D9341505040E0F70895FB01DC010D9085
:101060000020E9F7119701900D920020E1F7089513
:10107000FC018191861721F08823D9F799270895DB
:101080003197CF010895FB01DC0101900D92002002
:10109000E1F70895FB01DC014150504030F08D91A3
:1010A0000190801919F40020B9F7881B990B089555
:1010B000FB01DC014150504048F001900D920020AE
:1010C000C9F701C01D9241505040E0F70895A0E0DB
:1010D000B0E0EDE6F8E00C94A2787C01EB018A0127
:1010E000690109C0CE012196F6010995F7018193A6
:1010F0007F010150104001151105A1F7CDB7DEB7F2
:10110000E8E00C94BE78A0E0B0E0E9E8F8E00C94E8
:10111000A278EC017B018A01690109C0CE01219608
:10112000F70161917F01F601099501501040011509
:101130001105A1F7CDB7DEB7E8E00C94BE78FB014E
:101140009F01E8944230C4F04532B4F44A3029F4A7
:1011500097FB1EF4909581959F4F642F77270E94EF
:101160003478805D8A330CF0895D8193CB010097E0
:10117000A1F716F45DE251931082C9010C940209A3
:10118000592F482F372F262F660F771F881F991F3B
:10119000660F771F881F991F620F731F841F951F8B
:1011A000660F771F881F991F08957AE0979F902DEB
:1011B000879F802D910D11240895FA01CF93FF93FD
:1011C000EF932230CCF02532BCF4C22F2C2F3327E2
:1011D00044275527FF93EF930E945B78EF91FF918F
:1011E000605D6A330CF0695D6193B901CA016050BA
:1011F00070408040904051F710828F919F91CF9125
:101200000C940209DC01FC01672F71917723E1F74F
:10121000329704C07C916D9370836291AE17BF07C3
:10122000C8F30895DF93CF9300D000D000D0CDB79E
:10123000DEB7DE011196ECE1F2E086E001900D925E
:101240008150E1F786E191E0EEEEF2E0DF019C01F2
:101250001D9221503040E1F780918802833019F4CB
:101260006EED72E003C0BE016F5F7F4F84E490E0DB
:1012700043E450E00E94FC4980918802833039F0B9
:101280008EEE92E0BE016F5F7F4F0E94FC5681E0C0
:10129000809318038093190386E080931A0380914A
:1012A000950290919602A0919702B0919802809336
:1012B0001C0390931D03A0931E03B0931F03809102
:1012C0008802833039F488E193E00C966EEC72E08A
:1012D0000E94045784E393E068EC72E00E94FC569D
:1012E000A4E0B4E0E0EBF1E002C081918D9331E045
:1012F000E63BF307D1F790918802992311F083E040
:1013000001C081E080930A048DE380930B0487E0A1
:1013100080930C0481E080930D04AEE0B4E0E8EC2F
:10132000F2E002C081918D9382E0EE3CF807D1F7A4
:101330008CE08093140485E080931504EAEAF1E0E0
:10134000A6E1B4E002C081918D9321E0EF3AF2076B
:10135000D1F72BE134E030939D0220939C02913031
:1013600069F582E380931B0484E080931C04D90117
:101370001296EEECF2E002C081918D9332E0E23DF4
:10138000F307D1F786E38093210484E0809322045D
:1013900083E294E090939D0280939C02DC01EEED49
:1013A000F2E002C081918D9382E0E23EF807D1F72E
:1013B00087E294E090939D0280939C0220919B028F
:1013C000222311F094E001C093E0A0919C02B0911F
:1013D0009D02FD0187E3819311969C93DF01119695
:1013E00081E08183FD01319683E011968C93DF01CA
:1013F000119686E08183CD01019690939D028093A2
:101400009C02222339F011962C93019690939D0211
:1014100080939C02E0919C02F0919D028FEF81935A
:10142000F0939D02E0939C02CF01885193400E946B
:10143000E24B26960FB6F894DEBF0FBECDBFCF911C
:10144000DF910895BF92CF92DF92EF92FF920F93B8
:101450001F93CF93DF938C0180918802823009F42F
:1014600001C1833030F4882351F1813009F076C115
:101470004BC0833021F0843009F070C1F3C00E946A
:10148000965220918D0230918E0240918F025091A0
:101490009002E0908902F0908A0200918B021091F4
:1014A0008C022E0D3F1D401F511F2617370748077E
:1014B000590708F053C10E94120984E018C00E9425
:1014C000C35860939502709396028093970290930D
:1014D00098021092CE021092CF021092D002109277
:1014E000D1020E94120981E00E942B0F81E08093BB
:1014F00088020E94C3586093910270939202809375
:101500009302909394022AC10634110508F4DEC0B8
:1015100080911103833409F0D9C020911C033091CC
:101520001D0340911E0350911F03809195029091DD
:101530009602A0919702B0919802281739074A079E
:101540005B0709F0C3C0C8E0D4E0FE01A801425126
:101550005D4FDF01119691819D012F5F3F4F80818B
:10156000853329F411968C91823009F4CEC0F901AB
:10157000E90FF11DE417F50760F3A8C0FE01919192
:10158000B980EF0121969333E1F0943340F4933026
:1015900091F0963099F0913009F04FC009C09A331C
:1015A00081F09F3F09F45AC0963309F046C03FC00E
:1015B00082ED92E03EC08AED92E03BC082EE92E086
:1015C00038C0818190E0A0E0B0E0BA2FA92F982F19
:1015D00088272981820F911DA11DB11DBA2FA92F26
:1015E000982F88272A81820F911DA11DB11DBA2F26
:1015F000A92F982F88272B81820F911DA11DB11D26
:1016000080938D0290938E02A0938F02B0939002EC
:1016100081589145A140B04008F499C0C0928D0214
:10162000D0928E02E0928F02F092900290C08EEDE6
:1016300092E0BE010E9404578AC0E0919902F091A5
:101640009A02309709F483C080919B02981709F0A1
:101650007EC0892FBE014B2D099579C00E941209C9
:1016600082E045CF0634110588F18091110383345F
:1016700069F520911C0330911D0340911E03509188
:101680001F038091950290919602A0919702B091CC
:101690009802281739074A075B07C1F4E8E0F4E02D
:1016A000A80142515D4FDF01119691819D012F5F8D
:1016B0003F4F8081853321F411968C918530A9F1BB
:1016C000F901E90FF11DE417F50768F30E94C3580B
:1016D0002091910230919202409193025091940294
:1016E000205F384D4F4F5F4F261737074807590780
:1016F00048F034C08AED92E00E94624A83E0809311
:1017000088022CC01092880229C08EEC92E068E218
:1017100073E00E94045780E8C82E81E5D82E81E04E
:10172000E82EF12C02511D4F29CF81E00E941A0FA3
:101730000E9496526093890270938A0280938B0272
:1017400090938C028091DA028823C1F2D3CFCB0D23
:10175000D11DC017D10708F411CF80CFDF91CF91F1
:101760001F910F91FF90EF90DF90CF90BF90089561
:10177000CF93DF9381E08093EA029091CD02892F8D
:1017800082958F708F5B8093AD019F709F5B90936C
:10179000AE01109288020E94C358EB0104C00E945F
:1017A0007B0F0E94220A80918802833061F00E94A0
:1017B000C3586C1B7D0B6053754728F40E943C0F87
:1017C000882389F3ECCF0E9478491092ED021092A1
:1017D000EC0290E080918802833009F491E0892F37
:1017E000DF91CF910895FF920F931F93CF93DF93D3
:1017F0008C01F62E0E94C358EB010CC00E947B0F97
:101800000E94AF4C0E94C3586C1B7D0B6053754700
:1018100008F0EFC00E943C0F882381F30E94C35858
:10182000EB010CC00E947B0F0E94AF4C0E94C3587A
:101830006C1B7D0B6053754708F0DBC00E9472493A
:10184000882381F71092E6021092E7021092E802D4
:101850001092E90280919E028F5F80939E02809198
:10186000E202882361F488E098E0A8E0B8E0809381
:10187000E2029093E302A093E402B093E502809128
:101880009E0290E0906E62EE72E045E350E00E94AE
:10189000FC49E8E1F3E08CE0DF011D928A95E9F76D
:1018A000DF011C9690E0FF2019F0F801808102C052
:1018B000F80184910F5F1F4F8E3241F0882331F081
:1018C0009F5FFD01E90FF11D8083EDCFFD01919335
:1018D000DF01A90FB11D882329F7FD01119211968F
:1018E0001C92DF01119641E04183FD013196119672
:1018F0001C92418386ED2EEE32E0821B32968E0FD3
:101900008093180390919E029093190340931A03B9
:1019100040931D0390E00E94E24B0E94C3588B014C
:1019200061C00E94C358601B710B6053754708F07B
:1019300060C00E947B0FEC01009709F453C00E9425
:10194000AF4C892B09F04EC0C634D10508F44AC00B
:1019500080911103853309F045C080911203803EC8
:1019600009F040C09091130380919E029817D1F521
:10197000809119038917B1F580911B0390E08F7056
:101980009070892BB1F580911803E82FF0E0E85EA4
:10199000FC4F9E0122513D4F8081807C39F0329670
:1019A00009C08081882311F4319604C03196E21772
:1019B000F307B8F3CF010E962817390798F0818105
:1019C000813051F48185843039F43A9686EE92E084
:1019D000BF010E94045706C0818590E00A96E80F77
:1019E000F91FDACF8091E602882309F49ACF81E0CB
:1019F00001C080E0DF91CF911F910F91FF9008957A
:101A0000482F6AE00E942878282F30E084E0220FD7
:101A1000331F8A95E1F7842F0E942878892F820F3F
:101A20000895CF93DF93EC0180919F029091A002E3
:101A30008836910559F58DE09EE068E670E00E94D9
:101A4000E55D8DE09EE060E00E94675E88810E9417
:101A5000000D682F70E06F7770708DE09EE00E943F
:101A6000675E89810E94000D682F8DE09EE00E94D4
:101A7000675E8A810E94000D682F8DE09EE00E94C3
:101A8000675E8B810E94000D682F2DC08F369105F7
:101A900009F04AC08DE09EE06FE670E00E94E55DCF
:101AA0008DE09EE060E00E94675E88810E94000DEC
:101AB000682F60688DE09EE00E94675E89810E94C9
:101AC000000D682F8DE09EE00E94675E8A810E9473
:101AD000000D682F8DE09EE00E94675E8B810E9462
:101AE000000D682F68608DE09EE00E94675E8C812B
:101AF0000E94000D682F8DE09EE00E94675E8D8140
:101B00000E94000D682F8DE09EE00E94675E8E812E
:101B10008E510E94000D682F8DE09EE00E94675E4E
:101B20008DE09EE00E94AA5EDF91CF91089588E645
:101B300090E09093A00280939F028DE09EE068E683
:101B400070E00E94E55D8DE09EE060E00E94675ECF
:101B50008DE09EE00E94AA5E8823D9F08FE690E097
:101B60009093A00280939F028DE09EE06FE670E06C
:101B70000E94E55D8DE09EE060E00E94675E8DE082
:101B80009EE00E94AA5E882321F01092A00210928B
:101B90009F0208951F93CF93DF93EC0160919F0202
:101BA0007091A0026115710509F46FC08DE09EE08F
:101BB0000E94E55D8DE09EE060E00E94675E8DE042
:101BC0009EE00E94AA5E60919F027091A0028DE04B
:101BD0009EE047E050E00E94BB5E8DE09EE00E94E8
:101BE000F85D282F2F7722952F701AE0219F900102
:101BF00011248F70820F88838DE09EE00E94F85D33
:101C0000282F22952F70219F900111248F70820F11
:101C100089838DE09EE00E94F85D282F2F73229526
:101C20002F70219F900111248F70820F8A838DE085
:101C30009EE00E94F85D87708B838DE09EE00E949D
:101C4000F85D282F22952F70219F900111248F700D
:101C5000820F8C838DE09EE00E94F85D282F2295F4
:101C60002F70219F900111248F70820F8D838DE042
:101C70009EE00E94F85D282F2F70225E82958F7063
:101C8000819FC0011124280F2E83DF91CF911F91D6
:101C900008950F931F93DF93CF93CDB7DEB72797A8
:101CA0000FB6F894DEBF0FBECDBF8E010F5F1F4F82
:101CB000A8010E944350C8010E94110D27960FB63B
:101CC000F894DEBF0FBECDBFCF91DF911F910F9172
:101CD00008950F931F93DF93CF93CDB7DEB7279768
:101CE0000FB6F894DEBF0FBECDBF8E010F5F1F4F42
:101CF000C8010E94CA0DC8010E94895127960FB6DB
:101D0000F894DEBF0FBECDBFCF91DF911F910F9131
:101D100008958DE09EE00E94BF5E08958091A40228
:101D200061E00E94F95978940895FF920F931F93F0
:101D3000082F162FF42EF8948091A40260E00E94E0
:101D4000F9591F71102B1EBD0DB407FEFDCFFEBC4F
:101D50000DB407FEFDCF0E948E0E1F910F91FF90D4
:101D600008951F93182F282F30E02076307080912F
:101D7000A50290E02817390799F080EA6FE143E067
:101D80000E94950E412F40764093A50250E085E0D9
:101D9000559547958A95E1F780E86FE10E94950E89
:101DA0001F9108950F931F93182F062F0E94B10EB5
:101DB00080E4612F402F0E94950E1F910F9108958E
:101DC0000F931F93182F072F0E94D20E812F8F5F22
:101DD000602F0E94D20E1F910F9108950F931F93B1
:101DE000182F062FF8948091A40260E00E94F95900
:101DF000802F8F71812B8EBD0DB407FEFDCF1EBCD1
:101E00000DB407FEFDCF07FF04C01EBC0DB407FED6
:101E1000FDCF1EB50E948E0E812F1F910F91089548
:101E20001F93182F0E94B10E80E0612F0E94EE0ECA
:101E30001F910895882311F41092A3028091A302A8
:101E4000882341F488E30E94100F682F6E7F88E397
:101E50000E94D20E08951F93182F88E30E94100F3E
:101E6000682F616088E30E94D20E112319F481E08B
:101E70008093A3021F91089584ED61E10E94D20E28
:101E800082ED61E00E94D20E8AEE0E94100F80FD6A
:101E9000FBCF82ED60E00E94D20E89ED0E94100F10
:101EA00090E09695879596958795817008950F9304
:101EB0001F93CF93DF93EC018B01F8948091A402E0
:101EC00060E00E94F9598AE38EBD0DB407FEFDCF94
:101ED00009C01EBC0DB407FEFDCF8EB5F80181937D
:101EE0008F0121972097A9F70E948E0EDF91CF9145
:101EF0001F910F9108950F931F93DF93CF9300D0FD
:101F000000D000D0CDB7DEB789E30E94100F882340
:101F100019F400E010E048C06091A6027091A70299
:101F200080E00E94E00E86E090E0BE016F5F7F4F90
:101F30000E94570F89819A819093A7028093A602ED
:101F40002B813C81E091A102F091A2028D8187FD5D
:101F500003C000E010E00EC0245030408F0101505B
:101F600010402017310708F48901C8016EEE72E0B5
:101F70000E94570FF801E251FD4F10826091A602B6
:101F80007091A7028CE06130780724F08CE06FEF4D
:101F90007BE003C0615070408CE00E94E00E80E85E
:101FA0006EE140E40E94950EC80126960FB6F894A3
:101FB000DEBF0FBECDBFCF91DF911F910F9108956E
:101FC0000F931F93CF93DF938C01EB01F8948091D3
:101FD000A40260E00E94F9598AE78EBD0DB407FEA5
:101FE000FDCF08C088818EBD0DB407FEFDCF2196C0
:101FF0000150104001151105A9F70E948E0EDF91C6
:10200000CF911F910F910895CF93DF93EC018CE155
:102010000E94100F81FF0FC080E86FE140E80E942E
:10202000950E80EA6FE140E80E94950E80EA6CE12F
:1020300042E00E94950E82E060E07CE00E94E00EAB
:10204000BE016050744F86E00E94E00E8AE760E0B7
:1020500040E00E94950ECE016EEE72E00E94E00F0D
:1020600080E86FE148E00E94950EDF91CF910895DE
:1020700084E061E00E947C5984E061E00E94F959AB
:1020800085E061E00E947C5987E061E00E947C5914
:1020900086E060E00E947C5985E061E00E94F95989
:1020A00085E060E00E94F95987E060E00E94F959FC
:1020B00080E58CBD8DB581608DBD0895EF92FF9256
:1020C0000F931F93CF93DF93EB01142F9093A202F2
:1020D0008093A1020CB406FC02C00E943810109339
:1020E000A402812F61E00E947C590E948E0E8FEF26
:1020F00060E04FEF0E94950E62E070E080E090E0BB
:102100000E94D1580E94C3587B018C0180E395E75F
:10211000A0E0B0E0E80EF91E0A1F1B1F09C00E94D4
:10212000C358E616F7060807190710F480E084C0C4
:1021300080E06DE10E94EE0E882389F31092A702E1
:102140001092A60288E060E070E00E94E00E8CE051
:1021500060E070E00E94E00E8AE06FEF7BE00E949A
:10216000E00E84E060E07CE00E94E00E86E06FEF2D
:1021700071E10E94E00E80E00E942B0F88E26FE385
:1021800070E30E94E00E80E369EF77EF0E94E00EBB
:1021900080EC6DE00E94D20E81EC60E00E94D20ED5
:1021A00080E862EC42E30E94950E86EC62E17CE0FE
:1021B0000E94E00E84EC62E10E94D20E8AEC6AEE8C
:1021C00075E00E94E00E84EE68810E94D20E85EEDA
:1021D00069810E94D20E82EE6A810E94D20E83EE45
:1021E0006B810E94D20E80EE6C810E94D20E81EE35
:1021F0006D810E94D20E84ED60E10E94D20E86EDC8
:1022000060E071E00E94E00E8AEE0E94100F80FDF7
:10221000FBCF8FE10E94B10E80E86BE140EC0E94A1
:10222000950E80E86FE144E00E94950E82E70E94DF
:10223000100F863008F08F5FDF91CF911F910F91C3
:10224000FF90EF900895EF92FF920F931F93CF931B
:10225000DF93FC01EB018A0179011092EA020097F9
:1022600029F08EEC92E0BF010E940457209719F0EC
:10227000CE010E94624A0115110529F082EE92E01A
:10228000B8010E940457E114F10429F082ED92E0B4
:10229000B7010E9404570E9478491092ED021092F3
:1022A000EC0281E0DF91CF911F910F91FF90EF90B1
:1022B0000895AF92BF92CF92DF92FF920F931F9338
:1022C000CF93DF938C01EB01F42E1092EA0238E3F6
:1022D00041E050E060E070E018C0832F90E0FC0126
:1022E000B3E0F595E795BA95E1F7E855FD4F8770AE
:1022F00090705A016B0104C0AA0CBB1CCC1CDD1CE5
:102300008A95D2F720812A292083315031F788EC31
:1023100092E0BE010E94FC56C80168EC72E04F2DAD
:102320000E945E10DF91CF911F910F91FF90DF907F
:10233000CF90BF90AF900895CF92DF92EF92FF922F
:102340000F931F93DF93CF93CDB7DEB7EB84FC845D
:10235000CD84DE84DE011F9601C0D801F601849190
:10236000882309F4BCC00894C11CD11C843209F034
:1023700099C0F6010894C11CD11C8491863409F4DB
:102380005FC0873434F4843469F0853409F08AC03E
:102390006EC08C34C9F1833509F445C0883409F026
:1023A00081C00DC08D010E5F1F4FF70166817781DF
:1023B0008D919C914AE050E00E949F087EC02C9134
:1023C000822F992787FD909514E0959587951A950A
:1023D000E1F78F702F702A300CF0295F8A300CF0F3
:1023E000895F8D010E5F1F4FF701A681B781805D68
:1023F000FD018193205D11962C933196D70117969C
:10240000FC93EE931697A9CF8D010C5F1F4F6D9132
:102410007D918D919C91F701468157812AE030E0B2
:102420000E94DD084AC08D010E5F1F4F6D917C91A7
:10243000D70116968D919C9117970E9443083DC035
:102440008D010E5F1F4F2D913C910AC0D70116964A
:10245000ED91FC91179781931796FC93EE93169745
:10246000F9012F5F3F4F8491882381F776CF8D014B
:102470000E5F1F4F2D913C910AC0D7011696ED912A
:10248000FC91179781931796FC93EE931697F99901
:10249000FECF32BD21BDF89A80B52F5F3F4F882314
:1024A00061F75BCFF70126813781F90181939F01A5
:1024B000F701378326838D0150CFD70116968D9172
:1024C0009C911797FC0101900020E9F73197E81BD8
:1024D000F90B8E0F9F1FF701978386833ECFCF9115
:1024E000DF911F910F91FF90EF90DF90CF900895B3
:1024F0000F931F938C01FC01848560E00E94F959C1
:1025000081E090E00E942A59F801848561E00E94F0
:10251000F95981E090E00E942A59F801848560E031
:102520000E94F95984E690E00E942A591F910F9168
:102530000895CF92DF92EF92FF920F931F936C0159
:10254000062F8DE0E82E8EE0F82EC701F60164819B
:102550000E94DB5D10E0F601808590E0082B192BCE
:10256000C701602F0E94675EC7010E94AA5E1F918B
:102570000F91FF90EF90DF90CF900895FF920F930F
:102580001F938C01F62E64600E94991281E090E006
:102590000E942A598BEFF822C8016F2D0E949912D0
:1025A00082E390E00E942A591F910F91FF900895B5
:1025B000FC0188E08087CF0160E00E9499120895B5
:1025C000FC01108660E00E9499120895CF92DF927C
:1025D000EF92FF920F931F93CF93DF937C01D62E40
:1025E000FC018185813039F4C7010E949912C7012D
:1025F0006D2D0E94BE12F70181858823F9F48701B1
:10260000C0E0D0E0CD2CDD24F801858561E00E949A
:102610007C59B6010C2E02C0759567950A94E2F7B5
:102620006170F80185850E94F95921960F5F1F4F4F
:10263000C430D10549F7C7010E947812DF91CF91CC
:102640001F910F91FF90EF90DF90CF9008950F931F
:102650001F93CF93DF93EC01062F142F89858130D0
:1026600061F4607F642BCE010E94E612602F6295B8
:10267000607F612BCE010E94E61289858823C1F418
:102680008A85612F0E94F9598B858F3F19F060E090
:102690000E94F959602F70E094E0759567959A95BE
:1026A000E1F7CE010E94E612CE01602F0E94E612F1
:1026B000DF91CF911F910F91089541E00E94271360
:1026C00081E090E0089540E00E9427130895EF9282
:1026D000FF920F931F93CF93DF938C017A01677062
:1026E000660F660F660F60640E946313C0E0D0E05F
:1026F000D801ED91FC91D701AC0FBD1F0190F08185
:10270000E02DC8016C9109952196C830D10581F75B
:10271000DF91CF911F910F91FF90EF900895FC01F1
:1027200066896E7F668B68600E9463130895FC0162
:102730006689862F8460868B6C60CF010E9463134C
:102740000895DF93CF93CDB7DEB728970FB6F894EF
:10275000DEBF0FBECDBF9C01FE013196AAE2B2E002
:1027600088E00D9001928150E1F7F9018185813077
:1027700021F48681841748F406C0882331F4F901D6
:10278000818D481710F0482F4150E42FF0E0EE0FF4
:10279000FF1FEC0FFD1F8181680F6068C9010E9457
:1027A000631328960FB6F894DEBF0FBECDBFCF914E
:1027B000DF91089562E00E94631380ED97E00E942C
:1027C0002A59089561E00E94631380ED97E00E940A
:1027D0002A590895CF93DF93EC018985813009F060
:1027E00044C088E08D8B62E370E080E090E00E945E
:1027F000D158CE0168850E94991268EE73E080E09E
:1028000090E00E94D158CE0160E30E94E61284E974
:1028100091E10E942A59CE0160E30E94E61284E908
:1028200091E10E942A59CE0160E30E94E61286E9F6
:1028300090E00E942A59CE0160E20E94E6126D8962
:102840006062CE010E94631384E08E8BCE010E94F1
:102850009713CE010E94E21382E08F8BCE0166E0D7
:102860000E946313CE010E94DA138985882309F040
:1028700061C08D8988608D8B82E0898F1A8E80E59A
:1028800093EC0E942A598A8560E00E94F9598C8550
:1028900060E00E94F9598B858F3F19F060E00E943B
:1028A000F9596D8964FD1DC0CE0163E00E94E612F6
:1028B00084E991E10E942A59CE0163E00E94E61268
:1028C00084E991E10E942A59CE0163E00E94E61258
:1028D00086E990E00E942A59CE0162E00E94E61249
:1028E00016C06062CE010E94631384E991E10E94E8
:1028F0002A596D896062CE010E94631386E990E0D7
:102900000E942A596D896062CE010E9463136D890D
:102910006062CE010E94631384E08E8BCE010E9420
:102920009713CE010E94E21382E08F8BCE0166E006
:102930000E946313DF91CF9108956F927F928F92DF
:10294000AF92CF92EF920F93DF93CF93CDB7DEB7D5
:102950003C01FC01428723870487E586C686A7865B
:10296000808A8C85818B8D85828B8E85838B8F85EC
:10297000848B8DE09EE00E94BF5EF30111868DE0A6
:102980009EE067E270E00E94E55D8DE09EE060E021
:102990000E94675E8DE09EE00E94AA5E882319F483
:1029A00081E0F3018187F3018185813049F487E279
:1029B000848380E1858382E08683178288E0808734
:1029C000F3018185882381F4828561E00E947C592E
:1029D000F30183858F3F19F061E00E947C59F30178
:1029E000848561E00E947C5988E0F301858BCF915A
:1029F000DF910F91EF90CF90AF908F907F906F907D
:102A00000895FC01A681B7816D93B783A68381E009
:102A100090E008951F920F920FB60F920BB60F928F
:102A200011242F933F934F935F936F937F938F93D3
:102A30009F93AF93BF93EF93FF93809111098F5FA3
:102A40008093110980911109803128F0E0910F09DC
:102A5000F09110090995FF91EF91BF91AF919F916E
:102A60008F917F916F915F914F913F912F910F9037
:102A70000BBE0F900FBE0F901F9018958091FD090F
:102A800090E023E0880F991F2A95E1F78250964F36
:102A9000EEEFF9E003C0158214823896E817F907C3
:102AA000D0F3089589E18093CB081092CE0810925C
:102AB000E2081092E9081092EB08109206091092B1
:102AC000050986E392E09093040980930309089531
:102AD000EF92FF920F931F938091C101882341F1E0
:102AE00090912D09892F82958695877009F580919F
:102AF0002C0983FD1DC090FF1BC09E7F90932D0964
:102B000080911209882329F48CE890E061E00E940A
:102B1000EB230E9408347B018C016115710581054E
:102B2000910531F00E946952C801B7010E94490E17
:102B30001F910F91FF90EF900895EF92FF920F93E6
:102B40001F938091D401823099F50E94C3589B0154
:102B5000AC0180914B0990914C09A0914D09B09125
:102B60004E0979018A01E81AF90A0A0B1B0BD801F0
:102B7000C701C297A105B105D8F080910B099091CA
:102B80000C09A0910D09B0910E090196A11DB11D6E
:102B900080930B0990930C09A0930D09B0930E0933
:102BA00020934B0930934C0940934D0950934E09A3
:102BB0001F910F91FF90EF900895EF92FF920F9366
:102BC0001F9380912C0983FD6AC080912D0981FF9C
:102BD00066C08D7F80932D0980911209882359F456
:102BE0008DED99E06FE041E00E94A1138DED99E039
:102BF00064E00E945D138AED92E00E94624C0E94A4
:102C0000C3587B018C010E947B0F0E94AF4C8AED60
:102C100092E00E94244F882361F40E94C3586E19E9
:102C20007F09800B910B683C71058105910558F374
:102C300023C080912D098F7102C08F71806C8093A9
:102C40002D0980912D0982958695877090E08630B8
:102C5000910534F080912C09806480932C091FC069
:102C60000397ECF00E943D2F8823C9F080912D0935
:102C70008F7180932D0913C080912D09982F929503
:102C8000969597709F5F9770292F2295220F207E2F
:102C90008F71822B80932D09973079F2D2CF1F91BB
:102CA0000F91FF90EF900895EF92FF920F931F9373
:102CB0008C018AEC98E060E071E040E00E94F66BE5
:102CC00032EDE32E39E0F32EC701B8010E9443082C
:102CD0000CE519E0C80168EB71E00E944308C801E7
:102CE000B7010E942D08C8016DEB70E00E94FE073D
:102CF0001F910F91FF90EF900895CF93DF93EC0118
:102D00008091E301882361F180912C0985FF28C01F
:102D1000CE0162E071E043E050E00E944A08009773
:102D200071F48AEC98E068EB71E040E00E94F66B89
:102D30008823B1F089EE98E00E94A86411C0CE010A
:102D40000E9454168AEC98E06CE579E00E94F26BE0
:102D5000882331F08AEC98E06CE579E00E94CF6B33
:102D6000DF91CF9108957F928F929F92AF92BF9201
:102D7000CF92DF92EF92FF920F931F93DF93CF9347
:102D8000CDB7DEB76E970FB6F894DEBF0FBECDBFDE
:102D9000782E4A015B018091E301882309F44BC13D
:102DA000CB01BA0120E831E541E050E00E945B78B8
:102DB000CA01B9014CE559E02AE030E00E94DD0883
:102DC0008CE599E00E94541680912C0985FF33C14F
:102DD0008AEC98E060E071E040E00E94F66B8AECDB
:102DE00098E068EB71E040E00E94F66B882351F4B4
:102DF0008AEC98E068EB71E041E00E94D36B882395
:102E000009F419C11D821F821C821B828BE792E08C
:102E10009A8389838E010B5F1F4F4CE5C42E49E0D6
:102E2000D42EC801B60142E40E94406AF82E4F89B0
:102E3000588D698D7A8DC8010E94C75FFF2009F403
:102E4000FAC0C6016BEB70E00E9409087720E1F53B
:102E5000F60101900020E9F73197EC19FD09EC0D1E
:102E6000FD1D8091F70B90E0BF014AE050E00E9409
:102E70009F08C60169EB70E00E94FE07F601019011
:102E80000020E9F73197EC19FD09EC0DFD1D80914B
:102E9000F60B90E0BF014AE050E00E949F08C60197
:102EA00067EB70E00E94FE07F60101900020E9F751
:102EB0003197EC19FD096091F80B7091F90B80E0E6
:102EC00090E0EC0DFD1D8DC084E07816A9F4809192
:102ED0000B0990910C09A0910D09B0910E09209158
:102EE00043093091440940914509509146092817FA
:102EF00039074A075B0720F0CC24DD2476010CC09B
:102F0000C0900B09D0900C09E0900D09F0900E09CB
:102F1000C21AD30AE40AF50A0CE519E0F801019097
:102F20000020E9F73197E01BF10BE00FF11FC7011B
:102F3000B601AF012AE030E00E94DD08C80164EB71
:102F400070E00E94FE0763E0769EB0011124655692
:102F50007F4FC8010E94FE07C80161EB70E00E942C
:102F6000FE0782E0781699F0871510F081E004C022
:102F700083E0781601F184E0781639F560913F0915
:102F800070914009809141099091420908C0609177
:102F90004F0970915009809151099091520968151B
:102FA00079058A059B0570F475016401C61AD70A74
:102FB000E80AF90A0AC08091D601C82EDD24EE2461
:102FC000FF2403C0CC24DD247601ECE5F9E0019078
:102FD0000020E9F73197EC55F940E45AF64FC70164
:102FE000B601AF012AE030E00E94DD080CE519E0EF
:102FF000C8016FEA70E00E94FE07F801019000200E
:10300000E9F73197E01BF10BE00FF11FC501B401A7
:10301000AF012AE030E00E94DD08C8016BEA70E0F1
:103020000E94FE07CE010196B8010E949B6CCE0162
:1030300005960E942F626E960FB6F894DEBF0FBE03
:10304000CDBFCF91DF911F910F91FF90EF90DF9057
:10305000CF90BF90AF909F908F907F9008950E94E7
:10306000B72B0E942A2C0E94173308952F923F926B
:103070004F925F926F927F928F929F92AF92BF9288
:10308000CF92DF92EF92FF920F931F93DF93CF9334
:1030900000D000D0CDB7DEB72B013C014B015C0165
:1030A0000894811C911CA11CB11C8091D0010E942C
:1030B00032542091FE0B3091FF0B4091000C509147
:1030C000010C421653066406750618F0750164017A
:1030D00009C06C01EE24D7FCE094FE2CC20ED31E76
:1030E000E41EF51E0091EA016EEF262E69E0362EF1
:1030F0009C01442737FD4095542F29833A834B8305
:103100005C8361C0F10180819181A281B3810097CC
:10311000A105B10509F053C084819581892B09F47B
:103120004EC01681812F86958695869590E08654AF
:10313000904F0E942A2290E0177002C095958795C3
:103140001A95E2F780FF4EC0002309F04BC0F10151
:10315000C082D182E282F38284819581A0E0B0E0D6
:1031600029813A814B815C81820F931FA41FB51F77
:10317000C80ED91EEA1EFB1E80912C0983FD1FC0BC
:10318000886080932C098091D4018230C1F48091B1
:103190000B0990910C09A0910D09B0910E09809333
:1031A000430990934409A0934509B093460940927E
:1031B0003F0950924009609241097092420948E0EB
:1031C00050E0240E351E8091FD0990E053E0880FF9
:1031D000991F5A95E1F78250964F2816390608F440
:1031E00091CF0BC0F10180829182A282B3820894B8
:1031F000811C911CA11CB11CBFCF0F900F900F9090
:103200000F90CF91DF911F910F91FF90EF90DF9082
:10321000CF90BF90AF909F908F907F906F905F9076
:103220004F903F902F9008954F925F926F927F92B0
:103230008F929F92AF92BF92CF92DF92EF92FF92C6
:103240000F931F93DF93CF93CDB7DEB7C755D04011
:103250000FB6F894DEBF0FBECDBF882E0E942F1888
:10326000882D81508E3F28F4BE016F5F7F4F0E94F2
:103270005E3299247724BCE04B2E512C4C0E5D1EFF
:10328000AEEF6A2E47C0A92CBB248FEF881631F40D
:10329000F2E0EF2EF12C012D112D12C0882031F417
:1032A000ECE3EE2EF12C012D112D0AC0F201EA0DF6
:1032B000FB1D80810E94C2530E94EF537B018C0151
:1032C0000E94F22F6C01009721F1E114F104010535
:1032D0001105F9F073E0B694A7947A95E1F7C5016A
:1032E0008D54904F0E942A2290E0292D277002C011
:1032F000959587952A95E2F780FD0BC0F60110821F
:10330000118212821382F582E48296826782772488
:103310007394939480913609981608F4B4CF77206B
:1033200021F00E94BA2C0E943618C95ADF4F0FB6FE
:10333000F894DEBF0FBECDBFCF91DF911F910F91EB
:10334000FF90EF90DF90CF90BF90AF909F908F90C5
:103350007F906F905F904F900895CF92DF92EF92A1
:10336000FF920F931F93CF93DF93D82E7A018B0197
:1033700060E00E947B2BCD2DD0E0FE01E254F44FA3
:10338000C0808091FD09C81608F041C0EC2DF0E026
:1033900083E0EE0FFF1F8A95E1F7E250F64F408180
:1033A0005181628173814E155F056007710740F599
:1033B0009E012F5F3F4F80912E0990E08217930767
:1033C000F9F080912F0990E082179307C9F0D0920D
:1033D000F60B87818093F70BC701841B950B9093A5
:1033E000F90B8093F80BE092FA0BF092FB0B009331
:1033F000FC0B1093FD0B80E0B801A7010E94B316EF
:103400008C2D0E940D30C254D44F8FEF8883DF91F2
:10341000CF911F910F91FF90EF90DF90CF90089583
:103420008F929F92AF92BF92CF92DF92EF92FF92D4
:103430000F931F93CF93DF935B016C0180912C0955
:1034400088248394882281FD09C082FD02C0EE2475
:1034500007C0EE248091D401813011F4EE24E3946E
:10346000FF2449C00F2D10E0C8018B55904F0E94DA
:103470002A229F2C990C990C990CC0E0D0E0082FBF
:1034800010E0492D4C0FE42FF0E09F012F5F3F4FDC
:1034900080912E0990E08217930741F180912F09C6
:1034A00090E08217930711F1E254F44FE081EF3F6F
:1034B000E9F0F0E093E0EE0FFF1F9A95E1F7E2509C
:1034C000F64F8781833690F4882059F0EE2071F012
:1034D000C8010C2E02C0959587950A94E2F780FDED
:1034E00005C0842FB601A5010E94AD192196C830F0
:1034F000D10539F6F39480913509F81608F4B2CF66
:10350000DF91CF911F910F91FF90EF90DF90CF90BF
:10351000BF90AF909F908F90089580912D098295D4
:103520008695877009F04FC080912C0983FD4BC0B0
:103530008091EA01882309F046C00E94BA2C2091AC
:1035400058093091590940915A0950915B09211548
:10355000310541055105B9F02F553E4A4E4F5F4F99
:10356000261737074807590770F410925809109228
:10357000590910925A0910925B0980912C098064B4
:1035800080932C0908952091540930915509409158
:10359000560950915709211531054105510549F04A
:1035A0002F5E314F4F4F5F4F261737074807590798
:1035B00050F4609354097093550980935609909381
:1035C00057090E945855089584B7877F84BF0E9489
:1035D000732D0E943F280E942A336CE370E080E044
:1035E00090E00E94605289E69EE00E9409530E948A
:1035F000BA2C0E94F42C8091600088618093600056
:1036000081E280936000809160008064809360001C
:103610000E943D2F882321F080912D098F7104C0D5
:1036200080912D098F71806280932D0980912D09E1
:103630008D7F816080932D090E942A2C8FE08093DA
:1036400053090895FF920F931F93DF93CF93CDB744
:10365000DEB7C755D0400FB6F894DEBF0FBECDBF62
:1036600080915309882321F40E946022109212094C
:1036700082E00E94DB22F82E082F10E086FF24C192
:103680008FE08093530981E00E94602280911209AB
:10369000833020F4813008F0D3C004C0833009F0B7
:1036A00013C1C2C0C8018F7090708230910509F4B7
:1036B0005AC08430910509F494C0019709F004C1FF
:1036C000F7FE30C08DE10E942C5A892B21F48FEF38
:1036D0000E941419F9C08EE10E942C5A892B69F0BE
:1036E0008091FD0990E023E0880F991F2A95E1F76A
:1036F0008250964FEEEFF9E011C08AED92E060E063
:103700000E9455268DED99E060E041E00E94A113F2
:103710008FE191E022C0158214823896E817F907EC
:10372000D0F3D2C08EEC92E060E00E9455268DED81
:1037300099E060E041E00E94A1138DE191E00E94D8
:1037400099236091B6017091B7018DED99E04AE03F
:1037500050E00E94745D85E191E00E94992381E030
:1037600080931209B1C0F7FE32C08FE10E942C5A3B
:10377000892B71F488E299E061E00E9455268DED75
:1037800099E060E041E00E94A1138FE091E0E5CF75
:103790008DE10E942C5A892BB9F48DED99E00E949D
:1037A000E213609158097091590980915A099091DA
:1037B0005B090E94F42C8DED99E060E041E00E94ED
:1037C000A11388E091E0C9CF0E9499217DC08DEDC1
:1037D00099E00E94E21388EC92E00E94A92382E023
:1037E000BFCFF7FE0CC089EF90E060E00E94EB23B2
:1037F00088EE90E061E00E94EB2383E0B1CF20915E
:103800002D09822F86958695877090E06091350905
:10381000019670E00E9448788770880F880F237E99
:10382000282B20932D0950C00F7010700430110503
:1038300009F04AC0F7FE07C080911F090E941419C1
:103840001092120941C080911F0990E06091FC091B
:1038500070E06F5F7F4F01960E94487880931F0948
:1038600087ED90E060E00E94EB2380911F098823A0
:1038700031F18150BE016F5F7F4F0E945E3285ED56
:1038800090E061E00E94EB238DED99E060E041E083
:103890000E94A11360911F098DED99E070E04AE04C
:1038A00050E00E94C55D82ED90E00E9499238DED6D
:1038B00099E0BE016C5B7F4F0E94D85D05C082EC31
:1038C00090E061E00E94EB23C95ADF4F0FB6F894F5
:1038D000DEBF0FBECDBFCF91DF911F910F91FF9043
:1038E00008952F923F924F925F926F927F928F92A4
:1038F0009F92AF92BF92CF92DF92EF92FF920F937F
:103900001F93DF93CF93CDB7DEB7CF55D0400FB61F
:10391000F894DEBF0FBECDBF8091D10180932E09F8
:103920008091E40180932F090E94BA2C4B015C0125
:103930000E947B0F0E94AF4C009721F082519D4F57
:103940000E94803FA895109211090E94221B80912D
:103950001B0990911C09A0911D09B0911E098815A1
:103960009905AA05BB0509F4B5C480921B0990927C
:103970001C09A0921D09B0921E0980915309882349
:1039800019F081508093530980911209882321F402
:103990000E94BA2C0E94F42C80912C0981FF10C047
:1039A0008091240990912509A0912609B0912709B9
:1039B00088169906AA06BB0690F00E94AA270FC097
:1039C0008091240990912509A0912609B091270999
:1039D00088169906AA06BB0610F40E94BA27909191
:1039E0002C09969591708091300986958170891780
:1039F000C9F0992349F080924F0990925009A09202
:103A00005109B092520905C082E0B501A4010E949B
:103A1000B31690912C099270809130098D7F892B7B
:103A2000809330098091D4018130B9F50E9424231C
:103A300090912C0996959695917080913009869574
:103A400086958170891749F1992349F080923F0941
:103A500090924009A0924109B092420915C080910C
:103A60003F0990914009A0914109B09142090A96FD
:103A7000A11DB11D88159905AA05BB0528F481E093
:103A8000B501A4010E94B31690912C099470809105
:103A900030098B7F892B80933009C501B4012CE359
:103AA00030E040E050E00E945B7879018A0180912B
:103AB000170990911809A0911909B0911A09E816EF
:103AC000F9060A071B0709F49FC0E0921709F09254
:103AD00018090093190910931A09662455241E0128
:103AE0000894211C311C85C0862DB1010E945E32D4
:103AF000C101B501A4010E94B231882309F478C044
:103B00007724462C43946FC0272D30E0A9014F5FE6
:103B10005F4F80912E0990E08417950709F462C0E9
:103B200080912F0990E08417950709F45BC00CE0A1
:103B300010E00C0F1D1F020F131FD8018C9188235A
:103B400009F450C053E0369527955A95E1F7C9011D
:103B50008D54904F0E942A2290E0272D277002C09A
:103B6000959587952A95E2F780FD3CC0F801808104
:103B70000E94C2530E94EF536B017C01898181FF37
:103B80001DC01091D601212F30E040E050E0C70168
:103B9000B6010E94097824E630E040E050E00E943F
:103BA0005B78C901DA016C017D01143138F4FAE067
:103BB000CF16D104E104F104A8F005C0C114D1046A
:103BC000E104F10479F00E94F22FFC01009751F01A
:103BD0001082118212821382D582C4827682478239
:103BE00055245394739480913609781608F48CCF39
:103BF00063948091FC09681608F476CF552021F073
:103C0000C501B4010E94361880912C0983FF81C13F
:103C10008091FD09E82EFF2443E0EE0CFF1C4A953D
:103C2000E1F78EEF99E0E80EF91EDD248C0129C042
:103C3000D80116968C911697682F70E0FB01E2541C
:103C4000F44FE081EF3FB1F0F0E033E0EE0FFF1F03
:103C50003A95E1F7E250F64F20813181428153815C
:103C60008D919D910D90BC91A02D281739074A0781
:103C70005B0720F06254744FFB01D082085F1F4F36
:103C8000D3940E151F05A0F2CC247EC08C2D90E09D
:103C9000FC01E95CF64F20815C2C550C550C550C51
:103CA000EE24FF24622E7724D52CDE0CED2DF0E0DF
:103CB0009F012F5F3F4F80912E0990E0821793075D
:103CC00009F459C080912F0990E08217930709F4F5
:103CD00052C0E254F44F80818F3F09F44CC0082F4A
:103CE00010E023E0000F111F2A95E1F70250164F54
:103CF000D8012D913D914D915C911397211531057E
:103D000041055105A1F014968D919C911597A0E065
:103D1000B0E0820F931FA41FB51F88169906AA064C
:103D2000BB0628F08D2DB501A4010E94AD19C30179
:103D30000E2C02C0959587950A94E2F780FD1BC072
:103D4000F801208131814281538182169306A406B5
:103D5000B50688F084819581A0E0B0E0820F931FC2
:103D6000A41FB51F88169906AA06BB0620F48D2D40
:103D700061E00E947B2B0894E11CF11CF8E0EF1637
:103D8000F10409F091CFC39480913509C81608F465
:103D90007DCF8091FD09082F10E00150104078017F
:103DA00093E0EE0CFF1C9A95E1F78EEF99E01EC0B0
:103DB000D70114968D919C911597009781F0A0E002
:103DC000B0E0F7012081318142815381820F931F3E
:103DD000A41FB51F88169906AA06BB0618F0802FE7
:103DE0000E940D300150104088EF9FEFE80EF91E41
:103DF0009FEF0F3F1907E1F6C501B4010E94101AA9
:103E00000E942A2C1092FE0B1092FF0B1092000CB5
:103E10001092010C6090EA018EEFC82E89E0D82E36
:103E20004BC0D60116967C90169714968D919C9156
:103E300015977C0100E010E08D919D910D90BC9153
:103E4000A02DE80EF91E0A1F1B1F8E149F04A0064A
:103E5000B10670F5872D86958695869590E08654F7
:103E6000904F0E942A2290E0B7E07B2202C09595F5
:103E700087957A94E2F780FF1BC06620C9F42091F1
:103E8000FE0B3091FF0B4091000C5091010CD801BA
:103E9000C701E216F3060407150710F4DA01C90199
:103EA0008093FE0B9093FF0BA093000CB093010C3A
:103EB000E8E0F0E0CE0EDF1E2091FD09822F90E0B9
:103EC00003E0880F991F0A95E1F78250964FC816B4
:103ED000D90608F4A6CF2223E1F40E94B72B0E9452
:103EE0002A2C0E94173380912C09877F80932C09FC
:103EF0008091D401823029F484E0B501A4010E94AC
:103F0000B3168091D10180932E098091E4018093B2
:103F10002F0980912E09882309F48CC01091D201B9
:103F20000091D3018EE99FE06CE579E00E9425289D
:103F300030903609E0902E09CE2CDD24FF2461E07C
:103F400070E0812F90E0A0E0B0E0A0968CAF9DAF34
:103F5000AEAFBFAFA097402E55246624772462C031
:103F60002F2D30E0C616D70609F459C0D90113E049
:103F7000B695A7951A95E1F74F2D4770FD01E95CBD
:103F8000F64F808190E0042E02C0959587950A94A3
:103F9000E2F780FF44C0A45AB64F8C91992787FD61
:103FA000909502C0959587954A95E2F780FF37C0B6
:103FB0002254344FD9018C91E82FF0E0A3E0EE0FAA
:103FC000FF1FAA95E1F7E250F64F2081318142812F
:103FD0005381A0968CAD9DADAEADBFADA097820FC5
:103FE000931FA41FB51F88169906AA06BB06B8F032
:103FF0002C5330404040504084819581A0E0B0E097
:10400000280F391F4A1F5B1F240D351D461D571DE4
:10401000281539054A055B0510F061E007C0F394E7
:104020006F5F7F4FF31408F49BCF60E08E2D8150BB
:104030000E947B2B80912F09882309F48CC010915A
:10404000E5010091E6018CEA9FE06CE579E00E94D1
:10405000252830903609E0902F09CE2CDD24FF244E
:1040600061E070E0812F90E0A0E0B0E06C968CAF52
:104070009DAFAEAFBFAF6C97402E5524662477241A
:1040800062C02F2D30E0C616D70609F459C0D901F9
:1040900053E0B695A7955A95E1F74F2D4770FD016E
:1040A000E95CF64F808190E0042E02C095958795DB
:1040B0000A94E2F780FF44C0A45AB64F8C91992726
:1040C00087FD909502C0959587954A95E2F780FF08
:1040D00037C02254344FD9018C91E82FF0E043E0EF
:1040E000EE0FFF1F4A95E1F7E250F64F2081318134
:1040F000428153816C968CAD9DADAEADBFAD6C97DA
:10410000820F931FA41FB51F88169906AA06BB0627
:10411000B8F02C5330404040504084819581A0E05D
:10412000B0E0280F391F4A1F5B1F240D351D461DA7
:10413000571D281539054A055B0510F061E007C0D9
:10414000F3946F5F7F4FF31408F49BCF60E08E2DE4
:1041500081500E947B2BC501B4010E94101A0E945D
:104160002A2C80911209882389F4C501B40123E027
:1041700030E040E050E00E945B789B01AC01265C9F
:104180003D4F81E0F90160810E949E2580912C09BC
:1041900086FF22C083FD20C010E03E010894611C10
:1041A000711C3CE3C32ED12CE12CF12CC80CD91C82
:1041B000EA1CFB1C0CC0812FB3010E945E32C301BC
:1041C000B701A6010E94B231882331F41F5F8091AC
:1041D000FC09181780F37BC08091D401823009F06C
:1041E0004BC0C501B4012EE130E040E050E00E9438
:1041F0005B786115710581059105F1F580910B09D9
:1042000090910C09A0910D09B0910E09209113090C
:104210003091140940911509509116092817390752
:104220004A075B0728F080E090E0A0E0B0E00CC017
:1042300080910B0990910C09A0910D09B0910E0984
:10424000821B930BA40BB50B8093470990934809ED
:10425000A0934909B0934A0980910B0990910C09E8
:10426000A0910D09B0910E09809313099093140940
:10427000A0931509B0931609C501B40123E831E5EF
:1042800041E050E00E945B78611571058105910560
:1042900029F480912D09816080932D090E94681571
:1042A000C501B40129E532E040E050E00E945B78AE
:1042B000611571058105910529F480912D098260B0
:1042C00080932D090E94DD150E948D1A03C00E9463
:1042D000992182CFC15ADF4F0FB6F894DEBF0FBECF
:1042E000CDBFCF91DF911F910F91FF90EF90DF90A5
:1042F000CF90BF90AF909F908F907F906F905F9086
:104300004F903F902F9008959C01F999FECF32BDB8
:1043100021BDF89A80B508959C01F999FECF1FBA86
:1043200032BD21BD60BD0FB6F894FA9AF99A0FBE5E
:104330000895E091F809F091F90909950895EF922F
:10434000FF920F931F93FC0120E030E040E050E02B
:1043500070E038C0908179018A0184E0EE0CFF1C86
:10436000001F111F8A95D1F7892F80538A3030F4AE
:10437000892F992787FD9095C09719C0892F81545F
:10438000863030F4892F992787FD9095C7970FC005
:10439000892F8156863028F020E030E040E050E060
:1043A00013C0892F992787FD9095875590409C01D0
:1043B000442737FD4095542F2E0D3F1D401F511FA0
:1043C0007F5F3196761730F2B901CA011F910F91C4
:1043D000FF90EF900895EF92FF920F931F93CF936A
:1043E000DF93EC018B017A0166E00E949F21611549
:1043F00071058105910521F10115110529F0F801DB
:104400006083718382839383CE01069666E00E9467
:104410009F21611571058105910591F0E114F10469
:1044200029F0F7016083718382839383CE010C9618
:1044300064E00E949F21611571058105910511F4C9
:1044400060E070E0CB01DF91CF911F910F91FF9061
:10445000EF9008959C01F999FECF32BD21BDF89AE5
:1044600080B50895FC0122E939E089E0263B380750
:1044700011F440E009C0F999FECFC901019632BD9F
:1044800021BDF89A40B59C019081442331F09923D5
:1044900049F0491739F43196E8CF80E0992319F4AF
:1044A00081E0089580E0089508951092E009109247
:1044B000DF0986E292E09093DE098093DD0908959A
:1044C0001F93182F8091E609813059F4112329F0A8
:1044D0008DED99E00E94D81204C08DED99E00E9404
:1044E000E0128091E609882391F48CE061E00E945B
:1044F0007C59112319F08091DB0102C08091DC010D
:104500006FEF70E0681B71098CE00E94FD571F91EE
:1045100008958091E609882351F48DE061E00E94BE
:104520007C596091DA018DE070E00E94FD5708959A
:10453000EF92FF920F931F93CF93DF93E82E162FE6
:10454000042FF22E662321F0623081F4222371F0D1
:104550008E2D0E942C5A892B11F000E024C0FF20E0
:1045600011F480E001C080E8082B1DC0C0E0D0E05D
:104570008E2D0E942C5A892B81F4113031F012308B
:1045800061F483E0C83ED80744F461E070E080E065
:1045900090E00E94D1582196EBCFFF2019F4C85E1D
:1045A000D3400CF00068802FDF91CF911F910F91C5
:1045B000FF90EF9008950F931F93082F1091FA0921
:1045C000107861E070E080E090E00E94D1588FE1C7
:1045D0000E942C5A892B21F48FE1602F41E013C0F7
:1045E0008EE10E942C5A892B21F48EE1602F42E04B
:1045F0000AC08DE10E942C5A892B11F040E007C0BF
:104600008DE1602F44E0212F0E949822482F809155
:10461000FA0990E08F709070242F30E0892B39F4E4
:104620002F703070232B71F0842F806406C02F70A0
:104630003070232B39F4842F80624093FA091F9144
:104640000F910895842FF9CF8091D401813099F48E
:104650008BE00E942C5A40E02091D50130E0821777
:10466000930709F041E0440F440F80912C098B7FA0
:10467000842B80932C0908951F93182F843690F073
:1046800064E60E942878682F8DED99E070E04AE09A
:1046900050E00E94C55D8DED99E066E071E00E94FA
:1046A000D85D02C08A30A0F0812F6AE00E9428788D
:1046B0000E942878692F8DED99E070E04AE050E083
:1046C0000E94C55D8DED99E066E071E00E94D85DC5
:1046D000812F6AE00E942878692F8DED99E070E0C3
:1046E0004AE050E00E94C55D1F910895EF92FF924D
:1046F0000F931F938C019DEDE92E99E0F92EC801CF
:104700006AE070E00E944878C7014AE050E00E94E9
:10471000C55DC8016AE070E00E944878BC01C7012D
:104720004AE050E00E94C55D1F910F91FF90EF900D
:104730000895CF93DF93EC0104C08DED99E00E94C2
:10474000E55CFE01219664916623B9F7DF91CF9174
:1047500008950F931F93CF93DF93182F092F8DED9B
:1047600099E060E040E00E94A113212F302FC901A1
:10477000EC0110E005C08CE595E00E94992321969C
:10478000688170E024E0759567952A95E1F78DEDD5
:1047900099E040E150E00E94C55D688170E06F7073
:1047A00070708DED99E040E150E00E94C55D1430DD
:1047B00031F48DED99E060E041E00E94A1131F5FAC
:1047C0001630C9F685E595E00E949923DF91CF91D7
:1047D0001F910F9108950F931F93CF93DF938C0137
:1047E000462F8DED99E060E00E94A113E80104C01E
:1047F0008DED99E00E94E55C9E01201B822FFE0159
:10480000219664916623A1F7992787FD9095C0E1D1
:10481000D0E0C81BD90B05C086E895E00E9499231B
:104820002197D7FFF9CFDF91CF911F910F91089575
:10483000EF92FF920F931F93CF93DF937C01BC0104
:1048400054E0660F771F5A95E1F7645E7D4F8CE563
:1048500099E040E150E00E946C538DED99E060E0FA
:1048600040E00E94A1138DED99E06CE579E00E9493
:10487000D85D8BE395E061E00E94EB238DED99E03C
:1048800060E041E00E94A11384E1E816F10409F41C
:1048900095C085E1E816F1041CF58CE0E816F104FA
:1048A00009F4A0C08DE0E816F10454F4E114F10419
:1048B00009F440C081E0E816F10409F005C141C0E7
:1048C00081E1E816F10409F4C9C083E1E816F104B6
:1048D00009F46BC08EE0E816F10409F0F5C024C0BD
:1048E0008EE1E816F10409F4D3C08FE1E816F10473
:1048F0005CF48BE1E816F10409F4B8C08CE1E81629
:10490000F10409F0E1C0B7C087E2E816F10409F448
:1049100055C089E2E816F10409F46CC086E2E81695
:10492000F10409F0D1C041C08DED99E068E071E07B
:104930000E94D85DF701E154FE4F80810E943C2324
:10494000DFC08091C001C82FD0E0E097D7FD05C03F
:1049500089E395E00E94992307C087E395E00E94D0
:104960009923D095C195DF4FCE0164E070E00E949D
:1049700048788DED99E04AE050E00E94C55D85E3FE
:1049800095E00E949923CE0164E070E00E9448788F
:10499000BC0144E0660F771F4A95E1F7681B790B6D
:1049A00009F061C082E395E08CC080E395E00E944D
:1049B0009923F701E154FE4F60819BC0F701E15458
:1049C000FE4F80818C3320F08EE295E00E94992387
:1049D000F701E154FE4F608170E06C5370408DED43
:1049E00099E08AC07091CC0160E08091CB01680FA2
:1049F000711D2DC01091E90100E08091E801080FC0
:104A0000111DC80164E670E00E9434788DED99E0D4
:104A10004AE050E00E94745D8CE295E00E94992388
:104A2000C8016AE070E00E943478CB016AE070E06F
:104A30000E943478BC018DED99E04AE050E00E947C
:104A4000745DC8016AE070E00E943478BC018DEDAD
:104A500099E04AE050E00E94745D59C08091D00115
:104A60000E943254BC018DED99E00DC00E94892254
:104A70006091DA0105C081E00E9460226091DB0153
:104A80008DED99E070E04AE050E00E94C55D3FC0C6
:104A9000809134098C3A31F48DED99E06DE20E94F9
:104AA000E55C35C06091DD0170E0660F771F660F31
:104AB000771F8DED99E04AE050E00E94C55D88E2E5
:104AC00095E00E94992323C0F701E351FB4FE49145
:104AD000D701A154BE4FE13059F48C91882319F4C9
:104AE00081E295E002C084E295E00E94992308C02B
:104AF0006C918DED99E070E04AE050E00E94C55D58
:104B000087E1E816F10419F48FE195E00EC0C701C2
:104B10004397029740F086E2E816F10421F087E21D
:104B2000E816F10421F48AE195E00E949923DF91CF
:104B3000CF911F910F91FF90EF900895FF920F93E7
:104B40001F93482FF62E8DED99E060E00E94A1138F
:104B500080912D0986958695877019F481E595E0F9
:104B600012C08FE495E00E94992360912D0966950B
:104B7000669567708DED99E070E04AE050E00E9424
:104B8000C55D8DE495E00E94992380912C0980FDFC
:104B900006C081E495E061E00E94EB232EC0E09125
:104BA0002D09E695E695E770F0E0E95CF64F0081A7
:104BB00010E090912D09990F98739F5F910F80914C
:104BC000D101981721F400FD0EC06DE40DC0809155
:104BD000E401981721F400FD06C06EE405C000FD55
:104BE00002C06FE501C06F2D8DED99E00E94E55C7C
:104BF0001F5F183011F00695DCCF8CE395E00E9422
:104C000099238DED99E06CE041E00E94A113809121
:104C1000EA01882329F08DED99E065E00E945D139B
:104C20008DED99E06DE041E00E94A11380912C0987
:104C300081FD06C082FF09C08091D401813029F432
:104C40008DED99E063E00E945D138091D401823084
:104C500029F48DED99E066E00E945D138DED99E0F9
:104C60006EE041E00E94A11380912C0985FF05C0F0
:104C70008DED99E062E00E945D138DED99E06FE0AB
:104C800041E00E94A11360E080912D0982958695F4
:104C9000877090E003970CF061E08DED99E00E9441
:104CA0005D131F910F91FF900895DF92EF92FF9295
:104CB0000F931F93CF93DF937C01D62E8DED99E058
:104CC0000E94E2138DED99E060E040E00E94A113A4
:104CD0008701C0E0D0E0DD2019F0F801638104C055
:104CE000F701EC0FFD1F60818DED99E070E04AE067
:104CF00050E00E94C55DC33021F08EE595E00E9432
:104D00009923219601501040C430D10521F7DF913D
:104D1000CF911F910F91FF90EF90DF9008952CE2BB
:104D200030E0F901E45AF64FD901A154BE4F8C91FD
:104D30008083215030408FEF2F3F380791F788EC68
:104D40009FE06CE579E04DE250E02CE831E20E9412
:104D500083088091CE018F5F8093350990E063E0F6
:104D6000880F991F6A95E1F7809336099091D701D2
:104D7000917080912C098E7F892B80932C09089546
:104D80000F931F93CF93DF93EC010AEA82E00E9416
:104D9000DB22482F50E09A012F703070223031050D
:104DA00089F12430310509F452C02130310509F070
:104DB0009BC0209709F49BC0CE30D10509F497C061
:104DC000C832D10509F493C0CC30D10509F48FC0A5
:104DD000CD30D10509F48BC0C932D10509F487C0A3
:104DE000CA32D10509F483C0FE01E351FB4FE491BF
:104DF000DE01A154BE4F8C91E81709F478C08F5F93
:104E00008C9375C0209709F46FC0CE30D10509F49A
:104E10006BC0C832D10509F467C0CC30D10509F4A4
:104E200063C0CD30D10509F45FC0C932D10509F4A2
:104E30005BC0CA32D10509F457C0FE01E154FE4FF0
:104E40009081992309F450C0915090834DC086FF02
:104E50004BC087FF0AC08091EB01882311F00093BB
:104E6000EB010E948F2611E043C0C330D10539F415
:104E70008091C201882319F1CCE0D0E038C0CC3059
:104E8000D10519F4CEE0D0E032C0C932D10519F411
:104E9000CBE2D0E02CC0C531D10539F48091D401EA
:104EA0008130A1F0C7E1D0E022C0C231D10539F490
:104EB0008091D101882351F4C5E1D0E018C0C532FA
:104EC000D10521F48091E401882309F1CE010196F6
:104ED0006DE270E00E944878EC018031910539F470
:104EE00010E0C1E1D0E004C0882309F44FCF10E006
:104EF000CE010E941824112309F448CF8DED99E0CA
:104F00000E948F13DF91CF911F910F910895C8E2F6
:104F1000D0E0EDCF80912C098E7F80932C091092E8
:104F2000D7010E948F26089580912C09816080937B
:104F30002C0981E08093D7010E948F26089586E88E
:104F400099E060E279E04CE050E02CE831E20E9428
:104F50008308089580912C098D7F80932C091092ED
:104F600024091092250910922609109227090E94FF
:104F70009F27089580912C09826080932C090E94BC
:104F80009F27089547E050E02CE831E20E94830813
:104F90000895FB01108E98E1899FC0011124825A67
:104FA000954F48E150E02CE831E20E9483080895D3
:104FB0008CE599E068EC7FE04DE250E024E831E2D6
:104FC0000E94670820E030E0F901E154FE4FD9016A
:104FD000A45AB64F8C9180832F5F3F4F2D323105FD
:104FE00099F78091CE018F5F8093350990E073E04F
:104FF000880F991F7A95E1F7809336099091D70130
:10500000917080912C098E7F892B80932C091092AE
:10501000E701089580E299E066E879E04CE050E02D
:1050200024E831E20E94670880912C0990912D09B3
:10503000A0912E09B0912F098093300990933109E6
:10504000A0933209B093330908959C01CB01B901B3
:1050500047E050E024E831E20E9467080895FB0130
:10506000108E98E1899FB0011124625A754FCF01CB
:1050700048E150E024E831E20E9467080895CF92A9
:10508000DF92EF92FF920F931F93CF93DF936AEF1C
:1050900070E080E090E00E94D158F999FECF88EC52
:1050A0009FE092BD81BDF89A80B5883D59F4F99989
:1050B000FECF84EF9FE092BD81BDF89A80B58A3A19
:1050C00009F0DAC088EE95E060E00E94EB2389EDFC
:1050D00095E061E00E94EB23FCE5EF2EF9E0FF2E66
:1050E000F701119289E0EC3DF807D9F7C0E0D0E074
:1050F00000E010E1A8014C1B5D0B4138510514F094
:1051000040E850E0CE016CE579E02CE831E20E9405
:105110008308C058DF4F90E1C030D90759F70E948B
:105120009F2782E999E06AE071E049E050E02CE8CD
:1051300031E20E94830886EB99E063E171E04AE086
:1051400050E02CE831E20E94830886EE99E06DE1A0
:1051500071E040E250E02CE831E20E94830886E1F1
:105160009AE06DE371E04AE150E02CE831E20E9400
:10517000830886E49AE067E571E041E050E02CE8BE
:1051800031E20E94830883E580935C0910925F09F5
:105190000EE51AE0C1E0D0E0ECE5CE2EE9E0DE2E2F
:1051A000CE016AE070E00E944878605D60935D091E
:1051B000CE016AE070E00E944878805D80935E09CD
:1051C000F60101900020E9F7EC55F940C8016CE5C3
:1051D00079E0AF012CE831E20E948308085E1F4F9E
:1051E0002196EFE00E391E07D9F610925C0980E394
:1051F00080935D0910925E09C0E0D0E081E391E008
:105200006CE579E048E150E09E0100E00E94EE5438
:105210006896F5E0C034DF0789F78FEFF7018193D7
:105220007F01F3E6EF16F9E0FF06C1F787010750AB
:1052300010408EE99FE0B80147E050E02CE831E2F1
:105240000E9483088AEB9FE0B80147E050E02CE819
:1052500031E20E94830886E291E00E9447540E9456
:105260008F2664EF71E080E090E00E94D158E091D9
:10527000F809F091F90909950E94D8270E940A2897
:1052800080E00E94DB22182F90E08F7090708130B8
:10529000910519F0049781F503C08CE290E021C0DC
:1052A00089EC95E060E00E94EB2360ED77E080E020
:1052B00090E00E94D15888EB95E060E00E94EB23DB
:1052C00088EA95E061E00E94EB2380E00E94DB2207
:1052D000182F86FFFACF8DED99E00E94E21380E04F
:1052E00090E00E94C0268091EB01882329F0E09194
:1052F000F809F091F909099581E00E9460220E9465
:105300008922112309F040C089E995E060E00E94FC
:10531000EB238DED99E062E041E00E94A11384E966
:1053200095E00E9499231091CD01812F6AE00E949F
:105330002878682F605D8DED99E00E94E55C8DED29
:1053400099E06EE20E94E55C812F6AE00E94287875
:10535000692F605D8DED99E00E94E55C80913409D4
:105360008A3129F08C3D31F480E995E005C08CE864
:1053700095E002C088E895E00E94992368EE73E00A
:1053800080E090E00E94D158DF91CF911F910F9162
:10539000FF90EF90DF90CF900895AF92BF92DF9291
:1053A000EF92FF920F931F93DF93CF93CDB7DEB7AA
:1053B00028970FB6F894DEBF0FBECDBF8C01D62E56
:1053C00068E00E949F21292F3327442755272093E7
:1053D000E6029C01442755272093E702272F382F08
:1053E000492F55272093E8026093E902A090B60167
:1053F000B090B701C801089664E00E949F217093A5
:10540000B7016093B601A4E7EA2EA9E0FA2E1C8248
:105410001B8286E392E09A838983FE82ED82F8867E
:10542000EF82C8010C9662E00E949F212DB73EB723
:105430002C5030400FB6F8943EBF0FBE2DBFEDB7D5
:10544000FEB731969E012F5F3F4FADB7BEB71296A4
:105450003C932E9311972BEF35E03383228322E97F
:1054600039E03583248377836683D086118680E78D
:1054700090E0938782870E949C112DB73EB7245FEE
:105480003F4F0FB6F8943EBF0FBE2DBF87EF95E09C
:10549000B70145EF55E024E532E20E94994900E06A
:1054A00010E00E947B0F0E94AF4C0F5F1F4F04362D
:1054B0001105B9F7B092B701A092B60128960FB6C0
:1054C000F894DEBF0FBECDBFCF91DF911F910F913A
:1054D000FF90EF90DF90BF90AF900895EF92FF9212
:1054E0000F931F93DC01CB0179018A01139A0E946B
:1054F0002A591398C7010E942A591F910F91FF90B2
:10550000EF9008952F923F924F925F926F927F9209
:105510008F929F92AF92BF92CF92DF92EF92FF92C3
:105520000F931F93DF93CF9300D00F92CDB7DEB7C9
:105530004B015C0179018A01DA01C901880F991FC9
:10554000AA1FBB1F8E0D9F1DA01FB11F582E692EB5
:105550007A2ECB2ED801C70145E0880F991FAA1FCC
:10556000BB1F4A95D1F78E199F09A00BB10B8983F8
:10557000292E3A2E4B2EDD242FC0D501C4010A80DE
:1055800004C0B695A795979587950A94D2F780FFA2
:1055900007C0652D762D872D9C2DA801970106C08B
:1055A000C801B701252D362D472D5C2D0E946E2A8E
:1055B0008A819B8101979B838A838F5F9F4FE9F646
:1055C000C801B7012981322D432D542D0E946E2A26
:1055D000D394FFE0DF1629F087E190E09B838A8374
:1055E000CCCF0F900F900F90CF91DF911F910F9123
:1055F000FF90EF90DF90CF90BF90AF909F908F90F3
:105600007F906F905F904F903F902F9008951F93E1
:10561000DF93CF93CDB7DEB728970FB6F894DEBFF0
:105620000FBECDBF162FBE016F5F7F4FAE014B5F28
:105630005F4F0E94EB219C01112329F069817A813F
:105640008B819C8104C06D817E818F81988540E033
:1056500050E00E94822A28960FB6F894DEBF0FBE53
:10566000CDBFCF91DF911F9108951F93162F482F23
:1056700050E0F999FECFCA01E3E095958795EA9548
:10568000E1F78F53904F92BD81BDF89A80B590E0BD
:105690009A012770307002C0959587952A95E2F798
:1056A00080FF27C09A01220F331F240F351F63E0AC
:1056B000220F331F6A95E1F781E391E06CE579E011
:1056C00048E150E00E947C5480915C09813041F4B3
:1056D00060E0111161E08DE599E00E94072B09C09F
:1056E000823039F460E0111161E08DE599E00E94AB
:1056F000CD291F910895782F282F30E0F901A3E0DC
:10570000F595E795AA95E1F7E95CF64F27703070BB
:1057100081E090E002C0880F991F2A95E2F7282FB8
:105720003081482F50E0662389F0832F90E0842356
:105730009523892BD1F4322B308381E080933E096D
:10574000872F61E00E94352B81E00895832F90E040
:1057500084239523892B49F0209523232083872FA9
:1057600060E00E94352B8FEF089580E008951F932D
:1057700010E0812F60E00E947B2B1F5F1933C9F777
:105780001F91089584E00E94DB579C0183E02A3B2F
:10579000380718F020E030E02BC083E02D333807C5
:1057A00018F021E030E024C082E02E3D380718F0E8
:1057B00022E030E01DC082E02239380718F023E0F3
:1057C00030E016C082E02535380718F024E030E0DC
:1057D0000FC082E02232380718F025E030E008C020
:1057E000275F314018F026E030E002C02FEF3FEF96
:1057F000C901089580912C0984FD03C060E070E028
:1058000027C0809134098C3D81F487E00E94DB57EA
:10581000AA2797FDA095BA2FBC01CD010E941A7747
:1058200028E431EE40E851E40FC087E00E94DB57E6
:10583000AA2797FDA095BA2FBC01CD010E941A7727
:1058400021E73DE346E351E40E94A6770E94EC760F
:10585000CB010895EF92FF920F931F93CF93DF93A5
:1058600083E060E00E94F9590DE319E080912C0972
:1058700080FD02C060E002C0F8016081C7E0D0E0B6
:10588000E62EFF2486E160E00E94F959B7010C2E54
:1058900002C0759567950A94E2F7617085E10E94F0
:1058A000F95986E161E00E94F9592197FFEFCF3F56
:1058B000DF0741F70150104089E006331807B1F6C1
:1058C000809134098C3D41F580913E09882321F176
:1058D00087E160E00E94F95984E161E00E94F95992
:1058E0006091DD0170E0660F771F660F771F8827D4
:1058F00077FD8095982F0E94D15884E160E00E9446
:10590000F95987E161E00E94F95983E061E00E9462
:10591000F95910923E0904C083E061E00E94F959F0
:105920000E94965228E330E040E050E00E945B780D
:10593000962F8091FB096817B1F06093FB09E62F61
:10594000E695E695E695F0E0E95CF64F608170E05B
:10595000892F877002C0759567958A95E2F7617007
:10596000892F0E94352BDF91CF911F910F91FF90CE
:10597000EF900895EF92FF920F931F930E9496521B
:105980007B018C016091C00170E080E090E024E830
:1059900033E040E050E00E9409789B01AC01205CBC
:1059A000384A404050402E0D3F1D401F511FB90145
:1059B000CA011F910F91FF90EF9008950E94BA2C99
:1059C00020E831E541E050E00E945B782D5F3F4FD9
:1059D0004F4F5F4FCA01B90127E030E040E050E08F
:1059E0000E945B78862F0895EF92FF920F931F938A
:1059F0007B018C018DED99E060E040E00E94A113F5
:105A0000C801B7010E9483510E94762384E895E083
:105A10000E949923C801B7010E947D510E947623FC
:105A200081E895E00E9499230E94DE2C90E0880F87
:105A3000991F880F991F805A9A4F0E9499238FE7C8
:105A400095E00E949923C801B7010E946B510E9402
:105A500076238DE795E00E949923C801B7010E9443
:105A600077510E9476231F910F91FF90EF90089538
:105A70008F92AF92CF92EF920F9300D000D0EDB7FC
:105A8000FEB73196ADB7BEB711961C921182128245
:105A900013828DED99E061E043E12FEF02E1E4E153
:105AA000EE2E75E1C72E56E1A52E37E1832E0E941A
:105AB0009D140F900F900F900F908DED99E00E9424
:105AC000EA138091E609882341F482E08093810003
:105AD00081E00E9460220E9489220F91EF90CF9076
