:100000000C94E4050C940C060C940C060C940C0651
:100010000C940C060C940C060C940C060C940C0618
:100020000C946A090C940C060C940C060C940C06A7
:100030000C940C060C940C060C940C060C940C06F8
:100040000C940C060C940C060C94374E0C940C0675
:100050000C94DC510C946A520C940C060C940C0613
:100060000C940C060C940C060C946B6B0C940C0604
:100070000C9411520C94A5520C940C064E54502022
:1000800053796E63696E672E2E2E005D0D0A002C6B
:1000900000222C00302C22002C002C005B002E743F
:1000A000787400302E2054657374202831206D69D7
:1000B0006E29002E20002000486F6C6420423320FF
:1000C000746F20737461727400436C69636B2042B7
:1000D0003320746F206C6973740052756E20612038
:1000E00050726F6772616D3A00286C7377632900F4
:1000F00028656970290020286F73697029003A000B
:100100002867776970290050726F6772616D2000EF
:100110006376006A63006470006370006372007548
:1001200070006A7000636F006A6F007370006A731A
:1001300000636D006373006A6E006A6C00646C009B
:100140007375006375003C7363726970743E776900
:100150006E646F772E6C6F636174696F6E3D222FD2
:10016000223B3C2F7363726970743E0A007B2272DB
:100170006573756C74223A24447D007B227265732A
:10018000756C74223A24447D0024460022244622C1
:100190003A24447D00646179005D002C24530024DE
:1001A00053005B007479706500656E640073746160
:1001B00072740068697374007400656E007369641A
:1001C000005D2C226E73746174696F6E73223A2421
:1001D000447D002C0024440022736E223A5B0063AD
:1001E0007077006E70770077746F007474740077A6
:1001F000746B6579006C6F63006A737000726400E1
:10020000656E007262740072736E003C6D6574619D
:10021000206E616D653D2276696577706F7274221C
:1002200020636F6E74656E743D2277696474683DF7
:100230006465766963652D77696474682C696E6995
:100240007469616C2D7363616C653D312E302C6D6A
:10025000696E696D756D2D7363616C653D312E300E
:100260002C757365722D7363616C61626C653D6E94
:100270006F223E0D0A003C736372697074207372C2
:10028000633D2224452F686F6D652E6A73223E3CC4
:100290002F7363726970743E0A3C2F626F64793EFB
:1002A0000A3C2F68746D6C3E007661722076657230
:1002B0003D24442C697061733D24443B3C2F73639F
:1002C000726970743E0A003C21444F4354595045B2
:1002D0002068746D6C3E0A3C68746D6C3E0A3C6824
:1002E0006561643E0A24463C2F686561643E0A3CB1
:1002F000626F64793E0A3C7363726970743E007D7C
:10030000002C2277746F223A7B24537D005D002CF1
:10031000005B24442C244C2C244C5D00305D2C22AA
:100320007073223A5B0024442C00226465767422A8
:100330003A244C2C226E627264223A24442C2265A8
:100340006E223A24442C227264223A24442C2272D3
:1003500073223A24442C2272647374223A244C2C63
:10036000226C6F63223A222445222C2277746B651B
:1003700079223A222445222C2273756E72697365A4
:10038000223A24442C2273756E736574223A2444F5
:100390002C22656970223A244C2C226C7763223A15
:1003A000244C2C226C737763223A244C2C226C72DE
:1003B000756E223A5B24442C24442C24442C244C77
:1003C0005D2C227362697473223A5B003C68722070
:1003D0002F3E3C666F726D206E616D653D6F6620CD
:1003E000616374696F6E3D6375206D6574686F64D9
:1003F0003D6765743E3C703E3C623E53637269707B
:10040000742055524C3A3C2F623E3C696E707574B4
:1004100020747970653D746578742073697A653DE0
:100420003332206D61786C656E6774683D313237A8
:100430002076616C75653D22244522206E616D65D4
:100440003D6A73703E3C2F703E3C703E4465666171
:10045000756C742069732024533C6272202F3E49CE
:1004600066206C6F63616C206F6E2075534420634F
:100470006172642C20757365202E2F3C2F703E3CDA
:10048000703E3C623E50617373776F72643A3C2FEA
:10049000623E3C696E70757420747970653D706160
:1004A0007373776F72642073697A653D3332206E9F
:1004B000616D653D70773E3C696E7075742074792E
:1004C00070653D7375626D69743E3C2F703E3C688B
:1004D00072202F3E3C2F666F726D3E3C73637269D3
:1004E0007074207372633D68747470733A2F2F7543
:1004F000692E6F70656E737072696E6B6C65722EAB
:10050000636F6D2F6A732F6861736865722E6A73EB
:100510003E3C2F7363726970743E005D7D00225D06
:1005200000225D2C00245300244C5D2C2200244C1E
:100530002C0024445D2C5B0024442C005B24442CC0
:1005400024442C24442C5B00226E70726F6773224B
:100550003A24442C226E626F61726473223A2444FE
:100560002C226D6E70223A24442C226D6E737422FC
:100570003A24442C22706E73697A65223A24442C02
:10058000227064223A5B002C2264657870223A243F
:10059000442C226D657870223A24442C22687774AA
:1005A000223A24447D002C00222446223A2444008E
:1005B0006E616D65007069640070696400706964E3
:1005C000005D2C226D61786C656E223A24447D00BA
:1005D0002C00222453220022736E616D6573223A2F
:1005E0005B0073746E5F73657100726673746E0086
:1005F00073746E5F646973006D61736F703200694C
:10060000676E6F72655F7261696E006D61736F70A6
:10061000005D2C002C00244400222446223A5B007A
:10062000707700485454502F312E31203230302012
:100630004F4B0D0A00436F6E74656E742D547970C4
:10064000653A206170706C69636174696F6E2F6ABE
:10065000736F6E0D0A436F6E6E656374696F6E3AE9
:1006600020636C6F73650D0A004163636573732DBE
:10067000436F6E74726F6C2D416C6C6F772D4F727F
:100680006967696E3A202A0D0A0043616368652D27
:10069000436F6E74726F6C3A206D61782D6167657F
:1006A0003D302C206E6F2D63616368652C206E6F6A
:1006B0002D73746F72652C206D7573742D72657651
:1006C000616C69646174650D0A0024462446244601
:1006D00024460D0A7B0024462446244624460D0A5F
:1006E00000436F6E74656E742D547970653A207492
:1006F0006578742F68746D6C0D0A002446244624B6
:100700004624460D0A0000010800060400014500C9
:100710000082000040002000504F53542024462007
:10072000485454502F312E300D0A486F73743A20BC
:1007300024460D0A244624534163636570743A20AD
:100740002A2F2A0D0A436F6E74656E742D4C656EE8
:100750006774683A2024440D0A436F6E74656E74A2
:100760002D547970653A206170706C6963617469A9
:100770006F6E2F782D7777772D666F726D2D75726E
:100780006C656E636F6465640D0A0D0A245300473F
:100790004554202446245320485454502F312E30A1
:1007A0000D0A486F73743A2024460D0A24460D0A38
:1007B0000D0A004163636570743A20746578742F84
:1007C00068746D6C00E30004FA000100000001771A
:1007D0006561746865722E6F70656E737072696E94
:1007E0006B6C65722E636F6D002F77656174686541
:1007F000720024442E70793F6C6F633D2445266B54
:1008000065793D2445266677763D24442677746FC6
:100810003D24530065697000747A007363616C65F0
:100820000073756E7365740073756E72697365001D
:1008300077746F7074732E7478740020736563001E
:1008400025004E6F00596573002B002B0020474D8B
:1008500054003030003A002D002B000020202020D2
:10086000002D44697361626C6564212D003A004576
:10087000004D433A0020284D414329002D002E0011
:100880002D0020002020003A0020002041430020BD
:100890004C4100204443004857207600204F7065AB
:1008A0006E537072696E6B6C657200486F6C642079
:1008B000423320746F20736176650042312F4232DB
:1008C0003A2B2F2D2C2042333A2D3E003D3D5365CF
:1008D00074204F7074696F6E733D3D00506C65619C
:1008E000736520576169742E2E2E005265736574EE
:1008F00074696E672E2E2E00436F6E6E6563746989
:100900006E672E2E2E0046573A0066777600545AB0
:100910006F6E653A00747A004E54503F006E7470EA
:1009200000444843503F0064686370004F532E6991
:1009300070313A00697031002E6970323A00697086
:1009400032002E6970333A00697033002E697034BA
:100950003A006970340047572E6970313A00677762
:1009600031002E6970323A00677732002E69703399
:100970003A00677733002E6970343A0067773400A5
:10098000506F72743A00687030000068703100482F
:10099000573A2000687776004578702E20626F61A4
:1009A00072643A006578740053746E2064656C61FB
:1009B000793A00736474004D6173313A006D61736C
:1009C000004D61733120206F6E2061646A3A006DC2
:1009D000746F6E004D617331206F66662061646ACA
:1009E0003A006D746F66005261696E2073656E73B4
:1009F0006F723A00757273004E6F726D616C6C7934
:100A0000206F70656E3F0072736F00252057617410
:100A10006572696E673A00776C004465762E2065D2
:100A20006E61626C653F0064656E0049676E2070A0
:100A300077643F0069706173004465762E204944F5
:100A40003A006465766964004C434420636F6E2EFF
:100A50003A00636F6E004C4344206C69742E3A0078
:100A60006C6974004C43442064696D2E3A006469DB
:100A70006D00426F6F73743A006273740055736552
:100A800020776561746865723F00757774004E5415
:100A9000502E6970313A006E747031002E697032D8
:100AA0003A006E747032002E6970333A006E7470C2
:100AB00033002E6970343A006E747034004C6F67E6
:100AC0003F006C67004D6173323A006D6173320014
:100AD0004D61733220206F6E2061646A3A006D743C
:100AE0006F6E32004D617332206F66662061646AFA
:100AF0003A006D746F66320046576D3A0066776D46
:100B000000526573657420616C6C3F00726573659B
:100B100074004D6F6E00547565005765640054682D
:100B20007500467269005361740053756E000000D1
:100B30002100240027002A000000220025002800B0
:100B40002B000000200023002600290002020202E0
:100B50000202020204040404040404040303030361
:100B60000303030301010101010101010102040862
:100B70001020408001020408102040800102040877
:100B80001020408080402010080402010000000175
:100B9000020000000000000004030706000000003F
:100BA0000000000000000000000000007C3C3E5EF1
:100BB0002B3D3F2F5B5D3B2C2A225C009A09B0390C
:100BC0004A4185535554A76A11241FBECFEFD0E187
:100BD000DEBFCDBF13E0A0E0B1E0E0EDFBED02C071
:100BE00005900D92A036B107D9F71EE0A0E6B3E05C
:100BF00001C01D92AB3AB107E1F71BE0C8ECDBE0A6
:100C000004C02297FE010E94E26DCC3BD107C9F7D8
:100C10000E94CC510C9453060C940000FC018827D0
:100C20009927E89421912032E9F3293010F02E30F1
:100C3000C8F32B3241F02D3239F4689404C00E947D
:100C40003607820F911D219120532A30C0F31EF4E4
:100C5000909581959F4F08951F93FC0199278827B0
:100C6000BC01E89411911032E9F3193010F01E30F4
:100C7000C8F31B3251F01D3249F4689406C00E943B
:100C80002107610F711D811D911D119110531A30A3
:100C9000B0F33EF490958095709561957F4F8F4F9E
:100CA0009F4F1F910895F8940C94E66DFB01DC01B1
:100CB00002C005900D9241505040D8F70895FB01B5
:100CC000DC010D900020E9F7119705900D920020AE
:100CD000E1F70895FB01DC0105900D920020E1F79A
:100CE0000895FB01DC0104C08D910190801921F46D
:100CF00041505040C8F7881B990B0895FB01DC0157
:100D000002C001900D9241505040D8F70895DC0187
:100D100001C06D9341505040E0F70895FB01DC01A4
:100D20000D900020E9F7119701900D920020E1F756
:100D30000895FC018191861721F08823D9F799271E
:100D400008953197CF010895FB01DC0101900D92C8
:100D50000020E1F70895FB01DC014150504030F0E4
:100D60008D910190801919F40020B9F7881B990B17
:100D70000895FB01DC014150504048F001900D9274
:100D80000020C9F701C01D9241505040E0F708957E
:100D9000A0E0B0E0EEECF6E00C94B36D7C01EB016A
:100DA0008A01690109C0CE012196F6010995F70172
:100DB00081937F010150104001151105A1F7CDB7B6
:100DC000DEB7E8E00C94CF6DA0E0B0E0EAEEF6E02C
:100DD0000C94B36DEC017B018A01690109C0CE015D
:100DE0002196F70161917F01F601099501501040AC
:100DF00001151105A1F7CDB7DEB7E8E00C94CF6D72
:100E0000FB019F01E8944230C4F04532B4F44A300B
:100E100029F497FB1EF4909581959F4F642F7727B7
:100E20000E94456D805D8A330CF0895D8193CB0112
:100E30000097A1F716F45DE251931082C9010C945A
:100E40006307592F482F372F262F660F771F881FCC
:100E5000991F660F771F881F991F620F731F841FCA
:100E6000951F660F771F881F991F08957AE0979F37
:100E7000902D879F802D910D11240895FA01CF9315
:100E8000FF93EF932230CCF02532BCF4C22F2C2FED
:100E9000332744275527FF93EF930E946C6DEF9102
:100EA000FF91605D6A330CF0695D6193B901CA011D
:100EB000605070408040904051F710828F919F9118
:100EC000CF910C946307DC01FC01672F71917723AC
:100ED000E1F7329704C07C916D9370836291AE17F5
:100EE000BF07C8F308950F931F938C01FC018781FE
:100EF00060E00E94055081E090E00E94FD4EF80104
:100F0000878161E00E94055081E090E00E94FD4EE3
:100F1000F801878160E00E94055084E690E00E941D
:100F2000FD4E1F910F910895CF92DF92EF92FF92A5
:100F30000F931F93CF93DF937C01FC01848188235F
:100F4000F9F48701C0E0D0E0C62EDD24F8018085E9
:100F500061E00E94C64FB6010C2E02C075956795E0
:100F60000A94E2F76170F80180850E94055021968D
:100F70000F5F1F4FC430D10549F7C7010E947307A7
:100F8000DF91CF911F910F91FF90EF90DF90CF9065
:100F900008951F93CF93DF93EC01162F8C81882344
:100FA000C1F48D81642F0E9405508E818F3F19F00E
:100FB00060E00E940550612F70E084E075956795B0
:100FC0008A95E1F7CE010E949407CE01612F0E941D
:100FD0009407DF91CF911F91089541E00E94C907C6
:100FE00081E090E0089540E00E94C9070895EF92E3
:100FF000FF920F931F93CF93DF938C017A01677059
:10100000660F660F660F60640E94F307C0E0D0E0D1
:10101000D801ED91FC91D701AC0FBD1F0190F0817B
:10102000E02DC8016C9109952196C830D10581F752
:10103000DF91CF911F910F91FF90EF900895FC01E8
:1010400061896E7F618B68600E94F3070895FC01DF
:101050006189862F8460818B6C60CF010E94F307C9
:101060000895DF93CF93CDB7DEB728970FB6F894E6
:10107000DEBF0FBECDBF9C01FE013196ACEFB2E0EA
:1010800088E00D9001928150E1F7F9018481882375
:1010900029F48489481710F0482F4150E42FF0E0DC
:1010A000EE0FFF1FEC0FFD1F8181680F6068C90103
:1010B0000E94F30728960FB6F894DEBF0FBECDBF8F
:1010C000CF91DF91089561E00E94F30780ED97E0F2
:1010D0000E94FD4E0895CF93DF93EC018C8188230D
:1010E00009F061C088898860888B82E08C8B1D8ABA
:1010F00080E593EC0E94FD4E8D8160E00E940550DA
:101100008F8160E00E9405508E818F3F19F060E072
:101110000E940550688964FD1DC0CE0163E00E94F5
:10112000940784E991E10E94FD4ECE0163E00E94A4
:10113000940784E991E10E94FD4ECE0163E00E9494
:10114000940786E990E00E94FD4ECE0162E00E9485
:10115000940716C06062CE010E94F30784E991E112
:101160000E94FD4E68896062CE010E94F30786E905
:1011700090E00E94FD4E68896062CE010E94F307F4
:1011800068896062CE010E94F30784E0898BCE01FA
:101190000E942708CE010E94630882E08A8BCE015C
:1011A00066E00E94F307DF91CF9108956F927F92DE
:1011B0008F92AF92CF92EF920F93DF93CF93CDB7F1
:1011C000DEB73C01FC01458326830783E086C186A8
:1011D000A28683868C8584878D8585878E85868784
:1011E0008F8587878CE19CE00E94F554F30114827F
:1011F000858161E00E94C64FF30186818F3F19F01F
:1012000061E00E94C64FF301878161E00E94C64FF2
:1012100088E0F301808BCF91DF910F91EF90CF9019
:10122000AF908F907F906F90089580918803811187
:1012300081E00895CF92DF92EF92FF920F931F9378
:10124000CF93DF93C0E6D3E0CC24DD2430E029C087
:101250002A814B818091AD0390E0042F10E080172C
:101260009107D9F49091AE039217B9F48C81882339
:10127000A1F02091B00330E028503040F090AF034F
:10128000EE242E0D3F1DE881F981892F942F63EA0A
:1012900073E043EB53E0099531E00894C11CD11C85
:1012A00025968091880390E0C816D9068CF2832F8A
:1012B000DF91CF911F910F91FF90EF90DF90CF9032
:1012C0000895FC01A681B7816D93B783A68381E061
:1012D00090E008951F920F920FB60F9211242F9352
:1012E0003F934F935F936F937F938F939F93AF93AE
:1012F000BF93EF93FF9380911E078F5F80931E072C
:1013000080911E07803128F0E0911C07F0911D07A5
:101310000995FF91EF91BF91AF919F918F917F912F
:101320006F915F914F913F912F910F900FBE0F9052
:101330001F90189589E18093DC061092DF061092C9
:10134000F3061092FA061092FC06109217071092FC
:10135000160788E093E0909315078093140708958B
:101360000E94BA4BAB01BC019091A30920E014C0CC
:10137000A22FB0E0FD01EF54F74F8081882359F090
:10138000AA0FBB1FAA0FBB1FAF50B84F4D935D9361
:101390006D937C9313972F5F291750F30895EF9265
:1013A000FF920F931F938091F501882309F44FC09A
:1013B00080919A0982958F7009F049C080919909AE
:1013C00083FD45C08091D7099091D809A091D90992
:1013D000B091DA090097A105B10599F00E94BA4BC6
:1013E0002091D7093091D8094091D9095091DA0953
:1013F0002D573E4A4E4F5F4F26173707480759076C
:1014000030F50E94BA4B6093D7097093D809809346
:10141000D9099093DA0980911F07882329F48CE772
:1014200090E061E00E94CD420E9433167B018C0166
:10143000611571058105910551F00E94D03E8091A2
:10144000990984FF04C0C801B7010E9470391F9137
:101450000F91FF90EF900895AF92BF92CF92DF92DD
:10146000EF92FF920F931F938091990983FD9AC089
:1014700080919A0982958F7091E0E92EF12C02C03B
:10148000EE0CFF1C8A95E2F70027F7FC0095102F61
:101490000E94FD3E5B016C01C801B7012BE330E007
:1014A00040E050E00E941A6D2091E3093091E40978
:1014B0004091E5095091E609260F371F481F591F33
:1014C0002A153B054C055D0508F06CC00E94FD3EE9
:1014D0006093E3097093E4098093E5099093E6092A
:1014E00080911F07882359F485E69AE06FE041E078
:1014F0000E94310885E69AE064E00E94ED078DE7DE
:1015000099E00E9450300E947F4E7B018C010E9426
:101510001E350E949D308DE799E00E94123388238A
:1015200061F40E947F4E6E197F09800B910B683C1D
:1015300071058105910558F322C080919A098F7039
:1015400002C08F70806680939A0980919A09829573
:101550008F7090E08630910534F080919909806415
:10156000809399091FC00397ECF00E947A4C88235E
:10157000C9F080919A098F7080939A0913C0809165
:101580009A09282F22952F702F5F2F70922F9295F6
:10159000907F8F70892B80939A0930E02730310536
:1015A00084F6D3CF1F910F91FF90EF90DF90CF90F3
:1015B000BF90AF900895EF92FF920F931F938C010D
:1015C0008BED96E060E071E040E00E942C622AE53D
:1015D000E22E2AE0F22EC701B8010E94A4060CEE0A
:1015E00019E0C8016DE771E00E94A406C801B701C7
:1015F0000E948E06C8016EE970E00E945F061F918E
:101600000F91FF90EF900895CF93DF93EC018091BD
:10161000C102882361F18091990985FF28C0CE011C
:1016200062E071E043E050E00E94AB06009771F485
:101630008BED96E06DE771E040E00E942C6288231C
:10164000B1F08AEF96E00E94DE5A11C0CE010E94EE
:10165000DB0A8BED96E06CEE79E00E94286288232D
:1016600031F08BED96E06CEE79E00E940562DF913F
:10167000CF9108958F929F92AF92BF92CF92DF92B7
:10168000EF92FF920F931F93DF93CF93CDB7DEB707
:101690006E970FB6F894DEBF0FBECDBFE82E4A019D
:1016A0005B018091C102882309F416C1CB01BA0104
:1016B00020E831E541E050E00E946C6DCA01B901BB
:1016C0004CEE59E02AE030E00E943E078CEE99E0B3
:1016D0000E94DB0A8091990985FFFEC08BED96E0A0
:1016E00060E071E040E00E942C628BED96E06DE7D7
:1016F00071E040E00E942C62882351F48BED96E06B
:101700006DE771E041E00E940962882309F4E4C0BA
:101710001D821F821C821B8283E593E09A8389834A
:101720008E010B5F1F4F4CEEC42E49E0D42EC80132
:10173000B60142E40E947660F82E4F89588D698D7B
:101740007A8DC8010E94FD55FF2009F4C5C0C6016D
:101750006CE970E00E946A06EE20D1F5F601019076
:101760000020E9F73197EC19FD09EC0DFD1D809182
:10177000E20890E0BF014AE050E00E940007C60185
:101780006AE970E00E945F06F60101900020E9F727
:101790003197EC19FD09EC0DFD1D8091E10890E0F9
:1017A000BF014AE050E00E940007C60168E970E00E
:1017B0000E945F06F60101900020E9F73197EC19CD
:1017C000FD09EC0DFD1D8091E3089091E4085AC0DD
:1017D000C60164E970E00E945F06EE2DF0E0EE0FB6
:1017E000FF1FEC57FE4F60817181C6010E948E067B
:1017F000C60161E970E00E945F0622E0E216B9F0DE
:1018000033E0E31699F141E0E41609F040C0F60137
:1018100001900020E9F73197EC5EF9408091CE0904
:101820009091CF09A091D009B091D1090FC0F601D4
:1018300001900020E9F73197EC5EF9408091D209E0
:101840009091D309A091D409B091D509A501940133
:10185000281B390B4A0B5B0BCA01B901E451F64F47
:10186000AF012AE030E00E943E0711C0F60101906E
:101870000020E9F73197EC5EF940E451F64F809192
:10188000EB0990E0BF014AE050E00E9400070CEE37
:1018900019E0C8016FE870E00E945F06F80101904E
:1018A0000020E9F73197E01BF10BE00FF11FC501B4
:1018B000B401AF012AE030E00E943E07C8016BE8A6
:1018C00070E00E945F06CE010196B8010E94CD62D1
:1018D000CE0105960E9465586E960FB6F894DEBF4D
:1018E0000FBECDBFCF91DF911F910F91FF90EF9071
:1018F000DF90CF90BF90AF909F908F900895CF9240
:10190000DF92EF92FF921F936B017C018091200781
:1019100090912107A0912207B09123078C579C4FEB
:10192000AF4FBF4F8C159D05AE05BF0578F5C09232
:101930002007D0922107E0922207F09223072091FE
:10194000EB0930E040E050E010912407612F70E097
:1019500080E090E00E941A6D20917302620F711D69
:10196000811D911D1F5F10932407212F30E040E05F
:1019700050E00E946C6D2093EB09103639F483E03F
:10198000B701A6010E943A0B109224071F91FF9005
:10199000EF90DF90CF9008950E943D410E942A4A27
:1019A0000E940B2A08952F923F924F925F926F925E
:1019B0007F928F929F92AF92BF92CF92DF92EF92DF
:1019C000FF920F931F93DF93CF93CDB7DEB72C9782
:1019D0000FB6F894DEBF0FBECDBF7B018C014B016B
:1019E0005C010894811C911CA11CB11C80914F02C8
:1019F0000E94F1286C012091E9083091EA08409199
:101A0000EB085091EC08E216F3060407150718F0EE
:101A10008501740109C07C010027F7FC0095102F97
:101A2000E20EF31E041F151F4090A30980919B092D
:101A3000282F30E03A83298380919C09282E332473
:101A4000609199096695669566956170552481E067
:101A5000682E712CC601AA2797FDA095BA2F8B83FB
:101A60009C83AD83BE8380C0E52DF0E0A981BA815F
:101A7000A615B70509F474C02614370409F470C01C
:101A8000CF01880F991F880F991FA1EFCA2EA7E0D9
:101A9000DA2EC80ED91ED6012D913D914D915C9143
:101AA000211531054105510509F45AC0DC01AF5C2F
:101AB000B84FB887AF838D919D910D90BC91A02DAB
:101AC0000097A105B10509F04BC0DF0173E0B695A1
:101AD000A7957A95E1F7752D7770FD01EC55F64FD6
:101AE000808190E0072E02C0959587950A94E2F7D1
:101AF00080FD36C0A853B64F8C9190E002C09595FA
:101B000087957A95E2F780FF1AC0EF81F885E08229
:101B1000F18202831383DA01C9018E0D9F1DA01F7C
:101B2000B11FF60180839183A283B383EB80FC8095
:101B30000D811E81E80EF91E0A1F1B1F10C0AF8108
:101B4000B8858D929D92AD92BC921397280D391D48
:101B50004A1D5B1DF601208331834283538361E07C
:101B600053940894611C711C541408F47DCF617067
:101B7000660F660F660F80919909877F862B809389
:101B800099092C960FB6F894DEBF0FBECDBFCF914A
:101B9000DF911F910F91FF90EF90DF90CF90BF905A
:101BA000AF909F908F907F906F905F904F903F90FD
:101BB0002F900895AF92BF92CF92DF92EF92FF9253
:101BC0000F931F93DF93CF93CDB7DEB7C754D040A9
:101BD0000FB6F894DEBF0FBECDBFE82E0E94CC0C2E
:101BE0008E2D81508E3F28F4BE016F5F7F4F0E9483
:101BF000032CDD24FF244EEFC42E3CE0A32EB12C99
:101C0000AC0EBD1E41C00F2D10E08FEFE81629F479
:101C100042E050E060E070E012C0EE2009F440C005
:101C2000F501E00FF11F80810E9481280E94AE28FB
:101C3000AB01BC01411551056105710521F1F801A8
:101C400023E0F695E7952A95E1F7E454F64F808175
:101C500090E02F2D277002C0959587952A95E2F781
:101C600080FD11C0F801EE0FFF1FEE0FFF1FEF50B8
:101C7000F84F40835183628373830F54174FF801E9
:101C8000C082DD24D394F3948091A309F81608F45C
:101C9000BACFDD2051F00E94BA4B0E94D30C05C090
:101CA0004CE350E060E070E0CACFC95BDF4F0FB695
:101CB000F894DEBF0FBECDBFCF91DF911F910F9182
:101CC000FF90EF90DF90CF90BF90AF900895DF929C
:101CD000EF92FF920F931F93CF93DF93D82E7A0149
:101CE0008B01C82FD0E060E00E941941FE01EE0F89
:101CF000FF1FEE0FFF1FEF5CF84F20813181428103
:101D00005381211531054105510509F45EC02E1599
:101D10003F054007510708F042C0BE016F5F7F4F8B
:101D200080919B0990E08617970711F180919C099B
:101D300090E086179707E1F0D092E108FE01EF549A
:101D4000F74F80818093E208C701821B930B909329
:101D5000E4088093E308E092E508F092E608009337
:101D6000E7081093E80880E0B801A7010E943A0B49
:101D7000FE0163E0F695E7956A95E1F7EE53F64FBD
:101D8000808190E02D2D277002C0959587952A952A
:101D9000E2F780FF04C08D2D60E00E94C249FE0181
:101DA000EE0FFF1FEE0FFF1FDF01AF5CB84F1D925C
:101DB0001D921D921C921397EF50F84F10821182C2
:101DC00012821382CF54D74F1882DF91CF911F9187
:101DD0000F91FF90EF90DF9008954F925F926F9276
:101DE0007F928F929F92AF92BF92CF92DF92EF92AB
:101DF000FF920F931F93CF93DF935B016C01909140
:101E0000990944244394492291FD0CC080916702B2
:101E1000882311F4FF2408C0F92EF694F69481E08B
:101E2000F82211F0FF24F394EE2469C08E2D90E087
:101E3000FC01E055F64F3081FC01EC55F64F208156
:101E40005E2C550C550C550C00E010E0622E7724EA
:101E5000832E9924452D400FC42FD0E09E012F5F83
:101E60003F4F80919B0990E08217930709F440C08F
:101E700080919C0990E082179307D1F1FE01EF5405
:101E8000F74FE081E336A0F5442059F0FF2081F1BF
:101E9000C401002E02C0959587950A94E2F780FD53
:101EA00027C0C301002E02C0959587950A94E2F7DA
:101EB00080FF06C0842FB601A5010E94670E18C0DE
:101EC000EE23B1F0FE01EE0FFF1FEE0FFF1FDF014B
:101ED000AF5CB84F1D921D921D921C921397EF504C
:101EE000F84F1082118212821382CF54D74F18827A
:101EF0000F5F1F4F0830110509F0ACCFE3948091BC
:101F0000A209E81608F492CFDF91CF911F910F91AB
:101F1000FF90EF90DF90CF90BF90AF909F908F9009
:101F20007F906F905F904F90089580919A0982956D
:101F30008F7009F04AC08091990983FD46C00E94C4
:101F4000BA4B2091DF093091E0094091E1095091AD
:101F5000E2092115310541055105B9F02F553E4AD9
:101F60004E4F5F4F261737074807590770F41092F6
:101F7000DF091092E0091092E1091092E2098091C4
:101F8000990980648093990908952091DB09309123
:101F9000DC094091DD095091DE092115310541052B
:101FA000510549F02F5E314F4F4F5F4F26173707CE
:101FB0004807590750F46093DB097093DC0980935C
:101FC000DD099093DE090E94C636089584B7877FA5
:101FD00084BF0E94A54A0E94A1470E94E1296CE3A8
:101FE00070E080E090E00E94C73E8091990984FDF6
:101FF00003C080E090E002C080E999E30E94703F56
:1020000064EF71E080E090E00E948D4E0E94BA4B38
:102010000E94F44B8091600088618093600081E2AF
:1020200080936000809160008064809360000E94D3
:102030007A4C882321F080919A098F7004C0809196
:102040009A098F70806180939A0964EF71E080E053
:1020500090E00E948D4E0E942A4A8FE08093D6091C
:102060000895FF920F931F93DF93CF93CDB7DEB701
:10207000C754D0400FB6F894DEBF0FBECDBF8091DD
:10208000D609882321F40E94554110921F0782E04F
:102090000E94C141F82E082F10E086FF0FC18FE08B
:1020A0008093D60981E00E94554180911F078330BB
:1020B00020F4813008F0BEC004C0833009F0FEC0B7
:1020C000ADC0C8018F7090708230910509F449C08D
:1020D0008430910509F483C0019709F0EFC0F7FE41
:1020E0001FC08DE10E945950892B21F48FEF0E946F
:1020F000DA0DE4C08EE10E945950892B71F48DE70E
:1021000099E060E00E94D84485E69AE060E041E012
:102110000E94310880E091E01EC00E94B009CEC04C
:1021200081E799E060E00E94D84485E69AE060E0AB
:1021300041E00E9431088EEF90E00E947B42609166
:10214000E7017091E80185E69AE04AE050E00E94DC
:10215000655186EF90E00E947B4281E080931F07EB
:10216000ADC0F7FE32C08FE10E945950892B71F447
:1021700087EE99E061E00E94D84485E69AE060E04D
:1021800041E00E94310880EF90E0E5CF8DE10E94B0
:102190005950892BB9F485E69AE00E946308609152
:1021A000DF097091E0098091E1099091E2090E94B4
:1021B000F44B85E69AE060E041E00E94310889EE48
:1021C00090E0C9CF0E94F14079C085E69AE00E9474
:1021D00063088BE699E00E948B4282E0BFCFF7FE56
:1021E0000CC08AED90E060E00E94CD4289EC90E066
:1021F00061E00E94CD4283E0B1CF20919A09822F05
:102200008F7090E06091A209019670E00E94596D74
:102210008F70207F282B20939A0950C00F70107068
:102220000430110509F04AC0F7FE07C080912F075E
:102230000E94DA0D10921F0741C080912F0790E095
:102240006091300770E06F5F7F4F01960E94596D7B
:1022500080932F0788EB90E060E00E94CD42809150
:102260002F07882331F18150BE016F5F7F4F0E949D
:10227000032C86EB90E061E00E94CD4285E69AE077
:1022800060E041E00E94310860912F0785E69AE006
:1022900070E04AE050E00E94B65183EB90E00E946B
:1022A0007B4285E69AE0BE01645C7F4F0E94C95183
:1022B00005C083EA90E061E00E94CD42C95BDF4F38
:1022C0000FB6F894DEBF0FBECDBFCF91DF911F9147
:1022D0000F91FF9008952F923F924F925F926F92CD
:1022E0007F928F929F92AF92BF92CF92DF92EF92A6
:1022F000FF920F931F93DF93CF93CDB7DEB7C854F0
:10230000D0400FB6F894DEBF0FBECDBF809155020E
:1023100080939B098091C70280939C090E94BA4BCD
:102320004B015C010E941E350E949D309093260750
:1023300080932507009721F087579C4F0E94252006
:10234000A89510921E070E94311080912B07909142
:102350002C07A0912D07B0912E0788159905AA0585
:10236000BB0509F495C380922B0790922C07A0928D
:102370002D07B0922E078091D609882319F081503D
:102380008093D60980911F07882321F40E94BA4BBD
:102390000E94F44B8091990981FF10C080919509AA
:1023A00090919609A0919709B0919809881699067D
:1023B000AA06BB0690F00E9424460FC080919509A2
:1023C00090919609A0919709B0919809881699065D
:1023D000AA06BB0610F40E9434460E940A4290915D
:1023E00099099695917080919D09869581708917BC
:1023F000C9F0992349F08092D2099092D309A09212
:10240000D409B092D50905C082E0B501A4010E94AB
:102410003A0B90919909927080919D098D7F892B3B
:1024200080939D09909199099695969591708091C8
:102430009D098695869581708917C9F0992349F081
:102440008092CE099092CF09A092D009B092D10982
:1024500005C081E0B501A4010E943A0B9091990951
:10246000947080919D098B7F892B80939D09C50174
:10247000B4012CE330E040E050E00E946C6D790143
:102480008A018091270790912807A0912907B09190
:102490002A07E816F9060A071B0709F4C5C0E092E7
:1024A0002707F09228070093290710932A0755243D
:1024B00044241E010894211C311CABC0852DB101A0
:1024C0000E94032CC101B501A4010E94132B882393
:1024D00009F49EC000E0852D8F5F29968FAF299764
:1024E00092C0602E772493012F5F3F4F80919B090C
:1024F00090E08217930709F485C080919C0990E0D1
:102500008217930709F47EC0D30113E0B695A7950F
:102510001A95E1F7202F2770FD01EC55F64F8081C9
:1025200090E0022E02C0959587950A94E2F780FD0F
:1025300069C0A454B64F8C9190E002C095958795E0
:102540002A95E2F780FD5EC0ECE0F0E0EC0FFD1FA5
:10255000E60DF71D2081222309F454C0F301EE0F8C
:10256000FF1FEE0FFF1FEF50F84F80819181A28176
:10257000B3810097A105B10509F044C0822F0E94E4
:1025800081280E94AE286B017C01898181FF1FC0D8
:1025900010917302212F30E040E050E0C701B601F6
:1025A0000E941A6D24E630E040E050E00E946C6D1D
:1025B000C901DA016C017D01143148F49AE0C916B1
:1025C000D104E104F10418F4CC24DD247601F301F4
:1025D000EE0FFF1FEE0FFF1FEF50F84FC082D182AA
:1025E000E282F382C114D104E104F10459F0E1EB79
:1025F000F8E06E0E7F1E29968FAD2997F301808338
:10260000442443940F5F8091A309081708F469CF0D
:10261000539480913007581608F450CF442021F08D
:10262000C501B4010E94D30C8091990983FFF7C0C2
:10263000772486C0872D90E0FC01EC55F64F208171
:10264000672C660C660C660CEE24FF24222E3324C5
:1026500062EC462E69E0562E480E591ED62CDE0C32
:102660000D2D10E098012F5F3F4F80919B0990E066
:102670008217930709F45BC080919C0990E0821750
:10268000930709F454C0F801EF54F74F8081882371
:10269000A9F0F801EE0FFF1FEE0FFF1FEF50F84FEC
:1026A00080819181A281B38188169906AA06BB0612
:1026B00028F08D2DB501A4010E94670EC1010E2CDA
:1026C00002C0959587950A94E2F780FD30C0980185
:1026D000220F331F220F331FF901EF5CF84F808167
:1026E0009181A281B38188169906AA06BB06F8F0EB
:1026F0002F50384FF90180819181A281B3818816D2
:102700009906AA06BB0698F48D2D61E00E94194136
:10271000F201808190E00E2C02C0959587950A9475
:10272000E2F780FF04C08D2D61E00E94C249089449
:10273000E11CF11CF8E0EF16F10409F08FCF73945F
:102740008091A209781608F475CFC501B4010E94E2
:10275000ED0E0E942A4A1092E9081092EA0810929F
:10276000EB081092EC087091A30960E080E03FC094
:10277000A62FB0E0FD01EE0FFF1FEE0FFF1FEF5081
:10278000F84FE080F180028113818E149F04A0062F
:10279000B10660F523E0B695A7952A95E1F7A85311
:1027A000B64F8C9190E0262F277002C095958795A3
:1027B0002A95E2F780FF19C02091E9083091EA08D4
:1027C0004091EB085091EC08D801C701E216F306DE
:1027D0000407150710F4DA01C9018093E908909302
:1027E000EA08A093EB08B093EC0881E06F5F6717ED
:1027F00008F4BECF882399F40E943D410E942A4AE2
:102800000E940B2A80919909877F80939909809172
:10281000550280939B098091C70280939C09D090B8
:102820009B09DD2009F470C080915B0290916102E8
:10283000C090A309FF2401E010E02D2C3324482E82
:10284000552466247724492F50E060E070E04C5313
:1028500050406040704050C02F2D30E020163106AF
:1028600009F447C0D90193E0B695A7959A95E1F789
:1028700087E0E82EEF20FD01EC55F64F808190E0D7
:102880000E2C02C0959587950A94E2F780FF31C01F
:10289000A655B64F8C9190E002C095958795EA9425
:1028A000E2F780FF26C0220F331F220F331FF901EA
:1028B000EF5CF84F80819181A281B381840D951DD9
:1028C000A61DB71D88169906AA06BB0690F02F50C4
:1028D000384FF90180819181A281B381840F951FC6
:1028E000A61FB71F88159905AA05BB0510F061E062
:1028F00007C0F3940F5F1F4FFC1408F4ADCF60E0E6
:102900008D2D81500E941941D0909C09DD2009F441
:1029100070C08091CD029091D302C090A309FF2492
:1029200001E010E02D2C3324482E55246624772412
:10293000492F50E060E070E04C53504060407040E0
:1029400050C02F2D30E02016310609F447C0D901C0
:10295000E3E0B695A795EA95E1F797E0E92EEF2039
:10296000FD01EC55F64F808190E00E2C02C095954C
:1029700087950A94E2F780FF31C0AA54B64F8C9134
:1029800090E002C095958795EA94E2F780FF26C013
:10299000220F331F220F331FF901EF5CF84F8081A4
:1029A0009181A281B381840D951DA61DB71D881646
:1029B0009906AA06BB0690F02F50384FF901808186
:1029C0009181A281B381840F951FA61FB71F88151F
:1029D0009905AA05BB0510F061E007C0F3940F5FED
:1029E0001F4FFC1408F4ADCF60E08D2D81500E9484
:1029F0001941C501B4010E94ED0E0E942A4A80913E
:102A00001F07882389F4C501B40123E030E040E0CA
:102A100050E00E946C6D9B01AC01245F3C4F81E053
:102A2000F90160810E943E448091990986FF22C08D
:102A300083FD20C010E03E010894611C711CBCE3C2
:102A4000CB2ED12CE12CF12CC80CD91CEA1CFB1C80
:102A50000CC0812FB3010E94032CC301B701A60152
:102A60000E94132B882331F41F5F809130071817C1
:102A700080F30BC00E94CF090E942C0A0E94950F80
:102A8000C501B4010E947F0C03C00E94F140F2CF47
:102A9000C85BDF4F0FB6F894DEBF0FBECDBFCF913E
:102AA000DF911F910F91FF90EF90DF90CF90BF903B
:102AB000AF909F908F907F906F905F904F903F90DE
:102AC0002F9008959C01F999FECF1FBA32BD21BD08
:102AD00060BD0FB6F894FA9AF99A0FBE0895EF9276
:102AE000FF920F93CF93DF93DC01EB01722F532FF3
:102AF000002331F4822F932F9C01F90160E03EC046
:102B0000822F932FFC0160E019C08491332727FDA9
:102B1000309590E02817390769F43196849188231D
:102B200061F411968C918D3329F4872F952FFC0138
:102B300061E003C0872F952FFC0111962C91222371
:102B400039F1203229F12A3019F16623F1F224C03B
:102B50008081981771F431968081882371F41196E1
:102B60008C918D3331F4872F952F9C01F90161E011
:102B700004C0872F952F9C01F90111969C919923F0
:102B800039F0903229F09A3019F0662309F304C025
:102B9000613011F030E018C07A2F50E041505040C1
:102BA00002C0299311963A2F371B2C91222359F0FA
:102BB000203249F02A3039F0263229F0832F90E074
:102BC0008417950774F31882E114F10411F0F701EA
:102BD0006083832FDF91CF910F91FF90EF90089545
:102BE000CF93DF93FC01EC0137C08B3211F480E20C
:102BF00031C0853279F5DF0111969181392F30533B
:102C00003A3070F0892F8156863010F4375208C060
:102C1000892F8154863010F030E002C0392F3753AD
:102C2000FD01319611962C91922F90539A3070F0AD
:102C3000822F8156863010F4975208C0822F81541B
:102C4000863010F090E002C0922F9753832F829528
:102C5000807F892B899331968081882331F6188271
:102C6000DF91CF9108956F927F928F929F92BF9242
:102C7000CF92DF92EF92FF920F931F93DF93CF9348
:102C8000CDB7DEB728970FB6F894DEBF0FBECDBF25
:102C90008091A90289838091AF028A838091B502D5
:102CA0008B838091BB028C83BB243E010894611C02
:102CB000711C85E0882E912C8C0E9D1E6091D40194
:102CC0006F5F6093D401C3010E94FF2F0E947F4E6B
:102CD0006B017C0188EE93E0A0E0B0E0C80ED91E45
:102CE000EA1EFB1E0E941E358C010E949D30012BA6
:102CF00071F1C4016091D4010E943B2D882339F108
:102D00002D813E814F81588520583E474A4A53487D
:102D100008C0B39494E1B91689F620E030E040E0B1
:102D200050E0B901CA0128960FB6F894DEBF0FBE75
:102D3000CDBFCF91DF911F910F91FF90EF90DF906A
:102D4000CF90BF909F908F907F906F9008950E943A
:102D50007F4E6C157D058E059F0520F2DACFAF9270
:102D6000BF92DF92EF92FF920F931F93CF93DF9367
:102D700000D000D004E117E0ADB7BEB712961C93A7
:102D80000E93119788ED91E014969C938E93139770
:102D90000E940040FF240F900F900F900F90D02EB4
:102DA000E12E25EDA22E21E0B22EC3EDD1E04FC0E1
:102DB0000F2D10E000D000D000D0ADB7BEB71196F7
:102DC000EDB7FEB7D182E2821396BC92AE92129713
:102DD000F80193E0F595E7959A95E1F7EC55F64FF4
:102DE000808190E098012770307002C0959587959A
:102DF0002A95E2F78170907015969C938E931497A4
:102E00000E9400408091A30990E001972DB73EB742
:102E10002A5F3F4F0FB6F8943EBF0FBE2DBF081775
:102E20001907A1F000D000D0ADB7BEB71196DC9263
:102E300011971296EC9212971496DC93CE931397F7
:102E40000E9400400F900F900F900F90F3942091EC
:102E5000A309F21608F4ACCF00D000D000D0EDB733
:102E6000FEB7319684E197E0ADB7BEB712969C935A
:102E70008E93119781EC91E0938382832483158252
:102E80000E940040EDB7FEB736960FB6F894FEBF2D
:102E90000FBEEDBFDF91CF911F910F91FF90EF908B
:102EA000DF90BF90AF9008958F929F92AF92BF92A4
:102EB000DF92EF92FF920F931F93CF93DF93EB017B
:102EC00000D000D000D0EDB7FEB7319604E117E096
:102ED000ADB7BEB712961C930E93119729E136E059
:102EE00033832283958384830E940040FF24EDB7BF
:102EF000FEB736960FB6F894FEBF0FBEEDBFD02ECC
:102F0000E12E46E1842E46E0942E34E1A32E36E0F5
:102F1000B32E40C000D000D000D0ADB7BEB71196E0
:102F2000EDB7FEB7D182E28213969C928E921297F1
:102F30000F2D10E0FE01E00FF11F808114968C939D
:102F4000149715961C920E9400408091A20990E06F
:102F500001972DB73EB72A5F3F4F0FB6F8943EBF9B
:102F60000FBE2DBF08171907A1F000D000D0ADB7D4
:102F7000BEB71196DC9211971296EC9212971496A6
:102F8000BC92AE9213970E9400400F900F900F904A
:102F90000F90F3948091A209F81608F4BBCF00D0EB
:102FA00000D084E197E0EDB7FEB79283818381E1A1
:102FB00096E0948383830E9400400F900F900F90BF
:102FC0000F90DF91CF911F910F91FF90EF90DF90C5
:102FD000BF90AF909F908F9008958DB79EB70C973C
:102FE0000FB6F8949EBF0FBE8DBFEDB7FEB73196FA
:102FF00084E197E0ADB7BEB712969C938E9311977C
:103000008AEC96E09383828383E296E095838483BF
:1030100085E396E09783868389E696E091878087AB
:103020008AE896E0938782870E9400408DB79EB71A
:103030000C960FB6F8949EBF0FBE8DBF08950E94E8
:10304000ED170E94AF1680E008958DB79EB70C97DC
:103050000FB6F8949EBF0FBE8DBFEDB7FEB7319689
:1030600084E197E0ADB7BEB712969C938E9311970B
:1030700086ED96E09383828383E296E09583848352
:1030800085E396E09783868389E696E0918780873B
:103090008AE896E0938782870E9400408DB79EB7AA
:1030A0000C960FB6F8949EBF0FBE8DBF08958DB7D6
:1030B0009EB70C970FB6F8949EBF0FBE8DBFEDB7AD
:1030C000FEB7319684E197E0ADB7BEB712969C93F8
:1030D0008E9311978BEF96E09383828383E296E041
:1030E0009583848381EE96E0978386838AE896E0D1
:1030F0009187808789E696E0938782870E940040C7
:103100008DB79EB70C960FB6F8949EBF0FBE8DBFBD
:1031100008950F931F930E94571800D000D000D03D
:10312000EDB7FEB7319604E117E0ADB7BEB7129622
:103130001C930E93119787EC92E0938382838BE02C
:1031400092E0958384830E94004000D0EDB7FEB7E3
:103150003196ADB7BEB712961C930E93119789EABC
:1031600092E09383828387ED90E0958384838091BE
:103170007F02868317820E9400400F900F90EDB768
:10318000FEB73196ADB7BEB712961C930E9311974A
:1031900086E792E09383828384E494E0958384833A
:1031A0000E9400408DB79EB706960FB6F8949EBF5A
:1031B0000FBE8DBF80E01F910F9108950E94571898
:1031C0008DB79EB708970FB6F8949EBF0FBE8DBF00
:1031D000EDB7FEB7319684E197E0ADB7BEB7129672
:1031E0009C938E9311978CEC93E09383828384E479
:1031F00094E09583848380E191E0978386830E94A5
:1032000000408DB79EB708960FB6F8949EBF0FBECC
:103210008DBF80E00895EF92FF920F936CEE79E0FE
:1032200048E725E931E001E0EE24FF240E946F1514
:10323000882311F480E105C08CEE99E00E94040B14
:1032400081E00F91FF90EF900895CF93DF939C0161
:103250001092EC09FC01A081B181C0E0D0E00FC068
:103260009C919D3231F09B3221F0892F80538A301E
:1032700068F4FE01E451F64F908321961196F9010E
:10328000808191810A96A817B90750F3C451D64F8F
:1032900018821196F901B183A0838CEE99E00E9407
:1032A0002C06CB01DF91CF9108956F927F928F9280
:1032B0009F92AF92BF92CF92DF92EF92FF920F93C5
:1032C0001F93DF93CF9300D00F92CDB7DEB75C0191
:1032D0006A01DE011196E4E1F3E083E001900D92D2
:1032E0008150E1F7698310E052E0652E712C6C0E7D
:1032F0007D1E4E010894811C911C1CC0812F90E002
:10330000B3014AE050E00E940007C5016CEE79E08D
:1033100048E7940100E0EE24FF240E946F15882303
:1033200041F08CEE99E00E940E06F601E10FF11DCE
:1033300080831F5F8091A209181700F30F900F90F0
:103340000F90CF91DF911F910F91FF90EF90DF9041
:10335000CF90BF90AF909F908F907F906F90089587
:103360008F929F92AF92BF92CF92DF92EF92FF9295
:103370000F931F93CF93DF936C016CEE79E048E7D6
:103380002DEB31E001E0EE24FF240E946F1588232D
:1033900009F488C08CEE99E00E940E06EC0197FDBE
:1033A0007FC08091A30990E0C817D9070CF078C0BE
:1033B000C6016CEE79E048E72AEB31E00E946F1518
:1033C000882309F46FC08CEE99E00E940E06182F36
:1033D0000E94BA4B4B015C01112309F45AC0C6018B
:1033E0006CEE79E048E728EB31E00E946F15882306
:1033F00009F458C08CEE99E00E942C06CB0101978D
:1034000080529D4F08F04CC09E012F5F3F4F80912E
:103410009B0990E08217930709F446C080919C09AC
:1034200090E08217930709F43FC0FE01B3E0F595E1
:10343000E795BA95E1F7F0E0EC55F64F808190E022
:10344000AE014770042E02C0959587950A94E2F765
:1034500080FD2AC0FE01EE0FFF1FEE0FFF1FEF5091
:10346000F84F80819181A281B3810097A105B105B8
:10347000D9F4CB01A0E0B0E080839183A283B38331
:10348000CF54D74F83E68883C501B4010E94D30C83
:1034900005C08C2FB501A4010E94670E81E005C014
:1034A00081E103C080E101C080E3DF91CF911F91F2
:1034B0000F91FF90EF90DF90CF90BF90AF909F90D3
:1034C0008F900895AF92BF92CF92DF92EF92FF92CA
:1034D0000F93DF93CF93CDB7DEB7C857D0400FB669
:1034E000F894DEBF0FBECDBF6C010CEEA02E09E03C
:1034F000B02EB50148E723EE31E001E0EE24FF24D1
:103500000E946F15882311F480E135C0C6016E0159
:103510000894C11CD11CB60148E72FED31E001E051
:10352000EE24FF240E946F15882321F1C501B60106
:1035300040E250E00E94AB060097E1F4C5010E9412
:10354000F01510920C0AF50101900020E9F731976F
:10355000EC5EF9404E2F4F5F403208F040E284EFBE
:1035600093E06CEE79E050E022E635E10E94E4065B
:1035700081E001C083E0C858DF4F0FB6F894DEBF8A
:103580000FBECDBFCF91DF910F91FF90EF90DF90F5
:10359000CF90BF90AF900895EF92FF920F936CEE93
:1035A00079E048E729EF31E001E0EE24FF240E94B2
:1035B0006F15882311F18CEE99E00E94F01510929E
:1035C0002C0AACEEB9E0FD018081803209F08D93C8
:1035D0008081882311F03196F7CFACEEB9E0FD0180
:1035E00001900020E9F7EA1BFB0B84E494E0BD01A5
:1035F000AF0122E635E10E94E4068FEF0F91FF90C4
:10360000EF9008952F923F924F925F926F927F9228
:103610008F929F92AF92BF92CF92DF92EF92FF92E2
:103620000F931F93DF93CF9300D000D000D0CDB77E
:10363000DEB74C0139EEC32E31E0D32E6624772459
:103640004424AA24BB2422E0222E312C2C0E3D1E21
:103650001A2D193209F475C0183109F472C0AA2064
:1036600009F46FC01E3009F46CC0183209F469C047
:10367000103109F466C02A2D9B2DF60150808181FE
:10368000813009F41082D101EFE0F3E085E0019090
:103690000D928150E1F7822FBE016D5F7F4F4AE0AE
:1036A00050E00E940007C4016CEE79E048E7910108
:1036B00000E0EE24FF240E946F15882371F1F601CB
:1036C0008181813011F4808328C08CEE99E00E94C2
:1036D0002C069B01AC01143111F0173221F4245C4B
:1036E0003F4F4F4F5F4F113141F4C9010E94DC2819
:1036F000282F30E040E050E002C057FD0CC0F6013A
:10370000818190E0A0E0B0E082179307A407B5079D
:1037100014F0208302C044244394F601808185156F
:1037200081F0812F8150823010F466246394812FC0
:103730008052843010F4662463941F3111F477248E
:1037400073940894A11CB11C86E090E0C80ED91EA9
:103750009AE2A916B10409F07BCF9CEEC92E99E03C
:10376000D92EC401B60148E725EF31E001E0EE248F
:10377000FF240E946F158823E1F0C6010E94F01516
:1037800010921C0AC60164E174E00E944428882358
:1037900081F0F60101900020E9F7EC19FD0984E1C0
:1037A00094E0B601AF0122E635E10E94E4067724F9
:1037B000739419828CEEC82E89E0D82EC401B6010C
:1037C00048E72FEE31E001E07E010894E11CF11C96
:1037D0000E946F158823E9F0C6010E94F01510922F
:1037E0000C0AC60164E874E00E944428882321F191
:1037F000F60101900020E9F7EC19FD0984E894E056
:10380000B601AF0122E635E10E94E4067724739405
:1038100013C08981882381F01092EC09F601019090
:103820000020E9F7EC5EF94084E894E0B601AF01CE
:1038300022E635E10E94E4068091F501882339F5FE
:10384000C4016CEE79E048E72BEE31E001E0EE24B4
:10385000FF240E946F158823D1F08CEE99E00E941E
:103860002C06162F072FF82EE92E0E94CC0C612F64
:10387000702F8F2D9E2D0E94D03E8091990984FF3C
:1038800006C0612F702F8F2D9E2D0E947039C401AC
:103890006CEE79E048E727EE31E001E0EE24FF240A
:1038A0000E946F15882371F08CEE99E00E94F0154C
:1038B0001092640A80E398E06CEE79E00E9484291B
:1038C00077247394442011F081E117C00E941245BF
:1038D000662041F01092D7091092D8091092D909A8
:1038E0001092DA09772041F01092DB091092DC097E
:1038F0001092DD091092DE0981E026960FB6F89449
:10390000DEBF0FBECDBFCF91DF911F910F91FF9012
:10391000EF90DF90CF90BF90AF909F908F907F906F
:103920006F905F904F903F902F900895AF92BF920D
:10393000CF92DF92EF92FF921F93CF93DF93C9EE66
:10394000D1E010E064E1E62E67E0F62E58EAA52EFD
:1039500055E0B52E46EAC42E45E0D42E8881282FA6
:1039600030E040E050E0143111F0173221F42C53D4
:10397000304040405040113149F4822F0E94F128DC
:103980009C01442737FD4095542F03C01E3109F494
:1039900042C06C817D8161157105E9F11A3121F414
:1039A0008091990987FD37C08DB79EB70A970FB6EA
:1039B000F8949EBF0FBE8DBFEDB7FEB73196ADB781
:1039C000BEB71296FC92EE921197B382A2827583D3
:1039D000648326833783408751870E940040EDB778
:1039E000FEB73A960FB6F894FEBF0FBEEDBF193280
:1039F00091F000D000D0ADB7BEB71296FC92EE9217
:103A000011971496DC92CE9213970E9400400F906B
:103A10000F900F900F901F5F26961A3209F09ECFDD
:103A20000E94F949EDB7FEB73A970FB6F894FEBF7A
:103A30000FBEEDBF319624E137E0ADB7BEB71296A9
:103A40003C932E93119727E835E0338322839583A7
:103A5000848385E090E0978386838091A1098087A5
:103A600011860E940040EDB7FEB73A960FB6F89463
:103A7000FEBF0FBEEDBFDF91CF911F91FF90EF9082
:103A8000DF90CF90BF90AF9008950E94ED170E94F5
:103A9000961C80E00895AF92BF92CF92DF92EF9292
:103AA000FF920F931F93DF93CF93CDB7DEB7CB5425
:103AB000D0400FB6F894DEBF0FBECDBF6C016CEEE8
:103AC00079E048E725EB35E001E0EE24FF240E9491
:103AD0006F15882309F4E5C08CEE99E00E940E066C
:103AE0005C018FEFA8168FEFB8060CF4DCC0809154
:103AF000300790E0A816B9060CF0D5C0C6016CEEF0
:103B000079E048E720EB35E00E946F158E01025CFA
:103B10001F4F882361F08CEE99E00E94F015C801D8
:103B20006CEE79E04CE050E00E94B90617C0C80185
:103B300067E071E00E946A069FEFA9169FEFB90641
:103B400021F48091300790E001C0C5010196BE01CB
:103B50006A5B7F4F4AE050E00E940007C6010E9466
:103B6000F015DA82C98286010C591F4F0EC0C701B9
:103B700060E371E043E050E00E94AB06009781F003
:103B80000894E11CF11CFA82E982E980FA80F701CD
:103B90008081882309F485C0E016F10640F381C0D6
:103BA00083E090E0E80EF91EFA82E9827E01089433
:103BB000E11CF11CC7010E9425198B83C7010E94DB
:103BC00025198C83C7010E9425198D8389819A81CB
:103BD00001969A838983C7010E9425199F838E834A
:103BE000C7010E94251999878887C7010E94251956
:103BF0009B878A87C7010E9425199D878C878981A9
:103C00009A8102969A83898310E02C96FFAEEEAEDD
:103C10002C972B96DFAC2B972C960FAD2C977EE034
:103C2000E72EF12CEC0EFD1E0BC08D2D902F0E9467
:103C300025190E945C28F701E10FF11D80831F5FA9
:103C40008091A309181788F389819A8102969A8333
:103C50008983CE010E9605C0FC01E10FF11D108293
:103C60001F5F1033C8F38B8182958370833039F4E2
:103C70008D81823020F0CE0104960E94AC2ABE01D4
:103C80006D5F7F4F9FEFA9169FEFB90621F4CB011F
:103C90000E94962C03C08A2D0E94822C882329F42E
:103CA00002C080E103C081E101C081E0C55BDF4F5C
:103CB0000FB6F894DEBF0FBECDBFCF91DF911F913D
:103CC0000F91FF90EF90DF90CF90BF90AF9008954D
:103CD000EF92FF920F936CEE79E048E729EB35E025
:103CE00001E0EE24FF240E946F15882311F480E187
:103CF00014C08CEE99E00E940E069C01181619065D
:103D00005CF48091300790E0281739072CF4822F5B
:103D10000E943B2A81E001C081E10F91FF90EF906A
:103D20000895EF92FF920F936CEE79E048E72DEB48
:103D300035E001E0EE24FF240E946F15882311F482
:103D400080E118C08CEE99E00E940E069C018FEF76
:103D50002F3F380719F40E942B2A0BC0809130079F
:103D600090E02817390714F081E104C0822F0E94E7
:103D7000172C81E00F91FF90EF900895BF92CF92A2
:103D8000DF92EF92FF920F931F93DF93CF9300D0B8
:103D9000CDB7DEB78C010E94F0151A83098384E643
:103DA000E82EF12CE00EF11E0DC0C80164E371E0B5
:103DB00043E050E00E94AB06009779F00F5F1F4F81
:103DC0001A83098309811A81F8018081882309F403
:103DD0004EC00E151F0548F34AC00D5F1F4F1A83D2
:103DE00009830E94CC0CFF24EE246E010894C11CB0
:103DF000D11CBEEFBB2E2FC0C6010E942519AC01FD
:103E0000009741F10F2D10E0EF2DE695E695E69530
:103E1000F0E0E454F64F808190E02F2D277002C02F
:103E2000959587952A95E2F780FD14C0CA010E94F6
:103E3000AE28F801EE0FFF1FEE0FFF1FEF50F84FF7
:103E400060837183828393830F54174FF801B0828C
:103E5000EE24E394F3948091A309F81668F2EE201F
:103E600031F00E94BA4B0E94D30C81E001C080E186
:103E70000F900F90CF91DF911F910F91FF90EF90D6
:103E8000DF90CF90BF9008958F929F92AF92BF9294
:103E9000CF92DF92EF92FF920F931F93DF93CF9316
:103EA00000D000D0CDB7DEB76C0183E789831A82DA
:103EB0001B821C8210E092E0892E912C8C0E9D1E9C
:103EC0005E010894A11CB11C1DC0812F90E0B401BB
:103ED0004AE050E00E940007C6016CEE79E048E736
:103EE000950100E0EE24FF240E946F15882349F01D
:103EF0008CEE99E00E94F015812F6CEE79E00E9423
:103F000043461F5F8091A3091817F8F2C6016DE6BA
:103F10004AEA59E00E94551984EA97E06AEA79E092
:103F20000E943C46C60169E640EB59E00E945519E3
:103F30008AEA97E060EB79E00E943C46C6016EE6B3
:103F400046EB59E00E94551980EB97E066EB79E06B
:103F50000E943C46C60164E64CEB59E00E945519AC
:103F600086EB97E06CEB79E00E943C460E945D474F
:103F7000C60161E748EC59E00E9455198CEB97E0C7
:103F800068EC79E00E943C4681E00F900F900F9022
:103F90000F90CF91DF911F910F91FF90EF90DF90E5
:103FA000CF90BF90AF909F908F900895EF92FF9227
:103FB0000F939C0180917F028823B1F4C9016CEEBC
:103FC00079E048E720E236E001E0EE24FF240E9499
:103FD0006F15882351F08CEE99E00E94F0158CEE5D
:103FE00099E00E94F740811181E00F91FF90EF90DE
:103FF0000895882371F080911A0790911B072091F2
:10400000180730911907821B930B61E10E947A2EE9
:10401000089580911A0790911B07209118073091FD
:104020001907821B930B60E10E947A2E10921707EA
:10403000109216078FEB93E090931907809318075F
:1040400090931B0780931A070895EF92FF920F93A6
:104050001F93CF93DF93EC010E94FD2E1092170760
:10406000109216078FEB93E090931907809318072F
:1040700090931B0780931A07BE016B5F7F4FAD8142
:10408000A03211F0FE0104C0CB010E948918E7C0E4
:104090008581882359F0803249F08A3039F08F3396
:1040A00029F031968F32A1F752E1ADC050E0ABC09C
:1040B000C52FD0E0FE01EE0FFF1FEE0FFF1FE457EC
:1040C000FE4F0190F081E02D849190E08E159F05C8
:1040D00009F0CFC03196849190E0F8014081242FFF
:1040E000332727FD30958217930709F0C2C0A33705
:1040F00071F4453709F040C0CC0FDD1FCC0FDD1F38
:10410000C257DE4FE881F981CB01039646C0AA363B
:1041100099F54F3689F58B010D5F1F4FC8010E943D
:10412000D61F882389F50E94ED178DB79EB7089793
:104130000FB6F8949EBF0FBE8DBFEDB7FEB7319698
:1041400084E197E0ADB7BEB712969C938E9311971A
:104150008CE891E0938382838091ED019091EE0150
:10416000958384838091E901868317820E940040B1
:10417000EDB7FEB738966EC08B010D5F1F4FC801BB
:104180000E94D61F882339F1CC0FDD1FCC0FDD1F15
:10419000C257DE4FE881F981C8010995182F88239D
:1041A00009F45DC08F3FC1F40E94571800D000D0C1
:1041B00000D0EDB7FEB7319684E197E0ADB7BEB75A
:1041C00012969C938E93119789E891E09383828352
:1041D00086E491E038C012E00E94251800D000D09B
:1041E00000D0EDB7FEB7319684E197E0ADB7BEB72A
:1041F00012969C938E9311978BE791E09383828321
:104200001483158222C0EA2EFF24E7FCF0948B0170
:104210000F5F1F4F523109F04BCF0E94251800D07D
:1042200000D000D0EDB7FEB7319684E197E0ADB78E
:10423000BEB712969C938E9311978DE691E093836F
:10424000828380E290E0958384830E940040EDB7F2
:10425000FEB736960FB6F894FEBF0FBEEDBF81E0F5
:104260000E94F91FDF91CF911F910F91FF90EF9066
:1042700008955F5FCFCF2F923F924F925F926F92E0
:104280007F928F929F92AF92BF92CF92DF92EF92E6
:10429000FF920F931F93DF93CF93CDB7DEB7A39712
:1042A0000FB6F894DEBF0FBECDBF4C0180919909C7
:1042B00085FD02C080E267C1C4016CEE79E048E789
:1042C00023EB31E001E0EE24FF240E946F158823E8
:1042D000B9F08CEE99E00E940E067C0121E08E364A
:1042E000920708F04DC10E94BA4B20E831E541E049
:1042F00050E00E946C6D59016901CE18DF083EC084
:10430000C4016CEE79E048E72DEA31E001E0EE24EB
:10431000FF240E946F15882309F434C18CEE99E0C4
:104320000E942C065B016C01C4016CEE79E048E749
:1043300029EA31E00E946F15882309F423C1C601E0
:10434000B50120E831E541E050E00E948E6D690141
:104350008CEE99E00E942C0620E831E541E050E027
:104360000E948E6D59012C153D0508F409C1C90143
:104370008C199D098E56914008F002C119821A824B
:104380001B821C82C4012E010894411C511CB201E5
:1043900044E024EA31E001E0EE24FF240E946F159E
:1043A0008BA30E94251800D000D004E117E0ADB720
:1043B000BEB712961C930E93119782EA91E0149661
:1043C0009C938E9313970E9400407601DD24D39432
:1043D0000F900F900F900F907CEE672E79E0772E64
:1043E00069E0862E912C8C0E9D1EC02E012F5FE958
:1043F000252E51E0352EA6C0C7016CEE79E04AE0CB
:1044000050E00E9400078CEE99E00E94DB0A8BEDE1
:1044100096E06CEE79E00E942862882309F48FC050
:1044200019861B8618861F82E3E5F3E0FE83ED8381
:10443000C4016CEE79E041E00E94766001C0DD24A9
:10444000C4016CEE79E048E750E020E030E00E94E3
:104450007D5B1816190624F0C4010E9465586FC0D0
:10446000FC01E551F64F80818A3009F41082FBA1EE
:10447000FF2351F0C20160EF79E042E050E00E947A
:10448000AB060097E9F60AC088E391E060EF79E0B7
:1044900042E050E00E94AB06009791F2DD20E1F08F
:1044A00000D000D000D0EDB7FEB73196ADB7BEB7A3
:1044B0001196CC92119712960C93338222827582B8
:1044C00064820E940040EDB7FEB736960FB6F894AE
:1044D000FEBF0FBEEDBF1DC000D000D000D0EDB7B5
:1044E000FEB73196ADB7BEB71196CC921197129622
:1044F0000C932BE931E033832283758264820E941E
:1045000000408DB79EB706960FB6F8949EBF0FBEBB
:104510008DBF80911A0790911B0720911807309149
:104520001907821B930BA2E5B3E0A81BB90BA035BA
:10453000B1050CF084CF80E00E94F91F80CF089471
:10454000E11CF11CAE14BF0408F056CF00D000D01F
:1045500084E197E0EDB7FEB79283818389E991E02A
:10456000948383830E9400400F900F900F900F90D0
:1045700061E070E080E090E00E948D4E80E003C03A
:1045800081E101C080E1A3960FB6F894DEBF0FBEB3
:10459000CDBFCF91DF911F910F91FF90EF90DF90F2
:1045A000CF90BF90AF909F908F907F906F905F90D3
:1045B0004F903F902F900895EF92FF920F931F938B
:1045C000CF93DF93EC016CEE79E048E727E032E02F
:1045D00001E0EE24FF240E946F15882311F00E9451
:1045E000B009CE016CEE79E048E723E032E001E06B
:1045F000EE24FF240E946F15882371F08CEE99E061
:104600000E940E06181619063CF40E94571881E005
:104610000E94F91F0E94F140CE016CEE79E048E75C
:1046200020E032E001E0EE24FF240E946F15882391
:1046300099F08091EC09813339F48091990980FDDA
:104640000BC00E940E4608C0803331F48091990956
:1046500080FF02C00E940446CE016CEE79E048E77C
:104660002DEF31E001E0EE24FF240E946F15882336
:1046700061F18CEE99E00E940E06EC011816190605
:10468000F4F40E94BA4B7B018C01BE01882777FDB0
:104690008095982F20E13EE040E050E00E941A6DA6
:1046A000E60EF71E081F191FE0929509F092960971
:1046B00000939709109398090E94344606C000970A
:1046C00011F081E103C00E94244681E0DF91CF9187
:1046D0001F910F91FF90EF9008954F925F926F920C
:1046E0007F928F929F92AF92BF92CF92DF92EF9282
:1046F000FF920F931F93DF93CF930F92CDB7DEB747
:104700000E94BA4B6B017C012DB73EB7225330405B
:104710000FB6F8943EBF0FBE2DBFEDB7FEB7319672
:1047200004E117E0ADB7BEB712961C930E93119734
:104730008AE293E093838283C482D582E682F78201
:104740008091A20980871186809199098170828762
:10475000138680919909869581708487158680914A
:104760009909869586958170868717868091950927
:1047700090919609A0919709B0919809808B918B9F
:10478000A28BB38B84E194E0958B848B84E894E0D6
:10479000978B868B8091910990919209918F808F50
:1047A0008091930990919409938F828F8091E7096A
:1047B0009091E809A091E909B091EA09848F958F59
:1047C000A68FB78F8091DB099091DC09A091DD095C
:1047D000B091DE0980A391A3A2A3B3A38091DF09C6
:1047E0009091E009A091E109B091E20984A395A319
:1047F000A6A3B7A38091E10880A711A68091E20843
:1048000082A713A68091E3089091E40895A784A756
:104810008091E5089091E608A091E708B091E8083A
:1048200086A797A7A0ABB1AB0E94004090E0EDB780
:10483000FEB7F2960FB6F894FEBF0FBEEDBF58015B
:1048400006E213E023C000D000D000D0EDB7FEB7E1
:104850003196ADB7BEB71196AC9211971296BC9235
:1048600013830283A92FB0E0AC55B64F8C9184839B
:10487000158299830E94004099819F5FEDB7FEB732
:1048800036960FB6F894FEBF0FBEEDBF8091A20919
:1048900024E1822E27E0922E9817A8F200D000D0B3
:1048A000ADB7BEB712969C928E9211978CE193E0B1
:1048B00014969C938E9313970E94004000E00F90F3
:1048C0000F900F900F90C401B82C192F91E1692E11
:1048D00093E0792E82E5882E83E0982E98C0402EB2
:1048E0005524F201EF54F74F6081662329F480E0EC
:1048F00090E0A0E0B0E025C0C201880F991F880FAA
:10490000991FFC01EF5CF84F208131814281538176
:10491000FC01EF50F84FC216D306E406F50648F046
:1049200080819181A281B3818C199D09AE09BF0953
:1049300008C080819181A281B381821B930BA40B5B
:10494000B50BEDB7FEB73E970FB6F894FEBF0FBE9E
:10495000EDBF2DB73EB72F5F3F4FB1821283F901F4
:10496000738262826483158286839783A087B1876E
:10497000F201EE0FFF1FEE0FFF1FEF5CF84F80817B
:104980009181A281B381F90182879387A487B5873A
:104990000E9400408091A30990E001972DB73EB797
:1049A000225F3F4F0FB6F8943EBF0FBE2DBF481693
:1049B00059061CF08DE093E002C08FE093E000D038
:1049C00000D0ADB7BEB71196BC92119712961C934A
:1049D000129714969C938E9313970E940040809197
:1049E0001A0790911B072091180730911907821B15
:1049F000930BF401E81BF90B0F900F900F900F90A1
:104A0000E035F1051CF480E00E94F91F0F5F8091F2
:104A1000A309081708F463CF0CEE19E080E398E0CF
:104A2000B80148E750E00E9425298823F1F000D022
:104A300000D000D0EDB7FEB7319684E197E0ADB776
:104A4000BEB712969C938E93119781E093E0938367
:104A50008283158304830E940040EDB7FEB736962B
:104A60000FB6F894FEBF0FBEEDBF00D000D084E1BA
:104A700097E0ADB7BEB712969C938E9311978FEFC8
:104A800092E014969C938E9313970E9400400F908F
:104A90000F900F900F9061E070E080E090E00E9436
:104AA0008D4E0F90CF91DF911F910F91FF90EF905E
:104AB000DF90CF90BF90AF909F908F907F906F903E
:104AC0005F904F9008950E94ED170E946D2380E043
:104AD00008952F923F924F925F926F927F928F92A2
:104AE0009F92AF92BF92CF92DF92EF92FF920F937D
:104AF0001F93DF93CF93CDB7DEB7C754D0400FB627
:104B0000F894DEBF0FBECDBF0E94ED172DB73EB7A4
:104B10002E5030400FB6F8943EBF0FBE2DBFEDB7FC
:104B2000FEB7319604E117E0ADB7BEB712961C93FD
:104B30000E93119788E495E09383828380913007E8
:104B4000848315828091A209868317828EE090E08B
:104B50009187808784E090E0938782878CE090E063
:104B6000958784870E940040EE24EDB7FEB73E96FD
:104B70000FB6F894FEBF0FBEEDBFF02E012F78E305
:104B8000C72E75E0D72E6CE0862E912C8C0E9D1EC4
:104B9000AF2CB12E5EE1252E55E0352E41E2442E9C
:104BA00045E0542E32E5632E33E0732E4AC18E2D3C
:104BB000BE016F5F7F4F0E94032C898182958370B5
:104BC000833039F48B81823020F0CE0102960E942E
:104BD000D62A2DB73EB72A5030400FB6F8943EBFC4
:104BE0000FBE2DBFEDB7FEB73196ADB7BEB711966C
:104BF000FC92119712960C932CE335E033832283B9
:104C00008981848315828A81868317828B8180873C
:104C100011860E9400400F900F900F900F90EDB7FB
:104C2000FEB73196ADB7BEB71196FC9211971296AA
:104C30000C93D382C2828C819D81958384830E9450
:104C40000040EDB7FEB73196ADB7BEB71196FC92F6
:104C5000119712960C93D382C2828E819F81958385
:104C600084830E940040EDB7FEB73196ADB7BEB762
:104C70001196FC92119712960C93D382C28288856A
:104C80009985958384830E940040EDB7FEB73196E5
:104C9000ADB7BEB71196FC92119712960C9322E312
:104CA00035E0338322838A859B85958384830E94A4
:104CB000004010E04DB75EB74A5F5F4F26C0E80D79
:104CC000F91D80810E948128ADB7BEB718970FB635
:104CD000F894BEBF0FBEADBFEDB7FEB731961196CB
:104CE000FC92119712960C932EE235E033832283C7
:104CF000A0E0B0E084839583A683B7830E94004040
:104D00001F5F4DB75EB7485F5F4F0FB6F8945EBF49
:104D10000FBE4DBFE12FF0E08091A30990E0019715
:104D2000E817F90764F2E80DF91D80810E948128D7
:104D3000ADB7BEB718970FB6F894BEBF0FBEADBFE4
:104D4000EDB7FEB731961196AC9211971296BC92C0
:104D500028E235E033832283A0E0B0E084839583AA
:104D6000A683B7830E9400404DB75EB7485F5F4F90
:104D70000FB6F8945EBF0FBE4DBF8CEE99E0BE013A
:104D8000645C7F4F4CE050E00E94B9061092F80935
:104D900000D000D000D0EDB7FEB73196ADB7BEB7AA
:104DA0001196AC9211971296BC9225E235E03383AE
:104DB00022834CEE59E0558344830E9400402E2DFF
:104DC00030E08091300790E00197ADB7BEB71696FE
:104DD0000FB6F894BEBF0FBEADBF2817390749F014
:104DE00000D000D0EDB7FEB7F18202835482438237
:104DF0000EC000D000D0ADB7BEB71196FC9211978F
:104E000012960C93129714963C922E9213970E942E
:104E100000400F900F900F900F9080911A07909183
:104E20001B072091180730911907821B930BF30180
:104E3000E81BF90BEA3FF1051CF480E00E94F91F22
:104E4000E39480913007E81608F4B1CE00D000D08A
:104E500084E197E0ADB7BEB712969C938E931197FD
:104E60008BE195E014969C938E9313970E940040DB
:104E70000F900F900F900F9061E070E080E090E055
:104E80000E948D4E80E0C95BDF4F0FB6F894DEBF05
:104E90000FBECDBFCF91DF911F910F91FF90EF908B
:104EA000DF90CF90BF90AF909F908F907F906F904A
:104EB0005F904F903F902F9008958F929F92AF9266
:104EC000BF92CF92DF92EF92FF920F931F93CF93F7
:104ED000DF938BE096E06AEA79E00E9454178FEF47
:104EE00095E060EB79E00E94541788EF95E066EB5F
:104EF00079E00E94541780EF95E06CEB79E00E9416
:104F000054178AEE95E062EC79E00E94541782EE25
:104F100095E068EC79E00E94541700D000D004E1DD
:104F200017E0ADB7BEB712961C930E93119787ED9D
:104F300095E014969C938E9313970E940040FF2453
:104F40000F900F900F900F90E02E012FACEE8A2E55
:104F5000A9E09A2EF2EDAF2EF5E0BF2EE0EDCE2EB9
:104F6000E5E0DE2EC2E5D3E051C08F2D6CEE79E096
:104F70000E94A84600D000D000D0EDB7FEB7319611
:104F8000ADB7BEB71196EC92119712960C93B382FF
:104F9000A282958284820E9400402F2D30E0809171
:104FA000A30990E00197EDB7FEB736960FB6F894D7
:104FB000FEBF0FBEEDBF28173907A1F000D000D00B
:104FC000ADB7BEB71196EC92119712960C9312974B
:104FD0001496DC92CE9213970E9400400F900F908F
:104FE0000F900F9080911A0790911B07209118073E
:104FF00030911907821B930BFE01E81BF90BE0357A
:10500000F1051CF480E00E94F91FF3948091A3093C
:10501000F81608F4AACF00D000D000D0EDB7FEB744
:10502000319684E197E0ADB7BEB712969C938E930C
:10503000119781EC95E09383828380E190E09583E2
:1050400084830E940040EDB7FEB736960FB6F89401
:10505000FEBF0FBEEDBF61E070E080E090E00E9417
:105060008D4EDF91CF911F910F91FF90EF90DF90C8
:10507000CF90BF90AF909F908F9008950E94ED17B2
:105080000E945D2780E00895FC01CB01F999FECFD5
:1050900092BD81BDF89A30B52081332349F0222397
:1050A00039F00196321711F081E008953196EECF74
:1050B00080E0321381E008958C33910510F4682F5D
:1050C0001EC02AE28033920730F46CE370E00E9445
:1050D000456D655C14C021EE8130920730F460E1CB
:1050E0007EE00E94456D64510AC02FEF8E3F92070B
:1050F00029F08F5F9F4F11F46FEF01C06EEF862F85
:105100000895282F30E08C3338F18F3E68F48CE31B
:1051100090E0A901489F9001499F300D589F300DA4
:105120001124245D3D4018C08D3F68F480E19EE06D
:10513000A901489F9001499F300D589F300D1124BF
:10514000205C364F09C08E3F29F08F3F19F42FEFB6
:105150003FEF02C02EEF3FEFC90108952FEF8E3FC2
:10516000920749F4609193097091940920919109F3
:10517000309192090EC02FEF8F3F9207B9F46091E2
:1051800091097091920960567A4F2091930930915C
:105190009409621B730B80E090E02CE330E040E068
:1051A00050E00E941A6D9B01AC0103C09C0140E0DD
:1051B00050E0B901CA010895CF93DF93EC01D7FF06
:1051C00004C0882799278C1B9D0B0E945C28982F70
:1051D000D7FD02C0805802C080E8891BDF91CF91C3
:1051E00008951F93182F90E08058904097FF03C0B8
:1051F000909581959F4F0E9481289C0117FD03C0C7
:10520000309521953F4FC9011F910895BC018091B0
:10521000990985FF19C088E59AE00E946A068BED1E
:1052200096E06BE371E040E00E942C628BED96E02B
:1052300068E57AE00E942862882331F08BED96E0E1
:1052400068E57AE00E9405620895CF92DF92EF92BE
:10525000FF920F931F93DF93CF93CDB7DEB76E9777
:105260000FB6F894DEBF0FBECDBF9C018B016A0163
:105270008091990985FD04C0FB01108280E035C052
:1052800088E59AE0B9010E946A068BED96E06BE32F
:1052900071E040E00E942C621D821F821C821B82F2
:1052A00083E593E09A83898385E0E82EF12CEC0E68
:1052B000FD1EC70168E57AE041E00E947660882320
:1052C00019F4F801108210C0C701B801A60120E04E
:1052D00030E00E947D5B0C0D1D1D01501040F80157
:1052E0001082C7010E94655881E06E960FB6F8944F
:1052F000DEBF0FBECDBFCF91DF911F910F91FF9009
:10530000EF90DF90CF900895EF92FF920F931F934D
:10531000DF93CF93CDB7DEB76E970FB6F894DEBFAD
:105320000FBECDBF9C017B018091990985FF27C0ED
:1053300088E59AE0B9010E946A068BED96E06BE37E
:1053400071E040E00E942C621D821F821C821B8241
:1053500083E593E09A8389838E010B5F1F4FC80119
:1053600068E57AE042E50E947660882341F0CE014C
:105370000196B7010E94CD62C8010E9465586E96E1
:105380000FB6F894DEBF0FBECDBFCF91DF911F9156
:105390000F91FF90EF9008959C01F999FECF32BDD7
:1053A00021BDF89A80B508959C01F999FECF1FBAE6
:1053B00032BD21BD60BD0FB6F894FA9AF99A0FBEBE
:1053C0000895A1EBB8E080E090E0FC01EF5CF84FBD
:1053D0001082118212821382FC01EF50F84F10826A
:1053E0001182128213821D920496803C910569F706
:1053F0001092E9081092EA081092EB081092EC085B
:10540000F999FECF89E090E092BD81BDF89A80B510
:10541000809330070895A1EBB8E080E090E0FC01B4
:10542000EF5CF84F1082118212821382FC01EF5060
:10543000F84F10821182128213821D920496803CD2
:10544000910569F71092E9081092EA081092EB08AA
:105450001092EC08089510923007F999FECF1FBA08
:1054600089E090E092BD81BD10BC0FB6F894FA9A25
:10547000F99A0FBE0895982F80913007981708F079
:1054800041C0992309F43EC0892F90E0019727E499
:1054900030E0AC01429FC001439F900D529F900DA0
:1054A00011249C01265F3F4F8F5A9F4F24C0F999CA
:1054B000FECF32BD21BDF89A50B5F999FECF72BD2D
:1054C00061BDF89A40B5F999FECF1FBA32BD21BD32
:1054D00040BD0FB6F894FA9AF99A0FBEF999FECF2B
:1054E0001FBA72BD61BD50BD0FB6F894FA9AF99A11
:1054F0000FBE2F5F3F4FB901695B7F4F28173907F8
:1055000009F0D5CF089577FF03C06FEF7FEF22C07A
:10551000CB01977074FF03C0909581959F4F76FFE4
:105520000BC06091910970919209680F791F77FF04
:1055300011C060E070E00EC075FF0CC0609193096F
:1055400070919409680F791F85E0603A780714F02C
:105550006FE975E0CB010895BF92CF92DF92EF9291
:10556000FF920F931F936C01FC01B080E1800E94B9
:10557000BA4B20E831E541E050E00E946C6D2B0D04
:10558000311D411D511DFF2400E010E0CA01B90189
:10559000A80197010E946C6DF60160831F910F9125
:1055A000FF90EF90DF90CF90BF9008958F929F92E1
:1055B000AF92BF92CF92DF92EF92FF920F931F9321
:1055C0004C01FC01A180E080FF24EA0CF11C0027C3
:1055D000F7FC0095102F0E94BA4BBB24CC24DD248D
:1055E00020E831E541E050E00E946C6DCA01B9014C
:1055F000A60195010E946C6DE61AF70A080B190BBB
:10560000C801B701A60195010E946C6DF401608389
:105610001F910F91FF90EF90DF90CF90BF90AF90D0
:105620009F908F9008957F928F929F92AF92BF929A
:10563000CF92DF92EF92FF920F931F93CF93DF935E
:105640006C017A018B01CB01BA010E94EA3D4C0149
:10565000C801B7010E94E43DEC01C801B7010E94F6
:10566000D83DA82EC801B7010E94DE3DB82EC80162
:10567000B7010E94D23D782ED6018C9180FFB4C034
:105680008295837090E082309105B9F08330910566
:1056900009F1892BE1F5F601218130E08A2D90E0B6
:1056A000059667E070E00E94596D02C03595279518
:1056B0008A95E2F720FD2BC097C02B2D30E0D60154
:1056C00011968C9190E08F7190702817390709F02E
:1056D0008BC01DC0C801B70120E831E541E050E0B2
:1056E0000E946C6DCA01B901F601228130E040E0F0
:1056F00050E00E946C6DD60111962C9130E040E094
:1057000050E0621773078407950709F06DC0F60132
:105710008081869586958370A1F0823019F4B0FE61
:1057200010C062C0813069F4FFE1BF1609F45CC0AB
:105730008DE1B81621F492E0791609F455C0B0FE57
:1057400053C08CE390E0889E8001899E100D989E46
:10575000100D11240C0F1D1FD6018C9186FD30C039
:1057600013966D917C911497C6010E94832AF601CD
:10577000C581D6810780F085E02D9C0108171907A7
:1057800098F1209729F480E00217130771F526C0DD
:10579000309751F1C801821B930B9C01BF010E94FD
:1057A000456D6E9FC0016F9F900D7E9F900D1124DF
:1057B00082179307C9F480E0C617D707B4F00EC06C
:1057C000E60188E0E82EF12CEC0CFD1C6B817C815D
:1057D000C6010E94832A0817190711F481E005C049
:1057E0002296CE15DF0591F780E0DF91CF911F91D2
:1057F0000F91FF90EF90DF90CF90BF90AF909F9070
:105800008F907F900895982F9B0180913007981773
:1058100068F467E4969FB0011124665F7F4FC90169
:1058200047E450E02CEC39E20E94C8060895DF926C
:10583000EF92FF920F931F93DF93CF93CDB7DEB715
:10584000C754D0400FB6F894DEBF0FBECDBF209135
:105850003007821708F046C0222309F443C090E0C5
:10586000019627E430E0829F8001839F100D929F74
:10587000100D1124065F1F4F97E4D92E7E01089466
:10588000E11CF11C14C0C701B80147E450E02CEC46
:1058900039E20E94C806C80187549040B70147E426
:1058A00050E024ED39E20E94E406095B1F4F20918D
:1058B00030072D9DC00111240A960817190718F307
:1058C000215020933007F999FECF1FBA89E090E06C
:1058D00092BD81BD20BD0FB6F894FA9AF99A0FBE19
:1058E00081E001C080E0C95BDF4F0FB6F894DEBFF6
:1058F0000FBECDBFCF91DF911F910F91FF90EF9021
:10590000DF900895982F80913007981710F080E06D
:10591000089587E4989FC00111240A9647E450E057
:1059200024ED39E20E94E40681E00895BC019091E3
:1059300030079E3010F080E0089587E4989FC00102
:1059400011240A9647E450E024ED39E20E94E4066F
:10595000209130072F5F20933007F999FECF1FBAAF
:1059600089E090E092BD81BD20BD0FB6F894FA9A0F
:10597000F99A0FBE81E00895DF92EF92FF920F93A4
:105980001F93CF93DF93D82E862FBA01213041F495
:10599000675F7F4F9B0140E050E0695070400EC050
:1059A000223029F020E030E040E050E007C06250B3
:1059B00070409B0140E050E06E5F7F4FE82EFF2477
:1059C00089E893E0E80EF91E8B01E7010FC0F8812A
:1059D000E0E0898190E08E2B9F2BA0E0B0E0280FC3
:1059E000391F4A1F5B1F22960250104002301105DA
:1059F00070F7CB018E7FD701A80FB91F6817790701
:105A000079F08C9190E0A0E0B0E0BA2FA92F982F08
:105A1000882702C040E050E0280F391F4A1F5B1F53
:105A2000CA01AA27BB270097A105B10599F7C901AB
:105A300080959095ED2DF0E0E757FC4F90838183A2
:105A4000DF91CF911F910F91FF90EF90DF9008951C
:105A50001092A1031092A20380E480939D03109200
:105A60009E0380939F0388E16EE044E150E020E0D4
:105A70000E94BC2C0895282F662321F08091AE034C
:105A80008617E1F48091AF038823C1F48091B003BD
:105A90008833A1F48091AC038B3781F4E22FF92F86
:105AA0008091DB0383838091DC0382838091DD031B
:105AB00081838091DE03808381E0089580E00895F2
:105AC0008091ED0886958095817008958091750983
:105AD000809590917109892B80937909809176093D
